{
	"contracts/helloep30.sol": {
		"MulitidArrayEP30": {
			"abi": [
				{
					"inputs": [],
					"name": "fixedArray",
					"outputs": [
						{
							"internalType": "uint256[2][3]",
							"name": "v",
							"type": "uint256[2][3]"
						}
					],
					"stateMutability": "pure",
					"type": "function"
				},
				{
					"inputs": [],
					"name": "normArray",
					"outputs": [
						{
							"internalType": "uint256[][]",
							"name": "",
							"type": "uint256[][]"
						}
					],
					"stateMutability": "pure",
					"type": "function"
				}
			],
			"devdoc": {
				"kind": "dev",
				"methods": {},
				"version": 1
			},
			"evm": {
				"assembly": "    /* \"contracts/helloep30.sol\":93:797  contract MulitidArrayEP30 {... */\n  mstore(0x40, 0x80)\n  callvalue\n  dup1\n  iszero\n  tag_1\n  jumpi\n  revert(0x00, 0x00)\ntag_1:\n  pop\n  dataSize(sub_0)\n  dup1\n  dataOffset(sub_0)\n  0x00\n  codecopy\n  0x00\n  return\nstop\n\nsub_0: assembly {\n        /* \"contracts/helloep30.sol\":93:797  contract MulitidArrayEP30 {... */\n      mstore(0x40, 0x80)\n      callvalue\n      dup1\n      iszero\n      tag_1\n      jumpi\n      revert(0x00, 0x00)\n    tag_1:\n      pop\n      jumpi(tag_2, lt(calldatasize, 0x04))\n      shr(0xe0, calldataload(0x00))\n      dup1\n      0x391e2457\n      eq\n      tag_3\n      jumpi\n      dup1\n      0xcca3d1a2\n      eq\n      tag_4\n      jumpi\n    tag_2:\n      revert(0x00, 0x00)\n        /* \"contracts/helloep30.sol\":603:792  function fixedArray() external pure  returns ( uint[2][3] memory v) {... */\n    tag_3:\n      tag_5\n      tag_6\n      jump\t// in\n    tag_5:\n      mload(0x40)\n      tag_7\n      swap2\n      swap1\n      tag_8\n      jump\t// in\n    tag_7:\n      mload(0x40)\n      dup1\n      swap2\n      sub\n      swap1\n      return\n        /* \"contracts/helloep30.sol\":128:442  function normArray() external pure  returns (uint[][] memory){... */\n    tag_4:\n      tag_9\n      tag_10\n      jump\t// in\n    tag_9:\n      mload(0x40)\n      tag_11\n      swap2\n      swap1\n      tag_12\n      jump\t// in\n    tag_11:\n      mload(0x40)\n      dup1\n      swap2\n      sub\n      swap1\n      return\n        /* \"contracts/helloep30.sol\":603:792  function fixedArray() external pure  returns ( uint[2][3] memory v) {... */\n    tag_6:\n        /* \"contracts/helloep30.sol\":650:669  uint[2][3] memory v */\n      tag_13\n      tag_14\n      jump\t// in\n    tag_13:\n        /* \"contracts/helloep30.sol\":695:701  uint n */\n      0x00\n        /* \"contracts/helloep30.sol\":690:785  for (uint n;n<v.length;n++){... */\n    tag_16:\n        /* \"contracts/helloep30.sol\":704:712  v.length */\n      0x03\n        /* \"contracts/helloep30.sol\":702:703  n */\n      dup2\n        /* \"contracts/helloep30.sol\":702:712  n<v.length */\n      lt\n        /* \"contracts/helloep30.sol\":690:785  for (uint n;n<v.length;n++){... */\n      iszero\n      tag_17\n      jumpi\n        /* \"contracts/helloep30.sol\":744:745  n */\n      dup1\n        /* \"contracts/helloep30.sol\":740:743  100 */\n      0x64\n        /* \"contracts/helloep30.sol\":740:745  100+n */\n      tag_19\n      swap2\n      swap1\n      tag_20\n      jump\t// in\n    tag_19:\n        /* \"contracts/helloep30.sol\":732:733  v */\n      dup3\n        /* \"contracts/helloep30.sol\":734:735  n */\n      dup3\n        /* \"contracts/helloep30.sol\":732:736  v[n] */\n      0x03\n      dup2\n      lt\n      tag_21\n      jumpi\n      tag_22\n      tag_23\n      jump\t// in\n    tag_22:\n    tag_21:\n      0x20\n      mul\n      add\n      mload\n        /* \"contracts/helloep30.sol\":737:738  0 */\n      0x00\n        /* \"contracts/helloep30.sol\":732:739  v[n][0] */\n      0x02\n      dup2\n      lt\n      tag_24\n      jumpi\n      tag_25\n      tag_23\n      jump\t// in\n    tag_25:\n    tag_24:\n      0x20\n      mul\n      add\n        /* \"contracts/helloep30.sol\":732:745  v[n][0]=100+n */\n      dup2\n      dup2\n      mstore\n      pop\n      pop\n        /* \"contracts/helloep30.sol\":772:773  n */\n      dup1\n        /* \"contracts/helloep30.sol\":768:771  200 */\n      0xc8\n        /* \"contracts/helloep30.sol\":768:773  200+n */\n      tag_26\n      swap2\n      swap1\n      tag_20\n      jump\t// in\n    tag_26:\n        /* \"contracts/helloep30.sol\":760:761  v */\n      dup3\n        /* \"contracts/helloep30.sol\":762:763  n */\n      dup3\n        /* \"contracts/helloep30.sol\":760:764  v[n] */\n      0x03\n      dup2\n      lt\n      tag_27\n      jumpi\n      tag_28\n      tag_23\n      jump\t// in\n    tag_28:\n    tag_27:\n      0x20\n      mul\n      add\n      mload\n        /* \"contracts/helloep30.sol\":765:766  1 */\n      0x01\n        /* \"contracts/helloep30.sol\":760:767  v[n][1] */\n      0x02\n      dup2\n      lt\n      tag_29\n      jumpi\n      tag_30\n      tag_23\n      jump\t// in\n    tag_30:\n    tag_29:\n      0x20\n      mul\n      add\n        /* \"contracts/helloep30.sol\":760:773  v[n][1]=200+n */\n      dup2\n      dup2\n      mstore\n      pop\n      pop\n        /* \"contracts/helloep30.sol\":713:716  n++ */\n      dup1\n      dup1\n      0x01\n      add\n      swap2\n      pop\n      pop\n        /* \"contracts/helloep30.sol\":690:785  for (uint n;n<v.length;n++){... */\n      jump(tag_16)\n    tag_17:\n      pop\n        /* \"contracts/helloep30.sol\":603:792  function fixedArray() external pure  returns ( uint[2][3] memory v) {... */\n      swap1\n      jump\t// out\n        /* \"contracts/helloep30.sol\":128:442  function normArray() external pure  returns (uint[][] memory){... */\n    tag_10:\n        /* \"contracts/helloep30.sol\":173:188  uint[][] memory */\n      0x60\n        /* \"contracts/helloep30.sol\":200:219  uint[][] memory ids */\n      0x00\n        /* \"contracts/helloep30.sol\":235:236  3 */\n      0x03\n        /* \"contracts/helloep30.sol\":222:237  new uint[][](3) */\n      0xffffffffffffffff\n      dup2\n      gt\n      iszero\n      tag_32\n      jumpi\n      tag_33\n      tag_34\n      jump\t// in\n    tag_33:\n    tag_32:\n      mload(0x40)\n      swap1\n      dup1\n      dup3\n      mstore\n      dup1\n      0x20\n      mul\n      0x20\n      add\n      dup3\n      add\n      0x40\n      mstore\n      dup1\n      iszero\n      tag_35\n      jumpi\n      dup2\n      0x20\n      add\n    tag_36:\n      0x60\n      dup2\n      mstore\n      0x20\n      add\n      swap1\n      0x01\n      swap1\n      sub\n      swap1\n      dup2\n      tag_36\n      jumpi\n      swap1\n      pop\n    tag_35:\n      pop\n        /* \"contracts/helloep30.sol\":200:237  uint[][] memory ids = new uint[][](3) */\n      swap1\n      pop\n        /* \"contracts/helloep30.sol\":253:259  uint n */\n      0x00\n        /* \"contracts/helloep30.sol\":248:414  for (uint n;n<ids.length;n++){ ... */\n    tag_37:\n        /* \"contracts/helloep30.sol\":262:265  ids */\n      dup2\n        /* \"contracts/helloep30.sol\":262:272  ids.length */\n      mload\n        /* \"contracts/helloep30.sol\":260:261  n */\n      dup2\n        /* \"contracts/helloep30.sol\":260:272  n<ids.length */\n      lt\n        /* \"contracts/helloep30.sol\":248:414  for (uint n;n<ids.length;n++){ ... */\n      iszero\n      tag_38\n      jumpi\n        /* \"contracts/helloep30.sol\":313:314  3 */\n      0x03\n        /* \"contracts/helloep30.sol\":302:315  new uint[](3) */\n      0xffffffffffffffff\n      dup2\n      gt\n      iszero\n      tag_40\n      jumpi\n      tag_41\n      tag_34\n      jump\t// in\n    tag_41:\n    tag_40:\n      mload(0x40)\n      swap1\n      dup1\n      dup3\n      mstore\n      dup1\n      0x20\n      mul\n      0x20\n      add\n      dup3\n      add\n      0x40\n      mstore\n      dup1\n      iszero\n      tag_42\n      jumpi\n      dup2\n      0x20\n      add\n      0x20\n      dup3\n      mul\n      dup1\n      calldatasize\n      dup4\n      calldatacopy\n      dup1\n      dup3\n      add\n      swap2\n      pop\n      pop\n      swap1\n      pop\n    tag_42:\n      pop\n        /* \"contracts/helloep30.sol\":294:297  ids */\n      dup3\n        /* \"contracts/helloep30.sol\":298:299  n */\n      dup3\n        /* \"contracts/helloep30.sol\":294:300  ids[n] */\n      dup2\n      mload\n      dup2\n      lt\n      tag_43\n      jumpi\n      tag_44\n      tag_23\n      jump\t// in\n    tag_44:\n    tag_43:\n      0x20\n      mul\n      0x20\n      add\n      add\n        /* \"contracts/helloep30.sol\":294:315  ids[n]= new uint[](3) */\n      dup2\n      swap1\n      mstore\n      pop\n        /* \"contracts/helloep30.sol\":343:344  n */\n      dup1\n        /* \"contracts/helloep30.sol\":340:342  11 */\n      0x0b\n        /* \"contracts/helloep30.sol\":340:344  11+n */\n      tag_45\n      swap2\n      swap1\n      tag_20\n      jump\t// in\n    tag_45:\n        /* \"contracts/helloep30.sol\":330:333  ids */\n      dup3\n        /* \"contracts/helloep30.sol\":334:335  n */\n      dup3\n        /* \"contracts/helloep30.sol\":330:336  ids[n] */\n      dup2\n      mload\n      dup2\n      lt\n      tag_46\n      jumpi\n      tag_47\n      tag_23\n      jump\t// in\n    tag_47:\n    tag_46:\n      0x20\n      mul\n      0x20\n      add\n      add\n      mload\n        /* \"contracts/helloep30.sol\":337:338  0 */\n      0x00\n        /* \"contracts/helloep30.sol\":330:339  ids[n][0] */\n      dup2\n      mload\n      dup2\n      lt\n      tag_48\n      jumpi\n      tag_49\n      tag_23\n      jump\t// in\n    tag_49:\n    tag_48:\n      0x20\n      mul\n      0x20\n      add\n      add\n        /* \"contracts/helloep30.sol\":330:344  ids[n][0]=11+n */\n      dup2\n      dup2\n      mstore\n      pop\n      pop\n        /* \"contracts/helloep30.sol\":372:373  n */\n      dup1\n        /* \"contracts/helloep30.sol\":369:371  22 */\n      0x16\n        /* \"contracts/helloep30.sol\":369:373  22+n */\n      tag_50\n      swap2\n      swap1\n      tag_20\n      jump\t// in\n    tag_50:\n        /* \"contracts/helloep30.sol\":359:362  ids */\n      dup3\n        /* \"contracts/helloep30.sol\":363:364  n */\n      dup3\n        /* \"contracts/helloep30.sol\":359:365  ids[n] */\n      dup2\n      mload\n      dup2\n      lt\n      tag_51\n      jumpi\n      tag_52\n      tag_23\n      jump\t// in\n    tag_52:\n    tag_51:\n      0x20\n      mul\n      0x20\n      add\n      add\n      mload\n        /* \"contracts/helloep30.sol\":366:367  1 */\n      0x01\n        /* \"contracts/helloep30.sol\":359:368  ids[n][1] */\n      dup2\n      mload\n      dup2\n      lt\n      tag_53\n      jumpi\n      tag_54\n      tag_23\n      jump\t// in\n    tag_54:\n    tag_53:\n      0x20\n      mul\n      0x20\n      add\n      add\n        /* \"contracts/helloep30.sol\":359:373  ids[n][1]=22+n */\n      dup2\n      dup2\n      mstore\n      pop\n      pop\n        /* \"contracts/helloep30.sol\":401:402  n */\n      dup1\n        /* \"contracts/helloep30.sol\":398:400  33 */\n      0x21\n        /* \"contracts/helloep30.sol\":398:402  33+n */\n      tag_55\n      swap2\n      swap1\n      tag_20\n      jump\t// in\n    tag_55:\n        /* \"contracts/helloep30.sol\":388:391  ids */\n      dup3\n        /* \"contracts/helloep30.sol\":392:393  n */\n      dup3\n        /* \"contracts/helloep30.sol\":388:394  ids[n] */\n      dup2\n      mload\n      dup2\n      lt\n      tag_56\n      jumpi\n      tag_57\n      tag_23\n      jump\t// in\n    tag_57:\n    tag_56:\n      0x20\n      mul\n      0x20\n      add\n      add\n      mload\n        /* \"contracts/helloep30.sol\":395:396  2 */\n      0x02\n        /* \"contracts/helloep30.sol\":388:397  ids[n][2] */\n      dup2\n      mload\n      dup2\n      lt\n      tag_58\n      jumpi\n      tag_59\n      tag_23\n      jump\t// in\n    tag_59:\n    tag_58:\n      0x20\n      mul\n      0x20\n      add\n      add\n        /* \"contracts/helloep30.sol\":388:402  ids[n][2]=33+n */\n      dup2\n      dup2\n      mstore\n      pop\n      pop\n        /* \"contracts/helloep30.sol\":273:276  n++ */\n      dup1\n      dup1\n      0x01\n      add\n      swap2\n      pop\n      pop\n        /* \"contracts/helloep30.sol\":248:414  for (uint n;n<ids.length;n++){ ... */\n      jump(tag_37)\n    tag_38:\n      pop\n        /* \"contracts/helloep30.sol\":431:434  ids */\n      dup1\n        /* \"contracts/helloep30.sol\":424:434  return ids */\n      swap2\n      pop\n      pop\n        /* \"contracts/helloep30.sol\":128:442  function normArray() external pure  returns (uint[][] memory){... */\n      swap1\n      jump\t// out\n    tag_14:\n      mload(0x40)\n      dup1\n      0x60\n      add\n      0x40\n      mstore\n      dup1\n      0x03\n      swap1\n    tag_60:\n      tag_61\n      tag_62\n      jump\t// in\n    tag_61:\n      dup2\n      mstore\n      0x20\n      add\n      swap1\n      0x01\n      swap1\n      sub\n      swap1\n      dup2\n      tag_60\n      jumpi\n      swap1\n      pop\n      pop\n      swap1\n      jump\t// out\n    tag_62:\n      mload(0x40)\n      dup1\n      0x40\n      add\n      0x40\n      mstore\n      dup1\n      0x02\n      swap1\n      0x20\n      dup3\n      mul\n      dup1\n      calldatasize\n      dup4\n      calldatacopy\n      dup1\n      dup3\n      add\n      swap2\n      pop\n      pop\n      swap1\n      pop\n      pop\n      swap1\n      jump\t// out\n        /* \"#utility.yul\":7:134   */\n    tag_63:\n        /* \"#utility.yul\":95:101   */\n      0x00\n        /* \"#utility.yul\":123:127   */\n      0x03\n        /* \"#utility.yul\":113:127   */\n      swap1\n      pop\n        /* \"#utility.yul\":7:134   */\n      swap2\n      swap1\n      pop\n      jump\t// out\n        /* \"#utility.yul\":140:306   */\n    tag_64:\n        /* \"#utility.yul\":260:271   */\n      0x00\n        /* \"#utility.yul\":297:300   */\n      dup2\n        /* \"#utility.yul\":282:300   */\n      swap1\n      pop\n        /* \"#utility.yul\":140:306   */\n      swap3\n      swap2\n      pop\n      pop\n      jump\t// out\n        /* \"#utility.yul\":312:433   */\n    tag_65:\n        /* \"#utility.yul\":400:404   */\n      0x00\n        /* \"#utility.yul\":423:426   */\n      dup2\n        /* \"#utility.yul\":415:426   */\n      swap1\n      pop\n        /* \"#utility.yul\":312:433   */\n      swap2\n      swap1\n      pop\n      jump\t// out\n        /* \"#utility.yul\":439:543   */\n    tag_66:\n        /* \"#utility.yul\":504:510   */\n      0x00\n        /* \"#utility.yul\":532:536   */\n      0x02\n        /* \"#utility.yul\":522:536   */\n      swap1\n      pop\n        /* \"#utility.yul\":439:543   */\n      swap2\n      swap1\n      pop\n      jump\t// out\n        /* \"#utility.yul\":549:682   */\n    tag_67:\n        /* \"#utility.yul\":636:647   */\n      0x00\n        /* \"#utility.yul\":673:676   */\n      dup2\n        /* \"#utility.yul\":658:676   */\n      swap1\n      pop\n        /* \"#utility.yul\":549:682   */\n      swap3\n      swap2\n      pop\n      pop\n      jump\t// out\n        /* \"#utility.yul\":688:786   */\n    tag_68:\n        /* \"#utility.yul\":753:757   */\n      0x00\n        /* \"#utility.yul\":776:779   */\n      dup2\n        /* \"#utility.yul\":768:779   */\n      swap1\n      pop\n        /* \"#utility.yul\":688:786   */\n      swap2\n      swap1\n      pop\n      jump\t// out\n        /* \"#utility.yul\":792:869   */\n    tag_69:\n        /* \"#utility.yul\":829:836   */\n      0x00\n        /* \"#utility.yul\":858:863   */\n      dup2\n        /* \"#utility.yul\":847:863   */\n      swap1\n      pop\n        /* \"#utility.yul\":792:869   */\n      swap2\n      swap1\n      pop\n      jump\t// out\n        /* \"#utility.yul\":875:983   */\n    tag_70:\n        /* \"#utility.yul\":952:976   */\n      tag_98\n        /* \"#utility.yul\":970:975   */\n      dup2\n        /* \"#utility.yul\":952:976   */\n      tag_69\n      jump\t// in\n    tag_98:\n        /* \"#utility.yul\":947:950   */\n      dup3\n        /* \"#utility.yul\":940:977   */\n      mstore\n        /* \"#utility.yul\":875:983   */\n      pop\n      pop\n      jump\t// out\n        /* \"#utility.yul\":989:1168   */\n    tag_71:\n        /* \"#utility.yul\":1058:1068   */\n      0x00\n        /* \"#utility.yul\":1079:1125   */\n      tag_100\n        /* \"#utility.yul\":1121:1124   */\n      dup4\n        /* \"#utility.yul\":1113:1119   */\n      dup4\n        /* \"#utility.yul\":1079:1125   */\n      tag_70\n      jump\t// in\n    tag_100:\n        /* \"#utility.yul\":1157:1161   */\n      0x20\n        /* \"#utility.yul\":1152:1155   */\n      dup4\n        /* \"#utility.yul\":1148:1162   */\n      add\n        /* \"#utility.yul\":1134:1162   */\n      swap1\n      pop\n        /* \"#utility.yul\":989:1168   */\n      swap3\n      swap2\n      pop\n      pop\n      jump\t// out\n        /* \"#utility.yul\":1174:1285   */\n    tag_72:\n        /* \"#utility.yul\":1242:1246   */\n      0x00\n        /* \"#utility.yul\":1274:1278   */\n      0x20\n        /* \"#utility.yul\":1269:1272   */\n      dup3\n        /* \"#utility.yul\":1265:1279   */\n      add\n        /* \"#utility.yul\":1257:1279   */\n      swap1\n      pop\n        /* \"#utility.yul\":1174:1285   */\n      swap2\n      swap1\n      pop\n      jump\t// out\n        /* \"#utility.yul\":1323:1997   */\n    tag_73:\n        /* \"#utility.yul\":1449:1501   */\n      tag_103\n        /* \"#utility.yul\":1495:1500   */\n      dup2\n        /* \"#utility.yul\":1449:1501   */\n      tag_66\n      jump\t// in\n    tag_103:\n        /* \"#utility.yul\":1517:1591   */\n      tag_104\n        /* \"#utility.yul\":1584:1590   */\n      dup2\n        /* \"#utility.yul\":1579:1582   */\n      dup5\n        /* \"#utility.yul\":1517:1591   */\n      tag_67\n      jump\t// in\n    tag_104:\n        /* \"#utility.yul\":1510:1591   */\n      swap3\n      pop\n        /* \"#utility.yul\":1615:1669   */\n      tag_105\n        /* \"#utility.yul\":1663:1668   */\n      dup3\n        /* \"#utility.yul\":1615:1669   */\n      tag_68\n      jump\t// in\n    tag_105:\n        /* \"#utility.yul\":1692:1699   */\n      dup1\n        /* \"#utility.yul\":1723:1724   */\n      0x00\n        /* \"#utility.yul\":1708:1990   */\n    tag_106:\n        /* \"#utility.yul\":1733:1739   */\n      dup4\n        /* \"#utility.yul\":1730:1731   */\n      dup2\n        /* \"#utility.yul\":1727:1740   */\n      lt\n        /* \"#utility.yul\":1708:1990   */\n      iszero\n      tag_108\n      jumpi\n        /* \"#utility.yul\":1809:1815   */\n      dup2\n        /* \"#utility.yul\":1803:1816   */\n      mload\n        /* \"#utility.yul\":1836:1899   */\n      tag_109\n        /* \"#utility.yul\":1895:1898   */\n      dup8\n        /* \"#utility.yul\":1880:1893   */\n      dup3\n        /* \"#utility.yul\":1836:1899   */\n      tag_71\n      jump\t// in\n    tag_109:\n        /* \"#utility.yul\":1829:1899   */\n      swap7\n      pop\n        /* \"#utility.yul\":1922:1980   */\n      tag_110\n        /* \"#utility.yul\":1973:1979   */\n      dup4\n        /* \"#utility.yul\":1922:1980   */\n      tag_72\n      jump\t// in\n    tag_110:\n        /* \"#utility.yul\":1912:1980   */\n      swap3\n      pop\n        /* \"#utility.yul\":1768:1990   */\n      pop\n        /* \"#utility.yul\":1755:1756   */\n      0x01\n        /* \"#utility.yul\":1752:1753   */\n      dup2\n        /* \"#utility.yul\":1748:1757   */\n      add\n        /* \"#utility.yul\":1743:1757   */\n      swap1\n      pop\n        /* \"#utility.yul\":1708:1990   */\n      jump(tag_106)\n    tag_108:\n        /* \"#utility.yul\":1712:1726   */\n      pop\n        /* \"#utility.yul\":1425:1997   */\n      pop\n      pop\n      pop\n        /* \"#utility.yul\":1323:1997   */\n      pop\n      pop\n      jump\t// out\n        /* \"#utility.yul\":2003:2274   */\n    tag_74:\n        /* \"#utility.yul\":2118:2128   */\n      0x00\n        /* \"#utility.yul\":2139:2231   */\n      tag_112\n        /* \"#utility.yul\":2227:2230   */\n      dup4\n        /* \"#utility.yul\":2219:2225   */\n      dup4\n        /* \"#utility.yul\":2139:2231   */\n      tag_73\n      jump\t// in\n    tag_112:\n        /* \"#utility.yul\":2263:2267   */\n      0x40\n        /* \"#utility.yul\":2258:2261   */\n      dup4\n        /* \"#utility.yul\":2254:2268   */\n      add\n        /* \"#utility.yul\":2240:2268   */\n      swap1\n      pop\n        /* \"#utility.yul\":2003:2274   */\n      swap3\n      swap2\n      pop\n      pop\n      jump\t// out\n        /* \"#utility.yul\":2280:2414   */\n    tag_75:\n        /* \"#utility.yul\":2371:2375   */\n      0x00\n        /* \"#utility.yul\":2403:2407   */\n      0x20\n        /* \"#utility.yul\":2398:2401   */\n      dup3\n        /* \"#utility.yul\":2394:2408   */\n      add\n        /* \"#utility.yul\":2386:2408   */\n      swap1\n      pop\n        /* \"#utility.yul\":2280:2414   */\n      swap2\n      swap1\n      pop\n      jump\t// out\n        /* \"#utility.yul\":2458:3336   */\n    tag_76:\n        /* \"#utility.yul\":2640:2715   */\n      tag_115\n        /* \"#utility.yul\":2709:2714   */\n      dup2\n        /* \"#utility.yul\":2640:2715   */\n      tag_63\n      jump\t// in\n    tag_115:\n        /* \"#utility.yul\":2731:2838   */\n      tag_116\n        /* \"#utility.yul\":2831:2837   */\n      dup2\n        /* \"#utility.yul\":2826:2829   */\n      dup5\n        /* \"#utility.yul\":2731:2838   */\n      tag_64\n      jump\t// in\n    tag_116:\n        /* \"#utility.yul\":2724:2838   */\n      swap3\n      pop\n        /* \"#utility.yul\":2862:2939   */\n      tag_117\n        /* \"#utility.yul\":2933:2938   */\n      dup3\n        /* \"#utility.yul\":2862:2939   */\n      tag_65\n      jump\t// in\n    tag_117:\n        /* \"#utility.yul\":2962:2969   */\n      dup1\n        /* \"#utility.yul\":2993:2994   */\n      0x00\n        /* \"#utility.yul\":2978:3329   */\n    tag_118:\n        /* \"#utility.yul\":3003:3009   */\n      dup4\n        /* \"#utility.yul\":3000:3001   */\n      dup2\n        /* \"#utility.yul\":2997:3010   */\n      lt\n        /* \"#utility.yul\":2978:3329   */\n      iszero\n      tag_120\n      jumpi\n        /* \"#utility.yul\":3079:3085   */\n      dup2\n        /* \"#utility.yul\":3073:3086   */\n      mload\n        /* \"#utility.yul\":3106:3215   */\n      tag_121\n        /* \"#utility.yul\":3211:3214   */\n      dup8\n        /* \"#utility.yul\":3196:3209   */\n      dup3\n        /* \"#utility.yul\":3106:3215   */\n      tag_74\n      jump\t// in\n    tag_121:\n        /* \"#utility.yul\":3099:3215   */\n      swap7\n      pop\n        /* \"#utility.yul\":3238:3319   */\n      tag_122\n        /* \"#utility.yul\":3312:3318   */\n      dup4\n        /* \"#utility.yul\":3238:3319   */\n      tag_75\n      jump\t// in\n    tag_122:\n        /* \"#utility.yul\":3228:3319   */\n      swap3\n      pop\n        /* \"#utility.yul\":3038:3329   */\n      pop\n        /* \"#utility.yul\":3025:3026   */\n      0x01\n        /* \"#utility.yul\":3022:3023   */\n      dup2\n        /* \"#utility.yul\":3018:3027   */\n      add\n        /* \"#utility.yul\":3013:3027   */\n      swap1\n      pop\n        /* \"#utility.yul\":2978:3329   */\n      jump(tag_118)\n    tag_120:\n        /* \"#utility.yul\":2982:2996   */\n      pop\n        /* \"#utility.yul\":2616:3336   */\n      pop\n      pop\n      pop\n        /* \"#utility.yul\":2458:3336   */\n      pop\n      pop\n      jump\t// out\n        /* \"#utility.yul\":3342:3749   */\n    tag_8:\n        /* \"#utility.yul\":3527:3531   */\n      0x00\n        /* \"#utility.yul\":3565:3568   */\n      0xc0\n        /* \"#utility.yul\":3554:3563   */\n      dup3\n        /* \"#utility.yul\":3550:3569   */\n      add\n        /* \"#utility.yul\":3542:3569   */\n      swap1\n      pop\n        /* \"#utility.yul\":3579:3742   */\n      tag_124\n        /* \"#utility.yul\":3739:3740   */\n      0x00\n        /* \"#utility.yul\":3728:3737   */\n      dup4\n        /* \"#utility.yul\":3724:3741   */\n      add\n        /* \"#utility.yul\":3715:3721   */\n      dup5\n        /* \"#utility.yul\":3579:3742   */\n      tag_76\n      jump\t// in\n    tag_124:\n        /* \"#utility.yul\":3342:3749   */\n      swap3\n      swap2\n      pop\n      pop\n      jump\t// out\n        /* \"#utility.yul\":3755:3894   */\n    tag_77:\n        /* \"#utility.yul\":3847:3853   */\n      0x00\n        /* \"#utility.yul\":3881:3886   */\n      dup2\n        /* \"#utility.yul\":3875:3887   */\n      mload\n        /* \"#utility.yul\":3865:3887   */\n      swap1\n      pop\n        /* \"#utility.yul\":3755:3894   */\n      swap2\n      swap1\n      pop\n      jump\t// out\n        /* \"#utility.yul\":3900:4109   */\n    tag_78:\n        /* \"#utility.yul\":4024:4035   */\n      0x00\n        /* \"#utility.yul\":4058:4064   */\n      dup3\n        /* \"#utility.yul\":4053:4056   */\n      dup3\n        /* \"#utility.yul\":4046:4065   */\n      mstore\n        /* \"#utility.yul\":4098:4102   */\n      0x20\n        /* \"#utility.yul\":4093:4096   */\n      dup3\n        /* \"#utility.yul\":4089:4103   */\n      add\n        /* \"#utility.yul\":4074:4103   */\n      swap1\n      pop\n        /* \"#utility.yul\":3900:4109   */\n      swap3\n      swap2\n      pop\n      pop\n      jump\t// out\n        /* \"#utility.yul\":4115:4272   */\n    tag_79:\n        /* \"#utility.yul\":4207:4211   */\n      0x00\n        /* \"#utility.yul\":4230:4233   */\n      dup2\n        /* \"#utility.yul\":4222:4233   */\n      swap1\n      pop\n        /* \"#utility.yul\":4260:4264   */\n      0x20\n        /* \"#utility.yul\":4255:4258   */\n      dup3\n        /* \"#utility.yul\":4251:4265   */\n      add\n        /* \"#utility.yul\":4243:4265   */\n      swap1\n      pop\n        /* \"#utility.yul\":4115:4272   */\n      swap2\n      swap1\n      pop\n      jump\t// out\n        /* \"#utility.yul\":4278:4392   */\n    tag_80:\n        /* \"#utility.yul\":4345:4351   */\n      0x00\n        /* \"#utility.yul\":4379:4384   */\n      dup2\n        /* \"#utility.yul\":4373:4385   */\n      mload\n        /* \"#utility.yul\":4363:4385   */\n      swap1\n      pop\n        /* \"#utility.yul\":4278:4392   */\n      swap2\n      swap1\n      pop\n      jump\t// out\n        /* \"#utility.yul\":4398:4572   */\n    tag_81:\n        /* \"#utility.yul\":4487:4498   */\n      0x00\n        /* \"#utility.yul\":4521:4527   */\n      dup3\n        /* \"#utility.yul\":4516:4519   */\n      dup3\n        /* \"#utility.yul\":4509:4528   */\n      mstore\n        /* \"#utility.yul\":4561:4565   */\n      0x20\n        /* \"#utility.yul\":4556:4559   */\n      dup3\n        /* \"#utility.yul\":4552:4566   */\n      add\n        /* \"#utility.yul\":4537:4566   */\n      swap1\n      pop\n        /* \"#utility.yul\":4398:4572   */\n      swap3\n      swap2\n      pop\n      pop\n      jump\t// out\n        /* \"#utility.yul\":4578:4710   */\n    tag_82:\n        /* \"#utility.yul\":4645:4649   */\n      0x00\n        /* \"#utility.yul\":4668:4671   */\n      dup2\n        /* \"#utility.yul\":4660:4671   */\n      swap1\n      pop\n        /* \"#utility.yul\":4698:4702   */\n      0x20\n        /* \"#utility.yul\":4693:4696   */\n      dup3\n        /* \"#utility.yul\":4689:4703   */\n      add\n        /* \"#utility.yul\":4681:4703   */\n      swap1\n      pop\n        /* \"#utility.yul\":4578:4710   */\n      swap2\n      swap1\n      pop\n      jump\t// out\n        /* \"#utility.yul\":4716:4829   */\n    tag_83:\n        /* \"#utility.yul\":4786:4790   */\n      0x00\n        /* \"#utility.yul\":4818:4822   */\n      0x20\n        /* \"#utility.yul\":4813:4816   */\n      dup3\n        /* \"#utility.yul\":4809:4823   */\n      add\n        /* \"#utility.yul\":4801:4823   */\n      swap1\n      pop\n        /* \"#utility.yul\":4716:4829   */\n      swap2\n      swap1\n      pop\n      jump\t// out\n        /* \"#utility.yul\":4865:5577   */\n    tag_84:\n        /* \"#utility.yul\":4974:4977   */\n      0x00\n        /* \"#utility.yul\":5003:5057   */\n      tag_133\n        /* \"#utility.yul\":5051:5056   */\n      dup3\n        /* \"#utility.yul\":5003:5057   */\n      tag_80\n      jump\t// in\n    tag_133:\n        /* \"#utility.yul\":5073:5149   */\n      tag_134\n        /* \"#utility.yul\":5142:5148   */\n      dup2\n        /* \"#utility.yul\":5137:5140   */\n      dup6\n        /* \"#utility.yul\":5073:5149   */\n      tag_81\n      jump\t// in\n    tag_134:\n        /* \"#utility.yul\":5066:5149   */\n      swap4\n      pop\n        /* \"#utility.yul\":5173:5229   */\n      tag_135\n        /* \"#utility.yul\":5223:5228   */\n      dup4\n        /* \"#utility.yul\":5173:5229   */\n      tag_82\n      jump\t// in\n    tag_135:\n        /* \"#utility.yul\":5252:5259   */\n      dup1\n        /* \"#utility.yul\":5283:5284   */\n      0x00\n        /* \"#utility.yul\":5268:5552   */\n    tag_136:\n        /* \"#utility.yul\":5293:5299   */\n      dup4\n        /* \"#utility.yul\":5290:5291   */\n      dup2\n        /* \"#utility.yul\":5287:5300   */\n      lt\n        /* \"#utility.yul\":5268:5552   */\n      iszero\n      tag_138\n      jumpi\n        /* \"#utility.yul\":5369:5375   */\n      dup2\n        /* \"#utility.yul\":5363:5376   */\n      mload\n        /* \"#utility.yul\":5396:5459   */\n      tag_139\n        /* \"#utility.yul\":5455:5458   */\n      dup9\n        /* \"#utility.yul\":5440:5453   */\n      dup3\n        /* \"#utility.yul\":5396:5459   */\n      tag_71\n      jump\t// in\n    tag_139:\n        /* \"#utility.yul\":5389:5459   */\n      swap8\n      pop\n        /* \"#utility.yul\":5482:5542   */\n      tag_140\n        /* \"#utility.yul\":5535:5541   */\n      dup4\n        /* \"#utility.yul\":5482:5542   */\n      tag_83\n      jump\t// in\n    tag_140:\n        /* \"#utility.yul\":5472:5542   */\n      swap3\n      pop\n        /* \"#utility.yul\":5328:5552   */\n      pop\n        /* \"#utility.yul\":5315:5316   */\n      0x01\n        /* \"#utility.yul\":5312:5313   */\n      dup2\n        /* \"#utility.yul\":5308:5317   */\n      add\n        /* \"#utility.yul\":5303:5317   */\n      swap1\n      pop\n        /* \"#utility.yul\":5268:5552   */\n      jump(tag_136)\n    tag_138:\n        /* \"#utility.yul\":5272:5286   */\n      pop\n        /* \"#utility.yul\":5568:5571   */\n      dup6\n        /* \"#utility.yul\":5561:5571   */\n      swap4\n      pop\n        /* \"#utility.yul\":4979:5577   */\n      pop\n      pop\n      pop\n        /* \"#utility.yul\":4865:5577   */\n      swap3\n      swap2\n      pop\n      pop\n      jump\t// out\n        /* \"#utility.yul\":5583:5839   */\n    tag_85:\n        /* \"#utility.yul\":5702:5712   */\n      0x00\n        /* \"#utility.yul\":5737:5833   */\n      tag_142\n        /* \"#utility.yul\":5829:5832   */\n      dup4\n        /* \"#utility.yul\":5821:5827   */\n      dup4\n        /* \"#utility.yul\":5737:5833   */\n      tag_84\n      jump\t// in\n    tag_142:\n        /* \"#utility.yul\":5723:5833   */\n      swap1\n      pop\n        /* \"#utility.yul\":5583:5839   */\n      swap3\n      swap2\n      pop\n      pop\n      jump\t// out\n        /* \"#utility.yul\":5845:5983   */\n    tag_86:\n        /* \"#utility.yul\":5940:5944   */\n      0x00\n        /* \"#utility.yul\":5972:5976   */\n      0x20\n        /* \"#utility.yul\":5967:5970   */\n      dup3\n        /* \"#utility.yul\":5963:5977   */\n      add\n        /* \"#utility.yul\":5955:5977   */\n      swap1\n      pop\n        /* \"#utility.yul\":5845:5983   */\n      swap2\n      swap1\n      pop\n      jump\t// out\n        /* \"#utility.yul\":6023:7134   */\n    tag_87:\n        /* \"#utility.yul\":6192:6195   */\n      0x00\n        /* \"#utility.yul\":6221:6300   */\n      tag_145\n        /* \"#utility.yul\":6294:6299   */\n      dup3\n        /* \"#utility.yul\":6221:6300   */\n      tag_77\n      jump\t// in\n    tag_145:\n        /* \"#utility.yul\":6316:6427   */\n      tag_146\n        /* \"#utility.yul\":6420:6426   */\n      dup2\n        /* \"#utility.yul\":6415:6418   */\n      dup6\n        /* \"#utility.yul\":6316:6427   */\n      tag_78\n      jump\t// in\n    tag_146:\n        /* \"#utility.yul\":6309:6427   */\n      swap4\n      pop\n        /* \"#utility.yul\":6453:6456   */\n      dup4\n        /* \"#utility.yul\":6498:6502   */\n      0x20\n        /* \"#utility.yul\":6490:6496   */\n      dup3\n        /* \"#utility.yul\":6486:6503   */\n      mul\n        /* \"#utility.yul\":6481:6484   */\n      dup6\n        /* \"#utility.yul\":6477:6504   */\n      add\n        /* \"#utility.yul\":6528:6609   */\n      tag_147\n        /* \"#utility.yul\":6603:6608   */\n      dup6\n        /* \"#utility.yul\":6528:6609   */\n      tag_79\n      jump\t// in\n    tag_147:\n        /* \"#utility.yul\":6632:6639   */\n      dup1\n        /* \"#utility.yul\":6663:6664   */\n      0x00\n        /* \"#utility.yul\":6648:7089   */\n    tag_148:\n        /* \"#utility.yul\":6673:6679   */\n      dup6\n        /* \"#utility.yul\":6670:6671   */\n      dup2\n        /* \"#utility.yul\":6667:6680   */\n      lt\n        /* \"#utility.yul\":6648:7089   */\n      iszero\n      tag_150\n      jumpi\n        /* \"#utility.yul\":6744:6753   */\n      dup5\n        /* \"#utility.yul\":6738:6742   */\n      dup5\n        /* \"#utility.yul\":6734:6754   */\n      sub\n        /* \"#utility.yul\":6729:6732   */\n      dup10\n        /* \"#utility.yul\":6722:6755   */\n      mstore\n        /* \"#utility.yul\":6795:6801   */\n      dup2\n        /* \"#utility.yul\":6789:6802   */\n      mload\n        /* \"#utility.yul\":6823:6937   */\n      tag_151\n        /* \"#utility.yul\":6932:6936   */\n      dup6\n        /* \"#utility.yul\":6917:6930   */\n      dup3\n        /* \"#utility.yul\":6823:6937   */\n      tag_85\n      jump\t// in\n    tag_151:\n        /* \"#utility.yul\":6815:6937   */\n      swap5\n      pop\n        /* \"#utility.yul\":6960:7045   */\n      tag_152\n        /* \"#utility.yul\":7038:7044   */\n      dup4\n        /* \"#utility.yul\":6960:7045   */\n      tag_86\n      jump\t// in\n    tag_152:\n        /* \"#utility.yul\":6950:7045   */\n      swap3\n      pop\n        /* \"#utility.yul\":7074:7078   */\n      0x20\n        /* \"#utility.yul\":7069:7072   */\n      dup11\n        /* \"#utility.yul\":7065:7079   */\n      add\n        /* \"#utility.yul\":7058:7079   */\n      swap10\n      pop\n        /* \"#utility.yul\":6708:7089   */\n      pop\n        /* \"#utility.yul\":6695:6696   */\n      0x01\n        /* \"#utility.yul\":6692:6693   */\n      dup2\n        /* \"#utility.yul\":6688:6697   */\n      add\n        /* \"#utility.yul\":6683:6697   */\n      swap1\n      pop\n        /* \"#utility.yul\":6648:7089   */\n      jump(tag_148)\n    tag_150:\n        /* \"#utility.yul\":6652:6666   */\n      pop\n        /* \"#utility.yul\":7105:7109   */\n      dup3\n        /* \"#utility.yul\":7098:7109   */\n      swap8\n      pop\n        /* \"#utility.yul\":7125:7128   */\n      dup8\n        /* \"#utility.yul\":7118:7128   */\n      swap6\n      pop\n        /* \"#utility.yul\":6197:7134   */\n      pop\n      pop\n      pop\n      pop\n      pop\n        /* \"#utility.yul\":6023:7134   */\n      swap3\n      swap2\n      pop\n      pop\n      jump\t// out\n        /* \"#utility.yul\":7140:7613   */\n    tag_12:\n        /* \"#utility.yul\":7333:7337   */\n      0x00\n        /* \"#utility.yul\":7371:7373   */\n      0x20\n        /* \"#utility.yul\":7360:7369   */\n      dup3\n        /* \"#utility.yul\":7356:7374   */\n      add\n        /* \"#utility.yul\":7348:7374   */\n      swap1\n      pop\n        /* \"#utility.yul\":7420:7429   */\n      dup2\n        /* \"#utility.yul\":7414:7418   */\n      dup2\n        /* \"#utility.yul\":7410:7430   */\n      sub\n        /* \"#utility.yul\":7406:7407   */\n      0x00\n        /* \"#utility.yul\":7395:7404   */\n      dup4\n        /* \"#utility.yul\":7391:7408   */\n      add\n        /* \"#utility.yul\":7384:7431   */\n      mstore\n        /* \"#utility.yul\":7448:7606   */\n      tag_154\n        /* \"#utility.yul\":7601:7605   */\n      dup2\n        /* \"#utility.yul\":7592:7598   */\n      dup5\n        /* \"#utility.yul\":7448:7606   */\n      tag_87\n      jump\t// in\n    tag_154:\n        /* \"#utility.yul\":7440:7606   */\n      swap1\n      pop\n        /* \"#utility.yul\":7140:7613   */\n      swap3\n      swap2\n      pop\n      pop\n      jump\t// out\n        /* \"#utility.yul\":7619:7799   */\n    tag_88:\n        /* \"#utility.yul\":7667:7744   */\n      0x4e487b7100000000000000000000000000000000000000000000000000000000\n        /* \"#utility.yul\":7664:7665   */\n      0x00\n        /* \"#utility.yul\":7657:7745   */\n      mstore\n        /* \"#utility.yul\":7764:7768   */\n      0x11\n        /* \"#utility.yul\":7761:7762   */\n      0x04\n        /* \"#utility.yul\":7754:7769   */\n      mstore\n        /* \"#utility.yul\":7788:7792   */\n      0x24\n        /* \"#utility.yul\":7785:7786   */\n      0x00\n        /* \"#utility.yul\":7778:7793   */\n      revert\n        /* \"#utility.yul\":7805:7996   */\n    tag_20:\n        /* \"#utility.yul\":7845:7848   */\n      0x00\n        /* \"#utility.yul\":7864:7884   */\n      tag_157\n        /* \"#utility.yul\":7882:7883   */\n      dup3\n        /* \"#utility.yul\":7864:7884   */\n      tag_69\n      jump\t// in\n    tag_157:\n        /* \"#utility.yul\":7859:7884   */\n      swap2\n      pop\n        /* \"#utility.yul\":7898:7918   */\n      tag_158\n        /* \"#utility.yul\":7916:7917   */\n      dup4\n        /* \"#utility.yul\":7898:7918   */\n      tag_69\n      jump\t// in\n    tag_158:\n        /* \"#utility.yul\":7893:7918   */\n      swap3\n      pop\n        /* \"#utility.yul\":7941:7942   */\n      dup3\n        /* \"#utility.yul\":7938:7939   */\n      dup3\n        /* \"#utility.yul\":7934:7943   */\n      add\n        /* \"#utility.yul\":7927:7943   */\n      swap1\n      pop\n        /* \"#utility.yul\":7962:7965   */\n      dup1\n        /* \"#utility.yul\":7959:7960   */\n      dup3\n        /* \"#utility.yul\":7956:7966   */\n      gt\n        /* \"#utility.yul\":7953:7989   */\n      iszero\n      tag_159\n      jumpi\n        /* \"#utility.yul\":7969:7987   */\n      tag_160\n      tag_88\n      jump\t// in\n    tag_160:\n        /* \"#utility.yul\":7953:7989   */\n    tag_159:\n        /* \"#utility.yul\":7805:7996   */\n      swap3\n      swap2\n      pop\n      pop\n      jump\t// out\n        /* \"#utility.yul\":8002:8182   */\n    tag_23:\n        /* \"#utility.yul\":8050:8127   */\n      0x4e487b7100000000000000000000000000000000000000000000000000000000\n        /* \"#utility.yul\":8047:8048   */\n      0x00\n        /* \"#utility.yul\":8040:8128   */\n      mstore\n        /* \"#utility.yul\":8147:8151   */\n      0x32\n        /* \"#utility.yul\":8144:8145   */\n      0x04\n        /* \"#utility.yul\":8137:8152   */\n      mstore\n        /* \"#utility.yul\":8171:8175   */\n      0x24\n        /* \"#utility.yul\":8168:8169   */\n      0x00\n        /* \"#utility.yul\":8161:8176   */\n      revert\n        /* \"#utility.yul\":8188:8368   */\n    tag_34:\n        /* \"#utility.yul\":8236:8313   */\n      0x4e487b7100000000000000000000000000000000000000000000000000000000\n        /* \"#utility.yul\":8233:8234   */\n      0x00\n        /* \"#utility.yul\":8226:8314   */\n      mstore\n        /* \"#utility.yul\":8333:8337   */\n      0x41\n        /* \"#utility.yul\":8330:8331   */\n      0x04\n        /* \"#utility.yul\":8323:8338   */\n      mstore\n        /* \"#utility.yul\":8357:8361   */\n      0x24\n        /* \"#utility.yul\":8354:8355   */\n      0x00\n        /* \"#utility.yul\":8347:8362   */\n      revert\n\n    auxdata: 0xa26469706673582212204cc73f7e9a22856eb03d1a324bc58302fe3e1adec0e579575f242eaf8ee6168c64736f6c634300081e0033\n}\n",
				"bytecode": {
					"linkReferences": {},
					"object": "6080604052348015600e575f5ffd5b506106d18061001c5f395ff3fe608060405234801561000f575f5ffd5b5060043610610034575f3560e01c8063391e245714610038578063cca3d1a214610056575b5f5ffd5b610040610074565b60405161004d919061045c565b60405180910390f35b61005e610119565b60405161006b91906105c1565b60405180910390f35b61007c6102c9565b5f5b600381101561011557806064610094919061060e565b8282600381106100a7576100a6610641565b5b60200201515f600281106100be576100bd610641565b5b6020020181815250508060c86100d4919061060e565b8282600381106100e7576100e6610641565b5b60200201516001600281106100ff576100fe610641565b5b602002018181525050808060010191505061007e565b5090565b60605f600367ffffffffffffffff8111156101375761013661066e565b5b60405190808252806020026020018201604052801561016a57816020015b60608152602001906001900390816101555790505b5090505f5b81518110156102c157600367ffffffffffffffff8111156101935761019261066e565b5b6040519080825280602002602001820160405280156101c15781602001602082028036833780820191505090505b508282815181106101d5576101d4610641565b5b602002602001018190525080600b6101ed919061060e565b828281518110610200576101ff610641565b5b60200260200101515f8151811061021a57610219610641565b5b602002602001018181525050806016610233919061060e565b82828151811061024657610245610641565b5b602002602001015160018151811061026157610260610641565b5b60200260200101818152505080602161027a919061060e565b82828151811061028d5761028c610641565b5b60200260200101516002815181106102a8576102a7610641565b5b602002602001018181525050808060010191505061016f565b508091505090565b60405180606001604052806003905b6102e06102f6565b8152602001906001900390816102d85790505090565b6040518060400160405280600290602082028036833780820191505090505090565b5f60039050919050565b5f81905092915050565b5f819050919050565b5f60029050919050565b5f81905092915050565b5f819050919050565b5f819050919050565b61036481610352565b82525050565b5f610375838361035b565b60208301905092915050565b5f602082019050919050565b61039681610335565b6103a0818461033f565b92506103ab82610349565b805f5b838110156103db5781516103c2878261036a565b96506103cd83610381565b9250506001810190506103ae565b505050505050565b5f6103ee838361038d565b60408301905092915050565b5f602082019050919050565b61040f81610318565b6104198184610322565b92506104248261032c565b805f5b8381101561045457815161043b87826103e3565b9650610446836103fa565b925050600181019050610427565b505050505050565b5f60c08201905061046f5f830184610406565b92915050565b5f81519050919050565b5f82825260208201905092915050565b5f819050602082019050919050565b5f81519050919050565b5f82825260208201905092915050565b5f819050602082019050919050565b5f602082019050919050565b5f6104dd8261049e565b6104e781856104a8565b93506104f2836104b8565b805f5b83811015610522578151610509888261036a565b9750610514836104c7565b9250506001810190506104f5565b5085935050505092915050565b5f61053a83836104d3565b905092915050565b5f602082019050919050565b5f61055882610475565b610562818561047f565b9350836020820285016105748561048f565b805f5b858110156105af5784840389528151610590858261052f565b945061059b83610542565b925060208a01995050600181019050610577565b50829750879550505050505092915050565b5f6020820190508181035f8301526105d9818461054e565b905092915050565b7f4e487b71000000000000000000000000000000000000000000000000000000005f52601160045260245ffd5b5f61061882610352565b915061062383610352565b925082820190508082111561063b5761063a6105e1565b5b92915050565b7f4e487b71000000000000000000000000000000000000000000000000000000005f52603260045260245ffd5b7f4e487b71000000000000000000000000000000000000000000000000000000005f52604160045260245ffdfea26469706673582212204cc73f7e9a22856eb03d1a324bc58302fe3e1adec0e579575f242eaf8ee6168c64736f6c634300081e0033",
					"opcodes": "PUSH1 0x80 PUSH1 0x40 MSTORE CALLVALUE DUP1 ISZERO PUSH1 0xE JUMPI PUSH0 PUSH0 REVERT JUMPDEST POP PUSH2 0x6D1 DUP1 PUSH2 0x1C PUSH0 CODECOPY PUSH0 RETURN INVALID PUSH1 0x80 PUSH1 0x40 MSTORE CALLVALUE DUP1 ISZERO PUSH2 0xF JUMPI PUSH0 PUSH0 REVERT JUMPDEST POP PUSH1 0x4 CALLDATASIZE LT PUSH2 0x34 JUMPI PUSH0 CALLDATALOAD PUSH1 0xE0 SHR DUP1 PUSH4 0x391E2457 EQ PUSH2 0x38 JUMPI DUP1 PUSH4 0xCCA3D1A2 EQ PUSH2 0x56 JUMPI JUMPDEST PUSH0 PUSH0 REVERT JUMPDEST PUSH2 0x40 PUSH2 0x74 JUMP JUMPDEST PUSH1 0x40 MLOAD PUSH2 0x4D SWAP2 SWAP1 PUSH2 0x45C JUMP JUMPDEST PUSH1 0x40 MLOAD DUP1 SWAP2 SUB SWAP1 RETURN JUMPDEST PUSH2 0x5E PUSH2 0x119 JUMP JUMPDEST PUSH1 0x40 MLOAD PUSH2 0x6B SWAP2 SWAP1 PUSH2 0x5C1 JUMP JUMPDEST PUSH1 0x40 MLOAD DUP1 SWAP2 SUB SWAP1 RETURN JUMPDEST PUSH2 0x7C PUSH2 0x2C9 JUMP JUMPDEST PUSH0 JUMPDEST PUSH1 0x3 DUP2 LT ISZERO PUSH2 0x115 JUMPI DUP1 PUSH1 0x64 PUSH2 0x94 SWAP2 SWAP1 PUSH2 0x60E JUMP JUMPDEST DUP3 DUP3 PUSH1 0x3 DUP2 LT PUSH2 0xA7 JUMPI PUSH2 0xA6 PUSH2 0x641 JUMP JUMPDEST JUMPDEST PUSH1 0x20 MUL ADD MLOAD PUSH0 PUSH1 0x2 DUP2 LT PUSH2 0xBE JUMPI PUSH2 0xBD PUSH2 0x641 JUMP JUMPDEST JUMPDEST PUSH1 0x20 MUL ADD DUP2 DUP2 MSTORE POP POP DUP1 PUSH1 0xC8 PUSH2 0xD4 SWAP2 SWAP1 PUSH2 0x60E JUMP JUMPDEST DUP3 DUP3 PUSH1 0x3 DUP2 LT PUSH2 0xE7 JUMPI PUSH2 0xE6 PUSH2 0x641 JUMP JUMPDEST JUMPDEST PUSH1 0x20 MUL ADD MLOAD PUSH1 0x1 PUSH1 0x2 DUP2 LT PUSH2 0xFF JUMPI PUSH2 0xFE PUSH2 0x641 JUMP JUMPDEST JUMPDEST PUSH1 0x20 MUL ADD DUP2 DUP2 MSTORE POP POP DUP1 DUP1 PUSH1 0x1 ADD SWAP2 POP POP PUSH2 0x7E JUMP JUMPDEST POP SWAP1 JUMP JUMPDEST PUSH1 0x60 PUSH0 PUSH1 0x3 PUSH8 0xFFFFFFFFFFFFFFFF DUP2 GT ISZERO PUSH2 0x137 JUMPI PUSH2 0x136 PUSH2 0x66E JUMP JUMPDEST JUMPDEST PUSH1 0x40 MLOAD SWAP1 DUP1 DUP3 MSTORE DUP1 PUSH1 0x20 MUL PUSH1 0x20 ADD DUP3 ADD PUSH1 0x40 MSTORE DUP1 ISZERO PUSH2 0x16A JUMPI DUP2 PUSH1 0x20 ADD JUMPDEST PUSH1 0x60 DUP2 MSTORE PUSH1 0x20 ADD SWAP1 PUSH1 0x1 SWAP1 SUB SWAP1 DUP2 PUSH2 0x155 JUMPI SWAP1 POP JUMPDEST POP SWAP1 POP PUSH0 JUMPDEST DUP2 MLOAD DUP2 LT ISZERO PUSH2 0x2C1 JUMPI PUSH1 0x3 PUSH8 0xFFFFFFFFFFFFFFFF DUP2 GT ISZERO PUSH2 0x193 JUMPI PUSH2 0x192 PUSH2 0x66E JUMP JUMPDEST JUMPDEST PUSH1 0x40 MLOAD SWAP1 DUP1 DUP3 MSTORE DUP1 PUSH1 0x20 MUL PUSH1 0x20 ADD DUP3 ADD PUSH1 0x40 MSTORE DUP1 ISZERO PUSH2 0x1C1 JUMPI DUP2 PUSH1 0x20 ADD PUSH1 0x20 DUP3 MUL DUP1 CALLDATASIZE DUP4 CALLDATACOPY DUP1 DUP3 ADD SWAP2 POP POP SWAP1 POP JUMPDEST POP DUP3 DUP3 DUP2 MLOAD DUP2 LT PUSH2 0x1D5 JUMPI PUSH2 0x1D4 PUSH2 0x641 JUMP JUMPDEST JUMPDEST PUSH1 0x20 MUL PUSH1 0x20 ADD ADD DUP2 SWAP1 MSTORE POP DUP1 PUSH1 0xB PUSH2 0x1ED SWAP2 SWAP1 PUSH2 0x60E JUMP JUMPDEST DUP3 DUP3 DUP2 MLOAD DUP2 LT PUSH2 0x200 JUMPI PUSH2 0x1FF PUSH2 0x641 JUMP JUMPDEST JUMPDEST PUSH1 0x20 MUL PUSH1 0x20 ADD ADD MLOAD PUSH0 DUP2 MLOAD DUP2 LT PUSH2 0x21A JUMPI PUSH2 0x219 PUSH2 0x641 JUMP JUMPDEST JUMPDEST PUSH1 0x20 MUL PUSH1 0x20 ADD ADD DUP2 DUP2 MSTORE POP POP DUP1 PUSH1 0x16 PUSH2 0x233 SWAP2 SWAP1 PUSH2 0x60E JUMP JUMPDEST DUP3 DUP3 DUP2 MLOAD DUP2 LT PUSH2 0x246 JUMPI PUSH2 0x245 PUSH2 0x641 JUMP JUMPDEST JUMPDEST PUSH1 0x20 MUL PUSH1 0x20 ADD ADD MLOAD PUSH1 0x1 DUP2 MLOAD DUP2 LT PUSH2 0x261 JUMPI PUSH2 0x260 PUSH2 0x641 JUMP JUMPDEST JUMPDEST PUSH1 0x20 MUL PUSH1 0x20 ADD ADD DUP2 DUP2 MSTORE POP POP DUP1 PUSH1 0x21 PUSH2 0x27A SWAP2 SWAP1 PUSH2 0x60E JUMP JUMPDEST DUP3 DUP3 DUP2 MLOAD DUP2 LT PUSH2 0x28D JUMPI PUSH2 0x28C PUSH2 0x641 JUMP JUMPDEST JUMPDEST PUSH1 0x20 MUL PUSH1 0x20 ADD ADD MLOAD PUSH1 0x2 DUP2 MLOAD DUP2 LT PUSH2 0x2A8 JUMPI PUSH2 0x2A7 PUSH2 0x641 JUMP JUMPDEST JUMPDEST PUSH1 0x20 MUL PUSH1 0x20 ADD ADD DUP2 DUP2 MSTORE POP POP DUP1 DUP1 PUSH1 0x1 ADD SWAP2 POP POP PUSH2 0x16F JUMP JUMPDEST POP DUP1 SWAP2 POP POP SWAP1 JUMP JUMPDEST PUSH1 0x40 MLOAD DUP1 PUSH1 0x60 ADD PUSH1 0x40 MSTORE DUP1 PUSH1 0x3 SWAP1 JUMPDEST PUSH2 0x2E0 PUSH2 0x2F6 JUMP JUMPDEST DUP2 MSTORE PUSH1 0x20 ADD SWAP1 PUSH1 0x1 SWAP1 SUB SWAP1 DUP2 PUSH2 0x2D8 JUMPI SWAP1 POP POP SWAP1 JUMP JUMPDEST PUSH1 0x40 MLOAD DUP1 PUSH1 0x40 ADD PUSH1 0x40 MSTORE DUP1 PUSH1 0x2 SWAP1 PUSH1 0x20 DUP3 MUL DUP1 CALLDATASIZE DUP4 CALLDATACOPY DUP1 DUP3 ADD SWAP2 POP POP SWAP1 POP POP SWAP1 JUMP JUMPDEST PUSH0 PUSH1 0x3 SWAP1 POP SWAP2 SWAP1 POP JUMP JUMPDEST PUSH0 DUP2 SWAP1 POP SWAP3 SWAP2 POP POP JUMP JUMPDEST PUSH0 DUP2 SWAP1 POP SWAP2 SWAP1 POP JUMP JUMPDEST PUSH0 PUSH1 0x2 SWAP1 POP SWAP2 SWAP1 POP JUMP JUMPDEST PUSH0 DUP2 SWAP1 POP SWAP3 SWAP2 POP POP JUMP JUMPDEST PUSH0 DUP2 SWAP1 POP SWAP2 SWAP1 POP JUMP JUMPDEST PUSH0 DUP2 SWAP1 POP SWAP2 SWAP1 POP JUMP JUMPDEST PUSH2 0x364 DUP2 PUSH2 0x352 JUMP JUMPDEST DUP3 MSTORE POP POP JUMP JUMPDEST PUSH0 PUSH2 0x375 DUP4 DUP4 PUSH2 0x35B JUMP JUMPDEST PUSH1 0x20 DUP4 ADD SWAP1 POP SWAP3 SWAP2 POP POP JUMP JUMPDEST PUSH0 PUSH1 0x20 DUP3 ADD SWAP1 POP SWAP2 SWAP1 POP JUMP JUMPDEST PUSH2 0x396 DUP2 PUSH2 0x335 JUMP JUMPDEST PUSH2 0x3A0 DUP2 DUP5 PUSH2 0x33F JUMP JUMPDEST SWAP3 POP PUSH2 0x3AB DUP3 PUSH2 0x349 JUMP JUMPDEST DUP1 PUSH0 JUMPDEST DUP4 DUP2 LT ISZERO PUSH2 0x3DB JUMPI DUP2 MLOAD PUSH2 0x3C2 DUP8 DUP3 PUSH2 0x36A JUMP JUMPDEST SWAP7 POP PUSH2 0x3CD DUP4 PUSH2 0x381 JUMP JUMPDEST SWAP3 POP POP PUSH1 0x1 DUP2 ADD SWAP1 POP PUSH2 0x3AE JUMP JUMPDEST POP POP POP POP POP POP JUMP JUMPDEST PUSH0 PUSH2 0x3EE DUP4 DUP4 PUSH2 0x38D JUMP JUMPDEST PUSH1 0x40 DUP4 ADD SWAP1 POP SWAP3 SWAP2 POP POP JUMP JUMPDEST PUSH0 PUSH1 0x20 DUP3 ADD SWAP1 POP SWAP2 SWAP1 POP JUMP JUMPDEST PUSH2 0x40F DUP2 PUSH2 0x318 JUMP JUMPDEST PUSH2 0x419 DUP2 DUP5 PUSH2 0x322 JUMP JUMPDEST SWAP3 POP PUSH2 0x424 DUP3 PUSH2 0x32C JUMP JUMPDEST DUP1 PUSH0 JUMPDEST DUP4 DUP2 LT ISZERO PUSH2 0x454 JUMPI DUP2 MLOAD PUSH2 0x43B DUP8 DUP3 PUSH2 0x3E3 JUMP JUMPDEST SWAP7 POP PUSH2 0x446 DUP4 PUSH2 0x3FA JUMP JUMPDEST SWAP3 POP POP PUSH1 0x1 DUP2 ADD SWAP1 POP PUSH2 0x427 JUMP JUMPDEST POP POP POP POP POP POP JUMP JUMPDEST PUSH0 PUSH1 0xC0 DUP3 ADD SWAP1 POP PUSH2 0x46F PUSH0 DUP4 ADD DUP5 PUSH2 0x406 JUMP JUMPDEST SWAP3 SWAP2 POP POP JUMP JUMPDEST PUSH0 DUP2 MLOAD SWAP1 POP SWAP2 SWAP1 POP JUMP JUMPDEST PUSH0 DUP3 DUP3 MSTORE PUSH1 0x20 DUP3 ADD SWAP1 POP SWAP3 SWAP2 POP POP JUMP JUMPDEST PUSH0 DUP2 SWAP1 POP PUSH1 0x20 DUP3 ADD SWAP1 POP SWAP2 SWAP1 POP JUMP JUMPDEST PUSH0 DUP2 MLOAD SWAP1 POP SWAP2 SWAP1 POP JUMP JUMPDEST PUSH0 DUP3 DUP3 MSTORE PUSH1 0x20 DUP3 ADD SWAP1 POP SWAP3 SWAP2 POP POP JUMP JUMPDEST PUSH0 DUP2 SWAP1 POP PUSH1 0x20 DUP3 ADD SWAP1 POP SWAP2 SWAP1 POP JUMP JUMPDEST PUSH0 PUSH1 0x20 DUP3 ADD SWAP1 POP SWAP2 SWAP1 POP JUMP JUMPDEST PUSH0 PUSH2 0x4DD DUP3 PUSH2 0x49E JUMP JUMPDEST PUSH2 0x4E7 DUP2 DUP6 PUSH2 0x4A8 JUMP JUMPDEST SWAP4 POP PUSH2 0x4F2 DUP4 PUSH2 0x4B8 JUMP JUMPDEST DUP1 PUSH0 JUMPDEST DUP4 DUP2 LT ISZERO PUSH2 0x522 JUMPI DUP2 MLOAD PUSH2 0x509 DUP9 DUP3 PUSH2 0x36A JUMP JUMPDEST SWAP8 POP PUSH2 0x514 DUP4 PUSH2 0x4C7 JUMP JUMPDEST SWAP3 POP POP PUSH1 0x1 DUP2 ADD SWAP1 POP PUSH2 0x4F5 JUMP JUMPDEST POP DUP6 SWAP4 POP POP POP POP SWAP3 SWAP2 POP POP JUMP JUMPDEST PUSH0 PUSH2 0x53A DUP4 DUP4 PUSH2 0x4D3 JUMP JUMPDEST SWAP1 POP SWAP3 SWAP2 POP POP JUMP JUMPDEST PUSH0 PUSH1 0x20 DUP3 ADD SWAP1 POP SWAP2 SWAP1 POP JUMP JUMPDEST PUSH0 PUSH2 0x558 DUP3 PUSH2 0x475 JUMP JUMPDEST PUSH2 0x562 DUP2 DUP6 PUSH2 0x47F JUMP JUMPDEST SWAP4 POP DUP4 PUSH1 0x20 DUP3 MUL DUP6 ADD PUSH2 0x574 DUP6 PUSH2 0x48F JUMP JUMPDEST DUP1 PUSH0 JUMPDEST DUP6 DUP2 LT ISZERO PUSH2 0x5AF JUMPI DUP5 DUP5 SUB DUP10 MSTORE DUP2 MLOAD PUSH2 0x590 DUP6 DUP3 PUSH2 0x52F JUMP JUMPDEST SWAP5 POP PUSH2 0x59B DUP4 PUSH2 0x542 JUMP JUMPDEST SWAP3 POP PUSH1 0x20 DUP11 ADD SWAP10 POP POP PUSH1 0x1 DUP2 ADD SWAP1 POP PUSH2 0x577 JUMP JUMPDEST POP DUP3 SWAP8 POP DUP8 SWAP6 POP POP POP POP POP POP SWAP3 SWAP2 POP POP JUMP JUMPDEST PUSH0 PUSH1 0x20 DUP3 ADD SWAP1 POP DUP2 DUP2 SUB PUSH0 DUP4 ADD MSTORE PUSH2 0x5D9 DUP2 DUP5 PUSH2 0x54E JUMP JUMPDEST SWAP1 POP SWAP3 SWAP2 POP POP JUMP JUMPDEST PUSH32 0x4E487B7100000000000000000000000000000000000000000000000000000000 PUSH0 MSTORE PUSH1 0x11 PUSH1 0x4 MSTORE PUSH1 0x24 PUSH0 REVERT JUMPDEST PUSH0 PUSH2 0x618 DUP3 PUSH2 0x352 JUMP JUMPDEST SWAP2 POP PUSH2 0x623 DUP4 PUSH2 0x352 JUMP JUMPDEST SWAP3 POP DUP3 DUP3 ADD SWAP1 POP DUP1 DUP3 GT ISZERO PUSH2 0x63B JUMPI PUSH2 0x63A PUSH2 0x5E1 JUMP JUMPDEST JUMPDEST SWAP3 SWAP2 POP POP JUMP JUMPDEST PUSH32 0x4E487B7100000000000000000000000000000000000000000000000000000000 PUSH0 MSTORE PUSH1 0x32 PUSH1 0x4 MSTORE PUSH1 0x24 PUSH0 REVERT JUMPDEST PUSH32 0x4E487B7100000000000000000000000000000000000000000000000000000000 PUSH0 MSTORE PUSH1 0x41 PUSH1 0x4 MSTORE PUSH1 0x24 PUSH0 REVERT INVALID LOG2 PUSH5 0x6970667358 0x22 SLT KECCAK256 0x4C 0xC7 EXTCODEHASH PUSH31 0x9A22856EB03D1A324BC58302FE3E1ADEC0E579575F242EAF8EE6168C64736F PUSH13 0x634300081E0033000000000000 "
				},
				"gasEstimates": {
					"creation": {
						"codeDepositCost": "349000",
						"executionCost": "384",
						"totalCost": "349384"
					},
					"external": {
						"fixedArray()": "infinite",
						"normArray()": "infinite"
					}
				},
				"methodIdentifiers": {
					"fixedArray()": "391e2457",
					"normArray()": "cca3d1a2"
				}
			},
			"storageLayout": {
				"storage": [],
				"types": null
			},
			"userdoc": {
				"kind": "user",
				"methods": {},
				"notice": "多维数组",
				"version": 1
			}
		}
	}
}