{
	"contracts/helloep28.sol": {
		"VerifySignedEP28": {
			"abi": [
				{
					"inputs": [],
					"name": "ECDSAInvalidSignature",
					"type": "error"
				},
				{
					"inputs": [
						{
							"internalType": "uint256",
							"name": "length",
							"type": "uint256"
						}
					],
					"name": "ECDSAInvalidSignatureLength",
					"type": "error"
				},
				{
					"inputs": [
						{
							"internalType": "bytes32",
							"name": "s",
							"type": "bytes32"
						}
					],
					"name": "ECDSAInvalidSignatureS",
					"type": "error"
				},
				{
					"inputs": [
						{
							"internalType": "string",
							"name": "_msg",
							"type": "string"
						}
					],
					"name": "msgHash",
					"outputs": [
						{
							"internalType": "bytes32",
							"name": "",
							"type": "bytes32"
						}
					],
					"stateMutability": "pure",
					"type": "function"
				},
				{
					"inputs": [
						{
							"internalType": "bytes32",
							"name": "_ethHash",
							"type": "bytes32"
						},
						{
							"internalType": "bytes",
							"name": "_sig",
							"type": "bytes"
						}
					],
					"name": "recoverSinger",
					"outputs": [
						{
							"internalType": "address",
							"name": "",
							"type": "address"
						}
					],
					"stateMutability": "pure",
					"type": "function"
				},
				{
					"inputs": [
						{
							"internalType": "bytes32",
							"name": "_hash",
							"type": "bytes32"
						}
					],
					"name": "signtureHash",
					"outputs": [
						{
							"internalType": "bytes32",
							"name": "",
							"type": "bytes32"
						}
					],
					"stateMutability": "pure",
					"type": "function"
				},
				{
					"inputs": [
						{
							"internalType": "string",
							"name": "_msg",
							"type": "string"
						},
						{
							"internalType": "bytes",
							"name": "_sig",
							"type": "bytes"
						},
						{
							"internalType": "address",
							"name": "signer",
							"type": "address"
						}
					],
					"name": "verif",
					"outputs": [
						{
							"internalType": "bool",
							"name": "",
							"type": "bool"
						}
					],
					"stateMutability": "pure",
					"type": "function"
				}
			],
			"devdoc": {
				"errors": {
					"ECDSAInvalidSignature()": [
						{
							"details": "The signature derives the `address(0)`."
						}
					],
					"ECDSAInvalidSignatureLength(uint256)": [
						{
							"details": "The signature has an invalid length."
						}
					],
					"ECDSAInvalidSignatureS(bytes32)": [
						{
							"details": "The signature has an S value that is in the upper half order."
						}
					]
				},
				"kind": "dev",
				"methods": {},
				"version": 1
			},
			"evm": {
				"assembly": "    /* \"contracts/helloep28.sol\":367:1089  contract VerifySignedEP28 {... */\n  mstore(0x40, 0x80)\n  callvalue\n  dup1\n  iszero\n  tag_1\n  jumpi\n  revert(0x00, 0x00)\ntag_1:\n  pop\n  dataSize(sub_0)\n  dup1\n  dataOffset(sub_0)\n  0x00\n  codecopy\n  0x00\n  return\nstop\n\nsub_0: assembly {\n        /* \"contracts/helloep28.sol\":367:1089  contract VerifySignedEP28 {... */\n      mstore(0x40, 0x80)\n      callvalue\n      dup1\n      iszero\n      tag_1\n      jumpi\n      revert(0x00, 0x00)\n    tag_1:\n      pop\n      jumpi(tag_2, lt(calldatasize, 0x04))\n      shr(0xe0, calldataload(0x00))\n      dup1\n      0x1899147c\n      eq\n      tag_3\n      jumpi\n      dup1\n      0x28d6e166\n      eq\n      tag_4\n      jumpi\n      dup1\n      0x6ccaa00b\n      eq\n      tag_5\n      jumpi\n      dup1\n      0xe7d58074\n      eq\n      tag_6\n      jumpi\n    tag_2:\n      revert(0x00, 0x00)\n        /* \"contracts/helloep28.sol\":462:576  function msgHash(string memory _msg) public pure returns (bytes32){... */\n    tag_3:\n      tag_7\n      0x04\n      dup1\n      calldatasize\n      sub\n      dup2\n      add\n      swap1\n      tag_8\n      swap2\n      swap1\n      tag_9\n      jump\t// in\n    tag_8:\n      tag_10\n      jump\t// in\n    tag_7:\n      mload(0x40)\n      tag_11\n      swap2\n      swap1\n      tag_12\n      jump\t// in\n    tag_11:\n      mload(0x40)\n      dup1\n      swap2\n      sub\n      swap1\n      return\n        /* \"contracts/helloep28.sol\":584:746  function signtureHash(bytes32 _hash) public pure  returns (bytes32){... */\n    tag_4:\n      tag_13\n      0x04\n      dup1\n      calldatasize\n      sub\n      dup2\n      add\n      swap1\n      tag_14\n      swap2\n      swap1\n      tag_15\n      jump\t// in\n    tag_14:\n      tag_16\n      jump\t// in\n    tag_13:\n      mload(0x40)\n      tag_17\n      swap2\n      swap1\n      tag_12\n      jump\t// in\n    tag_17:\n      mload(0x40)\n      dup1\n      swap2\n      sub\n      swap1\n      return\n        /* \"contracts/helloep28.sol\":902:1086  function verif(string memory _msg,bytes calldata _sig,address signer) public pure returns (bool){... */\n    tag_5:\n      tag_18\n      0x04\n      dup1\n      calldatasize\n      sub\n      dup2\n      add\n      swap1\n      tag_19\n      swap2\n      swap1\n      tag_20\n      jump\t// in\n    tag_19:\n      tag_21\n      jump\t// in\n    tag_18:\n      mload(0x40)\n      tag_22\n      swap2\n      swap1\n      tag_23\n      jump\t// in\n    tag_22:\n      mload(0x40)\n      dup1\n      swap2\n      sub\n      swap1\n      return\n        /* \"contracts/helloep28.sol\":754:894  function recoverSinger(bytes32 _ethHash,bytes calldata _sig) public pure returns (address){... */\n    tag_6:\n      tag_24\n      0x04\n      dup1\n      calldatasize\n      sub\n      dup2\n      add\n      swap1\n      tag_25\n      swap2\n      swap1\n      tag_26\n      jump\t// in\n    tag_25:\n      tag_27\n      jump\t// in\n    tag_24:\n      mload(0x40)\n      tag_28\n      swap2\n      swap1\n      tag_29\n      jump\t// in\n    tag_28:\n      mload(0x40)\n      dup1\n      swap2\n      sub\n      swap1\n      return\n        /* \"contracts/helloep28.sol\":462:576  function msgHash(string memory _msg) public pure returns (bytes32){... */\n    tag_10:\n        /* \"contracts/helloep28.sol\":520:527  bytes32 */\n      0x00\n        /* \"contracts/helloep28.sol\":562:566  _msg */\n      dup2\n        /* \"contracts/helloep28.sol\":546:568  keccak256(bytes(_msg)) */\n      dup1\n      mload\n      swap1\n      0x20\n      add\n      keccak256\n        /* \"contracts/helloep28.sol\":539:568  return keccak256(bytes(_msg)) */\n      swap1\n      pop\n        /* \"contracts/helloep28.sol\":462:576  function msgHash(string memory _msg) public pure returns (bytes32){... */\n      swap2\n      swap1\n      pop\n      jump\t// out\n        /* \"contracts/helloep28.sol\":584:746  function signtureHash(bytes32 _hash) public pure  returns (bytes32){... */\n    tag_16:\n        /* \"contracts/helloep28.sol\":643:650  bytes32 */\n      0x00\n        /* \"contracts/helloep28.sol\":731:736  _hash */\n      dup2\n        /* \"contracts/helloep28.sol\":679:737  abi.encodePacked(\"\\x19Ethereum Signed Message:\\n32\",_hash) */\n      add(0x20, mload(0x40))\n      tag_32\n      swap2\n      swap1\n      tag_33\n      jump\t// in\n    tag_32:\n      mload(0x40)\n      0x20\n      dup2\n      dup4\n      sub\n      sub\n      dup2\n      mstore\n      swap1\n      0x40\n      mstore\n        /* \"contracts/helloep28.sol\":669:738  keccak256(abi.encodePacked(\"\\x19Ethereum Signed Message:\\n32\",_hash)) */\n      dup1\n      mload\n      swap1\n      0x20\n      add\n      keccak256\n        /* \"contracts/helloep28.sol\":662:738  return keccak256(abi.encodePacked(\"\\x19Ethereum Signed Message:\\n32\",_hash)) */\n      swap1\n      pop\n        /* \"contracts/helloep28.sol\":584:746  function signtureHash(bytes32 _hash) public pure  returns (bytes32){... */\n      swap2\n      swap1\n      pop\n      jump\t// out\n        /* \"contracts/helloep28.sol\":902:1086  function verif(string memory _msg,bytes calldata _sig,address signer) public pure returns (bool){... */\n    tag_21:\n        /* \"contracts/helloep28.sol\":993:997  bool */\n      0x00\n        /* \"contracts/helloep28.sol\":1072:1078  signer */\n      dup2\n        /* \"contracts/helloep28.sol\":1020:1078  recoverSinger(signtureHash(msgHash(_msg)), _sig) == signer */\n      0xffffffffffffffffffffffffffffffffffffffff\n      and\n        /* \"contracts/helloep28.sol\":1020:1068  recoverSinger(signtureHash(msgHash(_msg)), _sig) */\n      tag_35\n        /* \"contracts/helloep28.sol\":1034:1061  signtureHash(msgHash(_msg)) */\n      tag_36\n        /* \"contracts/helloep28.sol\":1047:1060  msgHash(_msg) */\n      tag_37\n        /* \"contracts/helloep28.sol\":1055:1059  _msg */\n      dup9\n        /* \"contracts/helloep28.sol\":1047:1054  msgHash */\n      tag_10\n        /* \"contracts/helloep28.sol\":1047:1060  msgHash(_msg) */\n      jump\t// in\n    tag_37:\n        /* \"contracts/helloep28.sol\":1034:1046  signtureHash */\n      tag_16\n        /* \"contracts/helloep28.sol\":1034:1061  signtureHash(msgHash(_msg)) */\n      jump\t// in\n    tag_36:\n        /* \"contracts/helloep28.sol\":1063:1067  _sig */\n      dup7\n      dup7\n        /* \"contracts/helloep28.sol\":1020:1033  recoverSinger */\n      tag_27\n        /* \"contracts/helloep28.sol\":1020:1068  recoverSinger(signtureHash(msgHash(_msg)), _sig) */\n      jump\t// in\n    tag_35:\n        /* \"contracts/helloep28.sol\":1020:1078  recoverSinger(signtureHash(msgHash(_msg)), _sig) == signer */\n      0xffffffffffffffffffffffffffffffffffffffff\n      and\n      eq\n        /* \"contracts/helloep28.sol\":1013:1078  return recoverSinger(signtureHash(msgHash(_msg)), _sig) == signer */\n      swap1\n      pop\n        /* \"contracts/helloep28.sol\":902:1086  function verif(string memory _msg,bytes calldata _sig,address signer) public pure returns (bool){... */\n      swap5\n      swap4\n      pop\n      pop\n      pop\n      pop\n      jump\t// out\n        /* \"contracts/helloep28.sol\":754:894  function recoverSinger(bytes32 _ethHash,bytes calldata _sig) public pure returns (address){... */\n    tag_27:\n        /* \"contracts/helloep28.sol\":836:843  address */\n      0x00\n        /* \"contracts/helloep28.sol\":864:886  _ethHash.recover(_sig) */\n      tag_39\n        /* \"contracts/helloep28.sol\":881:885  _sig */\n      dup4\n      dup4\n        /* \"contracts/helloep28.sol\":864:886  _ethHash.recover(_sig) */\n      dup1\n      dup1\n      0x1f\n      add\n      0x20\n      dup1\n      swap2\n      div\n      mul\n      0x20\n      add\n      mload(0x40)\n      swap1\n      dup2\n      add\n      0x40\n      mstore\n      dup1\n      swap4\n      swap3\n      swap2\n      swap1\n      dup2\n      dup2\n      mstore\n      0x20\n      add\n      dup4\n      dup4\n      dup1\n      dup3\n      dup5\n      calldatacopy\n      0x00\n      dup2\n      dup5\n      add\n      mstore\n      not(0x1f)\n      0x1f\n      dup3\n      add\n      and\n      swap1\n      pop\n      dup1\n      dup4\n      add\n      swap3\n      pop\n      pop\n      pop\n      pop\n      pop\n      pop\n      pop\n        /* \"contracts/helloep28.sol\":864:872  _ethHash */\n      dup6\n        /* \"contracts/helloep28.sol\":864:880  _ethHash.recover */\n      tag_40\n      swap1\n        /* \"contracts/helloep28.sol\":864:886  _ethHash.recover(_sig) */\n      swap2\n      swap1\n      0xffffffff\n      and\n      jump\t// in\n    tag_39:\n        /* \"contracts/helloep28.sol\":857:886  return _ethHash.recover(_sig) */\n      swap1\n      pop\n        /* \"contracts/helloep28.sol\":754:894  function recoverSinger(bytes32 _ethHash,bytes calldata _sig) public pure returns (address){... */\n      swap4\n      swap3\n      pop\n      pop\n      pop\n      jump\t// out\n        /* \"@openzeppelin/contracts/utils/cryptography/ECDSA.sol\":3714:3969  function recover(bytes32 hash, bytes memory signature) internal pure returns (address) {... */\n    tag_40:\n        /* \"@openzeppelin/contracts/utils/cryptography/ECDSA.sol\":3792:3799  address */\n      0x00\n        /* \"@openzeppelin/contracts/utils/cryptography/ECDSA.sol\":3812:3829  address recovered */\n      0x00\n        /* \"@openzeppelin/contracts/utils/cryptography/ECDSA.sol\":3831:3849  RecoverError error */\n      0x00\n        /* \"@openzeppelin/contracts/utils/cryptography/ECDSA.sol\":3851:3867  bytes32 errorArg */\n      0x00\n        /* \"@openzeppelin/contracts/utils/cryptography/ECDSA.sol\":3871:3898  tryRecover(hash, signature) */\n      tag_42\n        /* \"@openzeppelin/contracts/utils/cryptography/ECDSA.sol\":3882:3886  hash */\n      dup7\n        /* \"@openzeppelin/contracts/utils/cryptography/ECDSA.sol\":3888:3897  signature */\n      dup7\n        /* \"@openzeppelin/contracts/utils/cryptography/ECDSA.sol\":3871:3881  tryRecover */\n      tag_43\n        /* \"@openzeppelin/contracts/utils/cryptography/ECDSA.sol\":3871:3898  tryRecover(hash, signature) */\n      jump\t// in\n    tag_42:\n        /* \"@openzeppelin/contracts/utils/cryptography/ECDSA.sol\":3811:3898  (address recovered, RecoverError error, bytes32 errorArg) = tryRecover(hash, signature) */\n      swap3\n      pop\n      swap3\n      pop\n      swap3\n      pop\n        /* \"@openzeppelin/contracts/utils/cryptography/ECDSA.sol\":3908:3936  _throwError(error, errorArg) */\n      tag_44\n        /* \"@openzeppelin/contracts/utils/cryptography/ECDSA.sol\":3920:3925  error */\n      dup3\n        /* \"@openzeppelin/contracts/utils/cryptography/ECDSA.sol\":3927:3935  errorArg */\n      dup3\n        /* \"@openzeppelin/contracts/utils/cryptography/ECDSA.sol\":3908:3919  _throwError */\n      tag_45\n        /* \"@openzeppelin/contracts/utils/cryptography/ECDSA.sol\":3908:3936  _throwError(error, errorArg) */\n      jump\t// in\n    tag_44:\n        /* \"@openzeppelin/contracts/utils/cryptography/ECDSA.sol\":3953:3962  recovered */\n      dup3\n        /* \"@openzeppelin/contracts/utils/cryptography/ECDSA.sol\":3946:3962  return recovered */\n      swap4\n      pop\n      pop\n      pop\n      pop\n        /* \"@openzeppelin/contracts/utils/cryptography/ECDSA.sol\":3714:3969  function recover(bytes32 hash, bytes memory signature) internal pure returns (address) {... */\n      swap3\n      swap2\n      pop\n      pop\n      jump\t// out\n        /* \"@openzeppelin/contracts/utils/cryptography/ECDSA.sol\":2129:2907  function tryRecover(... */\n    tag_43:\n        /* \"@openzeppelin/contracts/utils/cryptography/ECDSA.sol\":2232:2249  address recovered */\n      0x00\n        /* \"@openzeppelin/contracts/utils/cryptography/ECDSA.sol\":2251:2267  RecoverError err */\n      0x00\n        /* \"@openzeppelin/contracts/utils/cryptography/ECDSA.sol\":2269:2283  bytes32 errArg */\n      0x00\n        /* \"@openzeppelin/contracts/utils/cryptography/ECDSA.sol\":2319:2321  65 */\n      0x41\n        /* \"@openzeppelin/contracts/utils/cryptography/ECDSA.sol\":2299:2308  signature */\n      dup5\n        /* \"@openzeppelin/contracts/utils/cryptography/ECDSA.sol\":2299:2315  signature.length */\n      mload\n        /* \"@openzeppelin/contracts/utils/cryptography/ECDSA.sol\":2299:2321  signature.length == 65 */\n      sub\n        /* \"@openzeppelin/contracts/utils/cryptography/ECDSA.sol\":2295:2901  if (signature.length == 65) {... */\n      tag_47\n      jumpi\n        /* \"@openzeppelin/contracts/utils/cryptography/ECDSA.sol\":2337:2346  bytes32 r */\n      0x00\n        /* \"@openzeppelin/contracts/utils/cryptography/ECDSA.sol\":2360:2369  bytes32 s */\n      0x00\n        /* \"@openzeppelin/contracts/utils/cryptography/ECDSA.sol\":2383:2390  uint8 v */\n      0x00\n        /* \"@openzeppelin/contracts/utils/cryptography/ECDSA.sol\":2604:2608  0x20 */\n      0x20\n        /* \"@openzeppelin/contracts/utils/cryptography/ECDSA.sol\":2593:2602  signature */\n      dup8\n        /* \"@openzeppelin/contracts/utils/cryptography/ECDSA.sol\":2589:2609  add(signature, 0x20) */\n      add\n        /* \"@openzeppelin/contracts/utils/cryptography/ECDSA.sol\":2583:2610  mload(add(signature, 0x20)) */\n      mload\n        /* \"@openzeppelin/contracts/utils/cryptography/ECDSA.sol\":2578:2610  r := mload(add(signature, 0x20)) */\n      swap3\n      pop\n        /* \"@openzeppelin/contracts/utils/cryptography/ECDSA.sol\":2653:2657  0x40 */\n      0x40\n        /* \"@openzeppelin/contracts/utils/cryptography/ECDSA.sol\":2642:2651  signature */\n      dup8\n        /* \"@openzeppelin/contracts/utils/cryptography/ECDSA.sol\":2638:2658  add(signature, 0x40) */\n      add\n        /* \"@openzeppelin/contracts/utils/cryptography/ECDSA.sol\":2632:2659  mload(add(signature, 0x40)) */\n      mload\n        /* \"@openzeppelin/contracts/utils/cryptography/ECDSA.sol\":2627:2659  s := mload(add(signature, 0x40)) */\n      swap2\n      pop\n        /* \"@openzeppelin/contracts/utils/cryptography/ECDSA.sol\":2710:2714  0x60 */\n      0x60\n        /* \"@openzeppelin/contracts/utils/cryptography/ECDSA.sol\":2699:2708  signature */\n      dup8\n        /* \"@openzeppelin/contracts/utils/cryptography/ECDSA.sol\":2695:2715  add(signature, 0x60) */\n      add\n        /* \"@openzeppelin/contracts/utils/cryptography/ECDSA.sol\":2689:2716  mload(add(signature, 0x60)) */\n      mload\n        /* \"@openzeppelin/contracts/utils/cryptography/ECDSA.sol\":2686:2687  0 */\n      0x00\n        /* \"@openzeppelin/contracts/utils/cryptography/ECDSA.sol\":2681:2717  byte(0, mload(add(signature, 0x60))) */\n      byte\n        /* \"@openzeppelin/contracts/utils/cryptography/ECDSA.sol\":2676:2717  v := byte(0, mload(add(signature, 0x60))) */\n      swap1\n      pop\n        /* \"@openzeppelin/contracts/utils/cryptography/ECDSA.sol\":2751:2776  tryRecover(hash, v, r, s) */\n      tag_48\n        /* \"@openzeppelin/contracts/utils/cryptography/ECDSA.sol\":2762:2766  hash */\n      dup9\n        /* \"@openzeppelin/contracts/utils/cryptography/ECDSA.sol\":2768:2769  v */\n      dup3\n        /* \"@openzeppelin/contracts/utils/cryptography/ECDSA.sol\":2771:2772  r */\n      dup6\n        /* \"@openzeppelin/contracts/utils/cryptography/ECDSA.sol\":2774:2775  s */\n      dup6\n        /* \"@openzeppelin/contracts/utils/cryptography/ECDSA.sol\":2751:2761  tryRecover */\n      tag_49\n        /* \"@openzeppelin/contracts/utils/cryptography/ECDSA.sol\":2751:2776  tryRecover(hash, v, r, s) */\n      jump\t// in\n    tag_48:\n        /* \"@openzeppelin/contracts/utils/cryptography/ECDSA.sol\":2744:2776  return tryRecover(hash, v, r, s) */\n      swap6\n      pop\n      swap6\n      pop\n      swap6\n      pop\n      pop\n      pop\n      pop\n      jump(tag_46)\n        /* \"@openzeppelin/contracts/utils/cryptography/ECDSA.sol\":2295:2901  if (signature.length == 65) {... */\n    tag_47:\n        /* \"@openzeppelin/contracts/utils/cryptography/ECDSA.sol\":2823:2824  0 */\n      0x00\n        /* \"@openzeppelin/contracts/utils/cryptography/ECDSA.sol\":2827:2862  RecoverError.InvalidSignatureLength */\n      0x02\n        /* \"@openzeppelin/contracts/utils/cryptography/ECDSA.sol\":2872:2881  signature */\n      dup6\n        /* \"@openzeppelin/contracts/utils/cryptography/ECDSA.sol\":2872:2888  signature.length */\n      mload\n        /* \"@openzeppelin/contracts/utils/cryptography/ECDSA.sol\":2864:2889  bytes32(signature.length) */\n      0x00\n      shl\n        /* \"@openzeppelin/contracts/utils/cryptography/ECDSA.sol\":2807:2890  return (address(0), RecoverError.InvalidSignatureLength, bytes32(signature.length)) */\n      swap3\n      pop\n      swap3\n      pop\n      swap3\n      pop\n        /* \"@openzeppelin/contracts/utils/cryptography/ECDSA.sol\":2129:2907  function tryRecover(... */\n    tag_46:\n      swap3\n      pop\n      swap3\n      pop\n      swap3\n      jump\t// out\n        /* \"@openzeppelin/contracts/utils/cryptography/ECDSA.sol\":7280:7812  function _throwError(RecoverError error, bytes32 errorArg) private pure {... */\n    tag_45:\n        /* \"@openzeppelin/contracts/utils/cryptography/ECDSA.sol\":7375:7395  RecoverError.NoError */\n      0x00\n        /* \"@openzeppelin/contracts/utils/cryptography/ECDSA.sol\":7366:7395  error == RecoverError.NoError */\n      0x03\n      dup2\n      gt\n      iszero\n      tag_52\n      jumpi\n      tag_53\n      tag_54\n      jump\t// in\n    tag_53:\n    tag_52:\n        /* \"@openzeppelin/contracts/utils/cryptography/ECDSA.sol\":7366:7371  error */\n      dup3\n        /* \"@openzeppelin/contracts/utils/cryptography/ECDSA.sol\":7366:7395  error == RecoverError.NoError */\n      0x03\n      dup2\n      gt\n      iszero\n      tag_55\n      jumpi\n      tag_56\n      tag_54\n      jump\t// in\n    tag_56:\n    tag_55:\n      sub\n        /* \"@openzeppelin/contracts/utils/cryptography/ECDSA.sol\":7362:7806  if (error == RecoverError.NoError) {... */\n      iszero\n        /* \"@openzeppelin/contracts/utils/cryptography/ECDSA.sol\":7411:7418  return; */\n      tag_51\n        /* \"@openzeppelin/contracts/utils/cryptography/ECDSA.sol\":7362:7806  if (error == RecoverError.NoError) {... */\n      jumpi\n        /* \"@openzeppelin/contracts/utils/cryptography/ECDSA.sol\":7471:7500  RecoverError.InvalidSignature */\n      0x01\n        /* \"@openzeppelin/contracts/utils/cryptography/ECDSA.sol\":7462:7500  error == RecoverError.InvalidSignature */\n      0x03\n      dup2\n      gt\n      iszero\n      tag_59\n      jumpi\n      tag_60\n      tag_54\n      jump\t// in\n    tag_60:\n    tag_59:\n        /* \"@openzeppelin/contracts/utils/cryptography/ECDSA.sol\":7462:7467  error */\n      dup3\n        /* \"@openzeppelin/contracts/utils/cryptography/ECDSA.sol\":7462:7500  error == RecoverError.InvalidSignature */\n      0x03\n      dup2\n      gt\n      iszero\n      tag_61\n      jumpi\n      tag_62\n      tag_54\n      jump\t// in\n    tag_62:\n    tag_61:\n      sub\n        /* \"@openzeppelin/contracts/utils/cryptography/ECDSA.sol\":7458:7806  if (error == RecoverError.InvalidSignature) {... */\n      tag_63\n      jumpi\n        /* \"@openzeppelin/contracts/utils/cryptography/ECDSA.sol\":7523:7546  ECDSAInvalidSignature() */\n      mload(0x40)\n      0xf645eedf00000000000000000000000000000000000000000000000000000000\n      dup2\n      mstore\n      0x04\n      add\n      mload(0x40)\n      dup1\n      swap2\n      sub\n      swap1\n      revert\n        /* \"@openzeppelin/contracts/utils/cryptography/ECDSA.sol\":7458:7806  if (error == RecoverError.InvalidSignature) {... */\n    tag_63:\n        /* \"@openzeppelin/contracts/utils/cryptography/ECDSA.sol\":7576:7611  RecoverError.InvalidSignatureLength */\n      0x02\n        /* \"@openzeppelin/contracts/utils/cryptography/ECDSA.sol\":7567:7611  error == RecoverError.InvalidSignatureLength */\n      0x03\n      dup2\n      gt\n      iszero\n      tag_65\n      jumpi\n      tag_66\n      tag_54\n      jump\t// in\n    tag_66:\n    tag_65:\n        /* \"@openzeppelin/contracts/utils/cryptography/ECDSA.sol\":7567:7572  error */\n      dup3\n        /* \"@openzeppelin/contracts/utils/cryptography/ECDSA.sol\":7567:7611  error == RecoverError.InvalidSignatureLength */\n      0x03\n      dup2\n      gt\n      iszero\n      tag_67\n      jumpi\n      tag_68\n      tag_54\n      jump\t// in\n    tag_68:\n    tag_67:\n      sub\n        /* \"@openzeppelin/contracts/utils/cryptography/ECDSA.sol\":7563:7806  if (error == RecoverError.InvalidSignatureLength) {... */\n      tag_69\n      jumpi\n        /* \"@openzeppelin/contracts/utils/cryptography/ECDSA.sol\":7670:7678  errorArg */\n      dup1\n        /* \"@openzeppelin/contracts/utils/cryptography/ECDSA.sol\":7662:7679  uint256(errorArg) */\n      0x00\n      shr\n        /* \"@openzeppelin/contracts/utils/cryptography/ECDSA.sol\":7634:7680  ECDSAInvalidSignatureLength(uint256(errorArg)) */\n      mload(0x40)\n      0xfce698f700000000000000000000000000000000000000000000000000000000\n      dup2\n      mstore\n      0x04\n      add\n      tag_70\n      swap2\n      swap1\n      tag_71\n      jump\t// in\n    tag_70:\n      mload(0x40)\n      dup1\n      swap2\n      sub\n      swap1\n      revert\n        /* \"@openzeppelin/contracts/utils/cryptography/ECDSA.sol\":7563:7806  if (error == RecoverError.InvalidSignatureLength) {... */\n    tag_69:\n        /* \"@openzeppelin/contracts/utils/cryptography/ECDSA.sol\":7710:7740  RecoverError.InvalidSignatureS */\n      0x03\n        /* \"@openzeppelin/contracts/utils/cryptography/ECDSA.sol\":7701:7740  error == RecoverError.InvalidSignatureS */\n      dup1\n      dup2\n      gt\n      iszero\n      tag_73\n      jumpi\n      tag_74\n      tag_54\n      jump\t// in\n    tag_74:\n    tag_73:\n        /* \"@openzeppelin/contracts/utils/cryptography/ECDSA.sol\":7701:7706  error */\n      dup3\n        /* \"@openzeppelin/contracts/utils/cryptography/ECDSA.sol\":7701:7740  error == RecoverError.InvalidSignatureS */\n      0x03\n      dup2\n      gt\n      iszero\n      tag_75\n      jumpi\n      tag_76\n      tag_54\n      jump\t// in\n    tag_76:\n    tag_75:\n      sub\n        /* \"@openzeppelin/contracts/utils/cryptography/ECDSA.sol\":7697:7806  if (error == RecoverError.InvalidSignatureS) {... */\n      tag_77\n      jumpi\n        /* \"@openzeppelin/contracts/utils/cryptography/ECDSA.sol\":7786:7794  errorArg */\n      dup1\n        /* \"@openzeppelin/contracts/utils/cryptography/ECDSA.sol\":7763:7795  ECDSAInvalidSignatureS(errorArg) */\n      mload(0x40)\n      0xd78bce0c00000000000000000000000000000000000000000000000000000000\n      dup2\n      mstore\n      0x04\n      add\n      tag_78\n      swap2\n      swap1\n      tag_12\n      jump\t// in\n    tag_78:\n      mload(0x40)\n      dup1\n      swap2\n      sub\n      swap1\n      revert\n        /* \"@openzeppelin/contracts/utils/cryptography/ECDSA.sol\":7697:7806  if (error == RecoverError.InvalidSignatureS) {... */\n    tag_77:\n        /* \"@openzeppelin/contracts/utils/cryptography/ECDSA.sol\":7280:7812  function _throwError(RecoverError error, bytes32 errorArg) private pure {... */\n    tag_51:\n      pop\n      pop\n      jump\t// out\n        /* \"@openzeppelin/contracts/utils/cryptography/ECDSA.sol\":5203:6754  function tryRecover(... */\n    tag_49:\n        /* \"@openzeppelin/contracts/utils/cryptography/ECDSA.sol\":5329:5346  address recovered */\n      0x00\n        /* \"@openzeppelin/contracts/utils/cryptography/ECDSA.sol\":5348:5364  RecoverError err */\n      0x00\n        /* \"@openzeppelin/contracts/utils/cryptography/ECDSA.sol\":5366:5380  bytes32 errArg */\n      0x00\n        /* \"@openzeppelin/contracts/utils/cryptography/ECDSA.sol\":6283:6349  0x7FFFFFFFFFFFFFFFFFFFFFFFFFFFFFFF5D576E7357A4501DDFE92F46681B20A0 */\n      0x7fffffffffffffffffffffffffffffff5d576e7357a4501ddfe92f46681b20a0\n        /* \"@openzeppelin/contracts/utils/cryptography/ECDSA.sol\":6278:6279  s */\n      dup5\n        /* \"@openzeppelin/contracts/utils/cryptography/ECDSA.sol\":6270:6280  uint256(s) */\n      0x00\n      shr\n        /* \"@openzeppelin/contracts/utils/cryptography/ECDSA.sol\":6270:6349  uint256(s) > 0x7FFFFFFFFFFFFFFFFFFFFFFFFFFFFFFF5D576E7357A4501DDFE92F46681B20A0 */\n      gt\n        /* \"@openzeppelin/contracts/utils/cryptography/ECDSA.sol\":6266:6430  if (uint256(s) > 0x7FFFFFFFFFFFFFFFFFFFFFFFFFFFFFFF5D576E7357A4501DDFE92F46681B20A0) {... */\n      iszero\n      tag_80\n      jumpi\n        /* \"@openzeppelin/contracts/utils/cryptography/ECDSA.sol\":6381:6382  0 */\n      0x00\n        /* \"@openzeppelin/contracts/utils/cryptography/ECDSA.sol\":6385:6415  RecoverError.InvalidSignatureS */\n      0x03\n        /* \"@openzeppelin/contracts/utils/cryptography/ECDSA.sol\":6417:6418  s */\n      dup6\n        /* \"@openzeppelin/contracts/utils/cryptography/ECDSA.sol\":6365:6419  return (address(0), RecoverError.InvalidSignatureS, s) */\n      swap3\n      pop\n      swap3\n      pop\n      swap3\n      pop\n      jump(tag_79)\n        /* \"@openzeppelin/contracts/utils/cryptography/ECDSA.sol\":6266:6430  if (uint256(s) > 0x7FFFFFFFFFFFFFFFFFFFFFFFFFFFFFFF5D576E7357A4501DDFE92F46681B20A0) {... */\n    tag_80:\n        /* \"@openzeppelin/contracts/utils/cryptography/ECDSA.sol\":6524:6538  address signer */\n      0x00\n        /* \"@openzeppelin/contracts/utils/cryptography/ECDSA.sol\":6541:6565  ecrecover(hash, v, r, s) */\n      0x01\n        /* \"@openzeppelin/contracts/utils/cryptography/ECDSA.sol\":6551:6555  hash */\n      dup9\n        /* \"@openzeppelin/contracts/utils/cryptography/ECDSA.sol\":6557:6558  v */\n      dup9\n        /* \"@openzeppelin/contracts/utils/cryptography/ECDSA.sol\":6560:6561  r */\n      dup9\n        /* \"@openzeppelin/contracts/utils/cryptography/ECDSA.sol\":6563:6564  s */\n      dup9\n        /* \"@openzeppelin/contracts/utils/cryptography/ECDSA.sol\":6541:6565  ecrecover(hash, v, r, s) */\n      mload(0x40)\n      0x00\n      dup2\n      mstore\n      0x20\n      add\n      0x40\n      mstore\n      mload(0x40)\n      tag_81\n      swap5\n      swap4\n      swap3\n      swap2\n      swap1\n      tag_82\n      jump\t// in\n    tag_81:\n      0x20\n      mload(0x40)\n      0x20\n      dup2\n      sub\n      swap1\n      dup1\n      dup5\n      sub\n      swap1\n      dup6\n      gas\n      staticcall\n      iszero\n      dup1\n      iszero\n      tag_84\n      jumpi\n      returndatacopy(0x00, 0x00, returndatasize)\n      revert(0x00, returndatasize)\n    tag_84:\n      pop\n      pop\n      pop\n      mload(sub(mload(0x40), 0x20))\n        /* \"@openzeppelin/contracts/utils/cryptography/ECDSA.sol\":6524:6565  address signer = ecrecover(hash, v, r, s) */\n      swap1\n      pop\n        /* \"@openzeppelin/contracts/utils/cryptography/ECDSA.sol\":6597:6598  0 */\n      0x00\n        /* \"@openzeppelin/contracts/utils/cryptography/ECDSA.sol\":6579:6599  signer == address(0) */\n      0xffffffffffffffffffffffffffffffffffffffff\n      and\n        /* \"@openzeppelin/contracts/utils/cryptography/ECDSA.sol\":6579:6585  signer */\n      dup2\n        /* \"@openzeppelin/contracts/utils/cryptography/ECDSA.sol\":6579:6599  signer == address(0) */\n      0xffffffffffffffffffffffffffffffffffffffff\n      and\n      sub\n        /* \"@openzeppelin/contracts/utils/cryptography/ECDSA.sol\":6575:6688  if (signer == address(0)) {... */\n      tag_85\n      jumpi\n        /* \"@openzeppelin/contracts/utils/cryptography/ECDSA.sol\":6631:6632  0 */\n      0x00\n        /* \"@openzeppelin/contracts/utils/cryptography/ECDSA.sol\":6635:6664  RecoverError.InvalidSignature */\n      0x01\n        /* \"@openzeppelin/contracts/utils/cryptography/ECDSA.sol\":6674:6675  0 */\n      0x00\n        /* \"@openzeppelin/contracts/utils/cryptography/ECDSA.sol\":6666:6676  bytes32(0) */\n      0x00\n      shl\n        /* \"@openzeppelin/contracts/utils/cryptography/ECDSA.sol\":6615:6677  return (address(0), RecoverError.InvalidSignature, bytes32(0)) */\n      swap4\n      pop\n      swap4\n      pop\n      swap4\n      pop\n      pop\n      jump(tag_79)\n        /* \"@openzeppelin/contracts/utils/cryptography/ECDSA.sol\":6575:6688  if (signer == address(0)) {... */\n    tag_85:\n        /* \"@openzeppelin/contracts/utils/cryptography/ECDSA.sol\":6706:6712  signer */\n      dup1\n        /* \"@openzeppelin/contracts/utils/cryptography/ECDSA.sol\":6714:6734  RecoverError.NoError */\n      0x00\n        /* \"@openzeppelin/contracts/utils/cryptography/ECDSA.sol\":6744:6745  0 */\n      0x00\n        /* \"@openzeppelin/contracts/utils/cryptography/ECDSA.sol\":6736:6746  bytes32(0) */\n      0x00\n      shl\n        /* \"@openzeppelin/contracts/utils/cryptography/ECDSA.sol\":6698:6747  return (signer, RecoverError.NoError, bytes32(0)) */\n      swap4\n      pop\n      swap4\n      pop\n      swap4\n      pop\n      pop\n        /* \"@openzeppelin/contracts/utils/cryptography/ECDSA.sol\":5203:6754  function tryRecover(... */\n    tag_79:\n      swap5\n      pop\n      swap5\n      pop\n      swap5\n      swap2\n      pop\n      pop\n      jump\t// out\n        /* \"#utility.yul\":7:82   */\n    tag_86:\n        /* \"#utility.yul\":40:46   */\n      0x00\n        /* \"#utility.yul\":73:75   */\n      0x40\n        /* \"#utility.yul\":67:76   */\n      mload\n        /* \"#utility.yul\":57:76   */\n      swap1\n      pop\n        /* \"#utility.yul\":7:82   */\n      swap1\n      jump\t// out\n        /* \"#utility.yul\":88:205   */\n    tag_87:\n        /* \"#utility.yul\":197:198   */\n      0x00\n        /* \"#utility.yul\":194:195   */\n      0x00\n        /* \"#utility.yul\":187:199   */\n      revert\n        /* \"#utility.yul\":211:328   */\n    tag_88:\n        /* \"#utility.yul\":320:321   */\n      0x00\n        /* \"#utility.yul\":317:318   */\n      0x00\n        /* \"#utility.yul\":310:322   */\n      revert\n        /* \"#utility.yul\":334:451   */\n    tag_89:\n        /* \"#utility.yul\":443:444   */\n      0x00\n        /* \"#utility.yul\":440:441   */\n      0x00\n        /* \"#utility.yul\":433:445   */\n      revert\n        /* \"#utility.yul\":457:574   */\n    tag_90:\n        /* \"#utility.yul\":566:567   */\n      0x00\n        /* \"#utility.yul\":563:564   */\n      0x00\n        /* \"#utility.yul\":556:568   */\n      revert\n        /* \"#utility.yul\":580:682   */\n    tag_91:\n        /* \"#utility.yul\":621:627   */\n      0x00\n        /* \"#utility.yul\":672:674   */\n      0x1f\n        /* \"#utility.yul\":668:675   */\n      not\n        /* \"#utility.yul\":663:665   */\n      0x1f\n        /* \"#utility.yul\":656:661   */\n      dup4\n        /* \"#utility.yul\":652:666   */\n      add\n        /* \"#utility.yul\":648:676   */\n      and\n        /* \"#utility.yul\":638:676   */\n      swap1\n      pop\n        /* \"#utility.yul\":580:682   */\n      swap2\n      swap1\n      pop\n      jump\t// out\n        /* \"#utility.yul\":688:868   */\n    tag_92:\n        /* \"#utility.yul\":736:813   */\n      0x4e487b7100000000000000000000000000000000000000000000000000000000\n        /* \"#utility.yul\":733:734   */\n      0x00\n        /* \"#utility.yul\":726:814   */\n      mstore\n        /* \"#utility.yul\":833:837   */\n      0x41\n        /* \"#utility.yul\":830:831   */\n      0x04\n        /* \"#utility.yul\":823:838   */\n      mstore\n        /* \"#utility.yul\":857:861   */\n      0x24\n        /* \"#utility.yul\":854:855   */\n      0x00\n        /* \"#utility.yul\":847:862   */\n      revert\n        /* \"#utility.yul\":874:1155   */\n    tag_93:\n        /* \"#utility.yul\":957:984   */\n      tag_131\n        /* \"#utility.yul\":979:983   */\n      dup3\n        /* \"#utility.yul\":957:984   */\n      tag_91\n      jump\t// in\n    tag_131:\n        /* \"#utility.yul\":949:955   */\n      dup2\n        /* \"#utility.yul\":945:985   */\n      add\n        /* \"#utility.yul\":1087:1093   */\n      dup2\n        /* \"#utility.yul\":1075:1085   */\n      dup2\n        /* \"#utility.yul\":1072:1094   */\n      lt\n        /* \"#utility.yul\":1051:1069   */\n      0xffffffffffffffff\n        /* \"#utility.yul\":1039:1049   */\n      dup3\n        /* \"#utility.yul\":1036:1070   */\n      gt\n        /* \"#utility.yul\":1033:1095   */\n      or\n        /* \"#utility.yul\":1030:1118   */\n      iszero\n      tag_132\n      jumpi\n        /* \"#utility.yul\":1098:1116   */\n      tag_133\n      tag_92\n      jump\t// in\n    tag_133:\n        /* \"#utility.yul\":1030:1118   */\n    tag_132:\n        /* \"#utility.yul\":1138:1148   */\n      dup1\n        /* \"#utility.yul\":1134:1136   */\n      0x40\n        /* \"#utility.yul\":1127:1149   */\n      mstore\n        /* \"#utility.yul\":917:1155   */\n      pop\n        /* \"#utility.yul\":874:1155   */\n      pop\n      pop\n      jump\t// out\n        /* \"#utility.yul\":1161:1290   */\n    tag_94:\n        /* \"#utility.yul\":1195:1201   */\n      0x00\n        /* \"#utility.yul\":1222:1242   */\n      tag_135\n      tag_86\n      jump\t// in\n    tag_135:\n        /* \"#utility.yul\":1212:1242   */\n      swap1\n      pop\n        /* \"#utility.yul\":1251:1284   */\n      tag_136\n        /* \"#utility.yul\":1279:1283   */\n      dup3\n        /* \"#utility.yul\":1271:1277   */\n      dup3\n        /* \"#utility.yul\":1251:1284   */\n      tag_93\n      jump\t// in\n    tag_136:\n        /* \"#utility.yul\":1161:1290   */\n      swap2\n      swap1\n      pop\n      jump\t// out\n        /* \"#utility.yul\":1296:1604   */\n    tag_95:\n        /* \"#utility.yul\":1358:1362   */\n      0x00\n        /* \"#utility.yul\":1448:1466   */\n      0xffffffffffffffff\n        /* \"#utility.yul\":1440:1446   */\n      dup3\n        /* \"#utility.yul\":1437:1467   */\n      gt\n        /* \"#utility.yul\":1434:1490   */\n      iszero\n      tag_138\n      jumpi\n        /* \"#utility.yul\":1470:1488   */\n      tag_139\n      tag_92\n      jump\t// in\n    tag_139:\n        /* \"#utility.yul\":1434:1490   */\n    tag_138:\n        /* \"#utility.yul\":1508:1537   */\n      tag_140\n        /* \"#utility.yul\":1530:1536   */\n      dup3\n        /* \"#utility.yul\":1508:1537   */\n      tag_91\n      jump\t// in\n    tag_140:\n        /* \"#utility.yul\":1500:1537   */\n      swap1\n      pop\n        /* \"#utility.yul\":1592:1596   */\n      0x20\n        /* \"#utility.yul\":1586:1590   */\n      dup2\n        /* \"#utility.yul\":1582:1597   */\n      add\n        /* \"#utility.yul\":1574:1597   */\n      swap1\n      pop\n        /* \"#utility.yul\":1296:1604   */\n      swap2\n      swap1\n      pop\n      jump\t// out\n        /* \"#utility.yul\":1610:1758   */\n    tag_96:\n        /* \"#utility.yul\":1708:1714   */\n      dup3\n        /* \"#utility.yul\":1703:1706   */\n      dup2\n        /* \"#utility.yul\":1698:1701   */\n      dup4\n        /* \"#utility.yul\":1685:1715   */\n      calldatacopy\n        /* \"#utility.yul\":1749:1750   */\n      0x00\n        /* \"#utility.yul\":1740:1746   */\n      dup4\n        /* \"#utility.yul\":1735:1738   */\n      dup4\n        /* \"#utility.yul\":1731:1747   */\n      add\n        /* \"#utility.yul\":1724:1751   */\n      mstore\n        /* \"#utility.yul\":1610:1758   */\n      pop\n      pop\n      pop\n      jump\t// out\n        /* \"#utility.yul\":1764:2189   */\n    tag_97:\n        /* \"#utility.yul\":1842:1847   */\n      0x00\n        /* \"#utility.yul\":1867:1933   */\n      tag_143\n        /* \"#utility.yul\":1883:1932   */\n      tag_144\n        /* \"#utility.yul\":1925:1931   */\n      dup5\n        /* \"#utility.yul\":1883:1932   */\n      tag_95\n      jump\t// in\n    tag_144:\n        /* \"#utility.yul\":1867:1933   */\n      tag_94\n      jump\t// in\n    tag_143:\n        /* \"#utility.yul\":1858:1933   */\n      swap1\n      pop\n        /* \"#utility.yul\":1956:1962   */\n      dup3\n        /* \"#utility.yul\":1949:1954   */\n      dup2\n        /* \"#utility.yul\":1942:1963   */\n      mstore\n        /* \"#utility.yul\":1994:1998   */\n      0x20\n        /* \"#utility.yul\":1987:1992   */\n      dup2\n        /* \"#utility.yul\":1983:1999   */\n      add\n        /* \"#utility.yul\":2032:2035   */\n      dup5\n        /* \"#utility.yul\":2023:2029   */\n      dup5\n        /* \"#utility.yul\":2018:2021   */\n      dup5\n        /* \"#utility.yul\":2014:2030   */\n      add\n        /* \"#utility.yul\":2011:2036   */\n      gt\n        /* \"#utility.yul\":2008:2120   */\n      iszero\n      tag_145\n      jumpi\n        /* \"#utility.yul\":2039:2118   */\n      tag_146\n      tag_90\n      jump\t// in\n    tag_146:\n        /* \"#utility.yul\":2008:2120   */\n    tag_145:\n        /* \"#utility.yul\":2129:2183   */\n      tag_147\n        /* \"#utility.yul\":2176:2182   */\n      dup5\n        /* \"#utility.yul\":2171:2174   */\n      dup3\n        /* \"#utility.yul\":2166:2169   */\n      dup6\n        /* \"#utility.yul\":2129:2183   */\n      tag_96\n      jump\t// in\n    tag_147:\n        /* \"#utility.yul\":1848:2189   */\n      pop\n        /* \"#utility.yul\":1764:2189   */\n      swap4\n      swap3\n      pop\n      pop\n      pop\n      jump\t// out\n        /* \"#utility.yul\":2209:2549   */\n    tag_98:\n        /* \"#utility.yul\":2265:2270   */\n      0x00\n        /* \"#utility.yul\":2314:2317   */\n      dup3\n        /* \"#utility.yul\":2307:2311   */\n      0x1f\n        /* \"#utility.yul\":2299:2305   */\n      dup4\n        /* \"#utility.yul\":2295:2312   */\n      add\n        /* \"#utility.yul\":2291:2318   */\n      slt\n        /* \"#utility.yul\":2281:2403   */\n      tag_149\n      jumpi\n        /* \"#utility.yul\":2322:2401   */\n      tag_150\n      tag_89\n      jump\t// in\n    tag_150:\n        /* \"#utility.yul\":2281:2403   */\n    tag_149:\n        /* \"#utility.yul\":2439:2445   */\n      dup2\n        /* \"#utility.yul\":2426:2446   */\n      calldataload\n        /* \"#utility.yul\":2464:2543   */\n      tag_151\n        /* \"#utility.yul\":2539:2542   */\n      dup5\n        /* \"#utility.yul\":2531:2537   */\n      dup3\n        /* \"#utility.yul\":2524:2528   */\n      0x20\n        /* \"#utility.yul\":2516:2522   */\n      dup7\n        /* \"#utility.yul\":2512:2529   */\n      add\n        /* \"#utility.yul\":2464:2543   */\n      tag_97\n      jump\t// in\n    tag_151:\n        /* \"#utility.yul\":2455:2543   */\n      swap2\n      pop\n        /* \"#utility.yul\":2271:2549   */\n      pop\n        /* \"#utility.yul\":2209:2549   */\n      swap3\n      swap2\n      pop\n      pop\n      jump\t// out\n        /* \"#utility.yul\":2555:3064   */\n    tag_9:\n        /* \"#utility.yul\":2624:2630   */\n      0x00\n        /* \"#utility.yul\":2673:2675   */\n      0x20\n        /* \"#utility.yul\":2661:2670   */\n      dup3\n        /* \"#utility.yul\":2652:2659   */\n      dup5\n        /* \"#utility.yul\":2648:2671   */\n      sub\n        /* \"#utility.yul\":2644:2676   */\n      slt\n        /* \"#utility.yul\":2641:2760   */\n      iszero\n      tag_153\n      jumpi\n        /* \"#utility.yul\":2679:2758   */\n      tag_154\n      tag_87\n      jump\t// in\n    tag_154:\n        /* \"#utility.yul\":2641:2760   */\n    tag_153:\n        /* \"#utility.yul\":2827:2828   */\n      0x00\n        /* \"#utility.yul\":2816:2825   */\n      dup3\n        /* \"#utility.yul\":2812:2829   */\n      add\n        /* \"#utility.yul\":2799:2830   */\n      calldataload\n        /* \"#utility.yul\":2857:2875   */\n      0xffffffffffffffff\n        /* \"#utility.yul\":2849:2855   */\n      dup2\n        /* \"#utility.yul\":2846:2876   */\n      gt\n        /* \"#utility.yul\":2843:2960   */\n      iszero\n      tag_155\n      jumpi\n        /* \"#utility.yul\":2879:2958   */\n      tag_156\n      tag_88\n      jump\t// in\n    tag_156:\n        /* \"#utility.yul\":2843:2960   */\n    tag_155:\n        /* \"#utility.yul\":2984:3047   */\n      tag_157\n        /* \"#utility.yul\":3039:3046   */\n      dup5\n        /* \"#utility.yul\":3030:3036   */\n      dup3\n        /* \"#utility.yul\":3019:3028   */\n      dup6\n        /* \"#utility.yul\":3015:3037   */\n      add\n        /* \"#utility.yul\":2984:3047   */\n      tag_98\n      jump\t// in\n    tag_157:\n        /* \"#utility.yul\":2974:3047   */\n      swap2\n      pop\n        /* \"#utility.yul\":2770:3057   */\n      pop\n        /* \"#utility.yul\":2555:3064   */\n      swap3\n      swap2\n      pop\n      pop\n      jump\t// out\n        /* \"#utility.yul\":3070:3147   */\n    tag_99:\n        /* \"#utility.yul\":3107:3114   */\n      0x00\n        /* \"#utility.yul\":3136:3141   */\n      dup2\n        /* \"#utility.yul\":3125:3141   */\n      swap1\n      pop\n        /* \"#utility.yul\":3070:3147   */\n      swap2\n      swap1\n      pop\n      jump\t// out\n        /* \"#utility.yul\":3153:3271   */\n    tag_100:\n        /* \"#utility.yul\":3240:3264   */\n      tag_160\n        /* \"#utility.yul\":3258:3263   */\n      dup2\n        /* \"#utility.yul\":3240:3264   */\n      tag_99\n      jump\t// in\n    tag_160:\n        /* \"#utility.yul\":3235:3238   */\n      dup3\n        /* \"#utility.yul\":3228:3265   */\n      mstore\n        /* \"#utility.yul\":3153:3271   */\n      pop\n      pop\n      jump\t// out\n        /* \"#utility.yul\":3277:3499   */\n    tag_12:\n        /* \"#utility.yul\":3370:3374   */\n      0x00\n        /* \"#utility.yul\":3408:3410   */\n      0x20\n        /* \"#utility.yul\":3397:3406   */\n      dup3\n        /* \"#utility.yul\":3393:3411   */\n      add\n        /* \"#utility.yul\":3385:3411   */\n      swap1\n      pop\n        /* \"#utility.yul\":3421:3492   */\n      tag_162\n        /* \"#utility.yul\":3489:3490   */\n      0x00\n        /* \"#utility.yul\":3478:3487   */\n      dup4\n        /* \"#utility.yul\":3474:3491   */\n      add\n        /* \"#utility.yul\":3465:3471   */\n      dup5\n        /* \"#utility.yul\":3421:3492   */\n      tag_100\n      jump\t// in\n    tag_162:\n        /* \"#utility.yul\":3277:3499   */\n      swap3\n      swap2\n      pop\n      pop\n      jump\t// out\n        /* \"#utility.yul\":3505:3627   */\n    tag_101:\n        /* \"#utility.yul\":3578:3602   */\n      tag_164\n        /* \"#utility.yul\":3596:3601   */\n      dup2\n        /* \"#utility.yul\":3578:3602   */\n      tag_99\n      jump\t// in\n    tag_164:\n        /* \"#utility.yul\":3571:3576   */\n      dup2\n        /* \"#utility.yul\":3568:3603   */\n      eq\n        /* \"#utility.yul\":3558:3621   */\n      tag_165\n      jumpi\n        /* \"#utility.yul\":3617:3618   */\n      0x00\n        /* \"#utility.yul\":3614:3615   */\n      0x00\n        /* \"#utility.yul\":3607:3619   */\n      revert\n        /* \"#utility.yul\":3558:3621   */\n    tag_165:\n        /* \"#utility.yul\":3505:3627   */\n      pop\n      jump\t// out\n        /* \"#utility.yul\":3633:3772   */\n    tag_102:\n        /* \"#utility.yul\":3679:3684   */\n      0x00\n        /* \"#utility.yul\":3717:3723   */\n      dup2\n        /* \"#utility.yul\":3704:3724   */\n      calldataload\n        /* \"#utility.yul\":3695:3724   */\n      swap1\n      pop\n        /* \"#utility.yul\":3733:3766   */\n      tag_167\n        /* \"#utility.yul\":3760:3765   */\n      dup2\n        /* \"#utility.yul\":3733:3766   */\n      tag_101\n      jump\t// in\n    tag_167:\n        /* \"#utility.yul\":3633:3772   */\n      swap3\n      swap2\n      pop\n      pop\n      jump\t// out\n        /* \"#utility.yul\":3778:4107   */\n    tag_15:\n        /* \"#utility.yul\":3837:3843   */\n      0x00\n        /* \"#utility.yul\":3886:3888   */\n      0x20\n        /* \"#utility.yul\":3874:3883   */\n      dup3\n        /* \"#utility.yul\":3865:3872   */\n      dup5\n        /* \"#utility.yul\":3861:3884   */\n      sub\n        /* \"#utility.yul\":3857:3889   */\n      slt\n        /* \"#utility.yul\":3854:3973   */\n      iszero\n      tag_169\n      jumpi\n        /* \"#utility.yul\":3892:3971   */\n      tag_170\n      tag_87\n      jump\t// in\n    tag_170:\n        /* \"#utility.yul\":3854:3973   */\n    tag_169:\n        /* \"#utility.yul\":4012:4013   */\n      0x00\n        /* \"#utility.yul\":4037:4090   */\n      tag_171\n        /* \"#utility.yul\":4082:4089   */\n      dup5\n        /* \"#utility.yul\":4073:4079   */\n      dup3\n        /* \"#utility.yul\":4062:4071   */\n      dup6\n        /* \"#utility.yul\":4058:4080   */\n      add\n        /* \"#utility.yul\":4037:4090   */\n      tag_102\n      jump\t// in\n    tag_171:\n        /* \"#utility.yul\":4027:4090   */\n      swap2\n      pop\n        /* \"#utility.yul\":3983:4100   */\n      pop\n        /* \"#utility.yul\":3778:4107   */\n      swap3\n      swap2\n      pop\n      pop\n      jump\t// out\n        /* \"#utility.yul\":4113:4230   */\n    tag_103:\n        /* \"#utility.yul\":4222:4223   */\n      0x00\n        /* \"#utility.yul\":4219:4220   */\n      0x00\n        /* \"#utility.yul\":4212:4224   */\n      revert\n        /* \"#utility.yul\":4236:4353   */\n    tag_104:\n        /* \"#utility.yul\":4345:4346   */\n      0x00\n        /* \"#utility.yul\":4342:4343   */\n      0x00\n        /* \"#utility.yul\":4335:4347   */\n      revert\n        /* \"#utility.yul\":4372:4924   */\n    tag_105:\n        /* \"#utility.yul\":4429:4437   */\n      0x00\n        /* \"#utility.yul\":4439:4445   */\n      0x00\n        /* \"#utility.yul\":4489:4492   */\n      dup4\n        /* \"#utility.yul\":4482:4486   */\n      0x1f\n        /* \"#utility.yul\":4474:4480   */\n      dup5\n        /* \"#utility.yul\":4470:4487   */\n      add\n        /* \"#utility.yul\":4466:4493   */\n      slt\n        /* \"#utility.yul\":4456:4578   */\n      tag_175\n      jumpi\n        /* \"#utility.yul\":4497:4576   */\n      tag_176\n      tag_89\n      jump\t// in\n    tag_176:\n        /* \"#utility.yul\":4456:4578   */\n    tag_175:\n        /* \"#utility.yul\":4610:4616   */\n      dup3\n        /* \"#utility.yul\":4597:4617   */\n      calldataload\n        /* \"#utility.yul\":4587:4617   */\n      swap1\n      pop\n        /* \"#utility.yul\":4640:4658   */\n      0xffffffffffffffff\n        /* \"#utility.yul\":4632:4638   */\n      dup2\n        /* \"#utility.yul\":4629:4659   */\n      gt\n        /* \"#utility.yul\":4626:4743   */\n      iszero\n      tag_177\n      jumpi\n        /* \"#utility.yul\":4662:4741   */\n      tag_178\n      tag_103\n      jump\t// in\n    tag_178:\n        /* \"#utility.yul\":4626:4743   */\n    tag_177:\n        /* \"#utility.yul\":4776:4780   */\n      0x20\n        /* \"#utility.yul\":4768:4774   */\n      dup4\n        /* \"#utility.yul\":4764:4781   */\n      add\n        /* \"#utility.yul\":4752:4781   */\n      swap2\n      pop\n        /* \"#utility.yul\":4830:4833   */\n      dup4\n        /* \"#utility.yul\":4822:4826   */\n      0x01\n        /* \"#utility.yul\":4814:4820   */\n      dup3\n        /* \"#utility.yul\":4810:4827   */\n      mul\n        /* \"#utility.yul\":4800:4808   */\n      dup4\n        /* \"#utility.yul\":4796:4828   */\n      add\n        /* \"#utility.yul\":4793:4834   */\n      gt\n        /* \"#utility.yul\":4790:4918   */\n      iszero\n      tag_179\n      jumpi\n        /* \"#utility.yul\":4837:4916   */\n      tag_180\n      tag_104\n      jump\t// in\n    tag_180:\n        /* \"#utility.yul\":4790:4918   */\n    tag_179:\n        /* \"#utility.yul\":4372:4924   */\n      swap3\n      pop\n      swap3\n      swap1\n      pop\n      jump\t// out\n        /* \"#utility.yul\":4930:5056   */\n    tag_106:\n        /* \"#utility.yul\":4967:4974   */\n      0x00\n        /* \"#utility.yul\":5007:5049   */\n      0xffffffffffffffffffffffffffffffffffffffff\n        /* \"#utility.yul\":5000:5005   */\n      dup3\n        /* \"#utility.yul\":4996:5050   */\n      and\n        /* \"#utility.yul\":4985:5050   */\n      swap1\n      pop\n        /* \"#utility.yul\":4930:5056   */\n      swap2\n      swap1\n      pop\n      jump\t// out\n        /* \"#utility.yul\":5062:5158   */\n    tag_107:\n        /* \"#utility.yul\":5099:5106   */\n      0x00\n        /* \"#utility.yul\":5128:5152   */\n      tag_183\n        /* \"#utility.yul\":5146:5151   */\n      dup3\n        /* \"#utility.yul\":5128:5152   */\n      tag_106\n      jump\t// in\n    tag_183:\n        /* \"#utility.yul\":5117:5152   */\n      swap1\n      pop\n        /* \"#utility.yul\":5062:5158   */\n      swap2\n      swap1\n      pop\n      jump\t// out\n        /* \"#utility.yul\":5164:5286   */\n    tag_108:\n        /* \"#utility.yul\":5237:5261   */\n      tag_185\n        /* \"#utility.yul\":5255:5260   */\n      dup2\n        /* \"#utility.yul\":5237:5261   */\n      tag_107\n      jump\t// in\n    tag_185:\n        /* \"#utility.yul\":5230:5235   */\n      dup2\n        /* \"#utility.yul\":5227:5262   */\n      eq\n        /* \"#utility.yul\":5217:5280   */\n      tag_186\n      jumpi\n        /* \"#utility.yul\":5276:5277   */\n      0x00\n        /* \"#utility.yul\":5273:5274   */\n      0x00\n        /* \"#utility.yul\":5266:5278   */\n      revert\n        /* \"#utility.yul\":5217:5280   */\n    tag_186:\n        /* \"#utility.yul\":5164:5286   */\n      pop\n      jump\t// out\n        /* \"#utility.yul\":5292:5431   */\n    tag_109:\n        /* \"#utility.yul\":5338:5343   */\n      0x00\n        /* \"#utility.yul\":5376:5382   */\n      dup2\n        /* \"#utility.yul\":5363:5383   */\n      calldataload\n        /* \"#utility.yul\":5354:5383   */\n      swap1\n      pop\n        /* \"#utility.yul\":5392:5425   */\n      tag_188\n        /* \"#utility.yul\":5419:5424   */\n      dup2\n        /* \"#utility.yul\":5392:5425   */\n      tag_108\n      jump\t// in\n    tag_188:\n        /* \"#utility.yul\":5292:5431   */\n      swap3\n      swap2\n      pop\n      pop\n      jump\t// out\n        /* \"#utility.yul\":5437:6434   */\n    tag_20:\n        /* \"#utility.yul\":5535:5541   */\n      0x00\n        /* \"#utility.yul\":5543:5549   */\n      0x00\n        /* \"#utility.yul\":5551:5557   */\n      0x00\n        /* \"#utility.yul\":5559:5565   */\n      0x00\n        /* \"#utility.yul\":5608:5610   */\n      0x60\n        /* \"#utility.yul\":5596:5605   */\n      dup6\n        /* \"#utility.yul\":5587:5594   */\n      dup8\n        /* \"#utility.yul\":5583:5606   */\n      sub\n        /* \"#utility.yul\":5579:5611   */\n      slt\n        /* \"#utility.yul\":5576:5695   */\n      iszero\n      tag_190\n      jumpi\n        /* \"#utility.yul\":5614:5693   */\n      tag_191\n      tag_87\n      jump\t// in\n    tag_191:\n        /* \"#utility.yul\":5576:5695   */\n    tag_190:\n        /* \"#utility.yul\":5762:5763   */\n      0x00\n        /* \"#utility.yul\":5751:5760   */\n      dup6\n        /* \"#utility.yul\":5747:5764   */\n      add\n        /* \"#utility.yul\":5734:5765   */\n      calldataload\n        /* \"#utility.yul\":5792:5810   */\n      0xffffffffffffffff\n        /* \"#utility.yul\":5784:5790   */\n      dup2\n        /* \"#utility.yul\":5781:5811   */\n      gt\n        /* \"#utility.yul\":5778:5895   */\n      iszero\n      tag_192\n      jumpi\n        /* \"#utility.yul\":5814:5893   */\n      tag_193\n      tag_88\n      jump\t// in\n    tag_193:\n        /* \"#utility.yul\":5778:5895   */\n    tag_192:\n        /* \"#utility.yul\":5919:5982   */\n      tag_194\n        /* \"#utility.yul\":5974:5981   */\n      dup8\n        /* \"#utility.yul\":5965:5971   */\n      dup3\n        /* \"#utility.yul\":5954:5963   */\n      dup9\n        /* \"#utility.yul\":5950:5972   */\n      add\n        /* \"#utility.yul\":5919:5982   */\n      tag_98\n      jump\t// in\n    tag_194:\n        /* \"#utility.yul\":5909:5982   */\n      swap5\n      pop\n        /* \"#utility.yul\":5705:5992   */\n      pop\n        /* \"#utility.yul\":6059:6061   */\n      0x20\n        /* \"#utility.yul\":6048:6057   */\n      dup6\n        /* \"#utility.yul\":6044:6062   */\n      add\n        /* \"#utility.yul\":6031:6063   */\n      calldataload\n        /* \"#utility.yul\":6090:6108   */\n      0xffffffffffffffff\n        /* \"#utility.yul\":6082:6088   */\n      dup2\n        /* \"#utility.yul\":6079:6109   */\n      gt\n        /* \"#utility.yul\":6076:6193   */\n      iszero\n      tag_195\n      jumpi\n        /* \"#utility.yul\":6112:6191   */\n      tag_196\n      tag_88\n      jump\t// in\n    tag_196:\n        /* \"#utility.yul\":6076:6193   */\n    tag_195:\n        /* \"#utility.yul\":6225:6289   */\n      tag_197\n        /* \"#utility.yul\":6281:6288   */\n      dup8\n        /* \"#utility.yul\":6272:6278   */\n      dup3\n        /* \"#utility.yul\":6261:6270   */\n      dup9\n        /* \"#utility.yul\":6257:6279   */\n      add\n        /* \"#utility.yul\":6225:6289   */\n      tag_105\n      jump\t// in\n    tag_197:\n        /* \"#utility.yul\":6207:6289   */\n      swap4\n      pop\n      swap4\n      pop\n        /* \"#utility.yul\":6002:6299   */\n      pop\n        /* \"#utility.yul\":6338:6340   */\n      0x40\n        /* \"#utility.yul\":6364:6417   */\n      tag_198\n        /* \"#utility.yul\":6409:6416   */\n      dup8\n        /* \"#utility.yul\":6400:6406   */\n      dup3\n        /* \"#utility.yul\":6389:6398   */\n      dup9\n        /* \"#utility.yul\":6385:6407   */\n      add\n        /* \"#utility.yul\":6364:6417   */\n      tag_109\n      jump\t// in\n    tag_198:\n        /* \"#utility.yul\":6354:6417   */\n      swap2\n      pop\n        /* \"#utility.yul\":6309:6427   */\n      pop\n        /* \"#utility.yul\":5437:6434   */\n      swap3\n      swap6\n      swap2\n      swap5\n      pop\n      swap3\n      pop\n      jump\t// out\n        /* \"#utility.yul\":6440:6530   */\n    tag_110:\n        /* \"#utility.yul\":6474:6481   */\n      0x00\n        /* \"#utility.yul\":6517:6522   */\n      dup2\n        /* \"#utility.yul\":6510:6523   */\n      iszero\n        /* \"#utility.yul\":6503:6524   */\n      iszero\n        /* \"#utility.yul\":6492:6524   */\n      swap1\n      pop\n        /* \"#utility.yul\":6440:6530   */\n      swap2\n      swap1\n      pop\n      jump\t// out\n        /* \"#utility.yul\":6536:6645   */\n    tag_111:\n        /* \"#utility.yul\":6617:6638   */\n      tag_201\n        /* \"#utility.yul\":6632:6637   */\n      dup2\n        /* \"#utility.yul\":6617:6638   */\n      tag_110\n      jump\t// in\n    tag_201:\n        /* \"#utility.yul\":6612:6615   */\n      dup3\n        /* \"#utility.yul\":6605:6639   */\n      mstore\n        /* \"#utility.yul\":6536:6645   */\n      pop\n      pop\n      jump\t// out\n        /* \"#utility.yul\":6651:6861   */\n    tag_23:\n        /* \"#utility.yul\":6738:6742   */\n      0x00\n        /* \"#utility.yul\":6776:6778   */\n      0x20\n        /* \"#utility.yul\":6765:6774   */\n      dup3\n        /* \"#utility.yul\":6761:6779   */\n      add\n        /* \"#utility.yul\":6753:6779   */\n      swap1\n      pop\n        /* \"#utility.yul\":6789:6854   */\n      tag_203\n        /* \"#utility.yul\":6851:6852   */\n      0x00\n        /* \"#utility.yul\":6840:6849   */\n      dup4\n        /* \"#utility.yul\":6836:6853   */\n      add\n        /* \"#utility.yul\":6827:6833   */\n      dup5\n        /* \"#utility.yul\":6789:6854   */\n      tag_111\n      jump\t// in\n    tag_203:\n        /* \"#utility.yul\":6651:6861   */\n      swap3\n      swap2\n      pop\n      pop\n      jump\t// out\n        /* \"#utility.yul\":6867:7539   */\n    tag_26:\n        /* \"#utility.yul\":6946:6952   */\n      0x00\n        /* \"#utility.yul\":6954:6960   */\n      0x00\n        /* \"#utility.yul\":6962:6968   */\n      0x00\n        /* \"#utility.yul\":7011:7013   */\n      0x40\n        /* \"#utility.yul\":6999:7008   */\n      dup5\n        /* \"#utility.yul\":6990:6997   */\n      dup7\n        /* \"#utility.yul\":6986:7009   */\n      sub\n        /* \"#utility.yul\":6982:7014   */\n      slt\n        /* \"#utility.yul\":6979:7098   */\n      iszero\n      tag_205\n      jumpi\n        /* \"#utility.yul\":7017:7096   */\n      tag_206\n      tag_87\n      jump\t// in\n    tag_206:\n        /* \"#utility.yul\":6979:7098   */\n    tag_205:\n        /* \"#utility.yul\":7137:7138   */\n      0x00\n        /* \"#utility.yul\":7162:7215   */\n      tag_207\n        /* \"#utility.yul\":7207:7214   */\n      dup7\n        /* \"#utility.yul\":7198:7204   */\n      dup3\n        /* \"#utility.yul\":7187:7196   */\n      dup8\n        /* \"#utility.yul\":7183:7205   */\n      add\n        /* \"#utility.yul\":7162:7215   */\n      tag_102\n      jump\t// in\n    tag_207:\n        /* \"#utility.yul\":7152:7215   */\n      swap4\n      pop\n        /* \"#utility.yul\":7108:7225   */\n      pop\n        /* \"#utility.yul\":7292:7294   */\n      0x20\n        /* \"#utility.yul\":7281:7290   */\n      dup5\n        /* \"#utility.yul\":7277:7295   */\n      add\n        /* \"#utility.yul\":7264:7296   */\n      calldataload\n        /* \"#utility.yul\":7323:7341   */\n      0xffffffffffffffff\n        /* \"#utility.yul\":7315:7321   */\n      dup2\n        /* \"#utility.yul\":7312:7342   */\n      gt\n        /* \"#utility.yul\":7309:7426   */\n      iszero\n      tag_208\n      jumpi\n        /* \"#utility.yul\":7345:7424   */\n      tag_209\n      tag_88\n      jump\t// in\n    tag_209:\n        /* \"#utility.yul\":7309:7426   */\n    tag_208:\n        /* \"#utility.yul\":7458:7522   */\n      tag_210\n        /* \"#utility.yul\":7514:7521   */\n      dup7\n        /* \"#utility.yul\":7505:7511   */\n      dup3\n        /* \"#utility.yul\":7494:7503   */\n      dup8\n        /* \"#utility.yul\":7490:7512   */\n      add\n        /* \"#utility.yul\":7458:7522   */\n      tag_105\n      jump\t// in\n    tag_210:\n        /* \"#utility.yul\":7440:7522   */\n      swap3\n      pop\n      swap3\n      pop\n        /* \"#utility.yul\":7235:7532   */\n      pop\n        /* \"#utility.yul\":6867:7539   */\n      swap3\n      pop\n      swap3\n      pop\n      swap3\n      jump\t// out\n        /* \"#utility.yul\":7545:7663   */\n    tag_112:\n        /* \"#utility.yul\":7632:7656   */\n      tag_212\n        /* \"#utility.yul\":7650:7655   */\n      dup2\n        /* \"#utility.yul\":7632:7656   */\n      tag_107\n      jump\t// in\n    tag_212:\n        /* \"#utility.yul\":7627:7630   */\n      dup3\n        /* \"#utility.yul\":7620:7657   */\n      mstore\n        /* \"#utility.yul\":7545:7663   */\n      pop\n      pop\n      jump\t// out\n        /* \"#utility.yul\":7669:7891   */\n    tag_29:\n        /* \"#utility.yul\":7762:7766   */\n      0x00\n        /* \"#utility.yul\":7800:7802   */\n      0x20\n        /* \"#utility.yul\":7789:7798   */\n      dup3\n        /* \"#utility.yul\":7785:7803   */\n      add\n        /* \"#utility.yul\":7777:7803   */\n      swap1\n      pop\n        /* \"#utility.yul\":7813:7884   */\n      tag_214\n        /* \"#utility.yul\":7881:7882   */\n      0x00\n        /* \"#utility.yul\":7870:7879   */\n      dup4\n        /* \"#utility.yul\":7866:7883   */\n      add\n        /* \"#utility.yul\":7857:7863   */\n      dup5\n        /* \"#utility.yul\":7813:7884   */\n      tag_112\n      jump\t// in\n    tag_214:\n        /* \"#utility.yul\":7669:7891   */\n      swap3\n      swap2\n      pop\n      pop\n      jump\t// out\n        /* \"#utility.yul\":7897:8045   */\n    tag_113:\n        /* \"#utility.yul\":7999:8010   */\n      0x00\n        /* \"#utility.yul\":8036:8039   */\n      dup2\n        /* \"#utility.yul\":8021:8039   */\n      swap1\n      pop\n        /* \"#utility.yul\":7897:8045   */\n      swap3\n      swap2\n      pop\n      pop\n      jump\t// out\n        /* \"#utility.yul\":8051:8265   */\n    tag_114:\n        /* \"#utility.yul\":8191:8257   */\n      0x19457468657265756d205369676e6564204d6573736167653a0a333200000000\n        /* \"#utility.yul\":8187:8188   */\n      0x00\n        /* \"#utility.yul\":8179:8185   */\n      dup3\n        /* \"#utility.yul\":8175:8189   */\n      add\n        /* \"#utility.yul\":8168:8258   */\n      mstore\n        /* \"#utility.yul\":8051:8265   */\n      pop\n      jump\t// out\n        /* \"#utility.yul\":8271:8673   */\n    tag_115:\n        /* \"#utility.yul\":8431:8434   */\n      0x00\n        /* \"#utility.yul\":8452:8537   */\n      tag_218\n        /* \"#utility.yul\":8534:8536   */\n      0x1c\n        /* \"#utility.yul\":8529:8532   */\n      dup4\n        /* \"#utility.yul\":8452:8537   */\n      tag_113\n      jump\t// in\n    tag_218:\n        /* \"#utility.yul\":8445:8537   */\n      swap2\n      pop\n        /* \"#utility.yul\":8546:8639   */\n      tag_219\n        /* \"#utility.yul\":8635:8638   */\n      dup3\n        /* \"#utility.yul\":8546:8639   */\n      tag_114\n      jump\t// in\n    tag_219:\n        /* \"#utility.yul\":8664:8666   */\n      0x1c\n        /* \"#utility.yul\":8659:8662   */\n      dup3\n        /* \"#utility.yul\":8655:8667   */\n      add\n        /* \"#utility.yul\":8648:8667   */\n      swap1\n      pop\n        /* \"#utility.yul\":8271:8673   */\n      swap2\n      swap1\n      pop\n      jump\t// out\n        /* \"#utility.yul\":8679:8758   */\n    tag_116:\n        /* \"#utility.yul\":8718:8725   */\n      0x00\n        /* \"#utility.yul\":8747:8752   */\n      dup2\n        /* \"#utility.yul\":8736:8752   */\n      swap1\n      pop\n        /* \"#utility.yul\":8679:8758   */\n      swap2\n      swap1\n      pop\n      jump\t// out\n        /* \"#utility.yul\":8764:8921   */\n    tag_117:\n        /* \"#utility.yul\":8869:8914   */\n      tag_222\n        /* \"#utility.yul\":8889:8913   */\n      tag_223\n        /* \"#utility.yul\":8907:8912   */\n      dup3\n        /* \"#utility.yul\":8889:8913   */\n      tag_99\n      jump\t// in\n    tag_223:\n        /* \"#utility.yul\":8869:8914   */\n      tag_116\n      jump\t// in\n    tag_222:\n        /* \"#utility.yul\":8864:8867   */\n      dup3\n        /* \"#utility.yul\":8857:8915   */\n      mstore\n        /* \"#utility.yul\":8764:8921   */\n      pop\n      pop\n      jump\t// out\n        /* \"#utility.yul\":8927:9449   */\n    tag_33:\n        /* \"#utility.yul\":9140:9143   */\n      0x00\n        /* \"#utility.yul\":9162:9310   */\n      tag_225\n        /* \"#utility.yul\":9306:9309   */\n      dup3\n        /* \"#utility.yul\":9162:9310   */\n      tag_115\n      jump\t// in\n    tag_225:\n        /* \"#utility.yul\":9155:9310   */\n      swap2\n      pop\n        /* \"#utility.yul\":9320:9395   */\n      tag_226\n        /* \"#utility.yul\":9391:9394   */\n      dup3\n        /* \"#utility.yul\":9382:9388   */\n      dup5\n        /* \"#utility.yul\":9320:9395   */\n      tag_117\n      jump\t// in\n    tag_226:\n        /* \"#utility.yul\":9420:9422   */\n      0x20\n        /* \"#utility.yul\":9415:9418   */\n      dup3\n        /* \"#utility.yul\":9411:9423   */\n      add\n        /* \"#utility.yul\":9404:9423   */\n      swap2\n      pop\n        /* \"#utility.yul\":9440:9443   */\n      dup2\n        /* \"#utility.yul\":9433:9443   */\n      swap1\n      pop\n        /* \"#utility.yul\":8927:9449   */\n      swap3\n      swap2\n      pop\n      pop\n      jump\t// out\n        /* \"#utility.yul\":9455:9635   */\n    tag_54:\n        /* \"#utility.yul\":9503:9580   */\n      0x4e487b7100000000000000000000000000000000000000000000000000000000\n        /* \"#utility.yul\":9500:9501   */\n      0x00\n        /* \"#utility.yul\":9493:9581   */\n      mstore\n        /* \"#utility.yul\":9600:9604   */\n      0x21\n        /* \"#utility.yul\":9597:9598   */\n      0x04\n        /* \"#utility.yul\":9590:9605   */\n      mstore\n        /* \"#utility.yul\":9624:9628   */\n      0x24\n        /* \"#utility.yul\":9621:9622   */\n      0x00\n        /* \"#utility.yul\":9614:9629   */\n      revert\n        /* \"#utility.yul\":9641:9718   */\n    tag_118:\n        /* \"#utility.yul\":9678:9685   */\n      0x00\n        /* \"#utility.yul\":9707:9712   */\n      dup2\n        /* \"#utility.yul\":9696:9712   */\n      swap1\n      pop\n        /* \"#utility.yul\":9641:9718   */\n      swap2\n      swap1\n      pop\n      jump\t// out\n        /* \"#utility.yul\":9724:9842   */\n    tag_119:\n        /* \"#utility.yul\":9811:9835   */\n      tag_230\n        /* \"#utility.yul\":9829:9834   */\n      dup2\n        /* \"#utility.yul\":9811:9835   */\n      tag_118\n      jump\t// in\n    tag_230:\n        /* \"#utility.yul\":9806:9809   */\n      dup3\n        /* \"#utility.yul\":9799:9836   */\n      mstore\n        /* \"#utility.yul\":9724:9842   */\n      pop\n      pop\n      jump\t// out\n        /* \"#utility.yul\":9848:10070   */\n    tag_71:\n        /* \"#utility.yul\":9941:9945   */\n      0x00\n        /* \"#utility.yul\":9979:9981   */\n      0x20\n        /* \"#utility.yul\":9968:9977   */\n      dup3\n        /* \"#utility.yul\":9964:9982   */\n      add\n        /* \"#utility.yul\":9956:9982   */\n      swap1\n      pop\n        /* \"#utility.yul\":9992:10063   */\n      tag_232\n        /* \"#utility.yul\":10060:10061   */\n      0x00\n        /* \"#utility.yul\":10049:10058   */\n      dup4\n        /* \"#utility.yul\":10045:10062   */\n      add\n        /* \"#utility.yul\":10036:10042   */\n      dup5\n        /* \"#utility.yul\":9992:10063   */\n      tag_119\n      jump\t// in\n    tag_232:\n        /* \"#utility.yul\":9848:10070   */\n      swap3\n      swap2\n      pop\n      pop\n      jump\t// out\n        /* \"#utility.yul\":10076:10162   */\n    tag_120:\n        /* \"#utility.yul\":10111:10118   */\n      0x00\n        /* \"#utility.yul\":10151:10155   */\n      0xff\n        /* \"#utility.yul\":10144:10149   */\n      dup3\n        /* \"#utility.yul\":10140:10156   */\n      and\n        /* \"#utility.yul\":10129:10156   */\n      swap1\n      pop\n        /* \"#utility.yul\":10076:10162   */\n      swap2\n      swap1\n      pop\n      jump\t// out\n        /* \"#utility.yul\":10168:10280   */\n    tag_121:\n        /* \"#utility.yul\":10251:10273   */\n      tag_235\n        /* \"#utility.yul\":10267:10272   */\n      dup2\n        /* \"#utility.yul\":10251:10273   */\n      tag_120\n      jump\t// in\n    tag_235:\n        /* \"#utility.yul\":10246:10249   */\n      dup3\n        /* \"#utility.yul\":10239:10274   */\n      mstore\n        /* \"#utility.yul\":10168:10280   */\n      pop\n      pop\n      jump\t// out\n        /* \"#utility.yul\":10286:10831   */\n    tag_82:\n        /* \"#utility.yul\":10459:10463   */\n      0x00\n        /* \"#utility.yul\":10497:10500   */\n      0x80\n        /* \"#utility.yul\":10486:10495   */\n      dup3\n        /* \"#utility.yul\":10482:10501   */\n      add\n        /* \"#utility.yul\":10474:10501   */\n      swap1\n      pop\n        /* \"#utility.yul\":10511:10582   */\n      tag_237\n        /* \"#utility.yul\":10579:10580   */\n      0x00\n        /* \"#utility.yul\":10568:10577   */\n      dup4\n        /* \"#utility.yul\":10564:10581   */\n      add\n        /* \"#utility.yul\":10555:10561   */\n      dup8\n        /* \"#utility.yul\":10511:10582   */\n      tag_100\n      jump\t// in\n    tag_237:\n        /* \"#utility.yul\":10592:10660   */\n      tag_238\n        /* \"#utility.yul\":10656:10658   */\n      0x20\n        /* \"#utility.yul\":10645:10654   */\n      dup4\n        /* \"#utility.yul\":10641:10659   */\n      add\n        /* \"#utility.yul\":10632:10638   */\n      dup7\n        /* \"#utility.yul\":10592:10660   */\n      tag_121\n      jump\t// in\n    tag_238:\n        /* \"#utility.yul\":10670:10742   */\n      tag_239\n        /* \"#utility.yul\":10738:10740   */\n      0x40\n        /* \"#utility.yul\":10727:10736   */\n      dup4\n        /* \"#utility.yul\":10723:10741   */\n      add\n        /* \"#utility.yul\":10714:10720   */\n      dup6\n        /* \"#utility.yul\":10670:10742   */\n      tag_100\n      jump\t// in\n    tag_239:\n        /* \"#utility.yul\":10752:10824   */\n      tag_240\n        /* \"#utility.yul\":10820:10822   */\n      0x60\n        /* \"#utility.yul\":10809:10818   */\n      dup4\n        /* \"#utility.yul\":10805:10823   */\n      add\n        /* \"#utility.yul\":10796:10802   */\n      dup5\n        /* \"#utility.yul\":10752:10824   */\n      tag_100\n      jump\t// in\n    tag_240:\n        /* \"#utility.yul\":10286:10831   */\n      swap6\n      swap5\n      pop\n      pop\n      pop\n      pop\n      pop\n      jump\t// out\n\n    auxdata: 0xa264697066735822122011529fbf57bf7c74de215435d78d0bfae7d877e4eb68d214876095cf3fc38f8e64736f6c634300081e0033\n}\n",
				"bytecode": {
					"linkReferences": {},
					"object": "6080604052348015600e575f5ffd5b50610a6a8061001c5f395ff3fe608060405234801561000f575f5ffd5b506004361061004a575f3560e01c80631899147c1461004e57806328d6e1661461007e5780636ccaa00b146100ae578063e7d58074146100de575b5f5ffd5b61006860048036038101906100639190610616565b61010e565b6040516100759190610675565b60405180910390f35b610098600480360381019061009391906106b8565b61011e565b6040516100a59190610675565b60405180910390f35b6100c860048036038101906100c3919061079a565b61014d565b6040516100d59190610841565b60405180910390f35b6100f860048036038101906100f3919061085a565b6101a1565b60405161010591906108c6565b60405180910390f35b5f81805190602001209050919050565b5f816040516020016101309190610953565b604051602081830303815290604052805190602001209050919050565b5f8173ffffffffffffffffffffffffffffffffffffffff166101806101796101748861010e565b61011e565b86866101a1565b73ffffffffffffffffffffffffffffffffffffffff16149050949350505050565b5f6101f883838080601f0160208091040260200160405190810160405280939291908181526020018383808284375f81840152601f19601f820116905080830192505050505050508561020190919063ffffffff16565b90509392505050565b5f5f5f5f61020f868661022b565b92509250925061021f8282610280565b82935050505092915050565b5f5f5f604184510361026b575f5f5f602087015192506040870151915060608701515f1a905061025d888285856103e2565b955095509550505050610279565b5f600285515f1b9250925092505b9250925092565b5f600381111561029357610292610978565b5b8260038111156102a6576102a5610978565b5b03156103de57600160038111156102c0576102bf610978565b5b8260038111156102d3576102d2610978565b5b0361030a576040517ff645eedf00000000000000000000000000000000000000000000000000000000815260040160405180910390fd5b6002600381111561031e5761031d610978565b5b82600381111561033157610330610978565b5b0361037557805f1c6040517ffce698f700000000000000000000000000000000000000000000000000000000815260040161036c91906109bd565b60405180910390fd5b60038081111561038857610387610978565b5b82600381111561039b5761039a610978565b5b036103dd57806040517fd78bce0c0000000000000000000000000000000000000000000000000000000081526004016103d49190610675565b60405180910390fd5b5b5050565b5f5f5f7f7fffffffffffffffffffffffffffffff5d576e7357a4501ddfe92f46681b20a0845f1c111561041e575f6003859250925092506104bf565b5f6001888888886040515f815260200160405260405161044194939291906109f1565b6020604051602081039080840390855afa158015610461573d5f5f3e3d5ffd5b5050506020604051035190505f73ffffffffffffffffffffffffffffffffffffffff168173ffffffffffffffffffffffffffffffffffffffff16036104b2575f60015f5f1b935093509350506104bf565b805f5f5f1b935093509350505b9450945094915050565b5f604051905090565b5f5ffd5b5f5ffd5b5f5ffd5b5f5ffd5b5f601f19601f8301169050919050565b7f4e487b71000000000000000000000000000000000000000000000000000000005f52604160045260245ffd5b610528826104e2565b810181811067ffffffffffffffff82111715610547576105466104f2565b5b80604052505050565b5f6105596104c9565b9050610565828261051f565b919050565b5f67ffffffffffffffff821115610584576105836104f2565b5b61058d826104e2565b9050602081019050919050565b828183375f83830152505050565b5f6105ba6105b58461056a565b610550565b9050828152602081018484840111156105d6576105d56104de565b5b6105e184828561059a565b509392505050565b5f82601f8301126105fd576105fc6104da565b5b813561060d8482602086016105a8565b91505092915050565b5f6020828403121561062b5761062a6104d2565b5b5f82013567ffffffffffffffff811115610648576106476104d6565b5b610654848285016105e9565b91505092915050565b5f819050919050565b61066f8161065d565b82525050565b5f6020820190506106885f830184610666565b92915050565b6106978161065d565b81146106a1575f5ffd5b50565b5f813590506106b28161068e565b92915050565b5f602082840312156106cd576106cc6104d2565b5b5f6106da848285016106a4565b91505092915050565b5f5ffd5b5f5ffd5b5f5f83601f840112610700576106ff6104da565b5b8235905067ffffffffffffffff81111561071d5761071c6106e3565b5b602083019150836001820283011115610739576107386106e7565b5b9250929050565b5f73ffffffffffffffffffffffffffffffffffffffff82169050919050565b5f61076982610740565b9050919050565b6107798161075f565b8114610783575f5ffd5b50565b5f8135905061079481610770565b92915050565b5f5f5f5f606085870312156107b2576107b16104d2565b5b5f85013567ffffffffffffffff8111156107cf576107ce6104d6565b5b6107db878288016105e9565b945050602085013567ffffffffffffffff8111156107fc576107fb6104d6565b5b610808878288016106eb565b9350935050604061081b87828801610786565b91505092959194509250565b5f8115159050919050565b61083b81610827565b82525050565b5f6020820190506108545f830184610832565b92915050565b5f5f5f60408486031215610871576108706104d2565b5b5f61087e868287016106a4565b935050602084013567ffffffffffffffff81111561089f5761089e6104d6565b5b6108ab868287016106eb565b92509250509250925092565b6108c08161075f565b82525050565b5f6020820190506108d95f8301846108b7565b92915050565b5f81905092915050565b7f19457468657265756d205369676e6564204d6573736167653a0a3332000000005f82015250565b5f61091d601c836108df565b9150610928826108e9565b601c82019050919050565b5f819050919050565b61094d6109488261065d565b610933565b82525050565b5f61095d82610911565b9150610969828461093c565b60208201915081905092915050565b7f4e487b71000000000000000000000000000000000000000000000000000000005f52602160045260245ffd5b5f819050919050565b6109b7816109a5565b82525050565b5f6020820190506109d05f8301846109ae565b92915050565b5f60ff82169050919050565b6109eb816109d6565b82525050565b5f608082019050610a045f830187610666565b610a1160208301866109e2565b610a1e6040830185610666565b610a2b6060830184610666565b9594505050505056fea264697066735822122011529fbf57bf7c74de215435d78d0bfae7d877e4eb68d214876095cf3fc38f8e64736f6c634300081e0033",
					"opcodes": "PUSH1 0x80 PUSH1 0x40 MSTORE CALLVALUE DUP1 ISZERO PUSH1 0xE JUMPI PUSH0 PUSH0 REVERT JUMPDEST POP PUSH2 0xA6A DUP1 PUSH2 0x1C PUSH0 CODECOPY PUSH0 RETURN INVALID PUSH1 0x80 PUSH1 0x40 MSTORE CALLVALUE DUP1 ISZERO PUSH2 0xF JUMPI PUSH0 PUSH0 REVERT JUMPDEST POP PUSH1 0x4 CALLDATASIZE LT PUSH2 0x4A JUMPI PUSH0 CALLDATALOAD PUSH1 0xE0 SHR DUP1 PUSH4 0x1899147C EQ PUSH2 0x4E JUMPI DUP1 PUSH4 0x28D6E166 EQ PUSH2 0x7E JUMPI DUP1 PUSH4 0x6CCAA00B EQ PUSH2 0xAE JUMPI DUP1 PUSH4 0xE7D58074 EQ PUSH2 0xDE JUMPI JUMPDEST PUSH0 PUSH0 REVERT JUMPDEST PUSH2 0x68 PUSH1 0x4 DUP1 CALLDATASIZE SUB DUP2 ADD SWAP1 PUSH2 0x63 SWAP2 SWAP1 PUSH2 0x616 JUMP JUMPDEST PUSH2 0x10E JUMP JUMPDEST PUSH1 0x40 MLOAD PUSH2 0x75 SWAP2 SWAP1 PUSH2 0x675 JUMP JUMPDEST PUSH1 0x40 MLOAD DUP1 SWAP2 SUB SWAP1 RETURN JUMPDEST PUSH2 0x98 PUSH1 0x4 DUP1 CALLDATASIZE SUB DUP2 ADD SWAP1 PUSH2 0x93 SWAP2 SWAP1 PUSH2 0x6B8 JUMP JUMPDEST PUSH2 0x11E JUMP JUMPDEST PUSH1 0x40 MLOAD PUSH2 0xA5 SWAP2 SWAP1 PUSH2 0x675 JUMP JUMPDEST PUSH1 0x40 MLOAD DUP1 SWAP2 SUB SWAP1 RETURN JUMPDEST PUSH2 0xC8 PUSH1 0x4 DUP1 CALLDATASIZE SUB DUP2 ADD SWAP1 PUSH2 0xC3 SWAP2 SWAP1 PUSH2 0x79A JUMP JUMPDEST PUSH2 0x14D JUMP JUMPDEST PUSH1 0x40 MLOAD PUSH2 0xD5 SWAP2 SWAP1 PUSH2 0x841 JUMP JUMPDEST PUSH1 0x40 MLOAD DUP1 SWAP2 SUB SWAP1 RETURN JUMPDEST PUSH2 0xF8 PUSH1 0x4 DUP1 CALLDATASIZE SUB DUP2 ADD SWAP1 PUSH2 0xF3 SWAP2 SWAP1 PUSH2 0x85A JUMP JUMPDEST PUSH2 0x1A1 JUMP JUMPDEST PUSH1 0x40 MLOAD PUSH2 0x105 SWAP2 SWAP1 PUSH2 0x8C6 JUMP JUMPDEST PUSH1 0x40 MLOAD DUP1 SWAP2 SUB SWAP1 RETURN JUMPDEST PUSH0 DUP2 DUP1 MLOAD SWAP1 PUSH1 0x20 ADD KECCAK256 SWAP1 POP SWAP2 SWAP1 POP JUMP JUMPDEST PUSH0 DUP2 PUSH1 0x40 MLOAD PUSH1 0x20 ADD PUSH2 0x130 SWAP2 SWAP1 PUSH2 0x953 JUMP JUMPDEST PUSH1 0x40 MLOAD PUSH1 0x20 DUP2 DUP4 SUB SUB DUP2 MSTORE SWAP1 PUSH1 0x40 MSTORE DUP1 MLOAD SWAP1 PUSH1 0x20 ADD KECCAK256 SWAP1 POP SWAP2 SWAP1 POP JUMP JUMPDEST PUSH0 DUP2 PUSH20 0xFFFFFFFFFFFFFFFFFFFFFFFFFFFFFFFFFFFFFFFF AND PUSH2 0x180 PUSH2 0x179 PUSH2 0x174 DUP9 PUSH2 0x10E JUMP JUMPDEST PUSH2 0x11E JUMP JUMPDEST DUP7 DUP7 PUSH2 0x1A1 JUMP JUMPDEST PUSH20 0xFFFFFFFFFFFFFFFFFFFFFFFFFFFFFFFFFFFFFFFF AND EQ SWAP1 POP SWAP5 SWAP4 POP POP POP POP JUMP JUMPDEST PUSH0 PUSH2 0x1F8 DUP4 DUP4 DUP1 DUP1 PUSH1 0x1F ADD PUSH1 0x20 DUP1 SWAP2 DIV MUL PUSH1 0x20 ADD PUSH1 0x40 MLOAD SWAP1 DUP2 ADD PUSH1 0x40 MSTORE DUP1 SWAP4 SWAP3 SWAP2 SWAP1 DUP2 DUP2 MSTORE PUSH1 0x20 ADD DUP4 DUP4 DUP1 DUP3 DUP5 CALLDATACOPY PUSH0 DUP2 DUP5 ADD MSTORE PUSH1 0x1F NOT PUSH1 0x1F DUP3 ADD AND SWAP1 POP DUP1 DUP4 ADD SWAP3 POP POP POP POP POP POP POP DUP6 PUSH2 0x201 SWAP1 SWAP2 SWAP1 PUSH4 0xFFFFFFFF AND JUMP JUMPDEST SWAP1 POP SWAP4 SWAP3 POP POP POP JUMP JUMPDEST PUSH0 PUSH0 PUSH0 PUSH0 PUSH2 0x20F DUP7 DUP7 PUSH2 0x22B JUMP JUMPDEST SWAP3 POP SWAP3 POP SWAP3 POP PUSH2 0x21F DUP3 DUP3 PUSH2 0x280 JUMP JUMPDEST DUP3 SWAP4 POP POP POP POP SWAP3 SWAP2 POP POP JUMP JUMPDEST PUSH0 PUSH0 PUSH0 PUSH1 0x41 DUP5 MLOAD SUB PUSH2 0x26B JUMPI PUSH0 PUSH0 PUSH0 PUSH1 0x20 DUP8 ADD MLOAD SWAP3 POP PUSH1 0x40 DUP8 ADD MLOAD SWAP2 POP PUSH1 0x60 DUP8 ADD MLOAD PUSH0 BYTE SWAP1 POP PUSH2 0x25D DUP9 DUP3 DUP6 DUP6 PUSH2 0x3E2 JUMP JUMPDEST SWAP6 POP SWAP6 POP SWAP6 POP POP POP POP PUSH2 0x279 JUMP JUMPDEST PUSH0 PUSH1 0x2 DUP6 MLOAD PUSH0 SHL SWAP3 POP SWAP3 POP SWAP3 POP JUMPDEST SWAP3 POP SWAP3 POP SWAP3 JUMP JUMPDEST PUSH0 PUSH1 0x3 DUP2 GT ISZERO PUSH2 0x293 JUMPI PUSH2 0x292 PUSH2 0x978 JUMP JUMPDEST JUMPDEST DUP3 PUSH1 0x3 DUP2 GT ISZERO PUSH2 0x2A6 JUMPI PUSH2 0x2A5 PUSH2 0x978 JUMP JUMPDEST JUMPDEST SUB ISZERO PUSH2 0x3DE JUMPI PUSH1 0x1 PUSH1 0x3 DUP2 GT ISZERO PUSH2 0x2C0 JUMPI PUSH2 0x2BF PUSH2 0x978 JUMP JUMPDEST JUMPDEST DUP3 PUSH1 0x3 DUP2 GT ISZERO PUSH2 0x2D3 JUMPI PUSH2 0x2D2 PUSH2 0x978 JUMP JUMPDEST JUMPDEST SUB PUSH2 0x30A JUMPI PUSH1 0x40 MLOAD PUSH32 0xF645EEDF00000000000000000000000000000000000000000000000000000000 DUP2 MSTORE PUSH1 0x4 ADD PUSH1 0x40 MLOAD DUP1 SWAP2 SUB SWAP1 REVERT JUMPDEST PUSH1 0x2 PUSH1 0x3 DUP2 GT ISZERO PUSH2 0x31E JUMPI PUSH2 0x31D PUSH2 0x978 JUMP JUMPDEST JUMPDEST DUP3 PUSH1 0x3 DUP2 GT ISZERO PUSH2 0x331 JUMPI PUSH2 0x330 PUSH2 0x978 JUMP JUMPDEST JUMPDEST SUB PUSH2 0x375 JUMPI DUP1 PUSH0 SHR PUSH1 0x40 MLOAD PUSH32 0xFCE698F700000000000000000000000000000000000000000000000000000000 DUP2 MSTORE PUSH1 0x4 ADD PUSH2 0x36C SWAP2 SWAP1 PUSH2 0x9BD JUMP JUMPDEST PUSH1 0x40 MLOAD DUP1 SWAP2 SUB SWAP1 REVERT JUMPDEST PUSH1 0x3 DUP1 DUP2 GT ISZERO PUSH2 0x388 JUMPI PUSH2 0x387 PUSH2 0x978 JUMP JUMPDEST JUMPDEST DUP3 PUSH1 0x3 DUP2 GT ISZERO PUSH2 0x39B JUMPI PUSH2 0x39A PUSH2 0x978 JUMP JUMPDEST JUMPDEST SUB PUSH2 0x3DD JUMPI DUP1 PUSH1 0x40 MLOAD PUSH32 0xD78BCE0C00000000000000000000000000000000000000000000000000000000 DUP2 MSTORE PUSH1 0x4 ADD PUSH2 0x3D4 SWAP2 SWAP1 PUSH2 0x675 JUMP JUMPDEST PUSH1 0x40 MLOAD DUP1 SWAP2 SUB SWAP1 REVERT JUMPDEST JUMPDEST POP POP JUMP JUMPDEST PUSH0 PUSH0 PUSH0 PUSH32 0x7FFFFFFFFFFFFFFFFFFFFFFFFFFFFFFF5D576E7357A4501DDFE92F46681B20A0 DUP5 PUSH0 SHR GT ISZERO PUSH2 0x41E JUMPI PUSH0 PUSH1 0x3 DUP6 SWAP3 POP SWAP3 POP SWAP3 POP PUSH2 0x4BF JUMP JUMPDEST PUSH0 PUSH1 0x1 DUP9 DUP9 DUP9 DUP9 PUSH1 0x40 MLOAD PUSH0 DUP2 MSTORE PUSH1 0x20 ADD PUSH1 0x40 MSTORE PUSH1 0x40 MLOAD PUSH2 0x441 SWAP5 SWAP4 SWAP3 SWAP2 SWAP1 PUSH2 0x9F1 JUMP JUMPDEST PUSH1 0x20 PUSH1 0x40 MLOAD PUSH1 0x20 DUP2 SUB SWAP1 DUP1 DUP5 SUB SWAP1 DUP6 GAS STATICCALL ISZERO DUP1 ISZERO PUSH2 0x461 JUMPI RETURNDATASIZE PUSH0 PUSH0 RETURNDATACOPY RETURNDATASIZE PUSH0 REVERT JUMPDEST POP POP POP PUSH1 0x20 PUSH1 0x40 MLOAD SUB MLOAD SWAP1 POP PUSH0 PUSH20 0xFFFFFFFFFFFFFFFFFFFFFFFFFFFFFFFFFFFFFFFF AND DUP2 PUSH20 0xFFFFFFFFFFFFFFFFFFFFFFFFFFFFFFFFFFFFFFFF AND SUB PUSH2 0x4B2 JUMPI PUSH0 PUSH1 0x1 PUSH0 PUSH0 SHL SWAP4 POP SWAP4 POP SWAP4 POP POP PUSH2 0x4BF JUMP JUMPDEST DUP1 PUSH0 PUSH0 PUSH0 SHL SWAP4 POP SWAP4 POP SWAP4 POP POP JUMPDEST SWAP5 POP SWAP5 POP SWAP5 SWAP2 POP POP JUMP JUMPDEST PUSH0 PUSH1 0x40 MLOAD SWAP1 POP SWAP1 JUMP JUMPDEST PUSH0 PUSH0 REVERT JUMPDEST PUSH0 PUSH0 REVERT JUMPDEST PUSH0 PUSH0 REVERT JUMPDEST PUSH0 PUSH0 REVERT JUMPDEST PUSH0 PUSH1 0x1F NOT PUSH1 0x1F DUP4 ADD AND SWAP1 POP SWAP2 SWAP1 POP JUMP JUMPDEST PUSH32 0x4E487B7100000000000000000000000000000000000000000000000000000000 PUSH0 MSTORE PUSH1 0x41 PUSH1 0x4 MSTORE PUSH1 0x24 PUSH0 REVERT JUMPDEST PUSH2 0x528 DUP3 PUSH2 0x4E2 JUMP JUMPDEST DUP2 ADD DUP2 DUP2 LT PUSH8 0xFFFFFFFFFFFFFFFF DUP3 GT OR ISZERO PUSH2 0x547 JUMPI PUSH2 0x546 PUSH2 0x4F2 JUMP JUMPDEST JUMPDEST DUP1 PUSH1 0x40 MSTORE POP POP POP JUMP JUMPDEST PUSH0 PUSH2 0x559 PUSH2 0x4C9 JUMP JUMPDEST SWAP1 POP PUSH2 0x565 DUP3 DUP3 PUSH2 0x51F JUMP JUMPDEST SWAP2 SWAP1 POP JUMP JUMPDEST PUSH0 PUSH8 0xFFFFFFFFFFFFFFFF DUP3 GT ISZERO PUSH2 0x584 JUMPI PUSH2 0x583 PUSH2 0x4F2 JUMP JUMPDEST JUMPDEST PUSH2 0x58D DUP3 PUSH2 0x4E2 JUMP JUMPDEST SWAP1 POP PUSH1 0x20 DUP2 ADD SWAP1 POP SWAP2 SWAP1 POP JUMP JUMPDEST DUP3 DUP2 DUP4 CALLDATACOPY PUSH0 DUP4 DUP4 ADD MSTORE POP POP POP JUMP JUMPDEST PUSH0 PUSH2 0x5BA PUSH2 0x5B5 DUP5 PUSH2 0x56A JUMP JUMPDEST PUSH2 0x550 JUMP JUMPDEST SWAP1 POP DUP3 DUP2 MSTORE PUSH1 0x20 DUP2 ADD DUP5 DUP5 DUP5 ADD GT ISZERO PUSH2 0x5D6 JUMPI PUSH2 0x5D5 PUSH2 0x4DE JUMP JUMPDEST JUMPDEST PUSH2 0x5E1 DUP5 DUP3 DUP6 PUSH2 0x59A JUMP JUMPDEST POP SWAP4 SWAP3 POP POP POP JUMP JUMPDEST PUSH0 DUP3 PUSH1 0x1F DUP4 ADD SLT PUSH2 0x5FD JUMPI PUSH2 0x5FC PUSH2 0x4DA JUMP JUMPDEST JUMPDEST DUP2 CALLDATALOAD PUSH2 0x60D DUP5 DUP3 PUSH1 0x20 DUP7 ADD PUSH2 0x5A8 JUMP JUMPDEST SWAP2 POP POP SWAP3 SWAP2 POP POP JUMP JUMPDEST PUSH0 PUSH1 0x20 DUP3 DUP5 SUB SLT ISZERO PUSH2 0x62B JUMPI PUSH2 0x62A PUSH2 0x4D2 JUMP JUMPDEST JUMPDEST PUSH0 DUP3 ADD CALLDATALOAD PUSH8 0xFFFFFFFFFFFFFFFF DUP2 GT ISZERO PUSH2 0x648 JUMPI PUSH2 0x647 PUSH2 0x4D6 JUMP JUMPDEST JUMPDEST PUSH2 0x654 DUP5 DUP3 DUP6 ADD PUSH2 0x5E9 JUMP JUMPDEST SWAP2 POP POP SWAP3 SWAP2 POP POP JUMP JUMPDEST PUSH0 DUP2 SWAP1 POP SWAP2 SWAP1 POP JUMP JUMPDEST PUSH2 0x66F DUP2 PUSH2 0x65D JUMP JUMPDEST DUP3 MSTORE POP POP JUMP JUMPDEST PUSH0 PUSH1 0x20 DUP3 ADD SWAP1 POP PUSH2 0x688 PUSH0 DUP4 ADD DUP5 PUSH2 0x666 JUMP JUMPDEST SWAP3 SWAP2 POP POP JUMP JUMPDEST PUSH2 0x697 DUP2 PUSH2 0x65D JUMP JUMPDEST DUP2 EQ PUSH2 0x6A1 JUMPI PUSH0 PUSH0 REVERT JUMPDEST POP JUMP JUMPDEST PUSH0 DUP2 CALLDATALOAD SWAP1 POP PUSH2 0x6B2 DUP2 PUSH2 0x68E JUMP JUMPDEST SWAP3 SWAP2 POP POP JUMP JUMPDEST PUSH0 PUSH1 0x20 DUP3 DUP5 SUB SLT ISZERO PUSH2 0x6CD JUMPI PUSH2 0x6CC PUSH2 0x4D2 JUMP JUMPDEST JUMPDEST PUSH0 PUSH2 0x6DA DUP5 DUP3 DUP6 ADD PUSH2 0x6A4 JUMP JUMPDEST SWAP2 POP POP SWAP3 SWAP2 POP POP JUMP JUMPDEST PUSH0 PUSH0 REVERT JUMPDEST PUSH0 PUSH0 REVERT JUMPDEST PUSH0 PUSH0 DUP4 PUSH1 0x1F DUP5 ADD SLT PUSH2 0x700 JUMPI PUSH2 0x6FF PUSH2 0x4DA JUMP JUMPDEST JUMPDEST DUP3 CALLDATALOAD SWAP1 POP PUSH8 0xFFFFFFFFFFFFFFFF DUP2 GT ISZERO PUSH2 0x71D JUMPI PUSH2 0x71C PUSH2 0x6E3 JUMP JUMPDEST JUMPDEST PUSH1 0x20 DUP4 ADD SWAP2 POP DUP4 PUSH1 0x1 DUP3 MUL DUP4 ADD GT ISZERO PUSH2 0x739 JUMPI PUSH2 0x738 PUSH2 0x6E7 JUMP JUMPDEST JUMPDEST SWAP3 POP SWAP3 SWAP1 POP JUMP JUMPDEST PUSH0 PUSH20 0xFFFFFFFFFFFFFFFFFFFFFFFFFFFFFFFFFFFFFFFF DUP3 AND SWAP1 POP SWAP2 SWAP1 POP JUMP JUMPDEST PUSH0 PUSH2 0x769 DUP3 PUSH2 0x740 JUMP JUMPDEST SWAP1 POP SWAP2 SWAP1 POP JUMP JUMPDEST PUSH2 0x779 DUP2 PUSH2 0x75F JUMP JUMPDEST DUP2 EQ PUSH2 0x783 JUMPI PUSH0 PUSH0 REVERT JUMPDEST POP JUMP JUMPDEST PUSH0 DUP2 CALLDATALOAD SWAP1 POP PUSH2 0x794 DUP2 PUSH2 0x770 JUMP JUMPDEST SWAP3 SWAP2 POP POP JUMP JUMPDEST PUSH0 PUSH0 PUSH0 PUSH0 PUSH1 0x60 DUP6 DUP8 SUB SLT ISZERO PUSH2 0x7B2 JUMPI PUSH2 0x7B1 PUSH2 0x4D2 JUMP JUMPDEST JUMPDEST PUSH0 DUP6 ADD CALLDATALOAD PUSH8 0xFFFFFFFFFFFFFFFF DUP2 GT ISZERO PUSH2 0x7CF JUMPI PUSH2 0x7CE PUSH2 0x4D6 JUMP JUMPDEST JUMPDEST PUSH2 0x7DB DUP8 DUP3 DUP9 ADD PUSH2 0x5E9 JUMP JUMPDEST SWAP5 POP POP PUSH1 0x20 DUP6 ADD CALLDATALOAD PUSH8 0xFFFFFFFFFFFFFFFF DUP2 GT ISZERO PUSH2 0x7FC JUMPI PUSH2 0x7FB PUSH2 0x4D6 JUMP JUMPDEST JUMPDEST PUSH2 0x808 DUP8 DUP3 DUP9 ADD PUSH2 0x6EB JUMP JUMPDEST SWAP4 POP SWAP4 POP POP PUSH1 0x40 PUSH2 0x81B DUP8 DUP3 DUP9 ADD PUSH2 0x786 JUMP JUMPDEST SWAP2 POP POP SWAP3 SWAP6 SWAP2 SWAP5 POP SWAP3 POP JUMP JUMPDEST PUSH0 DUP2 ISZERO ISZERO SWAP1 POP SWAP2 SWAP1 POP JUMP JUMPDEST PUSH2 0x83B DUP2 PUSH2 0x827 JUMP JUMPDEST DUP3 MSTORE POP POP JUMP JUMPDEST PUSH0 PUSH1 0x20 DUP3 ADD SWAP1 POP PUSH2 0x854 PUSH0 DUP4 ADD DUP5 PUSH2 0x832 JUMP JUMPDEST SWAP3 SWAP2 POP POP JUMP JUMPDEST PUSH0 PUSH0 PUSH0 PUSH1 0x40 DUP5 DUP7 SUB SLT ISZERO PUSH2 0x871 JUMPI PUSH2 0x870 PUSH2 0x4D2 JUMP JUMPDEST JUMPDEST PUSH0 PUSH2 0x87E DUP7 DUP3 DUP8 ADD PUSH2 0x6A4 JUMP JUMPDEST SWAP4 POP POP PUSH1 0x20 DUP5 ADD CALLDATALOAD PUSH8 0xFFFFFFFFFFFFFFFF DUP2 GT ISZERO PUSH2 0x89F JUMPI PUSH2 0x89E PUSH2 0x4D6 JUMP JUMPDEST JUMPDEST PUSH2 0x8AB DUP7 DUP3 DUP8 ADD PUSH2 0x6EB JUMP JUMPDEST SWAP3 POP SWAP3 POP POP SWAP3 POP SWAP3 POP SWAP3 JUMP JUMPDEST PUSH2 0x8C0 DUP2 PUSH2 0x75F JUMP JUMPDEST DUP3 MSTORE POP POP JUMP JUMPDEST PUSH0 PUSH1 0x20 DUP3 ADD SWAP1 POP PUSH2 0x8D9 PUSH0 DUP4 ADD DUP5 PUSH2 0x8B7 JUMP JUMPDEST SWAP3 SWAP2 POP POP JUMP JUMPDEST PUSH0 DUP2 SWAP1 POP SWAP3 SWAP2 POP POP JUMP JUMPDEST PUSH32 0x19457468657265756D205369676E6564204D6573736167653A0A333200000000 PUSH0 DUP3 ADD MSTORE POP JUMP JUMPDEST PUSH0 PUSH2 0x91D PUSH1 0x1C DUP4 PUSH2 0x8DF JUMP JUMPDEST SWAP2 POP PUSH2 0x928 DUP3 PUSH2 0x8E9 JUMP JUMPDEST PUSH1 0x1C DUP3 ADD SWAP1 POP SWAP2 SWAP1 POP JUMP JUMPDEST PUSH0 DUP2 SWAP1 POP SWAP2 SWAP1 POP JUMP JUMPDEST PUSH2 0x94D PUSH2 0x948 DUP3 PUSH2 0x65D JUMP JUMPDEST PUSH2 0x933 JUMP JUMPDEST DUP3 MSTORE POP POP JUMP JUMPDEST PUSH0 PUSH2 0x95D DUP3 PUSH2 0x911 JUMP JUMPDEST SWAP2 POP PUSH2 0x969 DUP3 DUP5 PUSH2 0x93C JUMP JUMPDEST PUSH1 0x20 DUP3 ADD SWAP2 POP DUP2 SWAP1 POP SWAP3 SWAP2 POP POP JUMP JUMPDEST PUSH32 0x4E487B7100000000000000000000000000000000000000000000000000000000 PUSH0 MSTORE PUSH1 0x21 PUSH1 0x4 MSTORE PUSH1 0x24 PUSH0 REVERT JUMPDEST PUSH0 DUP2 SWAP1 POP SWAP2 SWAP1 POP JUMP JUMPDEST PUSH2 0x9B7 DUP2 PUSH2 0x9A5 JUMP JUMPDEST DUP3 MSTORE POP POP JUMP JUMPDEST PUSH0 PUSH1 0x20 DUP3 ADD SWAP1 POP PUSH2 0x9D0 PUSH0 DUP4 ADD DUP5 PUSH2 0x9AE JUMP JUMPDEST SWAP3 SWAP2 POP POP JUMP JUMPDEST PUSH0 PUSH1 0xFF DUP3 AND SWAP1 POP SWAP2 SWAP1 POP JUMP JUMPDEST PUSH2 0x9EB DUP2 PUSH2 0x9D6 JUMP JUMPDEST DUP3 MSTORE POP POP JUMP JUMPDEST PUSH0 PUSH1 0x80 DUP3 ADD SWAP1 POP PUSH2 0xA04 PUSH0 DUP4 ADD DUP8 PUSH2 0x666 JUMP JUMPDEST PUSH2 0xA11 PUSH1 0x20 DUP4 ADD DUP7 PUSH2 0x9E2 JUMP JUMPDEST PUSH2 0xA1E PUSH1 0x40 DUP4 ADD DUP6 PUSH2 0x666 JUMP JUMPDEST PUSH2 0xA2B PUSH1 0x60 DUP4 ADD DUP5 PUSH2 0x666 JUMP JUMPDEST SWAP6 SWAP5 POP POP POP POP POP JUMP INVALID LOG2 PUSH5 0x6970667358 0x22 SLT KECCAK256 GT MSTORE SWAP16 0xBF JUMPI 0xBF PUSH29 0x74DE215435D78D0BFAE7D877E4EB68D214876095CF3FC38F8E64736F6C PUSH4 0x4300081E STOP CALLER "
				},
				"gasEstimates": {
					"creation": {
						"codeDepositCost": "533200",
						"executionCost": "566",
						"totalCost": "533766"
					},
					"external": {
						"msgHash(string)": "infinite",
						"recoverSinger(bytes32,bytes)": "infinite",
						"signtureHash(bytes32)": "infinite",
						"verif(string,bytes,address)": "infinite"
					}
				},
				"methodIdentifiers": {
					"msgHash(string)": "1899147c",
					"recoverSinger(bytes32,bytes)": "e7d58074",
					"signtureHash(bytes32)": "28d6e166",
					"verif(string,bytes,address)": "6ccaa00b"
				}
			},
			"storageLayout": {
				"storage": [],
				"types": null
			},
			"userdoc": {
				"kind": "user",
				"methods": {},
				"version": 1
			}
		}
	}
}