{
	"contracts/helloep33.sol": {
		"TimeLockEP33": {
			"abi": [
				{
					"anonymous": false,
					"inputs": [
						{
							"indexed": false,
							"internalType": "address",
							"name": "tokenAddr",
							"type": "address"
						},
						{
							"indexed": false,
							"internalType": "address",
							"name": "msgSender",
							"type": "address"
						},
						{
							"indexed": false,
							"internalType": "uint256",
							"name": "amount",
							"type": "uint256"
						},
						{
							"indexed": false,
							"internalType": "uint256",
							"name": "timeAt",
							"type": "uint256"
						}
					],
					"name": "Withdraw",
					"type": "event"
				},
				{
					"anonymous": false,
					"inputs": [
						{
							"indexed": false,
							"internalType": "address",
							"name": "tokenAddr",
							"type": "address"
						},
						{
							"indexed": false,
							"internalType": "address",
							"name": "msgSender",
							"type": "address"
						},
						{
							"indexed": false,
							"internalType": "uint256",
							"name": "amount",
							"type": "uint256"
						},
						{
							"indexed": false,
							"internalType": "uint256",
							"name": "expireAt",
							"type": "uint256"
						}
					],
					"name": "locaked",
					"type": "event"
				},
				{
					"inputs": [
						{
							"internalType": "address",
							"name": "tokenAddr",
							"type": "address"
						},
						{
							"internalType": "address",
							"name": "tokenOwner",
							"type": "address"
						}
					],
					"name": "getAmount",
					"outputs": [
						{
							"internalType": "uint256",
							"name": "",
							"type": "uint256"
						}
					],
					"stateMutability": "view",
					"type": "function"
				},
				{
					"inputs": [
						{
							"internalType": "address",
							"name": "tokenAddr",
							"type": "address"
						},
						{
							"internalType": "address",
							"name": "tokenOwner",
							"type": "address"
						}
					],
					"name": "getExpire",
					"outputs": [
						{
							"internalType": "uint256",
							"name": "",
							"type": "uint256"
						}
					],
					"stateMutability": "view",
					"type": "function"
				},
				{
					"inputs": [],
					"name": "getTime",
					"outputs": [
						{
							"internalType": "uint256",
							"name": "",
							"type": "uint256"
						}
					],
					"stateMutability": "view",
					"type": "function"
				},
				{
					"inputs": [
						{
							"internalType": "address",
							"name": "tokenAddr",
							"type": "address"
						},
						{
							"internalType": "uint256",
							"name": "amount",
							"type": "uint256"
						},
						{
							"internalType": "uint256",
							"name": "expireAt",
							"type": "uint256"
						}
					],
					"name": "lock",
					"outputs": [],
					"stateMutability": "nonpayable",
					"type": "function"
				},
				{
					"inputs": [
						{
							"internalType": "address",
							"name": "tokenAddr",
							"type": "address"
						}
					],
					"name": "withdraw",
					"outputs": [],
					"stateMutability": "nonpayable",
					"type": "function"
				}
			],
			"devdoc": {
				"kind": "dev",
				"methods": {},
				"version": 1
			},
			"evm": {
				"assembly": "    /* \"contracts/helloep33.sol\":959:2883  contract TimeLockEP33 {... */\n  mstore(0x40, 0x80)\n  callvalue\n  dup1\n  iszero\n  tag_1\n  jumpi\n  revert(0x00, 0x00)\ntag_1:\n  pop\n  dataSize(sub_0)\n  dup1\n  dataOffset(sub_0)\n  0x00\n  codecopy\n  0x00\n  return\nstop\n\nsub_0: assembly {\n        /* \"contracts/helloep33.sol\":959:2883  contract TimeLockEP33 {... */\n      mstore(0x40, 0x80)\n      callvalue\n      dup1\n      iszero\n      tag_1\n      jumpi\n      revert(0x00, 0x00)\n    tag_1:\n      pop\n      jumpi(tag_2, lt(calldatasize, 0x04))\n      shr(0xe0, calldataload(0x00))\n      dup1\n      0x3f6aaab7\n      eq\n      tag_3\n      jumpi\n      dup1\n      0x51cff8d9\n      eq\n      tag_4\n      jumpi\n      dup1\n      0x557ed1ba\n      eq\n      tag_5\n      jumpi\n      dup1\n      0x7538766e\n      eq\n      tag_6\n      jumpi\n      dup1\n      0xe2ab691d\n      eq\n      tag_7\n      jumpi\n    tag_2:\n      revert(0x00, 0x00)\n        /* \"contracts/helloep33.sol\":1877:2078  function getExpire(address tokenAddr,address tokenOwner) external view returns(uint){... */\n    tag_3:\n      tag_8\n      0x04\n      dup1\n      calldatasize\n      sub\n      dup2\n      add\n      swap1\n      tag_9\n      swap2\n      swap1\n      tag_10\n      jump\t// in\n    tag_9:\n      tag_11\n      jump\t// in\n    tag_8:\n      mload(0x40)\n      tag_12\n      swap2\n      swap1\n      tag_13\n      jump\t// in\n    tag_12:\n      mload(0x40)\n      dup1\n      swap2\n      sub\n      swap1\n      return\n        /* \"contracts/helloep33.sol\":2245:2771  function withdraw(address tokenAddr)external {... */\n    tag_4:\n      tag_14\n      0x04\n      dup1\n      calldatasize\n      sub\n      dup2\n      add\n      swap1\n      tag_15\n      swap2\n      swap1\n      tag_16\n      jump\t// in\n    tag_15:\n      tag_17\n      jump\t// in\n    tag_14:\n      stop\n        /* \"contracts/helloep33.sol\":2779:2874  function getTime() external view  returns (uint){... */\n    tag_5:\n      tag_18\n      tag_19\n      jump\t// in\n    tag_18:\n      mload(0x40)\n      tag_20\n      swap2\n      swap1\n      tag_13\n      jump\t// in\n    tag_20:\n      mload(0x40)\n      dup1\n      swap2\n      sub\n      swap1\n      return\n        /* \"contracts/helloep33.sol\":2086:2237  function getAmount(address tokenAddr,address tokenOwner) external view   returns (uint){... */\n    tag_6:\n      tag_21\n      0x04\n      dup1\n      calldatasize\n      sub\n      dup2\n      add\n      swap1\n      tag_22\n      swap2\n      swap1\n      tag_10\n      jump\t// in\n    tag_22:\n      tag_23\n      jump\t// in\n    tag_21:\n      mload(0x40)\n      tag_24\n      swap2\n      swap1\n      tag_13\n      jump\t// in\n    tag_24:\n      mload(0x40)\n      dup1\n      swap2\n      sub\n      swap1\n      return\n        /* \"contracts/helloep33.sol\":1260:1869  function lock( address tokenAddr,uint amount,uint expireAt) external {... */\n    tag_7:\n      tag_25\n      0x04\n      dup1\n      calldatasize\n      sub\n      dup2\n      add\n      swap1\n      tag_26\n      swap2\n      swap1\n      tag_27\n      jump\t// in\n    tag_26:\n      tag_28\n      jump\t// in\n    tag_25:\n      stop\n        /* \"contracts/helloep33.sol\":1877:2078  function getExpire(address tokenAddr,address tokenOwner) external view returns(uint){... */\n    tag_11:\n        /* \"contracts/helloep33.sol\":1956:1960  uint */\n      0x00\n        /* \"contracts/helloep33.sol\":2018:2033  block.timestamp */\n      timestamp\n        /* \"contracts/helloep33.sol\":1983:1991  lockAttr */\n      0x00\n        /* \"contracts/helloep33.sol\":1983:2002  lockAttr[tokenAddr] */\n      0x00\n        /* \"contracts/helloep33.sol\":1992:2001  tokenAddr */\n      dup6\n        /* \"contracts/helloep33.sol\":1983:2002  lockAttr[tokenAddr] */\n      0xffffffffffffffffffffffffffffffffffffffff\n      and\n      0xffffffffffffffffffffffffffffffffffffffff\n      and\n      dup2\n      mstore\n      0x20\n      add\n      swap1\n      dup2\n      mstore\n      0x20\n      add\n      0x00\n      keccak256\n        /* \"contracts/helloep33.sol\":1983:2014  lockAttr[tokenAddr][tokenOwner] */\n      0x00\n        /* \"contracts/helloep33.sol\":2003:2013  tokenOwner */\n      dup5\n        /* \"contracts/helloep33.sol\":1983:2014  lockAttr[tokenAddr][tokenOwner] */\n      0xffffffffffffffffffffffffffffffffffffffff\n      and\n      0xffffffffffffffffffffffffffffffffffffffff\n      and\n      dup2\n      mstore\n      0x20\n      add\n      swap1\n      dup2\n      mstore\n      0x20\n      add\n      0x00\n      keccak256\n        /* \"contracts/helloep33.sol\":2015:2016  1 */\n      0x01\n        /* \"contracts/helloep33.sol\":1983:2017  lockAttr[tokenAddr][tokenOwner][1] */\n      0x02\n      dup2\n      lt\n      tag_30\n      jumpi\n      tag_31\n      tag_32\n      jump\t// in\n    tag_31:\n    tag_30:\n      add\n      sload\n        /* \"contracts/helloep33.sol\":1983:2033  lockAttr[tokenAddr][tokenOwner][1]>block.timestamp */\n      gt\n        /* \"contracts/helloep33.sol\":1983:2070  lockAttr[tokenAddr][tokenOwner][1]>block.timestamp?lockAttr[tokenAddr][tokenOwner][0]:0 */\n      tag_34\n      jumpi\n        /* \"contracts/helloep33.sol\":2069:2070  0 */\n      0x00\n        /* \"contracts/helloep33.sol\":1983:2070  lockAttr[tokenAddr][tokenOwner][1]>block.timestamp?lockAttr[tokenAddr][tokenOwner][0]:0 */\n      jump(tag_35)\n    tag_34:\n        /* \"contracts/helloep33.sol\":2034:2042  lockAttr */\n      0x00\n        /* \"contracts/helloep33.sol\":2034:2053  lockAttr[tokenAddr] */\n      0x00\n        /* \"contracts/helloep33.sol\":2043:2052  tokenAddr */\n      dup5\n        /* \"contracts/helloep33.sol\":2034:2053  lockAttr[tokenAddr] */\n      0xffffffffffffffffffffffffffffffffffffffff\n      and\n      0xffffffffffffffffffffffffffffffffffffffff\n      and\n      dup2\n      mstore\n      0x20\n      add\n      swap1\n      dup2\n      mstore\n      0x20\n      add\n      0x00\n      keccak256\n        /* \"contracts/helloep33.sol\":2034:2065  lockAttr[tokenAddr][tokenOwner] */\n      0x00\n        /* \"contracts/helloep33.sol\":2054:2064  tokenOwner */\n      dup4\n        /* \"contracts/helloep33.sol\":2034:2065  lockAttr[tokenAddr][tokenOwner] */\n      0xffffffffffffffffffffffffffffffffffffffff\n      and\n      0xffffffffffffffffffffffffffffffffffffffff\n      and\n      dup2\n      mstore\n      0x20\n      add\n      swap1\n      dup2\n      mstore\n      0x20\n      add\n      0x00\n      keccak256\n        /* \"contracts/helloep33.sol\":2066:2067  0 */\n      0x00\n        /* \"contracts/helloep33.sol\":2034:2068  lockAttr[tokenAddr][tokenOwner][0] */\n      0x02\n      dup2\n      lt\n      tag_36\n      jumpi\n      tag_37\n      tag_32\n      jump\t// in\n    tag_37:\n    tag_36:\n      add\n      sload\n        /* \"contracts/helloep33.sol\":1983:2070  lockAttr[tokenAddr][tokenOwner][1]>block.timestamp?lockAttr[tokenAddr][tokenOwner][0]:0 */\n    tag_35:\n        /* \"contracts/helloep33.sol\":1976:2070  return lockAttr[tokenAddr][tokenOwner][1]>block.timestamp?lockAttr[tokenAddr][tokenOwner][0]:0 */\n      swap1\n      pop\n        /* \"contracts/helloep33.sol\":1877:2078  function getExpire(address tokenAddr,address tokenOwner) external view returns(uint){... */\n      swap3\n      swap2\n      pop\n      pop\n      jump\t// out\n        /* \"contracts/helloep33.sol\":2245:2771  function withdraw(address tokenAddr)external {... */\n    tag_17:\n        /* \"contracts/helloep33.sol\":2344:2345  0 */\n      0x00\n        /* \"contracts/helloep33.sol\":2309:2317  lockAttr */\n      0x00\n        /* \"contracts/helloep33.sol\":2309:2328  lockAttr[tokenAddr] */\n      0x00\n        /* \"contracts/helloep33.sol\":2318:2327  tokenAddr */\n      dup4\n        /* \"contracts/helloep33.sol\":2309:2328  lockAttr[tokenAddr] */\n      0xffffffffffffffffffffffffffffffffffffffff\n      and\n      0xffffffffffffffffffffffffffffffffffffffff\n      and\n      dup2\n      mstore\n      0x20\n      add\n      swap1\n      dup2\n      mstore\n      0x20\n      add\n      0x00\n      keccak256\n        /* \"contracts/helloep33.sol\":2309:2340  lockAttr[tokenAddr][msg.sender] */\n      0x00\n        /* \"contracts/helloep33.sol\":2329:2339  msg.sender */\n      caller\n        /* \"contracts/helloep33.sol\":2309:2340  lockAttr[tokenAddr][msg.sender] */\n      0xffffffffffffffffffffffffffffffffffffffff\n      and\n      0xffffffffffffffffffffffffffffffffffffffff\n      and\n      dup2\n      mstore\n      0x20\n      add\n      swap1\n      dup2\n      mstore\n      0x20\n      add\n      0x00\n      keccak256\n        /* \"contracts/helloep33.sol\":2341:2342  0 */\n      0x00\n        /* \"contracts/helloep33.sol\":2309:2343  lockAttr[tokenAddr][msg.sender][0] */\n      0x02\n      dup2\n      lt\n      tag_40\n      jumpi\n      tag_41\n      tag_32\n      jump\t// in\n    tag_41:\n    tag_40:\n      add\n      sload\n        /* \"contracts/helloep33.sol\":2309:2345  lockAttr[tokenAddr][msg.sender][0]>0 */\n      gt\n        /* \"contracts/helloep33.sol\":2301:2361  require(lockAttr[tokenAddr][msg.sender][0]>0,\"out of token\") */\n      tag_43\n      jumpi\n      mload(0x40)\n      0x08c379a000000000000000000000000000000000000000000000000000000000\n      dup2\n      mstore\n      0x04\n      add\n      tag_44\n      swap1\n      tag_45\n      jump\t// in\n    tag_44:\n      mload(0x40)\n      dup1\n      swap2\n      sub\n      swap1\n      revert\n    tag_43:\n        /* \"contracts/helloep33.sol\":2416:2431  block.timestamp */\n      timestamp\n        /* \"contracts/helloep33.sol\":2380:2388  lockAttr */\n      0x00\n        /* \"contracts/helloep33.sol\":2380:2399  lockAttr[tokenAddr] */\n      0x00\n        /* \"contracts/helloep33.sol\":2389:2398  tokenAddr */\n      dup4\n        /* \"contracts/helloep33.sol\":2380:2399  lockAttr[tokenAddr] */\n      0xffffffffffffffffffffffffffffffffffffffff\n      and\n      0xffffffffffffffffffffffffffffffffffffffff\n      and\n      dup2\n      mstore\n      0x20\n      add\n      swap1\n      dup2\n      mstore\n      0x20\n      add\n      0x00\n      keccak256\n        /* \"contracts/helloep33.sol\":2380:2411  lockAttr[tokenAddr][msg.sender] */\n      0x00\n        /* \"contracts/helloep33.sol\":2400:2410  msg.sender */\n      caller\n        /* \"contracts/helloep33.sol\":2380:2411  lockAttr[tokenAddr][msg.sender] */\n      0xffffffffffffffffffffffffffffffffffffffff\n      and\n      0xffffffffffffffffffffffffffffffffffffffff\n      and\n      dup2\n      mstore\n      0x20\n      add\n      swap1\n      dup2\n      mstore\n      0x20\n      add\n      0x00\n      keccak256\n        /* \"contracts/helloep33.sol\":2412:2413  1 */\n      0x01\n        /* \"contracts/helloep33.sol\":2380:2414  lockAttr[tokenAddr][msg.sender][1] */\n      0x02\n      dup2\n      lt\n      tag_46\n      jumpi\n      tag_47\n      tag_32\n      jump\t// in\n    tag_47:\n    tag_46:\n      add\n      sload\n        /* \"contracts/helloep33.sol\":2380:2431  lockAttr[tokenAddr][msg.sender][1]<=block.timestamp */\n      gt\n      iszero\n        /* \"contracts/helloep33.sol\":2372:2445  require(lockAttr[tokenAddr][msg.sender][1]<=block.timestamp,\"not expire\") */\n      tag_49\n      jumpi\n      mload(0x40)\n      0x08c379a000000000000000000000000000000000000000000000000000000000\n      dup2\n      mstore\n      0x04\n      add\n      tag_50\n      swap1\n      tag_51\n      jump\t// in\n    tag_50:\n      mload(0x40)\n      dup1\n      swap2\n      sub\n      swap1\n      revert\n    tag_49:\n        /* \"contracts/helloep33.sol\":2456:2463  bool ok */\n      0x00\n        /* \"contracts/helloep33.sol\":2480:2489  tokenAddr */\n      dup2\n        /* \"contracts/helloep33.sol\":2466:2499  ERC20Metadata(tokenAddr).transfer */\n      0xffffffffffffffffffffffffffffffffffffffff\n      and\n      0xa9059cbb\n        /* \"contracts/helloep33.sol\":2500:2510  msg.sender */\n      caller\n        /* \"contracts/helloep33.sol\":2511:2519  lockAttr */\n      0x00\n        /* \"contracts/helloep33.sol\":2511:2530  lockAttr[tokenAddr] */\n      0x00\n        /* \"contracts/helloep33.sol\":2520:2529  tokenAddr */\n      dup7\n        /* \"contracts/helloep33.sol\":2511:2530  lockAttr[tokenAddr] */\n      0xffffffffffffffffffffffffffffffffffffffff\n      and\n      0xffffffffffffffffffffffffffffffffffffffff\n      and\n      dup2\n      mstore\n      0x20\n      add\n      swap1\n      dup2\n      mstore\n      0x20\n      add\n      0x00\n      keccak256\n        /* \"contracts/helloep33.sol\":2511:2542  lockAttr[tokenAddr][msg.sender] */\n      0x00\n        /* \"contracts/helloep33.sol\":2531:2541  msg.sender */\n      caller\n        /* \"contracts/helloep33.sol\":2511:2542  lockAttr[tokenAddr][msg.sender] */\n      0xffffffffffffffffffffffffffffffffffffffff\n      and\n      0xffffffffffffffffffffffffffffffffffffffff\n      and\n      dup2\n      mstore\n      0x20\n      add\n      swap1\n      dup2\n      mstore\n      0x20\n      add\n      0x00\n      keccak256\n        /* \"contracts/helloep33.sol\":2543:2544  0 */\n      0x00\n        /* \"contracts/helloep33.sol\":2511:2545  lockAttr[tokenAddr][msg.sender][0] */\n      0x02\n      dup2\n      lt\n      tag_52\n      jumpi\n      tag_53\n      tag_32\n      jump\t// in\n    tag_53:\n    tag_52:\n      add\n      sload\n        /* \"contracts/helloep33.sol\":2466:2546  ERC20Metadata(tokenAddr).transfer(msg.sender,lockAttr[tokenAddr][msg.sender][0]) */\n      mload(0x40)\n      dup4\n      0xffffffff\n      and\n      0xe0\n      shl\n      dup2\n      mstore\n      0x04\n      add\n      tag_55\n      swap3\n      swap2\n      swap1\n      tag_56\n      jump\t// in\n    tag_55:\n      0x20\n      mload(0x40)\n      dup1\n      dup4\n      sub\n      dup2\n      0x00\n      dup8\n      gas\n      call\n      iszero\n      dup1\n      iszero\n      tag_58\n      jumpi\n      returndatacopy(0x00, 0x00, returndatasize)\n      revert(0x00, returndatasize)\n    tag_58:\n      pop\n      pop\n      pop\n      pop\n      mload(0x40)\n      returndatasize\n      not(0x1f)\n      0x1f\n      dup3\n      add\n      and\n      dup3\n      add\n      dup1\n      0x40\n      mstore\n      pop\n      dup2\n      add\n      swap1\n      tag_59\n      swap2\n      swap1\n      tag_60\n      jump\t// in\n    tag_59:\n        /* \"contracts/helloep33.sol\":2456:2546  bool ok = ERC20Metadata(tokenAddr).transfer(msg.sender,lockAttr[tokenAddr][msg.sender][0]) */\n      swap1\n      pop\n        /* \"contracts/helloep33.sol\":2557:2568  uint amount */\n      0x00\n        /* \"contracts/helloep33.sol\":2571:2579  lockAttr */\n      0x00\n        /* \"contracts/helloep33.sol\":2571:2590  lockAttr[tokenAddr] */\n      0x00\n        /* \"contracts/helloep33.sol\":2580:2589  tokenAddr */\n      dup5\n        /* \"contracts/helloep33.sol\":2571:2590  lockAttr[tokenAddr] */\n      0xffffffffffffffffffffffffffffffffffffffff\n      and\n      0xffffffffffffffffffffffffffffffffffffffff\n      and\n      dup2\n      mstore\n      0x20\n      add\n      swap1\n      dup2\n      mstore\n      0x20\n      add\n      0x00\n      keccak256\n        /* \"contracts/helloep33.sol\":2571:2602  lockAttr[tokenAddr][msg.sender] */\n      0x00\n        /* \"contracts/helloep33.sol\":2591:2601  msg.sender */\n      caller\n        /* \"contracts/helloep33.sol\":2571:2602  lockAttr[tokenAddr][msg.sender] */\n      0xffffffffffffffffffffffffffffffffffffffff\n      and\n      0xffffffffffffffffffffffffffffffffffffffff\n      and\n      dup2\n      mstore\n      0x20\n      add\n      swap1\n      dup2\n      mstore\n      0x20\n      add\n      0x00\n      keccak256\n        /* \"contracts/helloep33.sol\":2603:2604  0 */\n      0x00\n        /* \"contracts/helloep33.sol\":2571:2605  lockAttr[tokenAddr][msg.sender][0] */\n      0x02\n      dup2\n      lt\n      tag_61\n      jumpi\n      tag_62\n      tag_32\n      jump\t// in\n    tag_62:\n    tag_61:\n      add\n      sload\n        /* \"contracts/helloep33.sol\":2557:2605  uint amount = lockAttr[tokenAddr][msg.sender][0] */\n      swap1\n      pop\n        /* \"contracts/helloep33.sol\":2624:2626  ok */\n      dup2\n        /* \"contracts/helloep33.sol\":2616:2645  require(ok,\"transfer failed\") */\n      tag_64\n      jumpi\n      mload(0x40)\n      0x08c379a000000000000000000000000000000000000000000000000000000000\n      dup2\n      mstore\n      0x04\n      add\n      tag_65\n      swap1\n      tag_66\n      jump\t// in\n    tag_65:\n      mload(0x40)\n      dup1\n      swap2\n      sub\n      swap1\n      revert\n    tag_64:\n        /* \"contracts/helloep33.sol\":2693:2694  0 */\n      0x00\n        /* \"contracts/helloep33.sol\":2656:2664  lockAttr */\n      0x00\n        /* \"contracts/helloep33.sol\":2656:2675  lockAttr[tokenAddr] */\n      0x00\n        /* \"contracts/helloep33.sol\":2665:2674  tokenAddr */\n      dup6\n        /* \"contracts/helloep33.sol\":2656:2675  lockAttr[tokenAddr] */\n      0xffffffffffffffffffffffffffffffffffffffff\n      and\n      0xffffffffffffffffffffffffffffffffffffffff\n      and\n      dup2\n      mstore\n      0x20\n      add\n      swap1\n      dup2\n      mstore\n      0x20\n      add\n      0x00\n      keccak256\n        /* \"contracts/helloep33.sol\":2656:2687  lockAttr[tokenAddr][msg.sender] */\n      0x00\n        /* \"contracts/helloep33.sol\":2676:2686  msg.sender */\n      caller\n        /* \"contracts/helloep33.sol\":2656:2687  lockAttr[tokenAddr][msg.sender] */\n      0xffffffffffffffffffffffffffffffffffffffff\n      and\n      0xffffffffffffffffffffffffffffffffffffffff\n      and\n      dup2\n      mstore\n      0x20\n      add\n      swap1\n      dup2\n      mstore\n      0x20\n      add\n      0x00\n      keccak256\n        /* \"contracts/helloep33.sol\":2688:2689  0 */\n      0x00\n        /* \"contracts/helloep33.sol\":2656:2690  lockAttr[tokenAddr][msg.sender][0] */\n      0x02\n      dup2\n      lt\n      tag_67\n      jumpi\n      tag_68\n      tag_32\n      jump\t// in\n    tag_68:\n    tag_67:\n      add\n        /* \"contracts/helloep33.sol\":2656:2694  lockAttr[tokenAddr][msg.sender][0] = 0 */\n      dup2\n      swap1\n      sstore\n      pop\n        /* \"contracts/helloep33.sol\":2710:2763  Withdraw(tokenAddr,msg.sender,amount,block.timestamp) */\n      0xf341246adaac6f497bc2a656f546ab9e182111d630394f0c57c710a59a2cb567\n        /* \"contracts/helloep33.sol\":2719:2728  tokenAddr */\n      dup4\n        /* \"contracts/helloep33.sol\":2729:2739  msg.sender */\n      caller\n        /* \"contracts/helloep33.sol\":2740:2746  amount */\n      dup4\n        /* \"contracts/helloep33.sol\":2747:2762  block.timestamp */\n      timestamp\n        /* \"contracts/helloep33.sol\":2710:2763  Withdraw(tokenAddr,msg.sender,amount,block.timestamp) */\n      mload(0x40)\n      tag_70\n      swap5\n      swap4\n      swap3\n      swap2\n      swap1\n      tag_71\n      jump\t// in\n    tag_70:\n      mload(0x40)\n      dup1\n      swap2\n      sub\n      swap1\n      log1\n        /* \"contracts/helloep33.sol\":2290:2771  {... */\n      pop\n      pop\n        /* \"contracts/helloep33.sol\":2245:2771  function withdraw(address tokenAddr)external {... */\n      pop\n      jump\t// out\n        /* \"contracts/helloep33.sol\":2779:2874  function getTime() external view  returns (uint){... */\n    tag_19:\n        /* \"contracts/helloep33.sol\":2822:2826  uint */\n      0x00\n        /* \"contracts/helloep33.sol\":2863:2866  120 */\n      0x78\n        /* \"contracts/helloep33.sol\":2845:2860  block.timestamp */\n      timestamp\n        /* \"contracts/helloep33.sol\":2845:2866  block.timestamp + 120 */\n      tag_73\n      swap2\n      swap1\n      tag_74\n      jump\t// in\n    tag_73:\n        /* \"contracts/helloep33.sol\":2838:2866  return block.timestamp + 120 */\n      swap1\n      pop\n        /* \"contracts/helloep33.sol\":2779:2874  function getTime() external view  returns (uint){... */\n      swap1\n      jump\t// out\n        /* \"contracts/helloep33.sol\":2086:2237  function getAmount(address tokenAddr,address tokenOwner) external view   returns (uint){... */\n    tag_23:\n        /* \"contracts/helloep33.sol\":2168:2172  uint */\n      0x00\n        /* \"contracts/helloep33.sol\":2195:2203  lockAttr */\n      0x00\n        /* \"contracts/helloep33.sol\":2195:2214  lockAttr[tokenAddr] */\n      0x00\n        /* \"contracts/helloep33.sol\":2204:2213  tokenAddr */\n      dup5\n        /* \"contracts/helloep33.sol\":2195:2214  lockAttr[tokenAddr] */\n      0xffffffffffffffffffffffffffffffffffffffff\n      and\n      0xffffffffffffffffffffffffffffffffffffffff\n      and\n      dup2\n      mstore\n      0x20\n      add\n      swap1\n      dup2\n      mstore\n      0x20\n      add\n      0x00\n      keccak256\n        /* \"contracts/helloep33.sol\":2195:2226  lockAttr[tokenAddr][tokenOwner] */\n      0x00\n        /* \"contracts/helloep33.sol\":2215:2225  tokenOwner */\n      dup4\n        /* \"contracts/helloep33.sol\":2195:2226  lockAttr[tokenAddr][tokenOwner] */\n      0xffffffffffffffffffffffffffffffffffffffff\n      and\n      0xffffffffffffffffffffffffffffffffffffffff\n      and\n      dup2\n      mstore\n      0x20\n      add\n      swap1\n      dup2\n      mstore\n      0x20\n      add\n      0x00\n      keccak256\n        /* \"contracts/helloep33.sol\":2227:2228  0 */\n      0x00\n        /* \"contracts/helloep33.sol\":2195:2229  lockAttr[tokenAddr][tokenOwner][0] */\n      0x02\n      dup2\n      lt\n      tag_76\n      jumpi\n      tag_77\n      tag_32\n      jump\t// in\n    tag_77:\n    tag_76:\n      add\n      sload\n        /* \"contracts/helloep33.sol\":2188:2229  return lockAttr[tokenAddr][tokenOwner][0] */\n      swap1\n      pop\n        /* \"contracts/helloep33.sol\":2086:2237  function getAmount(address tokenAddr,address tokenOwner) external view   returns (uint){... */\n      swap3\n      swap2\n      pop\n      pop\n      jump\t// out\n        /* \"contracts/helloep33.sol\":1260:1869  function lock( address tokenAddr,uint amount,uint expireAt) external {... */\n    tag_28:\n        /* \"contracts/helloep33.sol\":1357:1372  block.timestamp */\n      timestamp\n        /* \"contracts/helloep33.sol\":1348:1356  expireAt */\n      dup2\n        /* \"contracts/helloep33.sol\":1348:1372  expireAt>block.timestamp */\n      gt\n        /* \"contracts/helloep33.sol\":1340:1423  require(expireAt>block.timestamp,\"expireAt must be greater than current timestamp\") */\n      tag_80\n      jumpi\n      mload(0x40)\n      0x08c379a000000000000000000000000000000000000000000000000000000000\n      dup2\n      mstore\n      0x04\n      add\n      tag_81\n      swap1\n      tag_82\n      jump\t// in\n    tag_81:\n      mload(0x40)\n      dup1\n      swap2\n      sub\n      swap1\n      revert\n    tag_80:\n        /* \"contracts/helloep33.sol\":1452:1460  lockAttr */\n      0x00\n        /* \"contracts/helloep33.sol\":1452:1471  lockAttr[tokenAddr] */\n      0x00\n        /* \"contracts/helloep33.sol\":1461:1470  tokenAddr */\n      dup5\n        /* \"contracts/helloep33.sol\":1452:1471  lockAttr[tokenAddr] */\n      0xffffffffffffffffffffffffffffffffffffffff\n      and\n      0xffffffffffffffffffffffffffffffffffffffff\n      and\n      dup2\n      mstore\n      0x20\n      add\n      swap1\n      dup2\n      mstore\n      0x20\n      add\n      0x00\n      keccak256\n        /* \"contracts/helloep33.sol\":1452:1483  lockAttr[tokenAddr][msg.sender] */\n      0x00\n        /* \"contracts/helloep33.sol\":1472:1482  msg.sender */\n      caller\n        /* \"contracts/helloep33.sol\":1452:1483  lockAttr[tokenAddr][msg.sender] */\n      0xffffffffffffffffffffffffffffffffffffffff\n      and\n      0xffffffffffffffffffffffffffffffffffffffff\n      and\n      dup2\n      mstore\n      0x20\n      add\n      swap1\n      dup2\n      mstore\n      0x20\n      add\n      0x00\n      keccak256\n        /* \"contracts/helloep33.sol\":1484:1485  1 */\n      0x01\n        /* \"contracts/helloep33.sol\":1452:1486  lockAttr[tokenAddr][msg.sender][1] */\n      0x02\n      dup2\n      lt\n      tag_83\n      jumpi\n      tag_84\n      tag_32\n      jump\t// in\n    tag_84:\n    tag_83:\n      add\n      sload\n        /* \"contracts/helloep33.sol\":1442:1450  expireAt */\n      dup2\n        /* \"contracts/helloep33.sol\":1442:1486  expireAt>=lockAttr[tokenAddr][msg.sender][1] */\n      lt\n      iszero\n        /* \"contracts/helloep33.sol\":1434:1508  require(expireAt>=lockAttr[tokenAddr][msg.sender][1], \"expire is invalid\") */\n      tag_86\n      jumpi\n      mload(0x40)\n      0x08c379a000000000000000000000000000000000000000000000000000000000\n      dup2\n      mstore\n      0x04\n      add\n      tag_87\n      swap1\n      tag_88\n      jump\t// in\n    tag_87:\n      mload(0x40)\n      dup1\n      swap2\n      sub\n      swap1\n      revert\n    tag_86:\n        /* \"contracts/helloep33.sol\":1519:1526  bool ok */\n      0x00\n        /* \"contracts/helloep33.sol\":1543:1552  tokenAddr */\n      dup4\n        /* \"contracts/helloep33.sol\":1529:1566  ERC20Metadata(tokenAddr).transferFrom */\n      0xffffffffffffffffffffffffffffffffffffffff\n      and\n      0x23b872dd\n        /* \"contracts/helloep33.sol\":1567:1577  msg.sender */\n      caller\n        /* \"contracts/helloep33.sol\":1586:1590  this */\n      address\n        /* \"contracts/helloep33.sol\":1592:1598  amount */\n      dup7\n        /* \"contracts/helloep33.sol\":1529:1599  ERC20Metadata(tokenAddr).transferFrom(msg.sender,address(this),amount) */\n      mload(0x40)\n      dup5\n      0xffffffff\n      and\n      0xe0\n      shl\n      dup2\n      mstore\n      0x04\n      add\n      tag_89\n      swap4\n      swap3\n      swap2\n      swap1\n      tag_90\n      jump\t// in\n    tag_89:\n      0x20\n      mload(0x40)\n      dup1\n      dup4\n      sub\n      dup2\n      0x00\n      dup8\n      gas\n      call\n      iszero\n      dup1\n      iszero\n      tag_92\n      jumpi\n      returndatacopy(0x00, 0x00, returndatasize)\n      revert(0x00, returndatasize)\n    tag_92:\n      pop\n      pop\n      pop\n      pop\n      mload(0x40)\n      returndatasize\n      not(0x1f)\n      0x1f\n      dup3\n      add\n      and\n      dup3\n      add\n      dup1\n      0x40\n      mstore\n      pop\n      dup2\n      add\n      swap1\n      tag_93\n      swap2\n      swap1\n      tag_60\n      jump\t// in\n    tag_93:\n        /* \"contracts/helloep33.sol\":1519:1599  bool ok = ERC20Metadata(tokenAddr).transferFrom(msg.sender,address(this),amount) */\n      swap1\n      pop\n        /* \"contracts/helloep33.sol\":1618:1620  ok */\n      dup1\n        /* \"contracts/helloep33.sol\":1610:1643  require(ok,\"transferFrom failed\") */\n      tag_94\n      jumpi\n      mload(0x40)\n      0x08c379a000000000000000000000000000000000000000000000000000000000\n      dup2\n      mstore\n      0x04\n      add\n      tag_95\n      swap1\n      tag_96\n      jump\t// in\n    tag_95:\n      mload(0x40)\n      dup1\n      swap2\n      sub\n      swap1\n      revert\n    tag_94:\n        /* \"contracts/helloep33.sol\":1692:1698  amount */\n      dup3\n        /* \"contracts/helloep33.sol\":1654:1662  lockAttr */\n      0x00\n        /* \"contracts/helloep33.sol\":1654:1673  lockAttr[tokenAddr] */\n      0x00\n        /* \"contracts/helloep33.sol\":1663:1672  tokenAddr */\n      dup7\n        /* \"contracts/helloep33.sol\":1654:1673  lockAttr[tokenAddr] */\n      0xffffffffffffffffffffffffffffffffffffffff\n      and\n      0xffffffffffffffffffffffffffffffffffffffff\n      and\n      dup2\n      mstore\n      0x20\n      add\n      swap1\n      dup2\n      mstore\n      0x20\n      add\n      0x00\n      keccak256\n        /* \"contracts/helloep33.sol\":1654:1685  lockAttr[tokenAddr][msg.sender] */\n      0x00\n        /* \"contracts/helloep33.sol\":1674:1684  msg.sender */\n      caller\n        /* \"contracts/helloep33.sol\":1654:1685  lockAttr[tokenAddr][msg.sender] */\n      0xffffffffffffffffffffffffffffffffffffffff\n      and\n      0xffffffffffffffffffffffffffffffffffffffff\n      and\n      dup2\n      mstore\n      0x20\n      add\n      swap1\n      dup2\n      mstore\n      0x20\n      add\n      0x00\n      keccak256\n        /* \"contracts/helloep33.sol\":1686:1687  0 */\n      0x00\n        /* \"contracts/helloep33.sol\":1654:1688  lockAttr[tokenAddr][msg.sender][0] */\n      0x02\n      dup2\n      lt\n      tag_97\n      jumpi\n      tag_98\n      tag_32\n      jump\t// in\n    tag_98:\n    tag_97:\n      add\n      0x00\n        /* \"contracts/helloep33.sol\":1654:1698  lockAttr[tokenAddr][msg.sender][0] += amount */\n      dup3\n      dup3\n      sload\n      tag_100\n      swap2\n      swap1\n      tag_74\n      jump\t// in\n    tag_100:\n      swap3\n      pop\n      pop\n      dup2\n      swap1\n      sstore\n      pop\n        /* \"contracts/helloep33.sol\":1721:1729  lockAttr */\n      0x00\n        /* \"contracts/helloep33.sol\":1721:1740  lockAttr[tokenAddr] */\n      0x00\n        /* \"contracts/helloep33.sol\":1730:1739  tokenAddr */\n      dup6\n        /* \"contracts/helloep33.sol\":1721:1740  lockAttr[tokenAddr] */\n      0xffffffffffffffffffffffffffffffffffffffff\n      and\n      0xffffffffffffffffffffffffffffffffffffffff\n      and\n      dup2\n      mstore\n      0x20\n      add\n      swap1\n      dup2\n      mstore\n      0x20\n      add\n      0x00\n      keccak256\n        /* \"contracts/helloep33.sol\":1721:1752  lockAttr[tokenAddr][msg.sender] */\n      0x00\n        /* \"contracts/helloep33.sol\":1741:1751  msg.sender */\n      caller\n        /* \"contracts/helloep33.sol\":1721:1752  lockAttr[tokenAddr][msg.sender] */\n      0xffffffffffffffffffffffffffffffffffffffff\n      and\n      0xffffffffffffffffffffffffffffffffffffffff\n      and\n      dup2\n      mstore\n      0x20\n      add\n      swap1\n      dup2\n      mstore\n      0x20\n      add\n      0x00\n      keccak256\n        /* \"contracts/helloep33.sol\":1753:1754  1 */\n      0x01\n        /* \"contracts/helloep33.sol\":1721:1755  lockAttr[tokenAddr][msg.sender][1] */\n      0x02\n      dup2\n      lt\n      tag_101\n      jumpi\n      tag_102\n      tag_32\n      jump\t// in\n    tag_102:\n    tag_101:\n      add\n      sload\n        /* \"contracts/helloep33.sol\":1710:1718  expireAt */\n      dup3\n        /* \"contracts/helloep33.sol\":1710:1755  expireAt > lockAttr[tokenAddr][msg.sender][1] */\n      gt\n        /* \"contracts/helloep33.sol\":1710:1799  expireAt > lockAttr[tokenAddr][msg.sender][1]?expireAt:lockAttr[tokenAddr][msg.sender][1] */\n      tag_104\n      jumpi\n        /* \"contracts/helloep33.sol\":1765:1773  lockAttr */\n      0x00\n        /* \"contracts/helloep33.sol\":1765:1784  lockAttr[tokenAddr] */\n      0x00\n        /* \"contracts/helloep33.sol\":1774:1783  tokenAddr */\n      dup6\n        /* \"contracts/helloep33.sol\":1765:1784  lockAttr[tokenAddr] */\n      0xffffffffffffffffffffffffffffffffffffffff\n      and\n      0xffffffffffffffffffffffffffffffffffffffff\n      and\n      dup2\n      mstore\n      0x20\n      add\n      swap1\n      dup2\n      mstore\n      0x20\n      add\n      0x00\n      keccak256\n        /* \"contracts/helloep33.sol\":1765:1796  lockAttr[tokenAddr][msg.sender] */\n      0x00\n        /* \"contracts/helloep33.sol\":1785:1795  msg.sender */\n      caller\n        /* \"contracts/helloep33.sol\":1765:1796  lockAttr[tokenAddr][msg.sender] */\n      0xffffffffffffffffffffffffffffffffffffffff\n      and\n      0xffffffffffffffffffffffffffffffffffffffff\n      and\n      dup2\n      mstore\n      0x20\n      add\n      swap1\n      dup2\n      mstore\n      0x20\n      add\n      0x00\n      keccak256\n        /* \"contracts/helloep33.sol\":1797:1798  1 */\n      0x01\n        /* \"contracts/helloep33.sol\":1765:1799  lockAttr[tokenAddr][msg.sender][1] */\n      0x02\n      dup2\n      lt\n      tag_105\n      jumpi\n      tag_106\n      tag_32\n      jump\t// in\n    tag_106:\n    tag_105:\n      add\n      sload\n        /* \"contracts/helloep33.sol\":1710:1799  expireAt > lockAttr[tokenAddr][msg.sender][1]?expireAt:lockAttr[tokenAddr][msg.sender][1] */\n      jump(tag_108)\n    tag_104:\n        /* \"contracts/helloep33.sol\":1756:1764  expireAt */\n      dup2\n        /* \"contracts/helloep33.sol\":1710:1799  expireAt > lockAttr[tokenAddr][msg.sender][1]?expireAt:lockAttr[tokenAddr][msg.sender][1] */\n    tag_108:\n      pop\n        /* \"contracts/helloep33.sol\":1816:1861  locaked(tokenAddr,msg.sender,amount,expireAt) */\n      0xdfaff91bc854dee91009789d443a02b62f4a1119ad18fd84bae2d223eecc72c3\n        /* \"contracts/helloep33.sol\":1824:1833  tokenAddr */\n      dup5\n        /* \"contracts/helloep33.sol\":1834:1844  msg.sender */\n      caller\n        /* \"contracts/helloep33.sol\":1845:1851  amount */\n      dup6\n        /* \"contracts/helloep33.sol\":1852:1860  expireAt */\n      dup6\n        /* \"contracts/helloep33.sol\":1816:1861  locaked(tokenAddr,msg.sender,amount,expireAt) */\n      mload(0x40)\n      tag_109\n      swap5\n      swap4\n      swap3\n      swap2\n      swap1\n      tag_71\n      jump\t// in\n    tag_109:\n      mload(0x40)\n      dup1\n      swap2\n      sub\n      swap1\n      log1\n        /* \"contracts/helloep33.sol\":1329:1869  {... */\n      pop\n        /* \"contracts/helloep33.sol\":1260:1869  function lock( address tokenAddr,uint amount,uint expireAt) external {... */\n      pop\n      pop\n      pop\n      jump\t// out\n        /* \"#utility.yul\":88:205   */\n    tag_111:\n        /* \"#utility.yul\":197:198   */\n      0x00\n        /* \"#utility.yul\":194:195   */\n      0x00\n        /* \"#utility.yul\":187:199   */\n      revert\n        /* \"#utility.yul\":334:460   */\n    tag_113:\n        /* \"#utility.yul\":371:378   */\n      0x00\n        /* \"#utility.yul\":411:453   */\n      0xffffffffffffffffffffffffffffffffffffffff\n        /* \"#utility.yul\":404:409   */\n      dup3\n        /* \"#utility.yul\":400:454   */\n      and\n        /* \"#utility.yul\":389:454   */\n      swap1\n      pop\n        /* \"#utility.yul\":334:460   */\n      swap2\n      swap1\n      pop\n      jump\t// out\n        /* \"#utility.yul\":466:562   */\n    tag_114:\n        /* \"#utility.yul\":503:510   */\n      0x00\n        /* \"#utility.yul\":532:556   */\n      tag_145\n        /* \"#utility.yul\":550:555   */\n      dup3\n        /* \"#utility.yul\":532:556   */\n      tag_113\n      jump\t// in\n    tag_145:\n        /* \"#utility.yul\":521:556   */\n      swap1\n      pop\n        /* \"#utility.yul\":466:562   */\n      swap2\n      swap1\n      pop\n      jump\t// out\n        /* \"#utility.yul\":568:690   */\n    tag_115:\n        /* \"#utility.yul\":641:665   */\n      tag_147\n        /* \"#utility.yul\":659:664   */\n      dup2\n        /* \"#utility.yul\":641:665   */\n      tag_114\n      jump\t// in\n    tag_147:\n        /* \"#utility.yul\":634:639   */\n      dup2\n        /* \"#utility.yul\":631:666   */\n      eq\n        /* \"#utility.yul\":621:684   */\n      tag_148\n      jumpi\n        /* \"#utility.yul\":680:681   */\n      0x00\n        /* \"#utility.yul\":677:678   */\n      0x00\n        /* \"#utility.yul\":670:682   */\n      revert\n        /* \"#utility.yul\":621:684   */\n    tag_148:\n        /* \"#utility.yul\":568:690   */\n      pop\n      jump\t// out\n        /* \"#utility.yul\":696:835   */\n    tag_116:\n        /* \"#utility.yul\":742:747   */\n      0x00\n        /* \"#utility.yul\":780:786   */\n      dup2\n        /* \"#utility.yul\":767:787   */\n      calldataload\n        /* \"#utility.yul\":758:787   */\n      swap1\n      pop\n        /* \"#utility.yul\":796:829   */\n      tag_150\n        /* \"#utility.yul\":823:828   */\n      dup2\n        /* \"#utility.yul\":796:829   */\n      tag_115\n      jump\t// in\n    tag_150:\n        /* \"#utility.yul\":696:835   */\n      swap3\n      swap2\n      pop\n      pop\n      jump\t// out\n        /* \"#utility.yul\":841:1315   */\n    tag_10:\n        /* \"#utility.yul\":909:915   */\n      0x00\n        /* \"#utility.yul\":917:923   */\n      0x00\n        /* \"#utility.yul\":966:968   */\n      0x40\n        /* \"#utility.yul\":954:963   */\n      dup4\n        /* \"#utility.yul\":945:952   */\n      dup6\n        /* \"#utility.yul\":941:964   */\n      sub\n        /* \"#utility.yul\":937:969   */\n      slt\n        /* \"#utility.yul\":934:1053   */\n      iszero\n      tag_152\n      jumpi\n        /* \"#utility.yul\":972:1051   */\n      tag_153\n      tag_111\n      jump\t// in\n    tag_153:\n        /* \"#utility.yul\":934:1053   */\n    tag_152:\n        /* \"#utility.yul\":1092:1093   */\n      0x00\n        /* \"#utility.yul\":1117:1170   */\n      tag_154\n        /* \"#utility.yul\":1162:1169   */\n      dup6\n        /* \"#utility.yul\":1153:1159   */\n      dup3\n        /* \"#utility.yul\":1142:1151   */\n      dup7\n        /* \"#utility.yul\":1138:1160   */\n      add\n        /* \"#utility.yul\":1117:1170   */\n      tag_116\n      jump\t// in\n    tag_154:\n        /* \"#utility.yul\":1107:1170   */\n      swap3\n      pop\n        /* \"#utility.yul\":1063:1180   */\n      pop\n        /* \"#utility.yul\":1219:1221   */\n      0x20\n        /* \"#utility.yul\":1245:1298   */\n      tag_155\n        /* \"#utility.yul\":1290:1297   */\n      dup6\n        /* \"#utility.yul\":1281:1287   */\n      dup3\n        /* \"#utility.yul\":1270:1279   */\n      dup7\n        /* \"#utility.yul\":1266:1288   */\n      add\n        /* \"#utility.yul\":1245:1298   */\n      tag_116\n      jump\t// in\n    tag_155:\n        /* \"#utility.yul\":1235:1298   */\n      swap2\n      pop\n        /* \"#utility.yul\":1190:1308   */\n      pop\n        /* \"#utility.yul\":841:1315   */\n      swap3\n      pop\n      swap3\n      swap1\n      pop\n      jump\t// out\n        /* \"#utility.yul\":1321:1398   */\n    tag_117:\n        /* \"#utility.yul\":1358:1365   */\n      0x00\n        /* \"#utility.yul\":1387:1392   */\n      dup2\n        /* \"#utility.yul\":1376:1392   */\n      swap1\n      pop\n        /* \"#utility.yul\":1321:1398   */\n      swap2\n      swap1\n      pop\n      jump\t// out\n        /* \"#utility.yul\":1404:1522   */\n    tag_118:\n        /* \"#utility.yul\":1491:1515   */\n      tag_158\n        /* \"#utility.yul\":1509:1514   */\n      dup2\n        /* \"#utility.yul\":1491:1515   */\n      tag_117\n      jump\t// in\n    tag_158:\n        /* \"#utility.yul\":1486:1489   */\n      dup3\n        /* \"#utility.yul\":1479:1516   */\n      mstore\n        /* \"#utility.yul\":1404:1522   */\n      pop\n      pop\n      jump\t// out\n        /* \"#utility.yul\":1528:1750   */\n    tag_13:\n        /* \"#utility.yul\":1621:1625   */\n      0x00\n        /* \"#utility.yul\":1659:1661   */\n      0x20\n        /* \"#utility.yul\":1648:1657   */\n      dup3\n        /* \"#utility.yul\":1644:1662   */\n      add\n        /* \"#utility.yul\":1636:1662   */\n      swap1\n      pop\n        /* \"#utility.yul\":1672:1743   */\n      tag_160\n        /* \"#utility.yul\":1740:1741   */\n      0x00\n        /* \"#utility.yul\":1729:1738   */\n      dup4\n        /* \"#utility.yul\":1725:1742   */\n      add\n        /* \"#utility.yul\":1716:1722   */\n      dup5\n        /* \"#utility.yul\":1672:1743   */\n      tag_118\n      jump\t// in\n    tag_160:\n        /* \"#utility.yul\":1528:1750   */\n      swap3\n      swap2\n      pop\n      pop\n      jump\t// out\n        /* \"#utility.yul\":1756:2085   */\n    tag_16:\n        /* \"#utility.yul\":1815:1821   */\n      0x00\n        /* \"#utility.yul\":1864:1866   */\n      0x20\n        /* \"#utility.yul\":1852:1861   */\n      dup3\n        /* \"#utility.yul\":1843:1850   */\n      dup5\n        /* \"#utility.yul\":1839:1862   */\n      sub\n        /* \"#utility.yul\":1835:1867   */\n      slt\n        /* \"#utility.yul\":1832:1951   */\n      iszero\n      tag_162\n      jumpi\n        /* \"#utility.yul\":1870:1949   */\n      tag_163\n      tag_111\n      jump\t// in\n    tag_163:\n        /* \"#utility.yul\":1832:1951   */\n    tag_162:\n        /* \"#utility.yul\":1990:1991   */\n      0x00\n        /* \"#utility.yul\":2015:2068   */\n      tag_164\n        /* \"#utility.yul\":2060:2067   */\n      dup5\n        /* \"#utility.yul\":2051:2057   */\n      dup3\n        /* \"#utility.yul\":2040:2049   */\n      dup6\n        /* \"#utility.yul\":2036:2058   */\n      add\n        /* \"#utility.yul\":2015:2068   */\n      tag_116\n      jump\t// in\n    tag_164:\n        /* \"#utility.yul\":2005:2068   */\n      swap2\n      pop\n        /* \"#utility.yul\":1961:2078   */\n      pop\n        /* \"#utility.yul\":1756:2085   */\n      swap3\n      swap2\n      pop\n      pop\n      jump\t// out\n        /* \"#utility.yul\":2091:2213   */\n    tag_119:\n        /* \"#utility.yul\":2164:2188   */\n      tag_166\n        /* \"#utility.yul\":2182:2187   */\n      dup2\n        /* \"#utility.yul\":2164:2188   */\n      tag_117\n      jump\t// in\n    tag_166:\n        /* \"#utility.yul\":2157:2162   */\n      dup2\n        /* \"#utility.yul\":2154:2189   */\n      eq\n        /* \"#utility.yul\":2144:2207   */\n      tag_167\n      jumpi\n        /* \"#utility.yul\":2203:2204   */\n      0x00\n        /* \"#utility.yul\":2200:2201   */\n      0x00\n        /* \"#utility.yul\":2193:2205   */\n      revert\n        /* \"#utility.yul\":2144:2207   */\n    tag_167:\n        /* \"#utility.yul\":2091:2213   */\n      pop\n      jump\t// out\n        /* \"#utility.yul\":2219:2358   */\n    tag_120:\n        /* \"#utility.yul\":2265:2270   */\n      0x00\n        /* \"#utility.yul\":2303:2309   */\n      dup2\n        /* \"#utility.yul\":2290:2310   */\n      calldataload\n        /* \"#utility.yul\":2281:2310   */\n      swap1\n      pop\n        /* \"#utility.yul\":2319:2352   */\n      tag_169\n        /* \"#utility.yul\":2346:2351   */\n      dup2\n        /* \"#utility.yul\":2319:2352   */\n      tag_119\n      jump\t// in\n    tag_169:\n        /* \"#utility.yul\":2219:2358   */\n      swap3\n      swap2\n      pop\n      pop\n      jump\t// out\n        /* \"#utility.yul\":2364:2983   */\n    tag_27:\n        /* \"#utility.yul\":2441:2447   */\n      0x00\n        /* \"#utility.yul\":2449:2455   */\n      0x00\n        /* \"#utility.yul\":2457:2463   */\n      0x00\n        /* \"#utility.yul\":2506:2508   */\n      0x60\n        /* \"#utility.yul\":2494:2503   */\n      dup5\n        /* \"#utility.yul\":2485:2492   */\n      dup7\n        /* \"#utility.yul\":2481:2504   */\n      sub\n        /* \"#utility.yul\":2477:2509   */\n      slt\n        /* \"#utility.yul\":2474:2593   */\n      iszero\n      tag_171\n      jumpi\n        /* \"#utility.yul\":2512:2591   */\n      tag_172\n      tag_111\n      jump\t// in\n    tag_172:\n        /* \"#utility.yul\":2474:2593   */\n    tag_171:\n        /* \"#utility.yul\":2632:2633   */\n      0x00\n        /* \"#utility.yul\":2657:2710   */\n      tag_173\n        /* \"#utility.yul\":2702:2709   */\n      dup7\n        /* \"#utility.yul\":2693:2699   */\n      dup3\n        /* \"#utility.yul\":2682:2691   */\n      dup8\n        /* \"#utility.yul\":2678:2700   */\n      add\n        /* \"#utility.yul\":2657:2710   */\n      tag_116\n      jump\t// in\n    tag_173:\n        /* \"#utility.yul\":2647:2710   */\n      swap4\n      pop\n        /* \"#utility.yul\":2603:2720   */\n      pop\n        /* \"#utility.yul\":2759:2761   */\n      0x20\n        /* \"#utility.yul\":2785:2838   */\n      tag_174\n        /* \"#utility.yul\":2830:2837   */\n      dup7\n        /* \"#utility.yul\":2821:2827   */\n      dup3\n        /* \"#utility.yul\":2810:2819   */\n      dup8\n        /* \"#utility.yul\":2806:2828   */\n      add\n        /* \"#utility.yul\":2785:2838   */\n      tag_120\n      jump\t// in\n    tag_174:\n        /* \"#utility.yul\":2775:2838   */\n      swap3\n      pop\n        /* \"#utility.yul\":2730:2848   */\n      pop\n        /* \"#utility.yul\":2887:2889   */\n      0x40\n        /* \"#utility.yul\":2913:2966   */\n      tag_175\n        /* \"#utility.yul\":2958:2965   */\n      dup7\n        /* \"#utility.yul\":2949:2955   */\n      dup3\n        /* \"#utility.yul\":2938:2947   */\n      dup8\n        /* \"#utility.yul\":2934:2956   */\n      add\n        /* \"#utility.yul\":2913:2966   */\n      tag_120\n      jump\t// in\n    tag_175:\n        /* \"#utility.yul\":2903:2966   */\n      swap2\n      pop\n        /* \"#utility.yul\":2858:2976   */\n      pop\n        /* \"#utility.yul\":2364:2983   */\n      swap3\n      pop\n      swap3\n      pop\n      swap3\n      jump\t// out\n        /* \"#utility.yul\":2989:3169   */\n    tag_32:\n        /* \"#utility.yul\":3037:3114   */\n      0x4e487b7100000000000000000000000000000000000000000000000000000000\n        /* \"#utility.yul\":3034:3035   */\n      0x00\n        /* \"#utility.yul\":3027:3115   */\n      mstore\n        /* \"#utility.yul\":3134:3138   */\n      0x32\n        /* \"#utility.yul\":3131:3132   */\n      0x04\n        /* \"#utility.yul\":3124:3139   */\n      mstore\n        /* \"#utility.yul\":3158:3162   */\n      0x24\n        /* \"#utility.yul\":3155:3156   */\n      0x00\n        /* \"#utility.yul\":3148:3163   */\n      revert\n        /* \"#utility.yul\":3175:3344   */\n    tag_121:\n        /* \"#utility.yul\":3259:3270   */\n      0x00\n        /* \"#utility.yul\":3293:3299   */\n      dup3\n        /* \"#utility.yul\":3288:3291   */\n      dup3\n        /* \"#utility.yul\":3281:3300   */\n      mstore\n        /* \"#utility.yul\":3333:3337   */\n      0x20\n        /* \"#utility.yul\":3328:3331   */\n      dup3\n        /* \"#utility.yul\":3324:3338   */\n      add\n        /* \"#utility.yul\":3309:3338   */\n      swap1\n      pop\n        /* \"#utility.yul\":3175:3344   */\n      swap3\n      swap2\n      pop\n      pop\n      jump\t// out\n        /* \"#utility.yul\":3350:3512   */\n    tag_122:\n        /* \"#utility.yul\":3490:3504   */\n      0x6f7574206f6620746f6b656e0000000000000000000000000000000000000000\n        /* \"#utility.yul\":3486:3487   */\n      0x00\n        /* \"#utility.yul\":3478:3484   */\n      dup3\n        /* \"#utility.yul\":3474:3488   */\n      add\n        /* \"#utility.yul\":3467:3505   */\n      mstore\n        /* \"#utility.yul\":3350:3512   */\n      pop\n      jump\t// out\n        /* \"#utility.yul\":3518:3884   */\n    tag_123:\n        /* \"#utility.yul\":3660:3663   */\n      0x00\n        /* \"#utility.yul\":3681:3748   */\n      tag_180\n        /* \"#utility.yul\":3745:3747   */\n      0x0c\n        /* \"#utility.yul\":3740:3743   */\n      dup4\n        /* \"#utility.yul\":3681:3748   */\n      tag_121\n      jump\t// in\n    tag_180:\n        /* \"#utility.yul\":3674:3748   */\n      swap2\n      pop\n        /* \"#utility.yul\":3757:3850   */\n      tag_181\n        /* \"#utility.yul\":3846:3849   */\n      dup3\n        /* \"#utility.yul\":3757:3850   */\n      tag_122\n      jump\t// in\n    tag_181:\n        /* \"#utility.yul\":3875:3877   */\n      0x20\n        /* \"#utility.yul\":3870:3873   */\n      dup3\n        /* \"#utility.yul\":3866:3878   */\n      add\n        /* \"#utility.yul\":3859:3878   */\n      swap1\n      pop\n        /* \"#utility.yul\":3518:3884   */\n      swap2\n      swap1\n      pop\n      jump\t// out\n        /* \"#utility.yul\":3890:4309   */\n    tag_45:\n        /* \"#utility.yul\":4056:4060   */\n      0x00\n        /* \"#utility.yul\":4094:4096   */\n      0x20\n        /* \"#utility.yul\":4083:4092   */\n      dup3\n        /* \"#utility.yul\":4079:4097   */\n      add\n        /* \"#utility.yul\":4071:4097   */\n      swap1\n      pop\n        /* \"#utility.yul\":4143:4152   */\n      dup2\n        /* \"#utility.yul\":4137:4141   */\n      dup2\n        /* \"#utility.yul\":4133:4153   */\n      sub\n        /* \"#utility.yul\":4129:4130   */\n      0x00\n        /* \"#utility.yul\":4118:4127   */\n      dup4\n        /* \"#utility.yul\":4114:4131   */\n      add\n        /* \"#utility.yul\":4107:4154   */\n      mstore\n        /* \"#utility.yul\":4171:4302   */\n      tag_183\n        /* \"#utility.yul\":4297:4301   */\n      dup2\n        /* \"#utility.yul\":4171:4302   */\n      tag_123\n      jump\t// in\n    tag_183:\n        /* \"#utility.yul\":4163:4302   */\n      swap1\n      pop\n        /* \"#utility.yul\":3890:4309   */\n      swap2\n      swap1\n      pop\n      jump\t// out\n        /* \"#utility.yul\":4315:4475   */\n    tag_124:\n        /* \"#utility.yul\":4455:4467   */\n      0x6e6f742065787069726500000000000000000000000000000000000000000000\n        /* \"#utility.yul\":4451:4452   */\n      0x00\n        /* \"#utility.yul\":4443:4449   */\n      dup3\n        /* \"#utility.yul\":4439:4453   */\n      add\n        /* \"#utility.yul\":4432:4468   */\n      mstore\n        /* \"#utility.yul\":4315:4475   */\n      pop\n      jump\t// out\n        /* \"#utility.yul\":4481:4847   */\n    tag_125:\n        /* \"#utility.yul\":4623:4626   */\n      0x00\n        /* \"#utility.yul\":4644:4711   */\n      tag_186\n        /* \"#utility.yul\":4708:4710   */\n      0x0a\n        /* \"#utility.yul\":4703:4706   */\n      dup4\n        /* \"#utility.yul\":4644:4711   */\n      tag_121\n      jump\t// in\n    tag_186:\n        /* \"#utility.yul\":4637:4711   */\n      swap2\n      pop\n        /* \"#utility.yul\":4720:4813   */\n      tag_187\n        /* \"#utility.yul\":4809:4812   */\n      dup3\n        /* \"#utility.yul\":4720:4813   */\n      tag_124\n      jump\t// in\n    tag_187:\n        /* \"#utility.yul\":4838:4840   */\n      0x20\n        /* \"#utility.yul\":4833:4836   */\n      dup3\n        /* \"#utility.yul\":4829:4841   */\n      add\n        /* \"#utility.yul\":4822:4841   */\n      swap1\n      pop\n        /* \"#utility.yul\":4481:4847   */\n      swap2\n      swap1\n      pop\n      jump\t// out\n        /* \"#utility.yul\":4853:5272   */\n    tag_51:\n        /* \"#utility.yul\":5019:5023   */\n      0x00\n        /* \"#utility.yul\":5057:5059   */\n      0x20\n        /* \"#utility.yul\":5046:5055   */\n      dup3\n        /* \"#utility.yul\":5042:5060   */\n      add\n        /* \"#utility.yul\":5034:5060   */\n      swap1\n      pop\n        /* \"#utility.yul\":5106:5115   */\n      dup2\n        /* \"#utility.yul\":5100:5104   */\n      dup2\n        /* \"#utility.yul\":5096:5116   */\n      sub\n        /* \"#utility.yul\":5092:5093   */\n      0x00\n        /* \"#utility.yul\":5081:5090   */\n      dup4\n        /* \"#utility.yul\":5077:5094   */\n      add\n        /* \"#utility.yul\":5070:5117   */\n      mstore\n        /* \"#utility.yul\":5134:5265   */\n      tag_189\n        /* \"#utility.yul\":5260:5264   */\n      dup2\n        /* \"#utility.yul\":5134:5265   */\n      tag_125\n      jump\t// in\n    tag_189:\n        /* \"#utility.yul\":5126:5265   */\n      swap1\n      pop\n        /* \"#utility.yul\":4853:5272   */\n      swap2\n      swap1\n      pop\n      jump\t// out\n        /* \"#utility.yul\":5278:5396   */\n    tag_126:\n        /* \"#utility.yul\":5365:5389   */\n      tag_191\n        /* \"#utility.yul\":5383:5388   */\n      dup2\n        /* \"#utility.yul\":5365:5389   */\n      tag_114\n      jump\t// in\n    tag_191:\n        /* \"#utility.yul\":5360:5363   */\n      dup3\n        /* \"#utility.yul\":5353:5390   */\n      mstore\n        /* \"#utility.yul\":5278:5396   */\n      pop\n      pop\n      jump\t// out\n        /* \"#utility.yul\":5402:5734   */\n    tag_56:\n        /* \"#utility.yul\":5523:5527   */\n      0x00\n        /* \"#utility.yul\":5561:5563   */\n      0x40\n        /* \"#utility.yul\":5550:5559   */\n      dup3\n        /* \"#utility.yul\":5546:5564   */\n      add\n        /* \"#utility.yul\":5538:5564   */\n      swap1\n      pop\n        /* \"#utility.yul\":5574:5645   */\n      tag_193\n        /* \"#utility.yul\":5642:5643   */\n      0x00\n        /* \"#utility.yul\":5631:5640   */\n      dup4\n        /* \"#utility.yul\":5627:5644   */\n      add\n        /* \"#utility.yul\":5618:5624   */\n      dup6\n        /* \"#utility.yul\":5574:5645   */\n      tag_126\n      jump\t// in\n    tag_193:\n        /* \"#utility.yul\":5655:5727   */\n      tag_194\n        /* \"#utility.yul\":5723:5725   */\n      0x20\n        /* \"#utility.yul\":5712:5721   */\n      dup4\n        /* \"#utility.yul\":5708:5726   */\n      add\n        /* \"#utility.yul\":5699:5705   */\n      dup5\n        /* \"#utility.yul\":5655:5727   */\n      tag_118\n      jump\t// in\n    tag_194:\n        /* \"#utility.yul\":5402:5734   */\n      swap4\n      swap3\n      pop\n      pop\n      pop\n      jump\t// out\n        /* \"#utility.yul\":5740:5830   */\n    tag_127:\n        /* \"#utility.yul\":5774:5781   */\n      0x00\n        /* \"#utility.yul\":5817:5822   */\n      dup2\n        /* \"#utility.yul\":5810:5823   */\n      iszero\n        /* \"#utility.yul\":5803:5824   */\n      iszero\n        /* \"#utility.yul\":5792:5824   */\n      swap1\n      pop\n        /* \"#utility.yul\":5740:5830   */\n      swap2\n      swap1\n      pop\n      jump\t// out\n        /* \"#utility.yul\":5836:5952   */\n    tag_128:\n        /* \"#utility.yul\":5906:5927   */\n      tag_197\n        /* \"#utility.yul\":5921:5926   */\n      dup2\n        /* \"#utility.yul\":5906:5927   */\n      tag_127\n      jump\t// in\n    tag_197:\n        /* \"#utility.yul\":5899:5904   */\n      dup2\n        /* \"#utility.yul\":5896:5928   */\n      eq\n        /* \"#utility.yul\":5886:5946   */\n      tag_198\n      jumpi\n        /* \"#utility.yul\":5942:5943   */\n      0x00\n        /* \"#utility.yul\":5939:5940   */\n      0x00\n        /* \"#utility.yul\":5932:5944   */\n      revert\n        /* \"#utility.yul\":5886:5946   */\n    tag_198:\n        /* \"#utility.yul\":5836:5952   */\n      pop\n      jump\t// out\n        /* \"#utility.yul\":5958:6095   */\n    tag_129:\n        /* \"#utility.yul\":6012:6017   */\n      0x00\n        /* \"#utility.yul\":6043:6049   */\n      dup2\n        /* \"#utility.yul\":6037:6050   */\n      mload\n        /* \"#utility.yul\":6028:6050   */\n      swap1\n      pop\n        /* \"#utility.yul\":6059:6089   */\n      tag_200\n        /* \"#utility.yul\":6083:6088   */\n      dup2\n        /* \"#utility.yul\":6059:6089   */\n      tag_128\n      jump\t// in\n    tag_200:\n        /* \"#utility.yul\":5958:6095   */\n      swap3\n      swap2\n      pop\n      pop\n      jump\t// out\n        /* \"#utility.yul\":6101:6446   */\n    tag_60:\n        /* \"#utility.yul\":6168:6174   */\n      0x00\n        /* \"#utility.yul\":6217:6219   */\n      0x20\n        /* \"#utility.yul\":6205:6214   */\n      dup3\n        /* \"#utility.yul\":6196:6203   */\n      dup5\n        /* \"#utility.yul\":6192:6215   */\n      sub\n        /* \"#utility.yul\":6188:6220   */\n      slt\n        /* \"#utility.yul\":6185:6304   */\n      iszero\n      tag_202\n      jumpi\n        /* \"#utility.yul\":6223:6302   */\n      tag_203\n      tag_111\n      jump\t// in\n    tag_203:\n        /* \"#utility.yul\":6185:6304   */\n    tag_202:\n        /* \"#utility.yul\":6343:6344   */\n      0x00\n        /* \"#utility.yul\":6368:6429   */\n      tag_204\n        /* \"#utility.yul\":6421:6428   */\n      dup5\n        /* \"#utility.yul\":6412:6418   */\n      dup3\n        /* \"#utility.yul\":6401:6410   */\n      dup6\n        /* \"#utility.yul\":6397:6419   */\n      add\n        /* \"#utility.yul\":6368:6429   */\n      tag_129\n      jump\t// in\n    tag_204:\n        /* \"#utility.yul\":6358:6429   */\n      swap2\n      pop\n        /* \"#utility.yul\":6314:6439   */\n      pop\n        /* \"#utility.yul\":6101:6446   */\n      swap3\n      swap2\n      pop\n      pop\n      jump\t// out\n        /* \"#utility.yul\":6452:6617   */\n    tag_130:\n        /* \"#utility.yul\":6592:6609   */\n      0x7472616e73666572206661696c65640000000000000000000000000000000000\n        /* \"#utility.yul\":6588:6589   */\n      0x00\n        /* \"#utility.yul\":6580:6586   */\n      dup3\n        /* \"#utility.yul\":6576:6590   */\n      add\n        /* \"#utility.yul\":6569:6610   */\n      mstore\n        /* \"#utility.yul\":6452:6617   */\n      pop\n      jump\t// out\n        /* \"#utility.yul\":6623:6989   */\n    tag_131:\n        /* \"#utility.yul\":6765:6768   */\n      0x00\n        /* \"#utility.yul\":6786:6853   */\n      tag_207\n        /* \"#utility.yul\":6850:6852   */\n      0x0f\n        /* \"#utility.yul\":6845:6848   */\n      dup4\n        /* \"#utility.yul\":6786:6853   */\n      tag_121\n      jump\t// in\n    tag_207:\n        /* \"#utility.yul\":6779:6853   */\n      swap2\n      pop\n        /* \"#utility.yul\":6862:6955   */\n      tag_208\n        /* \"#utility.yul\":6951:6954   */\n      dup3\n        /* \"#utility.yul\":6862:6955   */\n      tag_130\n      jump\t// in\n    tag_208:\n        /* \"#utility.yul\":6980:6982   */\n      0x20\n        /* \"#utility.yul\":6975:6978   */\n      dup3\n        /* \"#utility.yul\":6971:6983   */\n      add\n        /* \"#utility.yul\":6964:6983   */\n      swap1\n      pop\n        /* \"#utility.yul\":6623:6989   */\n      swap2\n      swap1\n      pop\n      jump\t// out\n        /* \"#utility.yul\":6995:7414   */\n    tag_66:\n        /* \"#utility.yul\":7161:7165   */\n      0x00\n        /* \"#utility.yul\":7199:7201   */\n      0x20\n        /* \"#utility.yul\":7188:7197   */\n      dup3\n        /* \"#utility.yul\":7184:7202   */\n      add\n        /* \"#utility.yul\":7176:7202   */\n      swap1\n      pop\n        /* \"#utility.yul\":7248:7257   */\n      dup2\n        /* \"#utility.yul\":7242:7246   */\n      dup2\n        /* \"#utility.yul\":7238:7258   */\n      sub\n        /* \"#utility.yul\":7234:7235   */\n      0x00\n        /* \"#utility.yul\":7223:7232   */\n      dup4\n        /* \"#utility.yul\":7219:7236   */\n      add\n        /* \"#utility.yul\":7212:7259   */\n      mstore\n        /* \"#utility.yul\":7276:7407   */\n      tag_210\n        /* \"#utility.yul\":7402:7406   */\n      dup2\n        /* \"#utility.yul\":7276:7407   */\n      tag_131\n      jump\t// in\n    tag_210:\n        /* \"#utility.yul\":7268:7407   */\n      swap1\n      pop\n        /* \"#utility.yul\":6995:7414   */\n      swap2\n      swap1\n      pop\n      jump\t// out\n        /* \"#utility.yul\":7420:7973   */\n    tag_71:\n        /* \"#utility.yul\":7597:7601   */\n      0x00\n        /* \"#utility.yul\":7635:7638   */\n      0x80\n        /* \"#utility.yul\":7624:7633   */\n      dup3\n        /* \"#utility.yul\":7620:7639   */\n      add\n        /* \"#utility.yul\":7612:7639   */\n      swap1\n      pop\n        /* \"#utility.yul\":7649:7720   */\n      tag_212\n        /* \"#utility.yul\":7717:7718   */\n      0x00\n        /* \"#utility.yul\":7706:7715   */\n      dup4\n        /* \"#utility.yul\":7702:7719   */\n      add\n        /* \"#utility.yul\":7693:7699   */\n      dup8\n        /* \"#utility.yul\":7649:7720   */\n      tag_126\n      jump\t// in\n    tag_212:\n        /* \"#utility.yul\":7730:7802   */\n      tag_213\n        /* \"#utility.yul\":7798:7800   */\n      0x20\n        /* \"#utility.yul\":7787:7796   */\n      dup4\n        /* \"#utility.yul\":7783:7801   */\n      add\n        /* \"#utility.yul\":7774:7780   */\n      dup7\n        /* \"#utility.yul\":7730:7802   */\n      tag_126\n      jump\t// in\n    tag_213:\n        /* \"#utility.yul\":7812:7884   */\n      tag_214\n        /* \"#utility.yul\":7880:7882   */\n      0x40\n        /* \"#utility.yul\":7869:7878   */\n      dup4\n        /* \"#utility.yul\":7865:7883   */\n      add\n        /* \"#utility.yul\":7856:7862   */\n      dup6\n        /* \"#utility.yul\":7812:7884   */\n      tag_118\n      jump\t// in\n    tag_214:\n        /* \"#utility.yul\":7894:7966   */\n      tag_215\n        /* \"#utility.yul\":7962:7964   */\n      0x60\n        /* \"#utility.yul\":7951:7960   */\n      dup4\n        /* \"#utility.yul\":7947:7965   */\n      add\n        /* \"#utility.yul\":7938:7944   */\n      dup5\n        /* \"#utility.yul\":7894:7966   */\n      tag_118\n      jump\t// in\n    tag_215:\n        /* \"#utility.yul\":7420:7973   */\n      swap6\n      swap5\n      pop\n      pop\n      pop\n      pop\n      pop\n      jump\t// out\n        /* \"#utility.yul\":7979:8159   */\n    tag_132:\n        /* \"#utility.yul\":8027:8104   */\n      0x4e487b7100000000000000000000000000000000000000000000000000000000\n        /* \"#utility.yul\":8024:8025   */\n      0x00\n        /* \"#utility.yul\":8017:8105   */\n      mstore\n        /* \"#utility.yul\":8124:8128   */\n      0x11\n        /* \"#utility.yul\":8121:8122   */\n      0x04\n        /* \"#utility.yul\":8114:8129   */\n      mstore\n        /* \"#utility.yul\":8148:8152   */\n      0x24\n        /* \"#utility.yul\":8145:8146   */\n      0x00\n        /* \"#utility.yul\":8138:8153   */\n      revert\n        /* \"#utility.yul\":8165:8356   */\n    tag_74:\n        /* \"#utility.yul\":8205:8208   */\n      0x00\n        /* \"#utility.yul\":8224:8244   */\n      tag_218\n        /* \"#utility.yul\":8242:8243   */\n      dup3\n        /* \"#utility.yul\":8224:8244   */\n      tag_117\n      jump\t// in\n    tag_218:\n        /* \"#utility.yul\":8219:8244   */\n      swap2\n      pop\n        /* \"#utility.yul\":8258:8278   */\n      tag_219\n        /* \"#utility.yul\":8276:8277   */\n      dup4\n        /* \"#utility.yul\":8258:8278   */\n      tag_117\n      jump\t// in\n    tag_219:\n        /* \"#utility.yul\":8253:8278   */\n      swap3\n      pop\n        /* \"#utility.yul\":8301:8302   */\n      dup3\n        /* \"#utility.yul\":8298:8299   */\n      dup3\n        /* \"#utility.yul\":8294:8303   */\n      add\n        /* \"#utility.yul\":8287:8303   */\n      swap1\n      pop\n        /* \"#utility.yul\":8322:8325   */\n      dup1\n        /* \"#utility.yul\":8319:8320   */\n      dup3\n        /* \"#utility.yul\":8316:8326   */\n      gt\n        /* \"#utility.yul\":8313:8349   */\n      iszero\n      tag_220\n      jumpi\n        /* \"#utility.yul\":8329:8347   */\n      tag_221\n      tag_132\n      jump\t// in\n    tag_221:\n        /* \"#utility.yul\":8313:8349   */\n    tag_220:\n        /* \"#utility.yul\":8165:8356   */\n      swap3\n      swap2\n      pop\n      pop\n      jump\t// out\n        /* \"#utility.yul\":8362:8596   */\n    tag_133:\n        /* \"#utility.yul\":8502:8536   */\n      0x6578706972654174206d7573742062652067726561746572207468616e206375\n        /* \"#utility.yul\":8498:8499   */\n      0x00\n        /* \"#utility.yul\":8490:8496   */\n      dup3\n        /* \"#utility.yul\":8486:8500   */\n      add\n        /* \"#utility.yul\":8479:8537   */\n      mstore\n        /* \"#utility.yul\":8571:8588   */\n      0x7272656e742074696d657374616d700000000000000000000000000000000000\n        /* \"#utility.yul\":8566:8568   */\n      0x20\n        /* \"#utility.yul\":8558:8564   */\n      dup3\n        /* \"#utility.yul\":8554:8569   */\n      add\n        /* \"#utility.yul\":8547:8589   */\n      mstore\n        /* \"#utility.yul\":8362:8596   */\n      pop\n      jump\t// out\n        /* \"#utility.yul\":8602:8968   */\n    tag_134:\n        /* \"#utility.yul\":8744:8747   */\n      0x00\n        /* \"#utility.yul\":8765:8832   */\n      tag_224\n        /* \"#utility.yul\":8829:8831   */\n      0x2f\n        /* \"#utility.yul\":8824:8827   */\n      dup4\n        /* \"#utility.yul\":8765:8832   */\n      tag_121\n      jump\t// in\n    tag_224:\n        /* \"#utility.yul\":8758:8832   */\n      swap2\n      pop\n        /* \"#utility.yul\":8841:8934   */\n      tag_225\n        /* \"#utility.yul\":8930:8933   */\n      dup3\n        /* \"#utility.yul\":8841:8934   */\n      tag_133\n      jump\t// in\n    tag_225:\n        /* \"#utility.yul\":8959:8961   */\n      0x40\n        /* \"#utility.yul\":8954:8957   */\n      dup3\n        /* \"#utility.yul\":8950:8962   */\n      add\n        /* \"#utility.yul\":8943:8962   */\n      swap1\n      pop\n        /* \"#utility.yul\":8602:8968   */\n      swap2\n      swap1\n      pop\n      jump\t// out\n        /* \"#utility.yul\":8974:9393   */\n    tag_82:\n        /* \"#utility.yul\":9140:9144   */\n      0x00\n        /* \"#utility.yul\":9178:9180   */\n      0x20\n        /* \"#utility.yul\":9167:9176   */\n      dup3\n        /* \"#utility.yul\":9163:9181   */\n      add\n        /* \"#utility.yul\":9155:9181   */\n      swap1\n      pop\n        /* \"#utility.yul\":9227:9236   */\n      dup2\n        /* \"#utility.yul\":9221:9225   */\n      dup2\n        /* \"#utility.yul\":9217:9237   */\n      sub\n        /* \"#utility.yul\":9213:9214   */\n      0x00\n        /* \"#utility.yul\":9202:9211   */\n      dup4\n        /* \"#utility.yul\":9198:9215   */\n      add\n        /* \"#utility.yul\":9191:9238   */\n      mstore\n        /* \"#utility.yul\":9255:9386   */\n      tag_227\n        /* \"#utility.yul\":9381:9385   */\n      dup2\n        /* \"#utility.yul\":9255:9386   */\n      tag_134\n      jump\t// in\n    tag_227:\n        /* \"#utility.yul\":9247:9386   */\n      swap1\n      pop\n        /* \"#utility.yul\":8974:9393   */\n      swap2\n      swap1\n      pop\n      jump\t// out\n        /* \"#utility.yul\":9399:9566   */\n    tag_135:\n        /* \"#utility.yul\":9539:9558   */\n      0x65787069726520697320696e76616c6964000000000000000000000000000000\n        /* \"#utility.yul\":9535:9536   */\n      0x00\n        /* \"#utility.yul\":9527:9533   */\n      dup3\n        /* \"#utility.yul\":9523:9537   */\n      add\n        /* \"#utility.yul\":9516:9559   */\n      mstore\n        /* \"#utility.yul\":9399:9566   */\n      pop\n      jump\t// out\n        /* \"#utility.yul\":9572:9938   */\n    tag_136:\n        /* \"#utility.yul\":9714:9717   */\n      0x00\n        /* \"#utility.yul\":9735:9802   */\n      tag_230\n        /* \"#utility.yul\":9799:9801   */\n      0x11\n        /* \"#utility.yul\":9794:9797   */\n      dup4\n        /* \"#utility.yul\":9735:9802   */\n      tag_121\n      jump\t// in\n    tag_230:\n        /* \"#utility.yul\":9728:9802   */\n      swap2\n      pop\n        /* \"#utility.yul\":9811:9904   */\n      tag_231\n        /* \"#utility.yul\":9900:9903   */\n      dup3\n        /* \"#utility.yul\":9811:9904   */\n      tag_135\n      jump\t// in\n    tag_231:\n        /* \"#utility.yul\":9929:9931   */\n      0x20\n        /* \"#utility.yul\":9924:9927   */\n      dup3\n        /* \"#utility.yul\":9920:9932   */\n      add\n        /* \"#utility.yul\":9913:9932   */\n      swap1\n      pop\n        /* \"#utility.yul\":9572:9938   */\n      swap2\n      swap1\n      pop\n      jump\t// out\n        /* \"#utility.yul\":9944:10363   */\n    tag_88:\n        /* \"#utility.yul\":10110:10114   */\n      0x00\n        /* \"#utility.yul\":10148:10150   */\n      0x20\n        /* \"#utility.yul\":10137:10146   */\n      dup3\n        /* \"#utility.yul\":10133:10151   */\n      add\n        /* \"#utility.yul\":10125:10151   */\n      swap1\n      pop\n        /* \"#utility.yul\":10197:10206   */\n      dup2\n        /* \"#utility.yul\":10191:10195   */\n      dup2\n        /* \"#utility.yul\":10187:10207   */\n      sub\n        /* \"#utility.yul\":10183:10184   */\n      0x00\n        /* \"#utility.yul\":10172:10181   */\n      dup4\n        /* \"#utility.yul\":10168:10185   */\n      add\n        /* \"#utility.yul\":10161:10208   */\n      mstore\n        /* \"#utility.yul\":10225:10356   */\n      tag_233\n        /* \"#utility.yul\":10351:10355   */\n      dup2\n        /* \"#utility.yul\":10225:10356   */\n      tag_136\n      jump\t// in\n    tag_233:\n        /* \"#utility.yul\":10217:10356   */\n      swap1\n      pop\n        /* \"#utility.yul\":9944:10363   */\n      swap2\n      swap1\n      pop\n      jump\t// out\n        /* \"#utility.yul\":10369:10811   */\n    tag_90:\n        /* \"#utility.yul\":10518:10522   */\n      0x00\n        /* \"#utility.yul\":10556:10558   */\n      0x60\n        /* \"#utility.yul\":10545:10554   */\n      dup3\n        /* \"#utility.yul\":10541:10559   */\n      add\n        /* \"#utility.yul\":10533:10559   */\n      swap1\n      pop\n        /* \"#utility.yul\":10569:10640   */\n      tag_235\n        /* \"#utility.yul\":10637:10638   */\n      0x00\n        /* \"#utility.yul\":10626:10635   */\n      dup4\n        /* \"#utility.yul\":10622:10639   */\n      add\n        /* \"#utility.yul\":10613:10619   */\n      dup7\n        /* \"#utility.yul\":10569:10640   */\n      tag_126\n      jump\t// in\n    tag_235:\n        /* \"#utility.yul\":10650:10722   */\n      tag_236\n        /* \"#utility.yul\":10718:10720   */\n      0x20\n        /* \"#utility.yul\":10707:10716   */\n      dup4\n        /* \"#utility.yul\":10703:10721   */\n      add\n        /* \"#utility.yul\":10694:10700   */\n      dup6\n        /* \"#utility.yul\":10650:10722   */\n      tag_126\n      jump\t// in\n    tag_236:\n        /* \"#utility.yul\":10732:10804   */\n      tag_237\n        /* \"#utility.yul\":10800:10802   */\n      0x40\n        /* \"#utility.yul\":10789:10798   */\n      dup4\n        /* \"#utility.yul\":10785:10803   */\n      add\n        /* \"#utility.yul\":10776:10782   */\n      dup5\n        /* \"#utility.yul\":10732:10804   */\n      tag_118\n      jump\t// in\n    tag_237:\n        /* \"#utility.yul\":10369:10811   */\n      swap5\n      swap4\n      pop\n      pop\n      pop\n      pop\n      jump\t// out\n        /* \"#utility.yul\":10817:10986   */\n    tag_137:\n        /* \"#utility.yul\":10957:10978   */\n      0x7472616e7366657246726f6d206661696c656400000000000000000000000000\n        /* \"#utility.yul\":10953:10954   */\n      0x00\n        /* \"#utility.yul\":10945:10951   */\n      dup3\n        /* \"#utility.yul\":10941:10955   */\n      add\n        /* \"#utility.yul\":10934:10979   */\n      mstore\n        /* \"#utility.yul\":10817:10986   */\n      pop\n      jump\t// out\n        /* \"#utility.yul\":10992:11358   */\n    tag_138:\n        /* \"#utility.yul\":11134:11137   */\n      0x00\n        /* \"#utility.yul\":11155:11222   */\n      tag_240\n        /* \"#utility.yul\":11219:11221   */\n      0x13\n        /* \"#utility.yul\":11214:11217   */\n      dup4\n        /* \"#utility.yul\":11155:11222   */\n      tag_121\n      jump\t// in\n    tag_240:\n        /* \"#utility.yul\":11148:11222   */\n      swap2\n      pop\n        /* \"#utility.yul\":11231:11324   */\n      tag_241\n        /* \"#utility.yul\":11320:11323   */\n      dup3\n        /* \"#utility.yul\":11231:11324   */\n      tag_137\n      jump\t// in\n    tag_241:\n        /* \"#utility.yul\":11349:11351   */\n      0x20\n        /* \"#utility.yul\":11344:11347   */\n      dup3\n        /* \"#utility.yul\":11340:11352   */\n      add\n        /* \"#utility.yul\":11333:11352   */\n      swap1\n      pop\n        /* \"#utility.yul\":10992:11358   */\n      swap2\n      swap1\n      pop\n      jump\t// out\n        /* \"#utility.yul\":11364:11783   */\n    tag_96:\n        /* \"#utility.yul\":11530:11534   */\n      0x00\n        /* \"#utility.yul\":11568:11570   */\n      0x20\n        /* \"#utility.yul\":11557:11566   */\n      dup3\n        /* \"#utility.yul\":11553:11571   */\n      add\n        /* \"#utility.yul\":11545:11571   */\n      swap1\n      pop\n        /* \"#utility.yul\":11617:11626   */\n      dup2\n        /* \"#utility.yul\":11611:11615   */\n      dup2\n        /* \"#utility.yul\":11607:11627   */\n      sub\n        /* \"#utility.yul\":11603:11604   */\n      0x00\n        /* \"#utility.yul\":11592:11601   */\n      dup4\n        /* \"#utility.yul\":11588:11605   */\n      add\n        /* \"#utility.yul\":11581:11628   */\n      mstore\n        /* \"#utility.yul\":11645:11776   */\n      tag_243\n        /* \"#utility.yul\":11771:11775   */\n      dup2\n        /* \"#utility.yul\":11645:11776   */\n      tag_138\n      jump\t// in\n    tag_243:\n        /* \"#utility.yul\":11637:11776   */\n      swap1\n      pop\n        /* \"#utility.yul\":11364:11783   */\n      swap2\n      swap1\n      pop\n      jump\t// out\n\n    auxdata: 0xa264697066735822122056e10939fb34c1fb71bc582d17db8e48087d9434f5eefb540020309878b8cd6864736f6c634300081e0033\n}\n",
				"bytecode": {
					"linkReferences": {},
					"object": "6080604052348015600e575f5ffd5b506110e68061001c5f395ff3fe608060405234801561000f575f5ffd5b5060043610610055575f3560e01c80633f6aaab71461005957806351cff8d914610089578063557ed1ba146100a55780637538766e146100c3578063e2ab691d146100f3575b5f5ffd5b610073600480360381019061006e9190610b5b565b61010f565b6040516100809190610bb1565b60405180910390f35b6100a3600480360381019061009e9190610bca565b61023c565b005b6100ad61067d565b6040516100ba9190610bb1565b60405180910390f35b6100dd60048036038101906100d89190610b5b565b610690565b6040516100ea9190610bb1565b60405180910390f35b61010d60048036038101906101089190610c1f565b610724565b005b5f425f5f8573ffffffffffffffffffffffffffffffffffffffff1673ffffffffffffffffffffffffffffffffffffffff1681526020019081526020015f205f8473ffffffffffffffffffffffffffffffffffffffff1673ffffffffffffffffffffffffffffffffffffffff1681526020019081526020015f2060016002811061019b5761019a610c6f565b5b0154116101a8575f610234565b5f5f8473ffffffffffffffffffffffffffffffffffffffff1673ffffffffffffffffffffffffffffffffffffffff1681526020019081526020015f205f8373ffffffffffffffffffffffffffffffffffffffff1673ffffffffffffffffffffffffffffffffffffffff1681526020019081526020015f205f6002811061023157610230610c6f565b5b01545b905092915050565b5f5f5f8373ffffffffffffffffffffffffffffffffffffffff1673ffffffffffffffffffffffffffffffffffffffff1681526020019081526020015f205f3373ffffffffffffffffffffffffffffffffffffffff1673ffffffffffffffffffffffffffffffffffffffff1681526020019081526020015f205f600281106102c6576102c5610c6f565b5b015411610308576040517f08c379a00000000000000000000000000000000000000000000000000000000081526004016102ff90610cf6565b60405180910390fd5b425f5f8373ffffffffffffffffffffffffffffffffffffffff1673ffffffffffffffffffffffffffffffffffffffff1681526020019081526020015f205f3373ffffffffffffffffffffffffffffffffffffffff1673ffffffffffffffffffffffffffffffffffffffff1681526020019081526020015f2060016002811061039357610392610c6f565b5b015411156103d6576040517f08c379a00000000000000000000000000000000000000000000000000000000081526004016103cd90610d5e565b60405180910390fd5b5f8173ffffffffffffffffffffffffffffffffffffffff1663a9059cbb335f5f8673ffffffffffffffffffffffffffffffffffffffff1673ffffffffffffffffffffffffffffffffffffffff1681526020019081526020015f205f3373ffffffffffffffffffffffffffffffffffffffff1673ffffffffffffffffffffffffffffffffffffffff1681526020019081526020015f205f6002811061047d5761047c610c6f565b5b01546040518363ffffffff1660e01b815260040161049c929190610d8b565b6020604051808303815f875af11580156104b8573d5f5f3e3d5ffd5b505050506040513d601f19601f820116820180604052508101906104dc9190610de7565b90505f5f5f8473ffffffffffffffffffffffffffffffffffffffff1673ffffffffffffffffffffffffffffffffffffffff1681526020019081526020015f205f3373ffffffffffffffffffffffffffffffffffffffff1673ffffffffffffffffffffffffffffffffffffffff1681526020019081526020015f205f6002811061056857610567610c6f565b5b01549050816105ac576040517f08c379a00000000000000000000000000000000000000000000000000000000081526004016105a390610e5c565b60405180910390fd5b5f5f5f8573ffffffffffffffffffffffffffffffffffffffff1673ffffffffffffffffffffffffffffffffffffffff1681526020019081526020015f205f3373ffffffffffffffffffffffffffffffffffffffff1673ffffffffffffffffffffffffffffffffffffffff1681526020019081526020015f205f6002811061063657610635610c6f565b5b01819055507ff341246adaac6f497bc2a656f546ab9e182111d630394f0c57c710a59a2cb567833383426040516106709493929190610e7a565b60405180910390a1505050565b5f60784261068b9190610eea565b905090565b5f5f5f8473ffffffffffffffffffffffffffffffffffffffff1673ffffffffffffffffffffffffffffffffffffffff1681526020019081526020015f205f8373ffffffffffffffffffffffffffffffffffffffff1673ffffffffffffffffffffffffffffffffffffffff1681526020019081526020015f205f6002811061071a57610719610c6f565b5b0154905092915050565b428111610766576040517f08c379a000000000000000000000000000000000000000000000000000000000815260040161075d90610f8d565b60405180910390fd5b5f5f8473ffffffffffffffffffffffffffffffffffffffff1673ffffffffffffffffffffffffffffffffffffffff1681526020019081526020015f205f3373ffffffffffffffffffffffffffffffffffffffff1673ffffffffffffffffffffffffffffffffffffffff1681526020019081526020015f206001600281106107f0576107ef610c6f565b5b0154811015610834576040517f08c379a000000000000000000000000000000000000000000000000000000000815260040161082b90610ff5565b60405180910390fd5b5f8373ffffffffffffffffffffffffffffffffffffffff166323b872dd3330866040518463ffffffff1660e01b815260040161087293929190611013565b6020604051808303815f875af115801561088e573d5f5f3e3d5ffd5b505050506040513d601f19601f820116820180604052508101906108b29190610de7565b9050806108f4576040517f08c379a00000000000000000000000000000000000000000000000000000000081526004016108eb90611092565b60405180910390fd5b825f5f8673ffffffffffffffffffffffffffffffffffffffff1673ffffffffffffffffffffffffffffffffffffffff1681526020019081526020015f205f3373ffffffffffffffffffffffffffffffffffffffff1673ffffffffffffffffffffffffffffffffffffffff1681526020019081526020015f205f6002811061097e5761097d610c6f565b5b015f82825461098d9190610eea565b925050819055505f5f8573ffffffffffffffffffffffffffffffffffffffff1673ffffffffffffffffffffffffffffffffffffffff1681526020019081526020015f205f3373ffffffffffffffffffffffffffffffffffffffff1673ffffffffffffffffffffffffffffffffffffffff1681526020019081526020015f20600160028110610a1e57610a1d610c6f565b5b01548211610ab7575f5f8573ffffffffffffffffffffffffffffffffffffffff1673ffffffffffffffffffffffffffffffffffffffff1681526020019081526020015f205f3373ffffffffffffffffffffffffffffffffffffffff1673ffffffffffffffffffffffffffffffffffffffff1681526020019081526020015f20600160028110610ab057610aaf610c6f565b5b0154610ab9565b815b507fdfaff91bc854dee91009789d443a02b62f4a1119ad18fd84bae2d223eecc72c384338585604051610aef9493929190610e7a565b60405180910390a150505050565b5f5ffd5b5f73ffffffffffffffffffffffffffffffffffffffff82169050919050565b5f610b2a82610b01565b9050919050565b610b3a81610b20565b8114610b44575f5ffd5b50565b5f81359050610b5581610b31565b92915050565b5f5f60408385031215610b7157610b70610afd565b5b5f610b7e85828601610b47565b9250506020610b8f85828601610b47565b9150509250929050565b5f819050919050565b610bab81610b99565b82525050565b5f602082019050610bc45f830184610ba2565b92915050565b5f60208284031215610bdf57610bde610afd565b5b5f610bec84828501610b47565b91505092915050565b610bfe81610b99565b8114610c08575f5ffd5b50565b5f81359050610c1981610bf5565b92915050565b5f5f5f60608486031215610c3657610c35610afd565b5b5f610c4386828701610b47565b9350506020610c5486828701610c0b565b9250506040610c6586828701610c0b565b9150509250925092565b7f4e487b71000000000000000000000000000000000000000000000000000000005f52603260045260245ffd5b5f82825260208201905092915050565b7f6f7574206f6620746f6b656e00000000000000000000000000000000000000005f82015250565b5f610ce0600c83610c9c565b9150610ceb82610cac565b602082019050919050565b5f6020820190508181035f830152610d0d81610cd4565b9050919050565b7f6e6f7420657870697265000000000000000000000000000000000000000000005f82015250565b5f610d48600a83610c9c565b9150610d5382610d14565b602082019050919050565b5f6020820190508181035f830152610d7581610d3c565b9050919050565b610d8581610b20565b82525050565b5f604082019050610d9e5f830185610d7c565b610dab6020830184610ba2565b9392505050565b5f8115159050919050565b610dc681610db2565b8114610dd0575f5ffd5b50565b5f81519050610de181610dbd565b92915050565b5f60208284031215610dfc57610dfb610afd565b5b5f610e0984828501610dd3565b91505092915050565b7f7472616e73666572206661696c656400000000000000000000000000000000005f82015250565b5f610e46600f83610c9c565b9150610e5182610e12565b602082019050919050565b5f6020820190508181035f830152610e7381610e3a565b9050919050565b5f608082019050610e8d5f830187610d7c565b610e9a6020830186610d7c565b610ea76040830185610ba2565b610eb46060830184610ba2565b95945050505050565b7f4e487b71000000000000000000000000000000000000000000000000000000005f52601160045260245ffd5b5f610ef482610b99565b9150610eff83610b99565b9250828201905080821115610f1757610f16610ebd565b5b92915050565b7f6578706972654174206d7573742062652067726561746572207468616e2063755f8201527f7272656e742074696d657374616d700000000000000000000000000000000000602082015250565b5f610f77602f83610c9c565b9150610f8282610f1d565b604082019050919050565b5f6020820190508181035f830152610fa481610f6b565b9050919050565b7f65787069726520697320696e76616c69640000000000000000000000000000005f82015250565b5f610fdf601183610c9c565b9150610fea82610fab565b602082019050919050565b5f6020820190508181035f83015261100c81610fd3565b9050919050565b5f6060820190506110265f830186610d7c565b6110336020830185610d7c565b6110406040830184610ba2565b949350505050565b7f7472616e7366657246726f6d206661696c6564000000000000000000000000005f82015250565b5f61107c601383610c9c565b915061108782611048565b602082019050919050565b5f6020820190508181035f8301526110a981611070565b905091905056fea264697066735822122056e10939fb34c1fb71bc582d17db8e48087d9434f5eefb540020309878b8cd6864736f6c634300081e0033",
					"opcodes": "PUSH1 0x80 PUSH1 0x40 MSTORE CALLVALUE DUP1 ISZERO PUSH1 0xE JUMPI PUSH0 PUSH0 REVERT JUMPDEST POP PUSH2 0x10E6 DUP1 PUSH2 0x1C PUSH0 CODECOPY PUSH0 RETURN INVALID PUSH1 0x80 PUSH1 0x40 MSTORE CALLVALUE DUP1 ISZERO PUSH2 0xF JUMPI PUSH0 PUSH0 REVERT JUMPDEST POP PUSH1 0x4 CALLDATASIZE LT PUSH2 0x55 JUMPI PUSH0 CALLDATALOAD PUSH1 0xE0 SHR DUP1 PUSH4 0x3F6AAAB7 EQ PUSH2 0x59 JUMPI DUP1 PUSH4 0x51CFF8D9 EQ PUSH2 0x89 JUMPI DUP1 PUSH4 0x557ED1BA EQ PUSH2 0xA5 JUMPI DUP1 PUSH4 0x7538766E EQ PUSH2 0xC3 JUMPI DUP1 PUSH4 0xE2AB691D EQ PUSH2 0xF3 JUMPI JUMPDEST PUSH0 PUSH0 REVERT JUMPDEST PUSH2 0x73 PUSH1 0x4 DUP1 CALLDATASIZE SUB DUP2 ADD SWAP1 PUSH2 0x6E SWAP2 SWAP1 PUSH2 0xB5B JUMP JUMPDEST PUSH2 0x10F JUMP JUMPDEST PUSH1 0x40 MLOAD PUSH2 0x80 SWAP2 SWAP1 PUSH2 0xBB1 JUMP JUMPDEST PUSH1 0x40 MLOAD DUP1 SWAP2 SUB SWAP1 RETURN JUMPDEST PUSH2 0xA3 PUSH1 0x4 DUP1 CALLDATASIZE SUB DUP2 ADD SWAP1 PUSH2 0x9E SWAP2 SWAP1 PUSH2 0xBCA JUMP JUMPDEST PUSH2 0x23C JUMP JUMPDEST STOP JUMPDEST PUSH2 0xAD PUSH2 0x67D JUMP JUMPDEST PUSH1 0x40 MLOAD PUSH2 0xBA SWAP2 SWAP1 PUSH2 0xBB1 JUMP JUMPDEST PUSH1 0x40 MLOAD DUP1 SWAP2 SUB SWAP1 RETURN JUMPDEST PUSH2 0xDD PUSH1 0x4 DUP1 CALLDATASIZE SUB DUP2 ADD SWAP1 PUSH2 0xD8 SWAP2 SWAP1 PUSH2 0xB5B JUMP JUMPDEST PUSH2 0x690 JUMP JUMPDEST PUSH1 0x40 MLOAD PUSH2 0xEA SWAP2 SWAP1 PUSH2 0xBB1 JUMP JUMPDEST PUSH1 0x40 MLOAD DUP1 SWAP2 SUB SWAP1 RETURN JUMPDEST PUSH2 0x10D PUSH1 0x4 DUP1 CALLDATASIZE SUB DUP2 ADD SWAP1 PUSH2 0x108 SWAP2 SWAP1 PUSH2 0xC1F JUMP JUMPDEST PUSH2 0x724 JUMP JUMPDEST STOP JUMPDEST PUSH0 TIMESTAMP PUSH0 PUSH0 DUP6 PUSH20 0xFFFFFFFFFFFFFFFFFFFFFFFFFFFFFFFFFFFFFFFF AND PUSH20 0xFFFFFFFFFFFFFFFFFFFFFFFFFFFFFFFFFFFFFFFF AND DUP2 MSTORE PUSH1 0x20 ADD SWAP1 DUP2 MSTORE PUSH1 0x20 ADD PUSH0 KECCAK256 PUSH0 DUP5 PUSH20 0xFFFFFFFFFFFFFFFFFFFFFFFFFFFFFFFFFFFFFFFF AND PUSH20 0xFFFFFFFFFFFFFFFFFFFFFFFFFFFFFFFFFFFFFFFF AND DUP2 MSTORE PUSH1 0x20 ADD SWAP1 DUP2 MSTORE PUSH1 0x20 ADD PUSH0 KECCAK256 PUSH1 0x1 PUSH1 0x2 DUP2 LT PUSH2 0x19B JUMPI PUSH2 0x19A PUSH2 0xC6F JUMP JUMPDEST JUMPDEST ADD SLOAD GT PUSH2 0x1A8 JUMPI PUSH0 PUSH2 0x234 JUMP JUMPDEST PUSH0 PUSH0 DUP5 PUSH20 0xFFFFFFFFFFFFFFFFFFFFFFFFFFFFFFFFFFFFFFFF AND PUSH20 0xFFFFFFFFFFFFFFFFFFFFFFFFFFFFFFFFFFFFFFFF AND DUP2 MSTORE PUSH1 0x20 ADD SWAP1 DUP2 MSTORE PUSH1 0x20 ADD PUSH0 KECCAK256 PUSH0 DUP4 PUSH20 0xFFFFFFFFFFFFFFFFFFFFFFFFFFFFFFFFFFFFFFFF AND PUSH20 0xFFFFFFFFFFFFFFFFFFFFFFFFFFFFFFFFFFFFFFFF AND DUP2 MSTORE PUSH1 0x20 ADD SWAP1 DUP2 MSTORE PUSH1 0x20 ADD PUSH0 KECCAK256 PUSH0 PUSH1 0x2 DUP2 LT PUSH2 0x231 JUMPI PUSH2 0x230 PUSH2 0xC6F JUMP JUMPDEST JUMPDEST ADD SLOAD JUMPDEST SWAP1 POP SWAP3 SWAP2 POP POP JUMP JUMPDEST PUSH0 PUSH0 PUSH0 DUP4 PUSH20 0xFFFFFFFFFFFFFFFFFFFFFFFFFFFFFFFFFFFFFFFF AND PUSH20 0xFFFFFFFFFFFFFFFFFFFFFFFFFFFFFFFFFFFFFFFF AND DUP2 MSTORE PUSH1 0x20 ADD SWAP1 DUP2 MSTORE PUSH1 0x20 ADD PUSH0 KECCAK256 PUSH0 CALLER PUSH20 0xFFFFFFFFFFFFFFFFFFFFFFFFFFFFFFFFFFFFFFFF AND PUSH20 0xFFFFFFFFFFFFFFFFFFFFFFFFFFFFFFFFFFFFFFFF AND DUP2 MSTORE PUSH1 0x20 ADD SWAP1 DUP2 MSTORE PUSH1 0x20 ADD PUSH0 KECCAK256 PUSH0 PUSH1 0x2 DUP2 LT PUSH2 0x2C6 JUMPI PUSH2 0x2C5 PUSH2 0xC6F JUMP JUMPDEST JUMPDEST ADD SLOAD GT PUSH2 0x308 JUMPI PUSH1 0x40 MLOAD PUSH32 0x8C379A000000000000000000000000000000000000000000000000000000000 DUP2 MSTORE PUSH1 0x4 ADD PUSH2 0x2FF SWAP1 PUSH2 0xCF6 JUMP JUMPDEST PUSH1 0x40 MLOAD DUP1 SWAP2 SUB SWAP1 REVERT JUMPDEST TIMESTAMP PUSH0 PUSH0 DUP4 PUSH20 0xFFFFFFFFFFFFFFFFFFFFFFFFFFFFFFFFFFFFFFFF AND PUSH20 0xFFFFFFFFFFFFFFFFFFFFFFFFFFFFFFFFFFFFFFFF AND DUP2 MSTORE PUSH1 0x20 ADD SWAP1 DUP2 MSTORE PUSH1 0x20 ADD PUSH0 KECCAK256 PUSH0 CALLER PUSH20 0xFFFFFFFFFFFFFFFFFFFFFFFFFFFFFFFFFFFFFFFF AND PUSH20 0xFFFFFFFFFFFFFFFFFFFFFFFFFFFFFFFFFFFFFFFF AND DUP2 MSTORE PUSH1 0x20 ADD SWAP1 DUP2 MSTORE PUSH1 0x20 ADD PUSH0 KECCAK256 PUSH1 0x1 PUSH1 0x2 DUP2 LT PUSH2 0x393 JUMPI PUSH2 0x392 PUSH2 0xC6F JUMP JUMPDEST JUMPDEST ADD SLOAD GT ISZERO PUSH2 0x3D6 JUMPI PUSH1 0x40 MLOAD PUSH32 0x8C379A000000000000000000000000000000000000000000000000000000000 DUP2 MSTORE PUSH1 0x4 ADD PUSH2 0x3CD SWAP1 PUSH2 0xD5E JUMP JUMPDEST PUSH1 0x40 MLOAD DUP1 SWAP2 SUB SWAP1 REVERT JUMPDEST PUSH0 DUP2 PUSH20 0xFFFFFFFFFFFFFFFFFFFFFFFFFFFFFFFFFFFFFFFF AND PUSH4 0xA9059CBB CALLER PUSH0 PUSH0 DUP7 PUSH20 0xFFFFFFFFFFFFFFFFFFFFFFFFFFFFFFFFFFFFFFFF AND PUSH20 0xFFFFFFFFFFFFFFFFFFFFFFFFFFFFFFFFFFFFFFFF AND DUP2 MSTORE PUSH1 0x20 ADD SWAP1 DUP2 MSTORE PUSH1 0x20 ADD PUSH0 KECCAK256 PUSH0 CALLER PUSH20 0xFFFFFFFFFFFFFFFFFFFFFFFFFFFFFFFFFFFFFFFF AND PUSH20 0xFFFFFFFFFFFFFFFFFFFFFFFFFFFFFFFFFFFFFFFF AND DUP2 MSTORE PUSH1 0x20 ADD SWAP1 DUP2 MSTORE PUSH1 0x20 ADD PUSH0 KECCAK256 PUSH0 PUSH1 0x2 DUP2 LT PUSH2 0x47D JUMPI PUSH2 0x47C PUSH2 0xC6F JUMP JUMPDEST JUMPDEST ADD SLOAD PUSH1 0x40 MLOAD DUP4 PUSH4 0xFFFFFFFF AND PUSH1 0xE0 SHL DUP2 MSTORE PUSH1 0x4 ADD PUSH2 0x49C SWAP3 SWAP2 SWAP1 PUSH2 0xD8B JUMP JUMPDEST PUSH1 0x20 PUSH1 0x40 MLOAD DUP1 DUP4 SUB DUP2 PUSH0 DUP8 GAS CALL ISZERO DUP1 ISZERO PUSH2 0x4B8 JUMPI RETURNDATASIZE PUSH0 PUSH0 RETURNDATACOPY RETURNDATASIZE PUSH0 REVERT JUMPDEST POP POP POP POP PUSH1 0x40 MLOAD RETURNDATASIZE PUSH1 0x1F NOT PUSH1 0x1F DUP3 ADD AND DUP3 ADD DUP1 PUSH1 0x40 MSTORE POP DUP2 ADD SWAP1 PUSH2 0x4DC SWAP2 SWAP1 PUSH2 0xDE7 JUMP JUMPDEST SWAP1 POP PUSH0 PUSH0 PUSH0 DUP5 PUSH20 0xFFFFFFFFFFFFFFFFFFFFFFFFFFFFFFFFFFFFFFFF AND PUSH20 0xFFFFFFFFFFFFFFFFFFFFFFFFFFFFFFFFFFFFFFFF AND DUP2 MSTORE PUSH1 0x20 ADD SWAP1 DUP2 MSTORE PUSH1 0x20 ADD PUSH0 KECCAK256 PUSH0 CALLER PUSH20 0xFFFFFFFFFFFFFFFFFFFFFFFFFFFFFFFFFFFFFFFF AND PUSH20 0xFFFFFFFFFFFFFFFFFFFFFFFFFFFFFFFFFFFFFFFF AND DUP2 MSTORE PUSH1 0x20 ADD SWAP1 DUP2 MSTORE PUSH1 0x20 ADD PUSH0 KECCAK256 PUSH0 PUSH1 0x2 DUP2 LT PUSH2 0x568 JUMPI PUSH2 0x567 PUSH2 0xC6F JUMP JUMPDEST JUMPDEST ADD SLOAD SWAP1 POP DUP2 PUSH2 0x5AC JUMPI PUSH1 0x40 MLOAD PUSH32 0x8C379A000000000000000000000000000000000000000000000000000000000 DUP2 MSTORE PUSH1 0x4 ADD PUSH2 0x5A3 SWAP1 PUSH2 0xE5C JUMP JUMPDEST PUSH1 0x40 MLOAD DUP1 SWAP2 SUB SWAP1 REVERT JUMPDEST PUSH0 PUSH0 PUSH0 DUP6 PUSH20 0xFFFFFFFFFFFFFFFFFFFFFFFFFFFFFFFFFFFFFFFF AND PUSH20 0xFFFFFFFFFFFFFFFFFFFFFFFFFFFFFFFFFFFFFFFF AND DUP2 MSTORE PUSH1 0x20 ADD SWAP1 DUP2 MSTORE PUSH1 0x20 ADD PUSH0 KECCAK256 PUSH0 CALLER PUSH20 0xFFFFFFFFFFFFFFFFFFFFFFFFFFFFFFFFFFFFFFFF AND PUSH20 0xFFFFFFFFFFFFFFFFFFFFFFFFFFFFFFFFFFFFFFFF AND DUP2 MSTORE PUSH1 0x20 ADD SWAP1 DUP2 MSTORE PUSH1 0x20 ADD PUSH0 KECCAK256 PUSH0 PUSH1 0x2 DUP2 LT PUSH2 0x636 JUMPI PUSH2 0x635 PUSH2 0xC6F JUMP JUMPDEST JUMPDEST ADD DUP2 SWAP1 SSTORE POP PUSH32 0xF341246ADAAC6F497BC2A656F546AB9E182111D630394F0C57C710A59A2CB567 DUP4 CALLER DUP4 TIMESTAMP PUSH1 0x40 MLOAD PUSH2 0x670 SWAP5 SWAP4 SWAP3 SWAP2 SWAP1 PUSH2 0xE7A JUMP JUMPDEST PUSH1 0x40 MLOAD DUP1 SWAP2 SUB SWAP1 LOG1 POP POP POP JUMP JUMPDEST PUSH0 PUSH1 0x78 TIMESTAMP PUSH2 0x68B SWAP2 SWAP1 PUSH2 0xEEA JUMP JUMPDEST SWAP1 POP SWAP1 JUMP JUMPDEST PUSH0 PUSH0 PUSH0 DUP5 PUSH20 0xFFFFFFFFFFFFFFFFFFFFFFFFFFFFFFFFFFFFFFFF AND PUSH20 0xFFFFFFFFFFFFFFFFFFFFFFFFFFFFFFFFFFFFFFFF AND DUP2 MSTORE PUSH1 0x20 ADD SWAP1 DUP2 MSTORE PUSH1 0x20 ADD PUSH0 KECCAK256 PUSH0 DUP4 PUSH20 0xFFFFFFFFFFFFFFFFFFFFFFFFFFFFFFFFFFFFFFFF AND PUSH20 0xFFFFFFFFFFFFFFFFFFFFFFFFFFFFFFFFFFFFFFFF AND DUP2 MSTORE PUSH1 0x20 ADD SWAP1 DUP2 MSTORE PUSH1 0x20 ADD PUSH0 KECCAK256 PUSH0 PUSH1 0x2 DUP2 LT PUSH2 0x71A JUMPI PUSH2 0x719 PUSH2 0xC6F JUMP JUMPDEST JUMPDEST ADD SLOAD SWAP1 POP SWAP3 SWAP2 POP POP JUMP JUMPDEST TIMESTAMP DUP2 GT PUSH2 0x766 JUMPI PUSH1 0x40 MLOAD PUSH32 0x8C379A000000000000000000000000000000000000000000000000000000000 DUP2 MSTORE PUSH1 0x4 ADD PUSH2 0x75D SWAP1 PUSH2 0xF8D JUMP JUMPDEST PUSH1 0x40 MLOAD DUP1 SWAP2 SUB SWAP1 REVERT JUMPDEST PUSH0 PUSH0 DUP5 PUSH20 0xFFFFFFFFFFFFFFFFFFFFFFFFFFFFFFFFFFFFFFFF AND PUSH20 0xFFFFFFFFFFFFFFFFFFFFFFFFFFFFFFFFFFFFFFFF AND DUP2 MSTORE PUSH1 0x20 ADD SWAP1 DUP2 MSTORE PUSH1 0x20 ADD PUSH0 KECCAK256 PUSH0 CALLER PUSH20 0xFFFFFFFFFFFFFFFFFFFFFFFFFFFFFFFFFFFFFFFF AND PUSH20 0xFFFFFFFFFFFFFFFFFFFFFFFFFFFFFFFFFFFFFFFF AND DUP2 MSTORE PUSH1 0x20 ADD SWAP1 DUP2 MSTORE PUSH1 0x20 ADD PUSH0 KECCAK256 PUSH1 0x1 PUSH1 0x2 DUP2 LT PUSH2 0x7F0 JUMPI PUSH2 0x7EF PUSH2 0xC6F JUMP JUMPDEST JUMPDEST ADD SLOAD DUP2 LT ISZERO PUSH2 0x834 JUMPI PUSH1 0x40 MLOAD PUSH32 0x8C379A000000000000000000000000000000000000000000000000000000000 DUP2 MSTORE PUSH1 0x4 ADD PUSH2 0x82B SWAP1 PUSH2 0xFF5 JUMP JUMPDEST PUSH1 0x40 MLOAD DUP1 SWAP2 SUB SWAP1 REVERT JUMPDEST PUSH0 DUP4 PUSH20 0xFFFFFFFFFFFFFFFFFFFFFFFFFFFFFFFFFFFFFFFF AND PUSH4 0x23B872DD CALLER ADDRESS DUP7 PUSH1 0x40 MLOAD DUP5 PUSH4 0xFFFFFFFF AND PUSH1 0xE0 SHL DUP2 MSTORE PUSH1 0x4 ADD PUSH2 0x872 SWAP4 SWAP3 SWAP2 SWAP1 PUSH2 0x1013 JUMP JUMPDEST PUSH1 0x20 PUSH1 0x40 MLOAD DUP1 DUP4 SUB DUP2 PUSH0 DUP8 GAS CALL ISZERO DUP1 ISZERO PUSH2 0x88E JUMPI RETURNDATASIZE PUSH0 PUSH0 RETURNDATACOPY RETURNDATASIZE PUSH0 REVERT JUMPDEST POP POP POP POP PUSH1 0x40 MLOAD RETURNDATASIZE PUSH1 0x1F NOT PUSH1 0x1F DUP3 ADD AND DUP3 ADD DUP1 PUSH1 0x40 MSTORE POP DUP2 ADD SWAP1 PUSH2 0x8B2 SWAP2 SWAP1 PUSH2 0xDE7 JUMP JUMPDEST SWAP1 POP DUP1 PUSH2 0x8F4 JUMPI PUSH1 0x40 MLOAD PUSH32 0x8C379A000000000000000000000000000000000000000000000000000000000 DUP2 MSTORE PUSH1 0x4 ADD PUSH2 0x8EB SWAP1 PUSH2 0x1092 JUMP JUMPDEST PUSH1 0x40 MLOAD DUP1 SWAP2 SUB SWAP1 REVERT JUMPDEST DUP3 PUSH0 PUSH0 DUP7 PUSH20 0xFFFFFFFFFFFFFFFFFFFFFFFFFFFFFFFFFFFFFFFF AND PUSH20 0xFFFFFFFFFFFFFFFFFFFFFFFFFFFFFFFFFFFFFFFF AND DUP2 MSTORE PUSH1 0x20 ADD SWAP1 DUP2 MSTORE PUSH1 0x20 ADD PUSH0 KECCAK256 PUSH0 CALLER PUSH20 0xFFFFFFFFFFFFFFFFFFFFFFFFFFFFFFFFFFFFFFFF AND PUSH20 0xFFFFFFFFFFFFFFFFFFFFFFFFFFFFFFFFFFFFFFFF AND DUP2 MSTORE PUSH1 0x20 ADD SWAP1 DUP2 MSTORE PUSH1 0x20 ADD PUSH0 KECCAK256 PUSH0 PUSH1 0x2 DUP2 LT PUSH2 0x97E JUMPI PUSH2 0x97D PUSH2 0xC6F JUMP JUMPDEST JUMPDEST ADD PUSH0 DUP3 DUP3 SLOAD PUSH2 0x98D SWAP2 SWAP1 PUSH2 0xEEA JUMP JUMPDEST SWAP3 POP POP DUP2 SWAP1 SSTORE POP PUSH0 PUSH0 DUP6 PUSH20 0xFFFFFFFFFFFFFFFFFFFFFFFFFFFFFFFFFFFFFFFF AND PUSH20 0xFFFFFFFFFFFFFFFFFFFFFFFFFFFFFFFFFFFFFFFF AND DUP2 MSTORE PUSH1 0x20 ADD SWAP1 DUP2 MSTORE PUSH1 0x20 ADD PUSH0 KECCAK256 PUSH0 CALLER PUSH20 0xFFFFFFFFFFFFFFFFFFFFFFFFFFFFFFFFFFFFFFFF AND PUSH20 0xFFFFFFFFFFFFFFFFFFFFFFFFFFFFFFFFFFFFFFFF AND DUP2 MSTORE PUSH1 0x20 ADD SWAP1 DUP2 MSTORE PUSH1 0x20 ADD PUSH0 KECCAK256 PUSH1 0x1 PUSH1 0x2 DUP2 LT PUSH2 0xA1E JUMPI PUSH2 0xA1D PUSH2 0xC6F JUMP JUMPDEST JUMPDEST ADD SLOAD DUP3 GT PUSH2 0xAB7 JUMPI PUSH0 PUSH0 DUP6 PUSH20 0xFFFFFFFFFFFFFFFFFFFFFFFFFFFFFFFFFFFFFFFF AND PUSH20 0xFFFFFFFFFFFFFFFFFFFFFFFFFFFFFFFFFFFFFFFF AND DUP2 MSTORE PUSH1 0x20 ADD SWAP1 DUP2 MSTORE PUSH1 0x20 ADD PUSH0 KECCAK256 PUSH0 CALLER PUSH20 0xFFFFFFFFFFFFFFFFFFFFFFFFFFFFFFFFFFFFFFFF AND PUSH20 0xFFFFFFFFFFFFFFFFFFFFFFFFFFFFFFFFFFFFFFFF AND DUP2 MSTORE PUSH1 0x20 ADD SWAP1 DUP2 MSTORE PUSH1 0x20 ADD PUSH0 KECCAK256 PUSH1 0x1 PUSH1 0x2 DUP2 LT PUSH2 0xAB0 JUMPI PUSH2 0xAAF PUSH2 0xC6F JUMP JUMPDEST JUMPDEST ADD SLOAD PUSH2 0xAB9 JUMP JUMPDEST DUP2 JUMPDEST POP PUSH32 0xDFAFF91BC854DEE91009789D443A02B62F4A1119AD18FD84BAE2D223EECC72C3 DUP5 CALLER DUP6 DUP6 PUSH1 0x40 MLOAD PUSH2 0xAEF SWAP5 SWAP4 SWAP3 SWAP2 SWAP1 PUSH2 0xE7A JUMP JUMPDEST PUSH1 0x40 MLOAD DUP1 SWAP2 SUB SWAP1 LOG1 POP POP POP POP JUMP JUMPDEST PUSH0 PUSH0 REVERT JUMPDEST PUSH0 PUSH20 0xFFFFFFFFFFFFFFFFFFFFFFFFFFFFFFFFFFFFFFFF DUP3 AND SWAP1 POP SWAP2 SWAP1 POP JUMP JUMPDEST PUSH0 PUSH2 0xB2A DUP3 PUSH2 0xB01 JUMP JUMPDEST SWAP1 POP SWAP2 SWAP1 POP JUMP JUMPDEST PUSH2 0xB3A DUP2 PUSH2 0xB20 JUMP JUMPDEST DUP2 EQ PUSH2 0xB44 JUMPI PUSH0 PUSH0 REVERT JUMPDEST POP JUMP JUMPDEST PUSH0 DUP2 CALLDATALOAD SWAP1 POP PUSH2 0xB55 DUP2 PUSH2 0xB31 JUMP JUMPDEST SWAP3 SWAP2 POP POP JUMP JUMPDEST PUSH0 PUSH0 PUSH1 0x40 DUP4 DUP6 SUB SLT ISZERO PUSH2 0xB71 JUMPI PUSH2 0xB70 PUSH2 0xAFD JUMP JUMPDEST JUMPDEST PUSH0 PUSH2 0xB7E DUP6 DUP3 DUP7 ADD PUSH2 0xB47 JUMP JUMPDEST SWAP3 POP POP PUSH1 0x20 PUSH2 0xB8F DUP6 DUP3 DUP7 ADD PUSH2 0xB47 JUMP JUMPDEST SWAP2 POP POP SWAP3 POP SWAP3 SWAP1 POP JUMP JUMPDEST PUSH0 DUP2 SWAP1 POP SWAP2 SWAP1 POP JUMP JUMPDEST PUSH2 0xBAB DUP2 PUSH2 0xB99 JUMP JUMPDEST DUP3 MSTORE POP POP JUMP JUMPDEST PUSH0 PUSH1 0x20 DUP3 ADD SWAP1 POP PUSH2 0xBC4 PUSH0 DUP4 ADD DUP5 PUSH2 0xBA2 JUMP JUMPDEST SWAP3 SWAP2 POP POP JUMP JUMPDEST PUSH0 PUSH1 0x20 DUP3 DUP5 SUB SLT ISZERO PUSH2 0xBDF JUMPI PUSH2 0xBDE PUSH2 0xAFD JUMP JUMPDEST JUMPDEST PUSH0 PUSH2 0xBEC DUP5 DUP3 DUP6 ADD PUSH2 0xB47 JUMP JUMPDEST SWAP2 POP POP SWAP3 SWAP2 POP POP JUMP JUMPDEST PUSH2 0xBFE DUP2 PUSH2 0xB99 JUMP JUMPDEST DUP2 EQ PUSH2 0xC08 JUMPI PUSH0 PUSH0 REVERT JUMPDEST POP JUMP JUMPDEST PUSH0 DUP2 CALLDATALOAD SWAP1 POP PUSH2 0xC19 DUP2 PUSH2 0xBF5 JUMP JUMPDEST SWAP3 SWAP2 POP POP JUMP JUMPDEST PUSH0 PUSH0 PUSH0 PUSH1 0x60 DUP5 DUP7 SUB SLT ISZERO PUSH2 0xC36 JUMPI PUSH2 0xC35 PUSH2 0xAFD JUMP JUMPDEST JUMPDEST PUSH0 PUSH2 0xC43 DUP7 DUP3 DUP8 ADD PUSH2 0xB47 JUMP JUMPDEST SWAP4 POP POP PUSH1 0x20 PUSH2 0xC54 DUP7 DUP3 DUP8 ADD PUSH2 0xC0B JUMP JUMPDEST SWAP3 POP POP PUSH1 0x40 PUSH2 0xC65 DUP7 DUP3 DUP8 ADD PUSH2 0xC0B JUMP JUMPDEST SWAP2 POP POP SWAP3 POP SWAP3 POP SWAP3 JUMP JUMPDEST PUSH32 0x4E487B7100000000000000000000000000000000000000000000000000000000 PUSH0 MSTORE PUSH1 0x32 PUSH1 0x4 MSTORE PUSH1 0x24 PUSH0 REVERT JUMPDEST PUSH0 DUP3 DUP3 MSTORE PUSH1 0x20 DUP3 ADD SWAP1 POP SWAP3 SWAP2 POP POP JUMP JUMPDEST PUSH32 0x6F7574206F6620746F6B656E0000000000000000000000000000000000000000 PUSH0 DUP3 ADD MSTORE POP JUMP JUMPDEST PUSH0 PUSH2 0xCE0 PUSH1 0xC DUP4 PUSH2 0xC9C JUMP JUMPDEST SWAP2 POP PUSH2 0xCEB DUP3 PUSH2 0xCAC JUMP JUMPDEST PUSH1 0x20 DUP3 ADD SWAP1 POP SWAP2 SWAP1 POP JUMP JUMPDEST PUSH0 PUSH1 0x20 DUP3 ADD SWAP1 POP DUP2 DUP2 SUB PUSH0 DUP4 ADD MSTORE PUSH2 0xD0D DUP2 PUSH2 0xCD4 JUMP JUMPDEST SWAP1 POP SWAP2 SWAP1 POP JUMP JUMPDEST PUSH32 0x6E6F742065787069726500000000000000000000000000000000000000000000 PUSH0 DUP3 ADD MSTORE POP JUMP JUMPDEST PUSH0 PUSH2 0xD48 PUSH1 0xA DUP4 PUSH2 0xC9C JUMP JUMPDEST SWAP2 POP PUSH2 0xD53 DUP3 PUSH2 0xD14 JUMP JUMPDEST PUSH1 0x20 DUP3 ADD SWAP1 POP SWAP2 SWAP1 POP JUMP JUMPDEST PUSH0 PUSH1 0x20 DUP3 ADD SWAP1 POP DUP2 DUP2 SUB PUSH0 DUP4 ADD MSTORE PUSH2 0xD75 DUP2 PUSH2 0xD3C JUMP JUMPDEST SWAP1 POP SWAP2 SWAP1 POP JUMP JUMPDEST PUSH2 0xD85 DUP2 PUSH2 0xB20 JUMP JUMPDEST DUP3 MSTORE POP POP JUMP JUMPDEST PUSH0 PUSH1 0x40 DUP3 ADD SWAP1 POP PUSH2 0xD9E PUSH0 DUP4 ADD DUP6 PUSH2 0xD7C JUMP JUMPDEST PUSH2 0xDAB PUSH1 0x20 DUP4 ADD DUP5 PUSH2 0xBA2 JUMP JUMPDEST SWAP4 SWAP3 POP POP POP JUMP JUMPDEST PUSH0 DUP2 ISZERO ISZERO SWAP1 POP SWAP2 SWAP1 POP JUMP JUMPDEST PUSH2 0xDC6 DUP2 PUSH2 0xDB2 JUMP JUMPDEST DUP2 EQ PUSH2 0xDD0 JUMPI PUSH0 PUSH0 REVERT JUMPDEST POP JUMP JUMPDEST PUSH0 DUP2 MLOAD SWAP1 POP PUSH2 0xDE1 DUP2 PUSH2 0xDBD JUMP JUMPDEST SWAP3 SWAP2 POP POP JUMP JUMPDEST PUSH0 PUSH1 0x20 DUP3 DUP5 SUB SLT ISZERO PUSH2 0xDFC JUMPI PUSH2 0xDFB PUSH2 0xAFD JUMP JUMPDEST JUMPDEST PUSH0 PUSH2 0xE09 DUP5 DUP3 DUP6 ADD PUSH2 0xDD3 JUMP JUMPDEST SWAP2 POP POP SWAP3 SWAP2 POP POP JUMP JUMPDEST PUSH32 0x7472616E73666572206661696C65640000000000000000000000000000000000 PUSH0 DUP3 ADD MSTORE POP JUMP JUMPDEST PUSH0 PUSH2 0xE46 PUSH1 0xF DUP4 PUSH2 0xC9C JUMP JUMPDEST SWAP2 POP PUSH2 0xE51 DUP3 PUSH2 0xE12 JUMP JUMPDEST PUSH1 0x20 DUP3 ADD SWAP1 POP SWAP2 SWAP1 POP JUMP JUMPDEST PUSH0 PUSH1 0x20 DUP3 ADD SWAP1 POP DUP2 DUP2 SUB PUSH0 DUP4 ADD MSTORE PUSH2 0xE73 DUP2 PUSH2 0xE3A JUMP JUMPDEST SWAP1 POP SWAP2 SWAP1 POP JUMP JUMPDEST PUSH0 PUSH1 0x80 DUP3 ADD SWAP1 POP PUSH2 0xE8D PUSH0 DUP4 ADD DUP8 PUSH2 0xD7C JUMP JUMPDEST PUSH2 0xE9A PUSH1 0x20 DUP4 ADD DUP7 PUSH2 0xD7C JUMP JUMPDEST PUSH2 0xEA7 PUSH1 0x40 DUP4 ADD DUP6 PUSH2 0xBA2 JUMP JUMPDEST PUSH2 0xEB4 PUSH1 0x60 DUP4 ADD DUP5 PUSH2 0xBA2 JUMP JUMPDEST SWAP6 SWAP5 POP POP POP POP POP JUMP JUMPDEST PUSH32 0x4E487B7100000000000000000000000000000000000000000000000000000000 PUSH0 MSTORE PUSH1 0x11 PUSH1 0x4 MSTORE PUSH1 0x24 PUSH0 REVERT JUMPDEST PUSH0 PUSH2 0xEF4 DUP3 PUSH2 0xB99 JUMP JUMPDEST SWAP2 POP PUSH2 0xEFF DUP4 PUSH2 0xB99 JUMP JUMPDEST SWAP3 POP DUP3 DUP3 ADD SWAP1 POP DUP1 DUP3 GT ISZERO PUSH2 0xF17 JUMPI PUSH2 0xF16 PUSH2 0xEBD JUMP JUMPDEST JUMPDEST SWAP3 SWAP2 POP POP JUMP JUMPDEST PUSH32 0x6578706972654174206D7573742062652067726561746572207468616E206375 PUSH0 DUP3 ADD MSTORE PUSH32 0x7272656E742074696D657374616D700000000000000000000000000000000000 PUSH1 0x20 DUP3 ADD MSTORE POP JUMP JUMPDEST PUSH0 PUSH2 0xF77 PUSH1 0x2F DUP4 PUSH2 0xC9C JUMP JUMPDEST SWAP2 POP PUSH2 0xF82 DUP3 PUSH2 0xF1D JUMP JUMPDEST PUSH1 0x40 DUP3 ADD SWAP1 POP SWAP2 SWAP1 POP JUMP JUMPDEST PUSH0 PUSH1 0x20 DUP3 ADD SWAP1 POP DUP2 DUP2 SUB PUSH0 DUP4 ADD MSTORE PUSH2 0xFA4 DUP2 PUSH2 0xF6B JUMP JUMPDEST SWAP1 POP SWAP2 SWAP1 POP JUMP JUMPDEST PUSH32 0x65787069726520697320696E76616C6964000000000000000000000000000000 PUSH0 DUP3 ADD MSTORE POP JUMP JUMPDEST PUSH0 PUSH2 0xFDF PUSH1 0x11 DUP4 PUSH2 0xC9C JUMP JUMPDEST SWAP2 POP PUSH2 0xFEA DUP3 PUSH2 0xFAB JUMP JUMPDEST PUSH1 0x20 DUP3 ADD SWAP1 POP SWAP2 SWAP1 POP JUMP JUMPDEST PUSH0 PUSH1 0x20 DUP3 ADD SWAP1 POP DUP2 DUP2 SUB PUSH0 DUP4 ADD MSTORE PUSH2 0x100C DUP2 PUSH2 0xFD3 JUMP JUMPDEST SWAP1 POP SWAP2 SWAP1 POP JUMP JUMPDEST PUSH0 PUSH1 0x60 DUP3 ADD SWAP1 POP PUSH2 0x1026 PUSH0 DUP4 ADD DUP7 PUSH2 0xD7C JUMP JUMPDEST PUSH2 0x1033 PUSH1 0x20 DUP4 ADD DUP6 PUSH2 0xD7C JUMP JUMPDEST PUSH2 0x1040 PUSH1 0x40 DUP4 ADD DUP5 PUSH2 0xBA2 JUMP JUMPDEST SWAP5 SWAP4 POP POP POP POP JUMP JUMPDEST PUSH32 0x7472616E7366657246726F6D206661696C656400000000000000000000000000 PUSH0 DUP3 ADD MSTORE POP JUMP JUMPDEST PUSH0 PUSH2 0x107C PUSH1 0x13 DUP4 PUSH2 0xC9C JUMP JUMPDEST SWAP2 POP PUSH2 0x1087 DUP3 PUSH2 0x1048 JUMP JUMPDEST PUSH1 0x20 DUP3 ADD SWAP1 POP SWAP2 SWAP1 POP JUMP JUMPDEST PUSH0 PUSH1 0x20 DUP3 ADD SWAP1 POP DUP2 DUP2 SUB PUSH0 DUP4 ADD MSTORE PUSH2 0x10A9 DUP2 PUSH2 0x1070 JUMP JUMPDEST SWAP1 POP SWAP2 SWAP1 POP JUMP INVALID LOG2 PUSH5 0x6970667358 0x22 SLT KECCAK256 JUMP RJUMPI 0x939 EXTSTATICCALL CALLVALUE 0xC1 EXTSTATICCALL PUSH18 0xBC582D17DB8E48087D9434F5EEFB54002030 SWAP9 PUSH25 0xB8CD6864736F6C634300081E00330000000000000000000000 "
				},
				"gasEstimates": {
					"creation": {
						"codeDepositCost": "865200",
						"executionCost": "901",
						"totalCost": "866101"
					},
					"external": {
						"getAmount(address,address)": "infinite",
						"getExpire(address,address)": "infinite",
						"getTime()": "infinite",
						"lock(address,uint256,uint256)": "infinite",
						"withdraw(address)": "infinite"
					}
				},
				"methodIdentifiers": {
					"getAmount(address,address)": "7538766e",
					"getExpire(address,address)": "3f6aaab7",
					"getTime()": "557ed1ba",
					"lock(address,uint256,uint256)": "e2ab691d",
					"withdraw(address)": "51cff8d9"
				}
			},
			"storageLayout": {
				"storage": [
					{
						"astId": 89,
						"contract": "contracts/helloep33.sol:TimeLockEP33",
						"label": "lockAttr",
						"offset": 0,
						"slot": "0",
						"type": "t_mapping(t_address,t_mapping(t_address,t_array(t_uint256)2_storage))"
					}
				],
				"types": {
					"t_address": {
						"encoding": "inplace",
						"label": "address",
						"numberOfBytes": "20"
					},
					"t_array(t_uint256)2_storage": {
						"base": "t_uint256",
						"encoding": "inplace",
						"label": "uint256[2]",
						"numberOfBytes": "64"
					},
					"t_mapping(t_address,t_array(t_uint256)2_storage)": {
						"encoding": "mapping",
						"key": "t_address",
						"label": "mapping(address => uint256[2])",
						"numberOfBytes": "32",
						"value": "t_array(t_uint256)2_storage"
					},
					"t_mapping(t_address,t_mapping(t_address,t_array(t_uint256)2_storage))": {
						"encoding": "mapping",
						"key": "t_address",
						"label": "mapping(address => mapping(address => uint256[2]))",
						"numberOfBytes": "32",
						"value": "t_mapping(t_address,t_array(t_uint256)2_storage)"
					},
					"t_uint256": {
						"encoding": "inplace",
						"label": "uint256",
						"numberOfBytes": "32"
					}
				}
			},
			"userdoc": {
				"kind": "user",
				"methods": {},
				"version": 1
			}
		}
	}
}