{
	"contracts/helloep26.sol": {
		"User": {
			"abi": [
				{
					"stateMutability": "payable",
					"type": "fallback"
				},
				{
					"inputs": [],
					"name": "getBlance",
					"outputs": [
						{
							"internalType": "uint256",
							"name": "",
							"type": "uint256"
						}
					],
					"stateMutability": "view",
					"type": "function"
				},
				{
					"inputs": [],
					"name": "getName",
					"outputs": [
						{
							"internalType": "string",
							"name": "",
							"type": "string"
						}
					],
					"stateMutability": "view",
					"type": "function"
				},
				{
					"inputs": [
						{
							"internalType": "string",
							"name": "_name",
							"type": "string"
						}
					],
					"name": "setName",
					"outputs": [],
					"stateMutability": "payable",
					"type": "function"
				},
				{
					"stateMutability": "payable",
					"type": "receive"
				}
			],
			"devdoc": {
				"kind": "dev",
				"methods": {},
				"version": 1
			},
			"evm": {
				"assembly": "    /* \"contracts/helloep26.sol\":61:498  contract User {... */\n  mstore(0x40, 0x80)\n  callvalue\n  dup1\n  iszero\n  tag_1\n  jumpi\n  revert(0x00, 0x00)\ntag_1:\n  pop\n  dataSize(sub_0)\n  dup1\n  dataOffset(sub_0)\n  0x00\n  codecopy\n  0x00\n  return\nstop\n\nsub_0: assembly {\n        /* \"contracts/helloep26.sol\":61:498  contract User {... */\n      mstore(0x40, 0x80)\n      jumpi(tag_1, lt(calldatasize, 0x04))\n      shr(0xe0, calldataload(0x00))\n      dup1\n      0x17d7de7c\n      eq\n      tag_3\n      jumpi\n      dup1\n      0x941be5f7\n      eq\n      tag_4\n      jumpi\n      dup1\n      0xc47f0027\n      eq\n      tag_5\n      jumpi\n      jump(tag_2)\n    tag_1:\n    tag_2:\n      stop\n        /* \"contracts/helloep26.sol\":290:377  function getName() external view returns (string memory) {... */\n    tag_3:\n      callvalue\n      dup1\n      iszero\n      tag_10\n      jumpi\n      revert(0x00, 0x00)\n    tag_10:\n      pop\n      tag_11\n      tag_12\n      jump\t// in\n    tag_11:\n      mload(0x40)\n      tag_13\n      swap2\n      swap1\n      tag_14\n      jump\t// in\n    tag_13:\n      mload(0x40)\n      dup1\n      swap2\n      sub\n      swap1\n      return\n        /* \"contracts/helloep26.sol\":389:489  function getBlance() external view returns (uint256) {... */\n    tag_4:\n      callvalue\n      dup1\n      iszero\n      tag_15\n      jumpi\n      revert(0x00, 0x00)\n    tag_15:\n      pop\n      tag_16\n      tag_17\n      jump\t// in\n    tag_16:\n      mload(0x40)\n      tag_18\n      swap2\n      swap1\n      tag_19\n      jump\t// in\n    tag_18:\n      mload(0x40)\n      dup1\n      swap2\n      sub\n      swap1\n      return\n        /* \"contracts/helloep26.sol\":197:282  function setName(string memory _name) external payable  {... */\n    tag_5:\n      tag_20\n      0x04\n      dup1\n      calldatasize\n      sub\n      dup2\n      add\n      swap1\n      tag_21\n      swap2\n      swap1\n      tag_22\n      jump\t// in\n    tag_21:\n      tag_23\n      jump\t// in\n    tag_20:\n      stop\n        /* \"contracts/helloep26.sol\":290:377  function getName() external view returns (string memory) {... */\n    tag_12:\n        /* \"contracts/helloep26.sol\":332:345  string memory */\n      0x60\n        /* \"contracts/helloep26.sol\":365:369  name */\n      0x00\n        /* \"contracts/helloep26.sol\":358:369  return name */\n      dup1\n      sload\n      tag_25\n      swap1\n      tag_26\n      jump\t// in\n    tag_25:\n      dup1\n      0x1f\n      add\n      0x20\n      dup1\n      swap2\n      div\n      mul\n      0x20\n      add\n      mload(0x40)\n      swap1\n      dup2\n      add\n      0x40\n      mstore\n      dup1\n      swap3\n      swap2\n      swap1\n      dup2\n      dup2\n      mstore\n      0x20\n      add\n      dup3\n      dup1\n      sload\n      tag_27\n      swap1\n      tag_26\n      jump\t// in\n    tag_27:\n      dup1\n      iszero\n      tag_28\n      jumpi\n      dup1\n      0x1f\n      lt\n      tag_29\n      jumpi\n      0x0100\n      dup1\n      dup4\n      sload\n      div\n      mul\n      dup4\n      mstore\n      swap2\n      0x20\n      add\n      swap2\n      jump(tag_28)\n    tag_29:\n      dup3\n      add\n      swap2\n      swap1\n      0x00\n      mstore\n      keccak256(0x00, 0x20)\n      swap1\n    tag_30:\n      dup2\n      sload\n      dup2\n      mstore\n      swap1\n      0x01\n      add\n      swap1\n      0x20\n      add\n      dup1\n      dup4\n      gt\n      tag_30\n      jumpi\n      dup3\n      swap1\n      sub\n      0x1f\n      and\n      dup3\n      add\n      swap2\n    tag_28:\n      pop\n      pop\n      pop\n      pop\n      pop\n      swap1\n      pop\n        /* \"contracts/helloep26.sol\":290:377  function getName() external view returns (string memory) {... */\n      swap1\n      jump\t// out\n        /* \"contracts/helloep26.sol\":389:489  function getBlance() external view returns (uint256) {... */\n    tag_17:\n        /* \"contracts/helloep26.sol\":433:440  uint256 */\n      0x00\n        /* \"contracts/helloep26.sol\":460:481  address(this).balance */\n      selfbalance\n        /* \"contracts/helloep26.sol\":453:481  return address(this).balance */\n      swap1\n      pop\n        /* \"contracts/helloep26.sol\":389:489  function getBlance() external view returns (uint256) {... */\n      swap1\n      jump\t// out\n        /* \"contracts/helloep26.sol\":197:282  function setName(string memory _name) external payable  {... */\n    tag_23:\n        /* \"contracts/helloep26.sol\":269:274  _name */\n      dup1\n        /* \"contracts/helloep26.sol\":264:268  name */\n      0x00\n        /* \"contracts/helloep26.sol\":264:274  name=_name */\n      swap1\n      dup2\n      tag_33\n      swap2\n      swap1\n      tag_34\n      jump\t// in\n    tag_33:\n      pop\n        /* \"contracts/helloep26.sol\":197:282  function setName(string memory _name) external payable  {... */\n      pop\n      jump\t// out\n        /* \"#utility.yul\":7:106   */\n    tag_35:\n        /* \"#utility.yul\":59:65   */\n      0x00\n        /* \"#utility.yul\":93:98   */\n      dup2\n        /* \"#utility.yul\":87:99   */\n      mload\n        /* \"#utility.yul\":77:99   */\n      swap1\n      pop\n        /* \"#utility.yul\":7:106   */\n      swap2\n      swap1\n      pop\n      jump\t// out\n        /* \"#utility.yul\":112:281   */\n    tag_36:\n        /* \"#utility.yul\":196:207   */\n      0x00\n        /* \"#utility.yul\":230:236   */\n      dup3\n        /* \"#utility.yul\":225:228   */\n      dup3\n        /* \"#utility.yul\":218:237   */\n      mstore\n        /* \"#utility.yul\":270:274   */\n      0x20\n        /* \"#utility.yul\":265:268   */\n      dup3\n        /* \"#utility.yul\":261:275   */\n      add\n        /* \"#utility.yul\":246:275   */\n      swap1\n      pop\n        /* \"#utility.yul\":112:281   */\n      swap3\n      swap2\n      pop\n      pop\n      jump\t// out\n        /* \"#utility.yul\":287:426   */\n    tag_37:\n        /* \"#utility.yul\":376:382   */\n      dup3\n        /* \"#utility.yul\":371:374   */\n      dup2\n        /* \"#utility.yul\":366:369   */\n      dup4\n        /* \"#utility.yul\":360:383   */\n      mcopy\n        /* \"#utility.yul\":417:418   */\n      0x00\n        /* \"#utility.yul\":408:414   */\n      dup4\n        /* \"#utility.yul\":403:406   */\n      dup4\n        /* \"#utility.yul\":399:415   */\n      add\n        /* \"#utility.yul\":392:419   */\n      mstore\n        /* \"#utility.yul\":287:426   */\n      pop\n      pop\n      pop\n      jump\t// out\n        /* \"#utility.yul\":432:534   */\n    tag_38:\n        /* \"#utility.yul\":473:479   */\n      0x00\n        /* \"#utility.yul\":524:526   */\n      0x1f\n        /* \"#utility.yul\":520:527   */\n      not\n        /* \"#utility.yul\":515:517   */\n      0x1f\n        /* \"#utility.yul\":508:513   */\n      dup4\n        /* \"#utility.yul\":504:518   */\n      add\n        /* \"#utility.yul\":500:528   */\n      and\n        /* \"#utility.yul\":490:528   */\n      swap1\n      pop\n        /* \"#utility.yul\":432:534   */\n      swap2\n      swap1\n      pop\n      jump\t// out\n        /* \"#utility.yul\":540:917   */\n    tag_39:\n        /* \"#utility.yul\":628:631   */\n      0x00\n        /* \"#utility.yul\":656:695   */\n      tag_76\n        /* \"#utility.yul\":689:694   */\n      dup3\n        /* \"#utility.yul\":656:695   */\n      tag_35\n      jump\t// in\n    tag_76:\n        /* \"#utility.yul\":711:782   */\n      tag_77\n        /* \"#utility.yul\":775:781   */\n      dup2\n        /* \"#utility.yul\":770:773   */\n      dup6\n        /* \"#utility.yul\":711:782   */\n      tag_36\n      jump\t// in\n    tag_77:\n        /* \"#utility.yul\":704:782   */\n      swap4\n      pop\n        /* \"#utility.yul\":791:856   */\n      tag_78\n        /* \"#utility.yul\":849:855   */\n      dup2\n        /* \"#utility.yul\":844:847   */\n      dup6\n        /* \"#utility.yul\":837:841   */\n      0x20\n        /* \"#utility.yul\":830:835   */\n      dup7\n        /* \"#utility.yul\":826:842   */\n      add\n        /* \"#utility.yul\":791:856   */\n      tag_37\n      jump\t// in\n    tag_78:\n        /* \"#utility.yul\":881:910   */\n      tag_79\n        /* \"#utility.yul\":903:909   */\n      dup2\n        /* \"#utility.yul\":881:910   */\n      tag_38\n      jump\t// in\n    tag_79:\n        /* \"#utility.yul\":876:879   */\n      dup5\n        /* \"#utility.yul\":872:911   */\n      add\n        /* \"#utility.yul\":865:911   */\n      swap2\n      pop\n        /* \"#utility.yul\":632:917   */\n      pop\n        /* \"#utility.yul\":540:917   */\n      swap3\n      swap2\n      pop\n      pop\n      jump\t// out\n        /* \"#utility.yul\":923:1236   */\n    tag_14:\n        /* \"#utility.yul\":1036:1040   */\n      0x00\n        /* \"#utility.yul\":1074:1076   */\n      0x20\n        /* \"#utility.yul\":1063:1072   */\n      dup3\n        /* \"#utility.yul\":1059:1077   */\n      add\n        /* \"#utility.yul\":1051:1077   */\n      swap1\n      pop\n        /* \"#utility.yul\":1123:1132   */\n      dup2\n        /* \"#utility.yul\":1117:1121   */\n      dup2\n        /* \"#utility.yul\":1113:1133   */\n      sub\n        /* \"#utility.yul\":1109:1110   */\n      0x00\n        /* \"#utility.yul\":1098:1107   */\n      dup4\n        /* \"#utility.yul\":1094:1111   */\n      add\n        /* \"#utility.yul\":1087:1134   */\n      mstore\n        /* \"#utility.yul\":1151:1229   */\n      tag_81\n        /* \"#utility.yul\":1224:1228   */\n      dup2\n        /* \"#utility.yul\":1215:1221   */\n      dup5\n        /* \"#utility.yul\":1151:1229   */\n      tag_39\n      jump\t// in\n    tag_81:\n        /* \"#utility.yul\":1143:1229   */\n      swap1\n      pop\n        /* \"#utility.yul\":923:1236   */\n      swap3\n      swap2\n      pop\n      pop\n      jump\t// out\n        /* \"#utility.yul\":1242:1319   */\n    tag_40:\n        /* \"#utility.yul\":1279:1286   */\n      0x00\n        /* \"#utility.yul\":1308:1313   */\n      dup2\n        /* \"#utility.yul\":1297:1313   */\n      swap1\n      pop\n        /* \"#utility.yul\":1242:1319   */\n      swap2\n      swap1\n      pop\n      jump\t// out\n        /* \"#utility.yul\":1325:1443   */\n    tag_41:\n        /* \"#utility.yul\":1412:1436   */\n      tag_84\n        /* \"#utility.yul\":1430:1435   */\n      dup2\n        /* \"#utility.yul\":1412:1436   */\n      tag_40\n      jump\t// in\n    tag_84:\n        /* \"#utility.yul\":1407:1410   */\n      dup3\n        /* \"#utility.yul\":1400:1437   */\n      mstore\n        /* \"#utility.yul\":1325:1443   */\n      pop\n      pop\n      jump\t// out\n        /* \"#utility.yul\":1449:1671   */\n    tag_19:\n        /* \"#utility.yul\":1542:1546   */\n      0x00\n        /* \"#utility.yul\":1580:1582   */\n      0x20\n        /* \"#utility.yul\":1569:1578   */\n      dup3\n        /* \"#utility.yul\":1565:1583   */\n      add\n        /* \"#utility.yul\":1557:1583   */\n      swap1\n      pop\n        /* \"#utility.yul\":1593:1664   */\n      tag_86\n        /* \"#utility.yul\":1661:1662   */\n      0x00\n        /* \"#utility.yul\":1650:1659   */\n      dup4\n        /* \"#utility.yul\":1646:1663   */\n      add\n        /* \"#utility.yul\":1637:1643   */\n      dup5\n        /* \"#utility.yul\":1593:1664   */\n      tag_41\n      jump\t// in\n    tag_86:\n        /* \"#utility.yul\":1449:1671   */\n      swap3\n      swap2\n      pop\n      pop\n      jump\t// out\n        /* \"#utility.yul\":1677:1752   */\n    tag_42:\n        /* \"#utility.yul\":1710:1716   */\n      0x00\n        /* \"#utility.yul\":1743:1745   */\n      0x40\n        /* \"#utility.yul\":1737:1746   */\n      mload\n        /* \"#utility.yul\":1727:1746   */\n      swap1\n      pop\n        /* \"#utility.yul\":1677:1752   */\n      swap1\n      jump\t// out\n        /* \"#utility.yul\":1758:1875   */\n    tag_43:\n        /* \"#utility.yul\":1867:1868   */\n      0x00\n        /* \"#utility.yul\":1864:1865   */\n      0x00\n        /* \"#utility.yul\":1857:1869   */\n      revert\n        /* \"#utility.yul\":1881:1998   */\n    tag_44:\n        /* \"#utility.yul\":1990:1991   */\n      0x00\n        /* \"#utility.yul\":1987:1988   */\n      0x00\n        /* \"#utility.yul\":1980:1992   */\n      revert\n        /* \"#utility.yul\":2004:2121   */\n    tag_45:\n        /* \"#utility.yul\":2113:2114   */\n      0x00\n        /* \"#utility.yul\":2110:2111   */\n      0x00\n        /* \"#utility.yul\":2103:2115   */\n      revert\n        /* \"#utility.yul\":2127:2244   */\n    tag_46:\n        /* \"#utility.yul\":2236:2237   */\n      0x00\n        /* \"#utility.yul\":2233:2234   */\n      0x00\n        /* \"#utility.yul\":2226:2238   */\n      revert\n        /* \"#utility.yul\":2250:2430   */\n    tag_47:\n        /* \"#utility.yul\":2298:2375   */\n      0x4e487b7100000000000000000000000000000000000000000000000000000000\n        /* \"#utility.yul\":2295:2296   */\n      0x00\n        /* \"#utility.yul\":2288:2376   */\n      mstore\n        /* \"#utility.yul\":2395:2399   */\n      0x41\n        /* \"#utility.yul\":2392:2393   */\n      0x04\n        /* \"#utility.yul\":2385:2400   */\n      mstore\n        /* \"#utility.yul\":2419:2423   */\n      0x24\n        /* \"#utility.yul\":2416:2417   */\n      0x00\n        /* \"#utility.yul\":2409:2424   */\n      revert\n        /* \"#utility.yul\":2436:2717   */\n    tag_48:\n        /* \"#utility.yul\":2519:2546   */\n      tag_94\n        /* \"#utility.yul\":2541:2545   */\n      dup3\n        /* \"#utility.yul\":2519:2546   */\n      tag_38\n      jump\t// in\n    tag_94:\n        /* \"#utility.yul\":2511:2517   */\n      dup2\n        /* \"#utility.yul\":2507:2547   */\n      add\n        /* \"#utility.yul\":2649:2655   */\n      dup2\n        /* \"#utility.yul\":2637:2647   */\n      dup2\n        /* \"#utility.yul\":2634:2656   */\n      lt\n        /* \"#utility.yul\":2613:2631   */\n      0xffffffffffffffff\n        /* \"#utility.yul\":2601:2611   */\n      dup3\n        /* \"#utility.yul\":2598:2632   */\n      gt\n        /* \"#utility.yul\":2595:2657   */\n      or\n        /* \"#utility.yul\":2592:2680   */\n      iszero\n      tag_95\n      jumpi\n        /* \"#utility.yul\":2660:2678   */\n      tag_96\n      tag_47\n      jump\t// in\n    tag_96:\n        /* \"#utility.yul\":2592:2680   */\n    tag_95:\n        /* \"#utility.yul\":2700:2710   */\n      dup1\n        /* \"#utility.yul\":2696:2698   */\n      0x40\n        /* \"#utility.yul\":2689:2711   */\n      mstore\n        /* \"#utility.yul\":2479:2717   */\n      pop\n        /* \"#utility.yul\":2436:2717   */\n      pop\n      pop\n      jump\t// out\n        /* \"#utility.yul\":2723:2852   */\n    tag_49:\n        /* \"#utility.yul\":2757:2763   */\n      0x00\n        /* \"#utility.yul\":2784:2804   */\n      tag_98\n      tag_42\n      jump\t// in\n    tag_98:\n        /* \"#utility.yul\":2774:2804   */\n      swap1\n      pop\n        /* \"#utility.yul\":2813:2846   */\n      tag_99\n        /* \"#utility.yul\":2841:2845   */\n      dup3\n        /* \"#utility.yul\":2833:2839   */\n      dup3\n        /* \"#utility.yul\":2813:2846   */\n      tag_48\n      jump\t// in\n    tag_99:\n        /* \"#utility.yul\":2723:2852   */\n      swap2\n      swap1\n      pop\n      jump\t// out\n        /* \"#utility.yul\":2858:3166   */\n    tag_50:\n        /* \"#utility.yul\":2920:2924   */\n      0x00\n        /* \"#utility.yul\":3010:3028   */\n      0xffffffffffffffff\n        /* \"#utility.yul\":3002:3008   */\n      dup3\n        /* \"#utility.yul\":2999:3029   */\n      gt\n        /* \"#utility.yul\":2996:3052   */\n      iszero\n      tag_101\n      jumpi\n        /* \"#utility.yul\":3032:3050   */\n      tag_102\n      tag_47\n      jump\t// in\n    tag_102:\n        /* \"#utility.yul\":2996:3052   */\n    tag_101:\n        /* \"#utility.yul\":3070:3099   */\n      tag_103\n        /* \"#utility.yul\":3092:3098   */\n      dup3\n        /* \"#utility.yul\":3070:3099   */\n      tag_38\n      jump\t// in\n    tag_103:\n        /* \"#utility.yul\":3062:3099   */\n      swap1\n      pop\n        /* \"#utility.yul\":3154:3158   */\n      0x20\n        /* \"#utility.yul\":3148:3152   */\n      dup2\n        /* \"#utility.yul\":3144:3159   */\n      add\n        /* \"#utility.yul\":3136:3159   */\n      swap1\n      pop\n        /* \"#utility.yul\":2858:3166   */\n      swap2\n      swap1\n      pop\n      jump\t// out\n        /* \"#utility.yul\":3172:3320   */\n    tag_51:\n        /* \"#utility.yul\":3270:3276   */\n      dup3\n        /* \"#utility.yul\":3265:3268   */\n      dup2\n        /* \"#utility.yul\":3260:3263   */\n      dup4\n        /* \"#utility.yul\":3247:3277   */\n      calldatacopy\n        /* \"#utility.yul\":3311:3312   */\n      0x00\n        /* \"#utility.yul\":3302:3308   */\n      dup4\n        /* \"#utility.yul\":3297:3300   */\n      dup4\n        /* \"#utility.yul\":3293:3309   */\n      add\n        /* \"#utility.yul\":3286:3313   */\n      mstore\n        /* \"#utility.yul\":3172:3320   */\n      pop\n      pop\n      pop\n      jump\t// out\n        /* \"#utility.yul\":3326:3751   */\n    tag_52:\n        /* \"#utility.yul\":3404:3409   */\n      0x00\n        /* \"#utility.yul\":3429:3495   */\n      tag_106\n        /* \"#utility.yul\":3445:3494   */\n      tag_107\n        /* \"#utility.yul\":3487:3493   */\n      dup5\n        /* \"#utility.yul\":3445:3494   */\n      tag_50\n      jump\t// in\n    tag_107:\n        /* \"#utility.yul\":3429:3495   */\n      tag_49\n      jump\t// in\n    tag_106:\n        /* \"#utility.yul\":3420:3495   */\n      swap1\n      pop\n        /* \"#utility.yul\":3518:3524   */\n      dup3\n        /* \"#utility.yul\":3511:3516   */\n      dup2\n        /* \"#utility.yul\":3504:3525   */\n      mstore\n        /* \"#utility.yul\":3556:3560   */\n      0x20\n        /* \"#utility.yul\":3549:3554   */\n      dup2\n        /* \"#utility.yul\":3545:3561   */\n      add\n        /* \"#utility.yul\":3594:3597   */\n      dup5\n        /* \"#utility.yul\":3585:3591   */\n      dup5\n        /* \"#utility.yul\":3580:3583   */\n      dup5\n        /* \"#utility.yul\":3576:3592   */\n      add\n        /* \"#utility.yul\":3573:3598   */\n      gt\n        /* \"#utility.yul\":3570:3682   */\n      iszero\n      tag_108\n      jumpi\n        /* \"#utility.yul\":3601:3680   */\n      tag_109\n      tag_46\n      jump\t// in\n    tag_109:\n        /* \"#utility.yul\":3570:3682   */\n    tag_108:\n        /* \"#utility.yul\":3691:3745   */\n      tag_110\n        /* \"#utility.yul\":3738:3744   */\n      dup5\n        /* \"#utility.yul\":3733:3736   */\n      dup3\n        /* \"#utility.yul\":3728:3731   */\n      dup6\n        /* \"#utility.yul\":3691:3745   */\n      tag_51\n      jump\t// in\n    tag_110:\n        /* \"#utility.yul\":3410:3751   */\n      pop\n        /* \"#utility.yul\":3326:3751   */\n      swap4\n      swap3\n      pop\n      pop\n      pop\n      jump\t// out\n        /* \"#utility.yul\":3771:4111   */\n    tag_53:\n        /* \"#utility.yul\":3827:3832   */\n      0x00\n        /* \"#utility.yul\":3876:3879   */\n      dup3\n        /* \"#utility.yul\":3869:3873   */\n      0x1f\n        /* \"#utility.yul\":3861:3867   */\n      dup4\n        /* \"#utility.yul\":3857:3874   */\n      add\n        /* \"#utility.yul\":3853:3880   */\n      slt\n        /* \"#utility.yul\":3843:3965   */\n      tag_112\n      jumpi\n        /* \"#utility.yul\":3884:3963   */\n      tag_113\n      tag_45\n      jump\t// in\n    tag_113:\n        /* \"#utility.yul\":3843:3965   */\n    tag_112:\n        /* \"#utility.yul\":4001:4007   */\n      dup2\n        /* \"#utility.yul\":3988:4008   */\n      calldataload\n        /* \"#utility.yul\":4026:4105   */\n      tag_114\n        /* \"#utility.yul\":4101:4104   */\n      dup5\n        /* \"#utility.yul\":4093:4099   */\n      dup3\n        /* \"#utility.yul\":4086:4090   */\n      0x20\n        /* \"#utility.yul\":4078:4084   */\n      dup7\n        /* \"#utility.yul\":4074:4091   */\n      add\n        /* \"#utility.yul\":4026:4105   */\n      tag_52\n      jump\t// in\n    tag_114:\n        /* \"#utility.yul\":4017:4105   */\n      swap2\n      pop\n        /* \"#utility.yul\":3833:4111   */\n      pop\n        /* \"#utility.yul\":3771:4111   */\n      swap3\n      swap2\n      pop\n      pop\n      jump\t// out\n        /* \"#utility.yul\":4117:4626   */\n    tag_22:\n        /* \"#utility.yul\":4186:4192   */\n      0x00\n        /* \"#utility.yul\":4235:4237   */\n      0x20\n        /* \"#utility.yul\":4223:4232   */\n      dup3\n        /* \"#utility.yul\":4214:4221   */\n      dup5\n        /* \"#utility.yul\":4210:4233   */\n      sub\n        /* \"#utility.yul\":4206:4238   */\n      slt\n        /* \"#utility.yul\":4203:4322   */\n      iszero\n      tag_116\n      jumpi\n        /* \"#utility.yul\":4241:4320   */\n      tag_117\n      tag_43\n      jump\t// in\n    tag_117:\n        /* \"#utility.yul\":4203:4322   */\n    tag_116:\n        /* \"#utility.yul\":4389:4390   */\n      0x00\n        /* \"#utility.yul\":4378:4387   */\n      dup3\n        /* \"#utility.yul\":4374:4391   */\n      add\n        /* \"#utility.yul\":4361:4392   */\n      calldataload\n        /* \"#utility.yul\":4419:4437   */\n      0xffffffffffffffff\n        /* \"#utility.yul\":4411:4417   */\n      dup2\n        /* \"#utility.yul\":4408:4438   */\n      gt\n        /* \"#utility.yul\":4405:4522   */\n      iszero\n      tag_118\n      jumpi\n        /* \"#utility.yul\":4441:4520   */\n      tag_119\n      tag_44\n      jump\t// in\n    tag_119:\n        /* \"#utility.yul\":4405:4522   */\n    tag_118:\n        /* \"#utility.yul\":4546:4609   */\n      tag_120\n        /* \"#utility.yul\":4601:4608   */\n      dup5\n        /* \"#utility.yul\":4592:4598   */\n      dup3\n        /* \"#utility.yul\":4581:4590   */\n      dup6\n        /* \"#utility.yul\":4577:4599   */\n      add\n        /* \"#utility.yul\":4546:4609   */\n      tag_53\n      jump\t// in\n    tag_120:\n        /* \"#utility.yul\":4536:4609   */\n      swap2\n      pop\n        /* \"#utility.yul\":4332:4619   */\n      pop\n        /* \"#utility.yul\":4117:4626   */\n      swap3\n      swap2\n      pop\n      pop\n      jump\t// out\n        /* \"#utility.yul\":4632:4812   */\n    tag_54:\n        /* \"#utility.yul\":4680:4757   */\n      0x4e487b7100000000000000000000000000000000000000000000000000000000\n        /* \"#utility.yul\":4677:4678   */\n      0x00\n        /* \"#utility.yul\":4670:4758   */\n      mstore\n        /* \"#utility.yul\":4777:4781   */\n      0x22\n        /* \"#utility.yul\":4774:4775   */\n      0x04\n        /* \"#utility.yul\":4767:4782   */\n      mstore\n        /* \"#utility.yul\":4801:4805   */\n      0x24\n        /* \"#utility.yul\":4798:4799   */\n      0x00\n        /* \"#utility.yul\":4791:4806   */\n      revert\n        /* \"#utility.yul\":4818:5138   */\n    tag_26:\n        /* \"#utility.yul\":4862:4868   */\n      0x00\n        /* \"#utility.yul\":4899:4900   */\n      0x02\n        /* \"#utility.yul\":4893:4897   */\n      dup3\n        /* \"#utility.yul\":4889:4901   */\n      div\n        /* \"#utility.yul\":4879:4901   */\n      swap1\n      pop\n        /* \"#utility.yul\":4946:4947   */\n      0x01\n        /* \"#utility.yul\":4940:4944   */\n      dup3\n        /* \"#utility.yul\":4936:4948   */\n      and\n        /* \"#utility.yul\":4967:4985   */\n      dup1\n        /* \"#utility.yul\":4957:5038   */\n      tag_123\n      jumpi\n        /* \"#utility.yul\":5023:5027   */\n      0x7f\n        /* \"#utility.yul\":5015:5021   */\n      dup3\n        /* \"#utility.yul\":5011:5028   */\n      and\n        /* \"#utility.yul\":5001:5028   */\n      swap2\n      pop\n        /* \"#utility.yul\":4957:5038   */\n    tag_123:\n        /* \"#utility.yul\":5085:5087   */\n      0x20\n        /* \"#utility.yul\":5077:5083   */\n      dup3\n        /* \"#utility.yul\":5074:5088   */\n      lt\n        /* \"#utility.yul\":5054:5072   */\n      dup2\n        /* \"#utility.yul\":5051:5089   */\n      sub\n        /* \"#utility.yul\":5048:5132   */\n      tag_124\n      jumpi\n        /* \"#utility.yul\":5104:5122   */\n      tag_125\n      tag_54\n      jump\t// in\n    tag_125:\n        /* \"#utility.yul\":5048:5132   */\n    tag_124:\n        /* \"#utility.yul\":4869:5138   */\n      pop\n        /* \"#utility.yul\":4818:5138   */\n      swap2\n      swap1\n      pop\n      jump\t// out\n        /* \"#utility.yul\":5144:5285   */\n    tag_55:\n        /* \"#utility.yul\":5193:5197   */\n      0x00\n        /* \"#utility.yul\":5216:5219   */\n      dup2\n        /* \"#utility.yul\":5208:5219   */\n      swap1\n      pop\n        /* \"#utility.yul\":5239:5242   */\n      dup2\n        /* \"#utility.yul\":5236:5237   */\n      0x00\n        /* \"#utility.yul\":5229:5243   */\n      mstore\n        /* \"#utility.yul\":5273:5277   */\n      0x20\n        /* \"#utility.yul\":5270:5271   */\n      0x00\n        /* \"#utility.yul\":5260:5278   */\n      keccak256\n        /* \"#utility.yul\":5252:5278   */\n      swap1\n      pop\n        /* \"#utility.yul\":5144:5285   */\n      swap2\n      swap1\n      pop\n      jump\t// out\n        /* \"#utility.yul\":5291:5384   */\n    tag_56:\n        /* \"#utility.yul\":5328:5334   */\n      0x00\n        /* \"#utility.yul\":5375:5377   */\n      0x20\n        /* \"#utility.yul\":5370:5372   */\n      0x1f\n        /* \"#utility.yul\":5363:5368   */\n      dup4\n        /* \"#utility.yul\":5359:5373   */\n      add\n        /* \"#utility.yul\":5355:5378   */\n      div\n        /* \"#utility.yul\":5345:5378   */\n      swap1\n      pop\n        /* \"#utility.yul\":5291:5384   */\n      swap2\n      swap1\n      pop\n      jump\t// out\n        /* \"#utility.yul\":5390:5497   */\n    tag_57:\n        /* \"#utility.yul\":5434:5442   */\n      0x00\n        /* \"#utility.yul\":5484:5489   */\n      dup3\n        /* \"#utility.yul\":5478:5482   */\n      dup3\n        /* \"#utility.yul\":5474:5490   */\n      shl\n        /* \"#utility.yul\":5453:5490   */\n      swap1\n      pop\n        /* \"#utility.yul\":5390:5497   */\n      swap3\n      swap2\n      pop\n      pop\n      jump\t// out\n        /* \"#utility.yul\":5503:5896   */\n    tag_58:\n        /* \"#utility.yul\":5572:5578   */\n      0x00\n        /* \"#utility.yul\":5622:5623   */\n      0x08\n        /* \"#utility.yul\":5610:5620   */\n      dup4\n        /* \"#utility.yul\":5606:5624   */\n      mul\n        /* \"#utility.yul\":5645:5742   */\n      tag_130\n        /* \"#utility.yul\":5675:5741   */\n      0xffffffffffffffffffffffffffffffffffffffffffffffffffffffffffffffff\n        /* \"#utility.yul\":5664:5673   */\n      dup3\n        /* \"#utility.yul\":5645:5742   */\n      tag_57\n      jump\t// in\n    tag_130:\n        /* \"#utility.yul\":5763:5802   */\n      tag_131\n        /* \"#utility.yul\":5793:5801   */\n      dup7\n        /* \"#utility.yul\":5782:5791   */\n      dup4\n        /* \"#utility.yul\":5763:5802   */\n      tag_57\n      jump\t// in\n    tag_131:\n        /* \"#utility.yul\":5751:5802   */\n      swap6\n      pop\n        /* \"#utility.yul\":5835:5839   */\n      dup1\n        /* \"#utility.yul\":5831:5840   */\n      not\n        /* \"#utility.yul\":5824:5829   */\n      dup5\n        /* \"#utility.yul\":5820:5841   */\n      and\n        /* \"#utility.yul\":5811:5841   */\n      swap4\n      pop\n        /* \"#utility.yul\":5884:5888   */\n      dup1\n        /* \"#utility.yul\":5874:5882   */\n      dup7\n        /* \"#utility.yul\":5870:5889   */\n      and\n        /* \"#utility.yul\":5863:5868   */\n      dup5\n        /* \"#utility.yul\":5860:5890   */\n      or\n        /* \"#utility.yul\":5850:5890   */\n      swap3\n      pop\n        /* \"#utility.yul\":5579:5896   */\n      pop\n      pop\n        /* \"#utility.yul\":5503:5896   */\n      swap4\n      swap3\n      pop\n      pop\n      pop\n      jump\t// out\n        /* \"#utility.yul\":5902:5962   */\n    tag_59:\n        /* \"#utility.yul\":5930:5933   */\n      0x00\n        /* \"#utility.yul\":5951:5956   */\n      dup2\n        /* \"#utility.yul\":5944:5956   */\n      swap1\n      pop\n        /* \"#utility.yul\":5902:5962   */\n      swap2\n      swap1\n      pop\n      jump\t// out\n        /* \"#utility.yul\":5968:6110   */\n    tag_60:\n        /* \"#utility.yul\":6018:6027   */\n      0x00\n        /* \"#utility.yul\":6051:6104   */\n      tag_134\n        /* \"#utility.yul\":6069:6103   */\n      tag_135\n        /* \"#utility.yul\":6078:6102   */\n      tag_136\n        /* \"#utility.yul\":6096:6101   */\n      dup5\n        /* \"#utility.yul\":6078:6102   */\n      tag_40\n      jump\t// in\n    tag_136:\n        /* \"#utility.yul\":6069:6103   */\n      tag_59\n      jump\t// in\n    tag_135:\n        /* \"#utility.yul\":6051:6104   */\n      tag_40\n      jump\t// in\n    tag_134:\n        /* \"#utility.yul\":6038:6104   */\n      swap1\n      pop\n        /* \"#utility.yul\":5968:6110   */\n      swap2\n      swap1\n      pop\n      jump\t// out\n        /* \"#utility.yul\":6116:6191   */\n    tag_61:\n        /* \"#utility.yul\":6159:6162   */\n      0x00\n        /* \"#utility.yul\":6180:6185   */\n      dup2\n        /* \"#utility.yul\":6173:6185   */\n      swap1\n      pop\n        /* \"#utility.yul\":6116:6191   */\n      swap2\n      swap1\n      pop\n      jump\t// out\n        /* \"#utility.yul\":6197:6466   */\n    tag_62:\n        /* \"#utility.yul\":6307:6346   */\n      tag_139\n        /* \"#utility.yul\":6338:6345   */\n      dup4\n        /* \"#utility.yul\":6307:6346   */\n      tag_60\n      jump\t// in\n    tag_139:\n        /* \"#utility.yul\":6368:6459   */\n      tag_140\n        /* \"#utility.yul\":6417:6458   */\n      tag_141\n        /* \"#utility.yul\":6441:6457   */\n      dup3\n        /* \"#utility.yul\":6417:6458   */\n      tag_61\n      jump\t// in\n    tag_141:\n        /* \"#utility.yul\":6409:6415   */\n      dup5\n        /* \"#utility.yul\":6402:6406   */\n      dup5\n        /* \"#utility.yul\":6396:6407   */\n      sload\n        /* \"#utility.yul\":6368:6459   */\n      tag_58\n      jump\t// in\n    tag_140:\n        /* \"#utility.yul\":6362:6366   */\n      dup3\n        /* \"#utility.yul\":6355:6460   */\n      sstore\n        /* \"#utility.yul\":6273:6466   */\n      pop\n        /* \"#utility.yul\":6197:6466   */\n      pop\n      pop\n      pop\n      jump\t// out\n        /* \"#utility.yul\":6472:6545   */\n    tag_63:\n        /* \"#utility.yul\":6517:6520   */\n      0x00\n        /* \"#utility.yul\":6538:6539   */\n      0x00\n        /* \"#utility.yul\":6531:6539   */\n      swap1\n      pop\n        /* \"#utility.yul\":6472:6545   */\n      swap1\n      jump\t// out\n        /* \"#utility.yul\":6551:6740   */\n    tag_64:\n        /* \"#utility.yul\":6628:6660   */\n      tag_144\n      tag_63\n      jump\t// in\n    tag_144:\n        /* \"#utility.yul\":6669:6734   */\n      tag_145\n        /* \"#utility.yul\":6727:6733   */\n      dup2\n        /* \"#utility.yul\":6719:6725   */\n      dup5\n        /* \"#utility.yul\":6713:6717   */\n      dup5\n        /* \"#utility.yul\":6669:6734   */\n      tag_62\n      jump\t// in\n    tag_145:\n        /* \"#utility.yul\":6604:6740   */\n      pop\n        /* \"#utility.yul\":6551:6740   */\n      pop\n      pop\n      jump\t// out\n        /* \"#utility.yul\":6746:6932   */\n    tag_65:\n        /* \"#utility.yul\":6806:6926   */\n    tag_147:\n        /* \"#utility.yul\":6823:6826   */\n      dup2\n        /* \"#utility.yul\":6816:6821   */\n      dup2\n        /* \"#utility.yul\":6813:6827   */\n      lt\n        /* \"#utility.yul\":6806:6926   */\n      iszero\n      tag_149\n      jumpi\n        /* \"#utility.yul\":6877:6916   */\n      tag_150\n        /* \"#utility.yul\":6914:6915   */\n      0x00\n        /* \"#utility.yul\":6907:6912   */\n      dup3\n        /* \"#utility.yul\":6877:6916   */\n      tag_64\n      jump\t// in\n    tag_150:\n        /* \"#utility.yul\":6850:6851   */\n      0x01\n        /* \"#utility.yul\":6843:6848   */\n      dup2\n        /* \"#utility.yul\":6839:6852   */\n      add\n        /* \"#utility.yul\":6830:6852   */\n      swap1\n      pop\n        /* \"#utility.yul\":6806:6926   */\n      jump(tag_147)\n    tag_149:\n        /* \"#utility.yul\":6746:6932   */\n      pop\n      pop\n      jump\t// out\n        /* \"#utility.yul\":6938:7481   */\n    tag_66:\n        /* \"#utility.yul\":7039:7041   */\n      0x1f\n        /* \"#utility.yul\":7034:7037   */\n      dup3\n        /* \"#utility.yul\":7031:7042   */\n      gt\n        /* \"#utility.yul\":7028:7474   */\n      iszero\n      tag_152\n      jumpi\n        /* \"#utility.yul\":7073:7111   */\n      tag_153\n        /* \"#utility.yul\":7105:7110   */\n      dup2\n        /* \"#utility.yul\":7073:7111   */\n      tag_55\n      jump\t// in\n    tag_153:\n        /* \"#utility.yul\":7157:7186   */\n      tag_154\n        /* \"#utility.yul\":7175:7185   */\n      dup5\n        /* \"#utility.yul\":7157:7186   */\n      tag_56\n      jump\t// in\n    tag_154:\n        /* \"#utility.yul\":7147:7155   */\n      dup2\n        /* \"#utility.yul\":7143:7187   */\n      add\n        /* \"#utility.yul\":7340:7342   */\n      0x20\n        /* \"#utility.yul\":7328:7338   */\n      dup6\n        /* \"#utility.yul\":7325:7343   */\n      lt\n        /* \"#utility.yul\":7322:7371   */\n      iszero\n      tag_155\n      jumpi\n        /* \"#utility.yul\":7361:7369   */\n      dup2\n        /* \"#utility.yul\":7346:7369   */\n      swap1\n      pop\n        /* \"#utility.yul\":7322:7371   */\n    tag_155:\n        /* \"#utility.yul\":7384:7464   */\n      tag_156\n        /* \"#utility.yul\":7440:7462   */\n      tag_157\n        /* \"#utility.yul\":7458:7461   */\n      dup6\n        /* \"#utility.yul\":7440:7462   */\n      tag_56\n      jump\t// in\n    tag_157:\n        /* \"#utility.yul\":7430:7438   */\n      dup4\n        /* \"#utility.yul\":7426:7463   */\n      add\n        /* \"#utility.yul\":7413:7424   */\n      dup3\n        /* \"#utility.yul\":7384:7464   */\n      tag_65\n      jump\t// in\n    tag_156:\n        /* \"#utility.yul\":7043:7474   */\n      pop\n      pop\n        /* \"#utility.yul\":7028:7474   */\n    tag_152:\n        /* \"#utility.yul\":6938:7481   */\n      pop\n      pop\n      pop\n      jump\t// out\n        /* \"#utility.yul\":7487:7604   */\n    tag_67:\n        /* \"#utility.yul\":7541:7549   */\n      0x00\n        /* \"#utility.yul\":7591:7596   */\n      dup3\n        /* \"#utility.yul\":7585:7589   */\n      dup3\n        /* \"#utility.yul\":7581:7597   */\n      shr\n        /* \"#utility.yul\":7560:7597   */\n      swap1\n      pop\n        /* \"#utility.yul\":7487:7604   */\n      swap3\n      swap2\n      pop\n      pop\n      jump\t// out\n        /* \"#utility.yul\":7610:7779   */\n    tag_68:\n        /* \"#utility.yul\":7654:7660   */\n      0x00\n        /* \"#utility.yul\":7687:7738   */\n      tag_160\n        /* \"#utility.yul\":7735:7736   */\n      0x00\n        /* \"#utility.yul\":7731:7737   */\n      not\n        /* \"#utility.yul\":7723:7728   */\n      dup5\n        /* \"#utility.yul\":7720:7721   */\n      0x08\n        /* \"#utility.yul\":7716:7729   */\n      mul\n        /* \"#utility.yul\":7687:7738   */\n      tag_67\n      jump\t// in\n    tag_160:\n        /* \"#utility.yul\":7683:7739   */\n      not\n        /* \"#utility.yul\":7768:7772   */\n      dup1\n        /* \"#utility.yul\":7762:7766   */\n      dup4\n        /* \"#utility.yul\":7758:7773   */\n      and\n        /* \"#utility.yul\":7748:7773   */\n      swap2\n      pop\n        /* \"#utility.yul\":7661:7779   */\n      pop\n        /* \"#utility.yul\":7610:7779   */\n      swap3\n      swap2\n      pop\n      pop\n      jump\t// out\n        /* \"#utility.yul\":7784:8079   */\n    tag_69:\n        /* \"#utility.yul\":7860:7864   */\n      0x00\n        /* \"#utility.yul\":8006:8035   */\n      tag_162\n        /* \"#utility.yul\":8031:8034   */\n      dup4\n        /* \"#utility.yul\":8025:8029   */\n      dup4\n        /* \"#utility.yul\":8006:8035   */\n      tag_68\n      jump\t// in\n    tag_162:\n        /* \"#utility.yul\":7998:8035   */\n      swap2\n      pop\n        /* \"#utility.yul\":8068:8071   */\n      dup3\n        /* \"#utility.yul\":8065:8066   */\n      0x02\n        /* \"#utility.yul\":8061:8072   */\n      mul\n        /* \"#utility.yul\":8055:8059   */\n      dup3\n        /* \"#utility.yul\":8052:8073   */\n      or\n        /* \"#utility.yul\":8044:8073   */\n      swap1\n      pop\n        /* \"#utility.yul\":7784:8079   */\n      swap3\n      swap2\n      pop\n      pop\n      jump\t// out\n        /* \"#utility.yul\":8084:9479   */\n    tag_34:\n        /* \"#utility.yul\":8201:8238   */\n      tag_164\n        /* \"#utility.yul\":8234:8237   */\n      dup3\n        /* \"#utility.yul\":8201:8238   */\n      tag_35\n      jump\t// in\n    tag_164:\n        /* \"#utility.yul\":8303:8321   */\n      0xffffffffffffffff\n        /* \"#utility.yul\":8295:8301   */\n      dup2\n        /* \"#utility.yul\":8292:8322   */\n      gt\n        /* \"#utility.yul\":8289:8345   */\n      iszero\n      tag_165\n      jumpi\n        /* \"#utility.yul\":8325:8343   */\n      tag_166\n      tag_47\n      jump\t// in\n    tag_166:\n        /* \"#utility.yul\":8289:8345   */\n    tag_165:\n        /* \"#utility.yul\":8369:8407   */\n      tag_167\n        /* \"#utility.yul\":8401:8405   */\n      dup3\n        /* \"#utility.yul\":8395:8406   */\n      sload\n        /* \"#utility.yul\":8369:8407   */\n      tag_26\n      jump\t// in\n    tag_167:\n        /* \"#utility.yul\":8454:8521   */\n      tag_168\n        /* \"#utility.yul\":8514:8520   */\n      dup3\n        /* \"#utility.yul\":8506:8512   */\n      dup3\n        /* \"#utility.yul\":8500:8504   */\n      dup6\n        /* \"#utility.yul\":8454:8521   */\n      tag_66\n      jump\t// in\n    tag_168:\n        /* \"#utility.yul\":8548:8549   */\n      0x00\n        /* \"#utility.yul\":8572:8576   */\n      0x20\n        /* \"#utility.yul\":8559:8576   */\n      swap1\n      pop\n        /* \"#utility.yul\":8604:8606   */\n      0x1f\n        /* \"#utility.yul\":8596:8602   */\n      dup4\n        /* \"#utility.yul\":8593:8607   */\n      gt\n        /* \"#utility.yul\":8621:8622   */\n      0x01\n        /* \"#utility.yul\":8616:9234   */\n      dup2\n      eq\n      tag_170\n      jumpi\n        /* \"#utility.yul\":9278:9279   */\n      0x00\n        /* \"#utility.yul\":9295:9301   */\n      dup5\n        /* \"#utility.yul\":9292:9369   */\n      iszero\n      tag_171\n      jumpi\n        /* \"#utility.yul\":9344:9353   */\n      dup3\n        /* \"#utility.yul\":9339:9342   */\n      dup8\n        /* \"#utility.yul\":9335:9354   */\n      add\n        /* \"#utility.yul\":9329:9355   */\n      mload\n        /* \"#utility.yul\":9320:9355   */\n      swap1\n      pop\n        /* \"#utility.yul\":9292:9369   */\n    tag_171:\n        /* \"#utility.yul\":9395:9462   */\n      tag_172\n        /* \"#utility.yul\":9455:9461   */\n      dup6\n        /* \"#utility.yul\":9448:9453   */\n      dup3\n        /* \"#utility.yul\":9395:9462   */\n      tag_69\n      jump\t// in\n    tag_172:\n        /* \"#utility.yul\":9389:9393   */\n      dup7\n        /* \"#utility.yul\":9382:9463   */\n      sstore\n        /* \"#utility.yul\":9251:9473   */\n      pop\n        /* \"#utility.yul\":8586:9473   */\n      jump(tag_169)\n        /* \"#utility.yul\":8616:9234   */\n    tag_170:\n        /* \"#utility.yul\":8668:8672   */\n      0x1f\n        /* \"#utility.yul\":8664:8673   */\n      not\n        /* \"#utility.yul\":8656:8662   */\n      dup5\n        /* \"#utility.yul\":8652:8674   */\n      and\n        /* \"#utility.yul\":8702:8739   */\n      tag_173\n        /* \"#utility.yul\":8734:8738   */\n      dup7\n        /* \"#utility.yul\":8702:8739   */\n      tag_55\n      jump\t// in\n    tag_173:\n        /* \"#utility.yul\":8761:8762   */\n      0x00\n        /* \"#utility.yul\":8775:8983   */\n    tag_174:\n        /* \"#utility.yul\":8789:8796   */\n      dup3\n        /* \"#utility.yul\":8786:8787   */\n      dup2\n        /* \"#utility.yul\":8783:8797   */\n      lt\n        /* \"#utility.yul\":8775:8983   */\n      iszero\n      tag_176\n      jumpi\n        /* \"#utility.yul\":8868:8877   */\n      dup5\n        /* \"#utility.yul\":8863:8866   */\n      dup10\n        /* \"#utility.yul\":8859:8878   */\n      add\n        /* \"#utility.yul\":8853:8879   */\n      mload\n        /* \"#utility.yul\":8845:8851   */\n      dup3\n        /* \"#utility.yul\":8838:8880   */\n      sstore\n        /* \"#utility.yul\":8919:8920   */\n      0x01\n        /* \"#utility.yul\":8911:8917   */\n      dup3\n        /* \"#utility.yul\":8907:8921   */\n      add\n        /* \"#utility.yul\":8897:8921   */\n      swap2\n      pop\n        /* \"#utility.yul\":8966:8968   */\n      0x20\n        /* \"#utility.yul\":8955:8964   */\n      dup6\n        /* \"#utility.yul\":8951:8969   */\n      add\n        /* \"#utility.yul\":8938:8969   */\n      swap5\n      pop\n        /* \"#utility.yul\":8812:8816   */\n      0x20\n        /* \"#utility.yul\":8809:8810   */\n      dup2\n        /* \"#utility.yul\":8805:8817   */\n      add\n        /* \"#utility.yul\":8800:8817   */\n      swap1\n      pop\n        /* \"#utility.yul\":8775:8983   */\n      jump(tag_174)\n    tag_176:\n        /* \"#utility.yul\":9011:9017   */\n      dup7\n        /* \"#utility.yul\":9002:9009   */\n      dup4\n        /* \"#utility.yul\":8999:9018   */\n      lt\n        /* \"#utility.yul\":8996:9175   */\n      iszero\n      tag_177\n      jumpi\n        /* \"#utility.yul\":9069:9078   */\n      dup5\n        /* \"#utility.yul\":9064:9067   */\n      dup10\n        /* \"#utility.yul\":9060:9079   */\n      add\n        /* \"#utility.yul\":9054:9080   */\n      mload\n        /* \"#utility.yul\":9112:9160   */\n      tag_178\n        /* \"#utility.yul\":9154:9158   */\n      0x1f\n        /* \"#utility.yul\":9146:9152   */\n      dup10\n        /* \"#utility.yul\":9142:9159   */\n      and\n        /* \"#utility.yul\":9131:9140   */\n      dup3\n        /* \"#utility.yul\":9112:9160   */\n      tag_68\n      jump\t// in\n    tag_178:\n        /* \"#utility.yul\":9104:9110   */\n      dup4\n        /* \"#utility.yul\":9097:9161   */\n      sstore\n        /* \"#utility.yul\":9019:9175   */\n      pop\n        /* \"#utility.yul\":8996:9175   */\n    tag_177:\n        /* \"#utility.yul\":9221:9222   */\n      0x01\n        /* \"#utility.yul\":9217:9218   */\n      0x02\n        /* \"#utility.yul\":9209:9215   */\n      dup9\n        /* \"#utility.yul\":9205:9219   */\n      mul\n        /* \"#utility.yul\":9201:9223   */\n      add\n        /* \"#utility.yul\":9195:9199   */\n      dup9\n        /* \"#utility.yul\":9188:9224   */\n      sstore\n        /* \"#utility.yul\":8623:9234   */\n      pop\n      pop\n      pop\n        /* \"#utility.yul\":8586:9473   */\n    tag_169:\n      pop\n        /* \"#utility.yul\":8176:9479   */\n      pop\n      pop\n      pop\n        /* \"#utility.yul\":8084:9479   */\n      pop\n      pop\n      jump\t// out\n\n    auxdata: 0xa2646970667358221220aaab688ac65c9f6969ac0ba8c7924a3cfdf0d6af6d888d12380ab05f1e77377964736f6c634300081e0033\n}\n",
				"bytecode": {
					"linkReferences": {},
					"object": "6080604052348015600e575f5ffd5b506106998061001c5f395ff3fe608060405260043610610037575f3560e01c806317d7de7c1461003a578063941be5f714610064578063c47f00271461008e57610038565b5b005b348015610045575f5ffd5b5061004e6100aa565b60405161005b91906101c2565b60405180910390f35b34801561006f575f5ffd5b50610078610139565b60405161008591906101fa565b60405180910390f35b6100a860048036038101906100a39190610350565b610140565b005b60605f80546100b8906103c4565b80601f01602080910402602001604051908101604052809291908181526020018280546100e4906103c4565b801561012f5780601f106101065761010080835404028352916020019161012f565b820191905f5260205f20905b81548152906001019060200180831161011257829003601f168201915b5050505050905090565b5f47905090565b805f908161014e9190610594565b5050565b5f81519050919050565b5f82825260208201905092915050565b8281835e5f83830152505050565b5f601f19601f8301169050919050565b5f61019482610152565b61019e818561015c565b93506101ae81856020860161016c565b6101b78161017a565b840191505092915050565b5f6020820190508181035f8301526101da818461018a565b905092915050565b5f819050919050565b6101f4816101e2565b82525050565b5f60208201905061020d5f8301846101eb565b92915050565b5f604051905090565b5f5ffd5b5f5ffd5b5f5ffd5b5f5ffd5b7f4e487b71000000000000000000000000000000000000000000000000000000005f52604160045260245ffd5b6102628261017a565b810181811067ffffffffffffffff821117156102815761028061022c565b5b80604052505050565b5f610293610213565b905061029f8282610259565b919050565b5f67ffffffffffffffff8211156102be576102bd61022c565b5b6102c78261017a565b9050602081019050919050565b828183375f83830152505050565b5f6102f46102ef846102a4565b61028a565b9050828152602081018484840111156103105761030f610228565b5b61031b8482856102d4565b509392505050565b5f82601f83011261033757610336610224565b5b81356103478482602086016102e2565b91505092915050565b5f602082840312156103655761036461021c565b5b5f82013567ffffffffffffffff81111561038257610381610220565b5b61038e84828501610323565b91505092915050565b7f4e487b71000000000000000000000000000000000000000000000000000000005f52602260045260245ffd5b5f60028204905060018216806103db57607f821691505b6020821081036103ee576103ed610397565b5b50919050565b5f819050815f5260205f209050919050565b5f6020601f8301049050919050565b5f82821b905092915050565b5f600883026104507fffffffffffffffffffffffffffffffffffffffffffffffffffffffffffffffff82610415565b61045a8683610415565b95508019841693508086168417925050509392505050565b5f819050919050565b5f61049561049061048b846101e2565b610472565b6101e2565b9050919050565b5f819050919050565b6104ae8361047b565b6104c26104ba8261049c565b848454610421565b825550505050565b5f5f905090565b6104d96104ca565b6104e48184846104a5565b505050565b5b81811015610507576104fc5f826104d1565b6001810190506104ea565b5050565b601f82111561054c5761051d816103f4565b61052684610406565b81016020851015610535578190505b61054961054185610406565b8301826104e9565b50505b505050565b5f82821c905092915050565b5f61056c5f1984600802610551565b1980831691505092915050565b5f610584838361055d565b9150826002028217905092915050565b61059d82610152565b67ffffffffffffffff8111156105b6576105b561022c565b5b6105c082546103c4565b6105cb82828561050b565b5f60209050601f8311600181146105fc575f84156105ea578287015190505b6105f48582610579565b86555061065b565b601f19841661060a866103f4565b5f5b828110156106315784890151825560018201915060208501945060208101905061060c565b8683101561064e578489015161064a601f89168261055d565b8355505b6001600288020188555050505b50505050505056fea2646970667358221220aaab688ac65c9f6969ac0ba8c7924a3cfdf0d6af6d888d12380ab05f1e77377964736f6c634300081e0033",
					"opcodes": "PUSH1 0x80 PUSH1 0x40 MSTORE CALLVALUE DUP1 ISZERO PUSH1 0xE JUMPI PUSH0 PUSH0 REVERT JUMPDEST POP PUSH2 0x699 DUP1 PUSH2 0x1C PUSH0 CODECOPY PUSH0 RETURN INVALID PUSH1 0x80 PUSH1 0x40 MSTORE PUSH1 0x4 CALLDATASIZE LT PUSH2 0x37 JUMPI PUSH0 CALLDATALOAD PUSH1 0xE0 SHR DUP1 PUSH4 0x17D7DE7C EQ PUSH2 0x3A JUMPI DUP1 PUSH4 0x941BE5F7 EQ PUSH2 0x64 JUMPI DUP1 PUSH4 0xC47F0027 EQ PUSH2 0x8E JUMPI PUSH2 0x38 JUMP JUMPDEST JUMPDEST STOP JUMPDEST CALLVALUE DUP1 ISZERO PUSH2 0x45 JUMPI PUSH0 PUSH0 REVERT JUMPDEST POP PUSH2 0x4E PUSH2 0xAA JUMP JUMPDEST PUSH1 0x40 MLOAD PUSH2 0x5B SWAP2 SWAP1 PUSH2 0x1C2 JUMP JUMPDEST PUSH1 0x40 MLOAD DUP1 SWAP2 SUB SWAP1 RETURN JUMPDEST CALLVALUE DUP1 ISZERO PUSH2 0x6F JUMPI PUSH0 PUSH0 REVERT JUMPDEST POP PUSH2 0x78 PUSH2 0x139 JUMP JUMPDEST PUSH1 0x40 MLOAD PUSH2 0x85 SWAP2 SWAP1 PUSH2 0x1FA JUMP JUMPDEST PUSH1 0x40 MLOAD DUP1 SWAP2 SUB SWAP1 RETURN JUMPDEST PUSH2 0xA8 PUSH1 0x4 DUP1 CALLDATASIZE SUB DUP2 ADD SWAP1 PUSH2 0xA3 SWAP2 SWAP1 PUSH2 0x350 JUMP JUMPDEST PUSH2 0x140 JUMP JUMPDEST STOP JUMPDEST PUSH1 0x60 PUSH0 DUP1 SLOAD PUSH2 0xB8 SWAP1 PUSH2 0x3C4 JUMP JUMPDEST DUP1 PUSH1 0x1F ADD PUSH1 0x20 DUP1 SWAP2 DIV MUL PUSH1 0x20 ADD PUSH1 0x40 MLOAD SWAP1 DUP2 ADD PUSH1 0x40 MSTORE DUP1 SWAP3 SWAP2 SWAP1 DUP2 DUP2 MSTORE PUSH1 0x20 ADD DUP3 DUP1 SLOAD PUSH2 0xE4 SWAP1 PUSH2 0x3C4 JUMP JUMPDEST DUP1 ISZERO PUSH2 0x12F JUMPI DUP1 PUSH1 0x1F LT PUSH2 0x106 JUMPI PUSH2 0x100 DUP1 DUP4 SLOAD DIV MUL DUP4 MSTORE SWAP2 PUSH1 0x20 ADD SWAP2 PUSH2 0x12F JUMP JUMPDEST DUP3 ADD SWAP2 SWAP1 PUSH0 MSTORE PUSH1 0x20 PUSH0 KECCAK256 SWAP1 JUMPDEST DUP2 SLOAD DUP2 MSTORE SWAP1 PUSH1 0x1 ADD SWAP1 PUSH1 0x20 ADD DUP1 DUP4 GT PUSH2 0x112 JUMPI DUP3 SWAP1 SUB PUSH1 0x1F AND DUP3 ADD SWAP2 JUMPDEST POP POP POP POP POP SWAP1 POP SWAP1 JUMP JUMPDEST PUSH0 SELFBALANCE SWAP1 POP SWAP1 JUMP JUMPDEST DUP1 PUSH0 SWAP1 DUP2 PUSH2 0x14E SWAP2 SWAP1 PUSH2 0x594 JUMP JUMPDEST POP POP JUMP JUMPDEST PUSH0 DUP2 MLOAD SWAP1 POP SWAP2 SWAP1 POP JUMP JUMPDEST PUSH0 DUP3 DUP3 MSTORE PUSH1 0x20 DUP3 ADD SWAP1 POP SWAP3 SWAP2 POP POP JUMP JUMPDEST DUP3 DUP2 DUP4 MCOPY PUSH0 DUP4 DUP4 ADD MSTORE POP POP POP JUMP JUMPDEST PUSH0 PUSH1 0x1F NOT PUSH1 0x1F DUP4 ADD AND SWAP1 POP SWAP2 SWAP1 POP JUMP JUMPDEST PUSH0 PUSH2 0x194 DUP3 PUSH2 0x152 JUMP JUMPDEST PUSH2 0x19E DUP2 DUP6 PUSH2 0x15C JUMP JUMPDEST SWAP4 POP PUSH2 0x1AE DUP2 DUP6 PUSH1 0x20 DUP7 ADD PUSH2 0x16C JUMP JUMPDEST PUSH2 0x1B7 DUP2 PUSH2 0x17A JUMP JUMPDEST DUP5 ADD SWAP2 POP POP SWAP3 SWAP2 POP POP JUMP JUMPDEST PUSH0 PUSH1 0x20 DUP3 ADD SWAP1 POP DUP2 DUP2 SUB PUSH0 DUP4 ADD MSTORE PUSH2 0x1DA DUP2 DUP5 PUSH2 0x18A JUMP JUMPDEST SWAP1 POP SWAP3 SWAP2 POP POP JUMP JUMPDEST PUSH0 DUP2 SWAP1 POP SWAP2 SWAP1 POP JUMP JUMPDEST PUSH2 0x1F4 DUP2 PUSH2 0x1E2 JUMP JUMPDEST DUP3 MSTORE POP POP JUMP JUMPDEST PUSH0 PUSH1 0x20 DUP3 ADD SWAP1 POP PUSH2 0x20D PUSH0 DUP4 ADD DUP5 PUSH2 0x1EB JUMP JUMPDEST SWAP3 SWAP2 POP POP JUMP JUMPDEST PUSH0 PUSH1 0x40 MLOAD SWAP1 POP SWAP1 JUMP JUMPDEST PUSH0 PUSH0 REVERT JUMPDEST PUSH0 PUSH0 REVERT JUMPDEST PUSH0 PUSH0 REVERT JUMPDEST PUSH0 PUSH0 REVERT JUMPDEST PUSH32 0x4E487B7100000000000000000000000000000000000000000000000000000000 PUSH0 MSTORE PUSH1 0x41 PUSH1 0x4 MSTORE PUSH1 0x24 PUSH0 REVERT JUMPDEST PUSH2 0x262 DUP3 PUSH2 0x17A JUMP JUMPDEST DUP2 ADD DUP2 DUP2 LT PUSH8 0xFFFFFFFFFFFFFFFF DUP3 GT OR ISZERO PUSH2 0x281 JUMPI PUSH2 0x280 PUSH2 0x22C JUMP JUMPDEST JUMPDEST DUP1 PUSH1 0x40 MSTORE POP POP POP JUMP JUMPDEST PUSH0 PUSH2 0x293 PUSH2 0x213 JUMP JUMPDEST SWAP1 POP PUSH2 0x29F DUP3 DUP3 PUSH2 0x259 JUMP JUMPDEST SWAP2 SWAP1 POP JUMP JUMPDEST PUSH0 PUSH8 0xFFFFFFFFFFFFFFFF DUP3 GT ISZERO PUSH2 0x2BE JUMPI PUSH2 0x2BD PUSH2 0x22C JUMP JUMPDEST JUMPDEST PUSH2 0x2C7 DUP3 PUSH2 0x17A JUMP JUMPDEST SWAP1 POP PUSH1 0x20 DUP2 ADD SWAP1 POP SWAP2 SWAP1 POP JUMP JUMPDEST DUP3 DUP2 DUP4 CALLDATACOPY PUSH0 DUP4 DUP4 ADD MSTORE POP POP POP JUMP JUMPDEST PUSH0 PUSH2 0x2F4 PUSH2 0x2EF DUP5 PUSH2 0x2A4 JUMP JUMPDEST PUSH2 0x28A JUMP JUMPDEST SWAP1 POP DUP3 DUP2 MSTORE PUSH1 0x20 DUP2 ADD DUP5 DUP5 DUP5 ADD GT ISZERO PUSH2 0x310 JUMPI PUSH2 0x30F PUSH2 0x228 JUMP JUMPDEST JUMPDEST PUSH2 0x31B DUP5 DUP3 DUP6 PUSH2 0x2D4 JUMP JUMPDEST POP SWAP4 SWAP3 POP POP POP JUMP JUMPDEST PUSH0 DUP3 PUSH1 0x1F DUP4 ADD SLT PUSH2 0x337 JUMPI PUSH2 0x336 PUSH2 0x224 JUMP JUMPDEST JUMPDEST DUP2 CALLDATALOAD PUSH2 0x347 DUP5 DUP3 PUSH1 0x20 DUP7 ADD PUSH2 0x2E2 JUMP JUMPDEST SWAP2 POP POP SWAP3 SWAP2 POP POP JUMP JUMPDEST PUSH0 PUSH1 0x20 DUP3 DUP5 SUB SLT ISZERO PUSH2 0x365 JUMPI PUSH2 0x364 PUSH2 0x21C JUMP JUMPDEST JUMPDEST PUSH0 DUP3 ADD CALLDATALOAD PUSH8 0xFFFFFFFFFFFFFFFF DUP2 GT ISZERO PUSH2 0x382 JUMPI PUSH2 0x381 PUSH2 0x220 JUMP JUMPDEST JUMPDEST PUSH2 0x38E DUP5 DUP3 DUP6 ADD PUSH2 0x323 JUMP JUMPDEST SWAP2 POP POP SWAP3 SWAP2 POP POP JUMP JUMPDEST PUSH32 0x4E487B7100000000000000000000000000000000000000000000000000000000 PUSH0 MSTORE PUSH1 0x22 PUSH1 0x4 MSTORE PUSH1 0x24 PUSH0 REVERT JUMPDEST PUSH0 PUSH1 0x2 DUP3 DIV SWAP1 POP PUSH1 0x1 DUP3 AND DUP1 PUSH2 0x3DB JUMPI PUSH1 0x7F DUP3 AND SWAP2 POP JUMPDEST PUSH1 0x20 DUP3 LT DUP2 SUB PUSH2 0x3EE JUMPI PUSH2 0x3ED PUSH2 0x397 JUMP JUMPDEST JUMPDEST POP SWAP2 SWAP1 POP JUMP JUMPDEST PUSH0 DUP2 SWAP1 POP DUP2 PUSH0 MSTORE PUSH1 0x20 PUSH0 KECCAK256 SWAP1 POP SWAP2 SWAP1 POP JUMP JUMPDEST PUSH0 PUSH1 0x20 PUSH1 0x1F DUP4 ADD DIV SWAP1 POP SWAP2 SWAP1 POP JUMP JUMPDEST PUSH0 DUP3 DUP3 SHL SWAP1 POP SWAP3 SWAP2 POP POP JUMP JUMPDEST PUSH0 PUSH1 0x8 DUP4 MUL PUSH2 0x450 PUSH32 0xFFFFFFFFFFFFFFFFFFFFFFFFFFFFFFFFFFFFFFFFFFFFFFFFFFFFFFFFFFFFFFFF DUP3 PUSH2 0x415 JUMP JUMPDEST PUSH2 0x45A DUP7 DUP4 PUSH2 0x415 JUMP JUMPDEST SWAP6 POP DUP1 NOT DUP5 AND SWAP4 POP DUP1 DUP7 AND DUP5 OR SWAP3 POP POP POP SWAP4 SWAP3 POP POP POP JUMP JUMPDEST PUSH0 DUP2 SWAP1 POP SWAP2 SWAP1 POP JUMP JUMPDEST PUSH0 PUSH2 0x495 PUSH2 0x490 PUSH2 0x48B DUP5 PUSH2 0x1E2 JUMP JUMPDEST PUSH2 0x472 JUMP JUMPDEST PUSH2 0x1E2 JUMP JUMPDEST SWAP1 POP SWAP2 SWAP1 POP JUMP JUMPDEST PUSH0 DUP2 SWAP1 POP SWAP2 SWAP1 POP JUMP JUMPDEST PUSH2 0x4AE DUP4 PUSH2 0x47B JUMP JUMPDEST PUSH2 0x4C2 PUSH2 0x4BA DUP3 PUSH2 0x49C JUMP JUMPDEST DUP5 DUP5 SLOAD PUSH2 0x421 JUMP JUMPDEST DUP3 SSTORE POP POP POP POP JUMP JUMPDEST PUSH0 PUSH0 SWAP1 POP SWAP1 JUMP JUMPDEST PUSH2 0x4D9 PUSH2 0x4CA JUMP JUMPDEST PUSH2 0x4E4 DUP2 DUP5 DUP5 PUSH2 0x4A5 JUMP JUMPDEST POP POP POP JUMP JUMPDEST JUMPDEST DUP2 DUP2 LT ISZERO PUSH2 0x507 JUMPI PUSH2 0x4FC PUSH0 DUP3 PUSH2 0x4D1 JUMP JUMPDEST PUSH1 0x1 DUP2 ADD SWAP1 POP PUSH2 0x4EA JUMP JUMPDEST POP POP JUMP JUMPDEST PUSH1 0x1F DUP3 GT ISZERO PUSH2 0x54C JUMPI PUSH2 0x51D DUP2 PUSH2 0x3F4 JUMP JUMPDEST PUSH2 0x526 DUP5 PUSH2 0x406 JUMP JUMPDEST DUP2 ADD PUSH1 0x20 DUP6 LT ISZERO PUSH2 0x535 JUMPI DUP2 SWAP1 POP JUMPDEST PUSH2 0x549 PUSH2 0x541 DUP6 PUSH2 0x406 JUMP JUMPDEST DUP4 ADD DUP3 PUSH2 0x4E9 JUMP JUMPDEST POP POP JUMPDEST POP POP POP JUMP JUMPDEST PUSH0 DUP3 DUP3 SHR SWAP1 POP SWAP3 SWAP2 POP POP JUMP JUMPDEST PUSH0 PUSH2 0x56C PUSH0 NOT DUP5 PUSH1 0x8 MUL PUSH2 0x551 JUMP JUMPDEST NOT DUP1 DUP4 AND SWAP2 POP POP SWAP3 SWAP2 POP POP JUMP JUMPDEST PUSH0 PUSH2 0x584 DUP4 DUP4 PUSH2 0x55D JUMP JUMPDEST SWAP2 POP DUP3 PUSH1 0x2 MUL DUP3 OR SWAP1 POP SWAP3 SWAP2 POP POP JUMP JUMPDEST PUSH2 0x59D DUP3 PUSH2 0x152 JUMP JUMPDEST PUSH8 0xFFFFFFFFFFFFFFFF DUP2 GT ISZERO PUSH2 0x5B6 JUMPI PUSH2 0x5B5 PUSH2 0x22C JUMP JUMPDEST JUMPDEST PUSH2 0x5C0 DUP3 SLOAD PUSH2 0x3C4 JUMP JUMPDEST PUSH2 0x5CB DUP3 DUP3 DUP6 PUSH2 0x50B JUMP JUMPDEST PUSH0 PUSH1 0x20 SWAP1 POP PUSH1 0x1F DUP4 GT PUSH1 0x1 DUP2 EQ PUSH2 0x5FC JUMPI PUSH0 DUP5 ISZERO PUSH2 0x5EA JUMPI DUP3 DUP8 ADD MLOAD SWAP1 POP JUMPDEST PUSH2 0x5F4 DUP6 DUP3 PUSH2 0x579 JUMP JUMPDEST DUP7 SSTORE POP PUSH2 0x65B JUMP JUMPDEST PUSH1 0x1F NOT DUP5 AND PUSH2 0x60A DUP7 PUSH2 0x3F4 JUMP JUMPDEST PUSH0 JUMPDEST DUP3 DUP2 LT ISZERO PUSH2 0x631 JUMPI DUP5 DUP10 ADD MLOAD DUP3 SSTORE PUSH1 0x1 DUP3 ADD SWAP2 POP PUSH1 0x20 DUP6 ADD SWAP5 POP PUSH1 0x20 DUP2 ADD SWAP1 POP PUSH2 0x60C JUMP JUMPDEST DUP7 DUP4 LT ISZERO PUSH2 0x64E JUMPI DUP5 DUP10 ADD MLOAD PUSH2 0x64A PUSH1 0x1F DUP10 AND DUP3 PUSH2 0x55D JUMP JUMPDEST DUP4 SSTORE POP JUMPDEST PUSH1 0x1 PUSH1 0x2 DUP9 MUL ADD DUP9 SSTORE POP POP POP JUMPDEST POP POP POP POP POP POP JUMP INVALID LOG2 PUSH5 0x6970667358 0x22 SLT KECCAK256 0xAA 0xAB PUSH9 0x8AC65C9F6969AC0BA8 0xC7 SWAP3 BLOBBASEFEE EXTCODECOPY REVERT CREATE 0xD6 0xAF PUSH14 0x888D12380AB05F1E77377964736F PUSH13 0x634300081E0033000000000000 "
				},
				"gasEstimates": {
					"creation": {
						"codeDepositCost": "337800",
						"executionCost": "372",
						"totalCost": "338172"
					},
					"external": {
						"": "128",
						"getBlance()": "334",
						"getName()": "infinite",
						"setName(string)": "infinite"
					}
				},
				"methodIdentifiers": {
					"getBlance()": "941be5f7",
					"getName()": "17d7de7c",
					"setName(string)": "c47f0027"
				}
			},
			"storageLayout": {
				"storage": [
					{
						"astId": 3,
						"contract": "contracts/helloep26.sol:User",
						"label": "name",
						"offset": 0,
						"slot": "0",
						"type": "t_string_storage"
					}
				],
				"types": {
					"t_string_storage": {
						"encoding": "bytes",
						"label": "string",
						"numberOfBytes": "32"
					}
				}
			},
			"userdoc": {
				"kind": "user",
				"methods": {},
				"version": 1
			}
		}
	}
}