{
	"contracts/helloep14.sol": {
		"classB": {
			"abi": [
				{
					"inputs": [],
					"name": "ParentMethodA",
					"outputs": [
						{
							"internalType": "string",
							"name": "",
							"type": "string"
						}
					],
					"stateMutability": "pure",
					"type": "function"
				},
				{
					"inputs": [],
					"name": "callParent",
					"outputs": [
						{
							"internalType": "string",
							"name": "",
							"type": "string"
						}
					],
					"stateMutability": "pure",
					"type": "function"
				},
				{
					"inputs": [],
					"name": "methodA",
					"outputs": [
						{
							"internalType": "string",
							"name": "",
							"type": "string"
						}
					],
					"stateMutability": "pure",
					"type": "function"
				},
				{
					"inputs": [],
					"name": "methodB",
					"outputs": [
						{
							"internalType": "string",
							"name": "",
							"type": "string"
						}
					],
					"stateMutability": "pure",
					"type": "function"
				},
				{
					"inputs": [],
					"name": "test",
					"outputs": [
						{
							"internalType": "string",
							"name": "",
							"type": "string"
						}
					],
					"stateMutability": "pure",
					"type": "function"
				}
			],
			"devdoc": {
				"kind": "dev",
				"methods": {},
				"version": 1
			},
			"evm": {
				"assembly": "    /* \"contracts/helloep14.sol\":977:1114  contract classB is classA{... */\n  mstore(0x40, 0x80)\n  callvalue\n  dup1\n  iszero\n  tag_1\n  jumpi\n  revert(0x00, 0x00)\ntag_1:\n  pop\n  dataSize(sub_0)\n  dup1\n  dataOffset(sub_0)\n  0x00\n  codecopy\n  0x00\n  return\nstop\n\nsub_0: assembly {\n        /* \"contracts/helloep14.sol\":977:1114  contract classB is classA{... */\n      mstore(0x40, 0x80)\n      callvalue\n      dup1\n      iszero\n      tag_1\n      jumpi\n      revert(0x00, 0x00)\n    tag_1:\n      pop\n      jumpi(tag_2, lt(calldatasize, 0x04))\n      shr(0xe0, calldataload(0x00))\n      dup1\n      0x270c7016\n      eq\n      tag_3\n      jumpi\n      dup1\n      0x572e47ae\n      eq\n      tag_4\n      jumpi\n      dup1\n      0x81bda09b\n      eq\n      tag_5\n      jumpi\n      dup1\n      0xdb5b359b\n      eq\n      tag_6\n      jumpi\n      dup1\n      0xf8a8fd6d\n      eq\n      tag_7\n      jumpi\n    tag_2:\n      revert(0x00, 0x00)\n        /* \"contracts/helloep14.sol\":605:721  function methodB() external pure   override returns (string memory){... */\n    tag_3:\n      tag_8\n      tag_9\n      jump\t// in\n    tag_8:\n      mload(0x40)\n      tag_10\n      swap2\n      swap1\n      tag_11\n      jump\t// in\n    tag_10:\n      mload(0x40)\n      dup1\n      swap2\n      sub\n      swap1\n      return\n        /* \"contracts/helloep14.sol\":729:834  function callParent() public pure  returns (string memory){... */\n    tag_4:\n      tag_12\n      tag_13\n      jump\t// in\n    tag_12:\n      mload(0x40)\n      tag_14\n      swap2\n      swap1\n      tag_11\n      jump\t// in\n    tag_14:\n      mload(0x40)\n      dup1\n      swap2\n      sub\n      swap1\n      return\n        /* \"contracts/helloep14.sol\":477:593  function methodA() external pure   override returns (string memory){... */\n    tag_5:\n      tag_15\n      tag_16\n      jump\t// in\n    tag_15:\n      mload(0x40)\n      tag_17\n      swap2\n      swap1\n      tag_11\n      jump\t// in\n    tag_17:\n      mload(0x40)\n      dup1\n      swap2\n      sub\n      swap1\n      return\n        /* \"contracts/helloep14.sol\":842:970  function ParentMethodA () public  pure override returns (string memory){... */\n    tag_6:\n      tag_18\n      tag_19\n      jump\t// in\n    tag_18:\n      mload(0x40)\n      tag_20\n      swap2\n      swap1\n      tag_11\n      jump\t// in\n    tag_20:\n      mload(0x40)\n      dup1\n      swap2\n      sub\n      swap1\n      return\n        /* \"contracts/helloep14.sol\":1009:1109  function test() public pure returns (string memory)  {... */\n    tag_7:\n      tag_21\n      tag_22\n      jump\t// in\n    tag_21:\n      mload(0x40)\n      tag_23\n      swap2\n      swap1\n      tag_11\n      jump\t// in\n    tag_23:\n      mload(0x40)\n      dup1\n      swap2\n      sub\n      swap1\n      return\n        /* \"contracts/helloep14.sol\":605:721  function methodB() external pure   override returns (string memory){... */\n    tag_9:\n        /* \"contracts/helloep14.sol\":658:671  string memory */\n      0x60\n        /* \"contracts/helloep14.sol\":683:713  return \"this override methodB\" */\n      mload(0x40)\n      dup1\n      0x40\n      add\n      0x40\n      mstore\n      dup1\n      0x15\n      dup2\n      mstore\n      0x20\n      add\n      0x74686973206f76657272696465206d6574686f64420000000000000000000000\n      dup2\n      mstore\n      pop\n      swap1\n      pop\n        /* \"contracts/helloep14.sol\":605:721  function methodB() external pure   override returns (string memory){... */\n      swap1\n      jump\t// out\n        /* \"contracts/helloep14.sol\":729:834  function callParent() public pure  returns (string memory){... */\n    tag_13:\n        /* \"contracts/helloep14.sol\":773:786  string memory */\n      0x60\n        /* \"contracts/helloep14.sol\":805:826  super.ParentMethodA() */\n      tag_26\n        /* \"contracts/helloep14.sol\":805:824  super.ParentMethodA */\n      tag_27\n        /* \"contracts/helloep14.sol\":805:826  super.ParentMethodA() */\n      jump\t// in\n    tag_26:\n        /* \"contracts/helloep14.sol\":798:826  return super.ParentMethodA() */\n      swap1\n      pop\n        /* \"contracts/helloep14.sol\":729:834  function callParent() public pure  returns (string memory){... */\n      swap1\n      jump\t// out\n        /* \"contracts/helloep14.sol\":477:593  function methodA() external pure   override returns (string memory){... */\n    tag_16:\n        /* \"contracts/helloep14.sol\":530:543  string memory */\n      0x60\n        /* \"contracts/helloep14.sol\":555:585  return \"this override methodA\" */\n      mload(0x40)\n      dup1\n      0x40\n      add\n      0x40\n      mstore\n      dup1\n      0x15\n      dup2\n      mstore\n      0x20\n      add\n      0x74686973206f76657272696465206d6574686f64410000000000000000000000\n      dup2\n      mstore\n      pop\n      swap1\n      pop\n        /* \"contracts/helloep14.sol\":477:593  function methodA() external pure   override returns (string memory){... */\n      swap1\n      jump\t// out\n        /* \"contracts/helloep14.sol\":842:970  function ParentMethodA () public  pure override returns (string memory){... */\n    tag_19:\n        /* \"contracts/helloep14.sol\":899:912  string memory */\n      0x60\n        /* \"contracts/helloep14.sol\":924:962  return \"this is parentMethod override\" */\n      mload(0x40)\n      dup1\n      0x40\n      add\n      0x40\n      mstore\n      dup1\n      0x1d\n      dup2\n      mstore\n      0x20\n      add\n      0x7468697320697320706172656e744d6574686f64206f76657272696465000000\n      dup2\n      mstore\n      pop\n      swap1\n      pop\n        /* \"contracts/helloep14.sol\":842:970  function ParentMethodA () public  pure override returns (string memory){... */\n      swap1\n      jump\t// out\n        /* \"contracts/helloep14.sol\":1009:1109  function test() public pure returns (string memory)  {... */\n    tag_22:\n        /* \"contracts/helloep14.sol\":1046:1059  string memory */\n      0x60\n        /* \"contracts/helloep14.sol\":1080:1101  super.ParentMethodA() */\n      tag_31\n        /* \"contracts/helloep14.sol\":1080:1099  super.ParentMethodA */\n      tag_19\n        /* \"contracts/helloep14.sol\":1080:1101  super.ParentMethodA() */\n      jump\t// in\n    tag_31:\n        /* \"contracts/helloep14.sol\":1073:1101  return super.ParentMethodA() */\n      swap1\n      pop\n        /* \"contracts/helloep14.sol\":1009:1109  function test() public pure returns (string memory)  {... */\n      swap1\n      jump\t// out\n        /* \"contracts/helloep14.sol\":277:395  function ParentMethodA() virtual  public  pure returns (string memory){... */\n    tag_27:\n        /* \"contracts/helloep14.sol\":333:346  string memory */\n      0x60\n        /* \"contracts/helloep14.sol\":358:387  return \"this is parentMethod\" */\n      mload(0x40)\n      dup1\n      0x40\n      add\n      0x40\n      mstore\n      dup1\n      0x14\n      dup2\n      mstore\n      0x20\n      add\n      0x7468697320697320706172656e744d6574686f64000000000000000000000000\n      dup2\n      mstore\n      pop\n      swap1\n      pop\n        /* \"contracts/helloep14.sol\":277:395  function ParentMethodA() virtual  public  pure returns (string memory){... */\n      swap1\n      jump\t// out\n        /* \"#utility.yul\":7:106   */\n    tag_33:\n        /* \"#utility.yul\":59:65   */\n      0x00\n        /* \"#utility.yul\":93:98   */\n      dup2\n        /* \"#utility.yul\":87:99   */\n      mload\n        /* \"#utility.yul\":77:99   */\n      swap1\n      pop\n        /* \"#utility.yul\":7:106   */\n      swap2\n      swap1\n      pop\n      jump\t// out\n        /* \"#utility.yul\":112:281   */\n    tag_34:\n        /* \"#utility.yul\":196:207   */\n      0x00\n        /* \"#utility.yul\":230:236   */\n      dup3\n        /* \"#utility.yul\":225:228   */\n      dup3\n        /* \"#utility.yul\":218:237   */\n      mstore\n        /* \"#utility.yul\":270:274   */\n      0x20\n        /* \"#utility.yul\":265:268   */\n      dup3\n        /* \"#utility.yul\":261:275   */\n      add\n        /* \"#utility.yul\":246:275   */\n      swap1\n      pop\n        /* \"#utility.yul\":112:281   */\n      swap3\n      swap2\n      pop\n      pop\n      jump\t// out\n        /* \"#utility.yul\":287:426   */\n    tag_35:\n        /* \"#utility.yul\":376:382   */\n      dup3\n        /* \"#utility.yul\":371:374   */\n      dup2\n        /* \"#utility.yul\":366:369   */\n      dup4\n        /* \"#utility.yul\":360:383   */\n      mcopy\n        /* \"#utility.yul\":417:418   */\n      0x00\n        /* \"#utility.yul\":408:414   */\n      dup4\n        /* \"#utility.yul\":403:406   */\n      dup4\n        /* \"#utility.yul\":399:415   */\n      add\n        /* \"#utility.yul\":392:419   */\n      mstore\n        /* \"#utility.yul\":287:426   */\n      pop\n      pop\n      pop\n      jump\t// out\n        /* \"#utility.yul\":432:534   */\n    tag_36:\n        /* \"#utility.yul\":473:479   */\n      0x00\n        /* \"#utility.yul\":524:526   */\n      0x1f\n        /* \"#utility.yul\":520:527   */\n      not\n        /* \"#utility.yul\":515:517   */\n      0x1f\n        /* \"#utility.yul\":508:513   */\n      dup4\n        /* \"#utility.yul\":504:518   */\n      add\n        /* \"#utility.yul\":500:528   */\n      and\n        /* \"#utility.yul\":490:528   */\n      swap1\n      pop\n        /* \"#utility.yul\":432:534   */\n      swap2\n      swap1\n      pop\n      jump\t// out\n        /* \"#utility.yul\":540:917   */\n    tag_37:\n        /* \"#utility.yul\":628:631   */\n      0x00\n        /* \"#utility.yul\":656:695   */\n      tag_44\n        /* \"#utility.yul\":689:694   */\n      dup3\n        /* \"#utility.yul\":656:695   */\n      tag_33\n      jump\t// in\n    tag_44:\n        /* \"#utility.yul\":711:782   */\n      tag_45\n        /* \"#utility.yul\":775:781   */\n      dup2\n        /* \"#utility.yul\":770:773   */\n      dup6\n        /* \"#utility.yul\":711:782   */\n      tag_34\n      jump\t// in\n    tag_45:\n        /* \"#utility.yul\":704:782   */\n      swap4\n      pop\n        /* \"#utility.yul\":791:856   */\n      tag_46\n        /* \"#utility.yul\":849:855   */\n      dup2\n        /* \"#utility.yul\":844:847   */\n      dup6\n        /* \"#utility.yul\":837:841   */\n      0x20\n        /* \"#utility.yul\":830:835   */\n      dup7\n        /* \"#utility.yul\":826:842   */\n      add\n        /* \"#utility.yul\":791:856   */\n      tag_35\n      jump\t// in\n    tag_46:\n        /* \"#utility.yul\":881:910   */\n      tag_47\n        /* \"#utility.yul\":903:909   */\n      dup2\n        /* \"#utility.yul\":881:910   */\n      tag_36\n      jump\t// in\n    tag_47:\n        /* \"#utility.yul\":876:879   */\n      dup5\n        /* \"#utility.yul\":872:911   */\n      add\n        /* \"#utility.yul\":865:911   */\n      swap2\n      pop\n        /* \"#utility.yul\":632:917   */\n      pop\n        /* \"#utility.yul\":540:917   */\n      swap3\n      swap2\n      pop\n      pop\n      jump\t// out\n        /* \"#utility.yul\":923:1236   */\n    tag_11:\n        /* \"#utility.yul\":1036:1040   */\n      0x00\n        /* \"#utility.yul\":1074:1076   */\n      0x20\n        /* \"#utility.yul\":1063:1072   */\n      dup3\n        /* \"#utility.yul\":1059:1077   */\n      add\n        /* \"#utility.yul\":1051:1077   */\n      swap1\n      pop\n        /* \"#utility.yul\":1123:1132   */\n      dup2\n        /* \"#utility.yul\":1117:1121   */\n      dup2\n        /* \"#utility.yul\":1113:1133   */\n      sub\n        /* \"#utility.yul\":1109:1110   */\n      0x00\n        /* \"#utility.yul\":1098:1107   */\n      dup4\n        /* \"#utility.yul\":1094:1111   */\n      add\n        /* \"#utility.yul\":1087:1134   */\n      mstore\n        /* \"#utility.yul\":1151:1229   */\n      tag_49\n        /* \"#utility.yul\":1224:1228   */\n      dup2\n        /* \"#utility.yul\":1215:1221   */\n      dup5\n        /* \"#utility.yul\":1151:1229   */\n      tag_37\n      jump\t// in\n    tag_49:\n        /* \"#utility.yul\":1143:1229   */\n      swap1\n      pop\n        /* \"#utility.yul\":923:1236   */\n      swap3\n      swap2\n      pop\n      pop\n      jump\t// out\n\n    auxdata: 0xa2646970667358221220da998c955ea7ddcb5e472ecca7b984a938879231ed7d35f7b49484de0355576b64736f6c634300081e0033\n}\n",
				"bytecode": {
					"linkReferences": {},
					"object": "6080604052348015600e575f5ffd5b506102c78061001c5f395ff3fe608060405234801561000f575f5ffd5b5060043610610055575f3560e01c8063270c701614610059578063572e47ae1461007757806381bda09b14610095578063db5b359b146100b3578063f8a8fd6d146100d1575b5f5ffd5b6100616100ef565b60405161006e9190610271565b60405180910390f35b61007f61012c565b60405161008c9190610271565b60405180910390f35b61009d61013b565b6040516100aa9190610271565b60405180910390f35b6100bb610178565b6040516100c89190610271565b60405180910390f35b6100d96101b5565b6040516100e69190610271565b60405180910390f35b60606040518060400160405280601581526020017f74686973206f76657272696465206d6574686f64420000000000000000000000815250905090565b60606101366101c4565b905090565b60606040518060400160405280601581526020017f74686973206f76657272696465206d6574686f64410000000000000000000000815250905090565b60606040518060400160405280601d81526020017f7468697320697320706172656e744d6574686f64206f76657272696465000000815250905090565b60606101bf610178565b905090565b60606040518060400160405280601481526020017f7468697320697320706172656e744d6574686f64000000000000000000000000815250905090565b5f81519050919050565b5f82825260208201905092915050565b8281835e5f83830152505050565b5f601f19601f8301169050919050565b5f61024382610201565b61024d818561020b565b935061025d81856020860161021b565b61026681610229565b840191505092915050565b5f6020820190508181035f8301526102898184610239565b90509291505056fea2646970667358221220da998c955ea7ddcb5e472ecca7b984a938879231ed7d35f7b49484de0355576b64736f6c634300081e0033",
					"opcodes": "PUSH1 0x80 PUSH1 0x40 MSTORE CALLVALUE DUP1 ISZERO PUSH1 0xE JUMPI PUSH0 PUSH0 REVERT JUMPDEST POP PUSH2 0x2C7 DUP1 PUSH2 0x1C PUSH0 CODECOPY PUSH0 RETURN INVALID PUSH1 0x80 PUSH1 0x40 MSTORE CALLVALUE DUP1 ISZERO PUSH2 0xF JUMPI PUSH0 PUSH0 REVERT JUMPDEST POP PUSH1 0x4 CALLDATASIZE LT PUSH2 0x55 JUMPI PUSH0 CALLDATALOAD PUSH1 0xE0 SHR DUP1 PUSH4 0x270C7016 EQ PUSH2 0x59 JUMPI DUP1 PUSH4 0x572E47AE EQ PUSH2 0x77 JUMPI DUP1 PUSH4 0x81BDA09B EQ PUSH2 0x95 JUMPI DUP1 PUSH4 0xDB5B359B EQ PUSH2 0xB3 JUMPI DUP1 PUSH4 0xF8A8FD6D EQ PUSH2 0xD1 JUMPI JUMPDEST PUSH0 PUSH0 REVERT JUMPDEST PUSH2 0x61 PUSH2 0xEF JUMP JUMPDEST PUSH1 0x40 MLOAD PUSH2 0x6E SWAP2 SWAP1 PUSH2 0x271 JUMP JUMPDEST PUSH1 0x40 MLOAD DUP1 SWAP2 SUB SWAP1 RETURN JUMPDEST PUSH2 0x7F PUSH2 0x12C JUMP JUMPDEST PUSH1 0x40 MLOAD PUSH2 0x8C SWAP2 SWAP1 PUSH2 0x271 JUMP JUMPDEST PUSH1 0x40 MLOAD DUP1 SWAP2 SUB SWAP1 RETURN JUMPDEST PUSH2 0x9D PUSH2 0x13B JUMP JUMPDEST PUSH1 0x40 MLOAD PUSH2 0xAA SWAP2 SWAP1 PUSH2 0x271 JUMP JUMPDEST PUSH1 0x40 MLOAD DUP1 SWAP2 SUB SWAP1 RETURN JUMPDEST PUSH2 0xBB PUSH2 0x178 JUMP JUMPDEST PUSH1 0x40 MLOAD PUSH2 0xC8 SWAP2 SWAP1 PUSH2 0x271 JUMP JUMPDEST PUSH1 0x40 MLOAD DUP1 SWAP2 SUB SWAP1 RETURN JUMPDEST PUSH2 0xD9 PUSH2 0x1B5 JUMP JUMPDEST PUSH1 0x40 MLOAD PUSH2 0xE6 SWAP2 SWAP1 PUSH2 0x271 JUMP JUMPDEST PUSH1 0x40 MLOAD DUP1 SWAP2 SUB SWAP1 RETURN JUMPDEST PUSH1 0x60 PUSH1 0x40 MLOAD DUP1 PUSH1 0x40 ADD PUSH1 0x40 MSTORE DUP1 PUSH1 0x15 DUP2 MSTORE PUSH1 0x20 ADD PUSH32 0x74686973206F76657272696465206D6574686F64420000000000000000000000 DUP2 MSTORE POP SWAP1 POP SWAP1 JUMP JUMPDEST PUSH1 0x60 PUSH2 0x136 PUSH2 0x1C4 JUMP JUMPDEST SWAP1 POP SWAP1 JUMP JUMPDEST PUSH1 0x60 PUSH1 0x40 MLOAD DUP1 PUSH1 0x40 ADD PUSH1 0x40 MSTORE DUP1 PUSH1 0x15 DUP2 MSTORE PUSH1 0x20 ADD PUSH32 0x74686973206F76657272696465206D6574686F64410000000000000000000000 DUP2 MSTORE POP SWAP1 POP SWAP1 JUMP JUMPDEST PUSH1 0x60 PUSH1 0x40 MLOAD DUP1 PUSH1 0x40 ADD PUSH1 0x40 MSTORE DUP1 PUSH1 0x1D DUP2 MSTORE PUSH1 0x20 ADD PUSH32 0x7468697320697320706172656E744D6574686F64206F76657272696465000000 DUP2 MSTORE POP SWAP1 POP SWAP1 JUMP JUMPDEST PUSH1 0x60 PUSH2 0x1BF PUSH2 0x178 JUMP JUMPDEST SWAP1 POP SWAP1 JUMP JUMPDEST PUSH1 0x60 PUSH1 0x40 MLOAD DUP1 PUSH1 0x40 ADD PUSH1 0x40 MSTORE DUP1 PUSH1 0x14 DUP2 MSTORE PUSH1 0x20 ADD PUSH32 0x7468697320697320706172656E744D6574686F64000000000000000000000000 DUP2 MSTORE POP SWAP1 POP SWAP1 JUMP JUMPDEST PUSH0 DUP2 MLOAD SWAP1 POP SWAP2 SWAP1 POP JUMP JUMPDEST PUSH0 DUP3 DUP3 MSTORE PUSH1 0x20 DUP3 ADD SWAP1 POP SWAP3 SWAP2 POP POP JUMP JUMPDEST DUP3 DUP2 DUP4 MCOPY PUSH0 DUP4 DUP4 ADD MSTORE POP POP POP JUMP JUMPDEST PUSH0 PUSH1 0x1F NOT PUSH1 0x1F DUP4 ADD AND SWAP1 POP SWAP2 SWAP1 POP JUMP JUMPDEST PUSH0 PUSH2 0x243 DUP3 PUSH2 0x201 JUMP JUMPDEST PUSH2 0x24D DUP2 DUP6 PUSH2 0x20B JUMP JUMPDEST SWAP4 POP PUSH2 0x25D DUP2 DUP6 PUSH1 0x20 DUP7 ADD PUSH2 0x21B JUMP JUMPDEST PUSH2 0x266 DUP2 PUSH2 0x229 JUMP JUMPDEST DUP5 ADD SWAP2 POP POP SWAP3 SWAP2 POP POP JUMP JUMPDEST PUSH0 PUSH1 0x20 DUP3 ADD SWAP1 POP DUP2 DUP2 SUB PUSH0 DUP4 ADD MSTORE PUSH2 0x289 DUP2 DUP5 PUSH2 0x239 JUMP JUMPDEST SWAP1 POP SWAP3 SWAP2 POP POP JUMP INVALID LOG2 PUSH5 0x6970667358 0x22 SLT KECCAK256 0xDA SWAP10 DUP13 SWAP6 MCOPY 0xA7 0xDD 0xCB MCOPY SELFBALANCE 0x2E 0xCC 0xA7 0xB9 DUP5 0xA9 CODESIZE DUP8 SWAP3 BALANCE 0xED PUSH30 0x35F7B49484DE0355576B64736F6C634300081E0033000000000000000000 "
				},
				"gasEstimates": {
					"creation": {
						"codeDepositCost": "142200",
						"executionCost": "188",
						"totalCost": "142388"
					},
					"external": {
						"ParentMethodA()": "infinite",
						"callParent()": "infinite",
						"methodA()": "infinite",
						"methodB()": "infinite",
						"test()": "infinite"
					}
				},
				"methodIdentifiers": {
					"ParentMethodA()": "db5b359b",
					"callParent()": "572e47ae",
					"methodA()": "81bda09b",
					"methodB()": "270c7016",
					"test()": "f8a8fd6d"
				}
			},
			"storageLayout": {
				"storage": [],
				"types": null
			},
			"userdoc": {
				"kind": "user",
				"methods": {},
				"version": 1
			}
		}
	}
}