{
	"contracts/helloep2.sol": {
		"hello2": {
			"abi": [
				{
					"inputs": [
						{
							"internalType": "uint256",
							"name": "a",
							"type": "uint256"
						},
						{
							"internalType": "uint256",
							"name": "b",
							"type": "uint256"
						}
					],
					"name": "add",
					"outputs": [
						{
							"internalType": "uint256",
							"name": "",
							"type": "uint256"
						}
					],
					"stateMutability": "pure",
					"type": "function"
				},
				{
					"inputs": [
						{
							"internalType": "uint256",
							"name": "a",
							"type": "uint256"
						},
						{
							"internalType": "uint256",
							"name": "b",
							"type": "uint256"
						}
					],
					"name": "div",
					"outputs": [
						{
							"internalType": "uint256",
							"name": "",
							"type": "uint256"
						}
					],
					"stateMutability": "pure",
					"type": "function"
				},
				{
					"inputs": [],
					"name": "getName",
					"outputs": [
						{
							"internalType": "string",
							"name": "",
							"type": "string"
						}
					],
					"stateMutability": "pure",
					"type": "function"
				},
				{
					"inputs": [
						{
							"internalType": "uint256",
							"name": "a",
							"type": "uint256"
						},
						{
							"internalType": "uint256",
							"name": "b",
							"type": "uint256"
						}
					],
					"name": "mul",
					"outputs": [
						{
							"internalType": "uint256",
							"name": "",
							"type": "uint256"
						}
					],
					"stateMutability": "pure",
					"type": "function"
				},
				{
					"inputs": [
						{
							"internalType": "uint256",
							"name": "a",
							"type": "uint256"
						},
						{
							"internalType": "uint256",
							"name": "b",
							"type": "uint256"
						}
					],
					"name": "sub",
					"outputs": [
						{
							"internalType": "uint256",
							"name": "",
							"type": "uint256"
						}
					],
					"stateMutability": "pure",
					"type": "function"
				},
				{
					"inputs": [
						{
							"internalType": "uint256",
							"name": "a",
							"type": "uint256"
						},
						{
							"internalType": "uint256",
							"name": "b",
							"type": "uint256"
						},
						{
							"internalType": "uint256",
							"name": "c",
							"type": "uint256"
						}
					],
					"name": "val",
					"outputs": [
						{
							"internalType": "uint256",
							"name": "",
							"type": "uint256"
						},
						{
							"internalType": "uint256",
							"name": "",
							"type": "uint256"
						},
						{
							"internalType": "uint256",
							"name": "",
							"type": "uint256"
						}
					],
					"stateMutability": "pure",
					"type": "function"
				}
			],
			"devdoc": {
				"kind": "dev",
				"methods": {},
				"version": 1
			},
			"evm": {
				"assembly": "    /* \"contracts/helloep2.sol\":61:764  contract hello2{... */\n  mstore(0x40, 0x80)\n  callvalue\n  dup1\n  iszero\n  tag_1\n  jumpi\n  revert(0x00, 0x00)\ntag_1:\n  pop\n  dataSize(sub_0)\n  dup1\n  dataOffset(sub_0)\n  0x00\n  codecopy\n  0x00\n  return\nstop\n\nsub_0: assembly {\n        /* \"contracts/helloep2.sol\":61:764  contract hello2{... */\n      mstore(0x40, 0x80)\n      callvalue\n      dup1\n      iszero\n      tag_1\n      jumpi\n      revert(0x00, 0x00)\n    tag_1:\n      pop\n      jumpi(tag_2, lt(calldatasize, 0x04))\n      shr(0xe0, calldataload(0x00))\n      dup1\n      0x17d7de7c\n      eq\n      tag_3\n      jumpi\n      dup1\n      0x771602f7\n      eq\n      tag_4\n      jumpi\n      dup1\n      0xa391c15b\n      eq\n      tag_5\n      jumpi\n      dup1\n      0xb67d77c5\n      eq\n      tag_6\n      jumpi\n      dup1\n      0xc8a4ac9c\n      eq\n      tag_7\n      jumpi\n      dup1\n      0xe87723fc\n      eq\n      tag_8\n      jumpi\n    tag_2:\n      revert(0x00, 0x00)\n        /* \"contracts/helloep2.sol\":564:653  function getName() public pure returns(string memory){... */\n    tag_3:\n      tag_9\n      tag_10\n      jump\t// in\n    tag_9:\n      mload(0x40)\n      tag_11\n      swap2\n      swap1\n      tag_12\n      jump\t// in\n    tag_11:\n      mload(0x40)\n      dup1\n      swap2\n      sub\n      swap1\n      return\n        /* \"contracts/helloep2.sol\":85:168  function add(uint a,uint b) pure public returns (uint){... */\n    tag_4:\n      tag_13\n      0x04\n      dup1\n      calldatasize\n      sub\n      dup2\n      add\n      swap1\n      tag_14\n      swap2\n      swap1\n      tag_15\n      jump\t// in\n    tag_14:\n      tag_16\n      jump\t// in\n    tag_13:\n      mload(0x40)\n      tag_17\n      swap2\n      swap1\n      tag_18\n      jump\t// in\n    tag_17:\n      mload(0x40)\n      dup1\n      swap2\n      sub\n      swap1\n      return\n        /* \"contracts/helloep2.sol\":359:444  function div(uint a,uint b) pure public returns (uint){... */\n    tag_5:\n      tag_19\n      0x04\n      dup1\n      calldatasize\n      sub\n      dup2\n      add\n      swap1\n      tag_20\n      swap2\n      swap1\n      tag_15\n      jump\t// in\n    tag_20:\n      tag_21\n      jump\t// in\n    tag_19:\n      mload(0x40)\n      tag_22\n      swap2\n      swap1\n      tag_18\n      jump\t// in\n    tag_22:\n      mload(0x40)\n      dup1\n      swap2\n      sub\n      swap1\n      return\n        /* \"contracts/helloep2.sol\":176:259  function sub(uint a,uint b) pure public returns (uint){... */\n    tag_6:\n      tag_23\n      0x04\n      dup1\n      calldatasize\n      sub\n      dup2\n      add\n      swap1\n      tag_24\n      swap2\n      swap1\n      tag_15\n      jump\t// in\n    tag_24:\n      tag_25\n      jump\t// in\n    tag_23:\n      mload(0x40)\n      tag_26\n      swap2\n      swap1\n      tag_18\n      jump\t// in\n    tag_26:\n      mload(0x40)\n      dup1\n      swap2\n      sub\n      swap1\n      return\n        /* \"contracts/helloep2.sol\":267:351  function mul(uint a,uint b) pure public returns (uint){... */\n    tag_7:\n      tag_27\n      0x04\n      dup1\n      calldatasize\n      sub\n      dup2\n      add\n      swap1\n      tag_28\n      swap2\n      swap1\n      tag_15\n      jump\t// in\n    tag_28:\n      tag_29\n      jump\t// in\n    tag_27:\n      mload(0x40)\n      tag_30\n      swap2\n      swap1\n      tag_18\n      jump\t// in\n    tag_30:\n      mload(0x40)\n      dup1\n      swap2\n      sub\n      swap1\n      return\n        /* \"contracts/helloep2.sol\":452:556  function val(uint a,uint b,uint c) pure public returns (uint,uint,uint){... */\n    tag_8:\n      tag_31\n      0x04\n      dup1\n      calldatasize\n      sub\n      dup2\n      add\n      swap1\n      tag_32\n      swap2\n      swap1\n      tag_33\n      jump\t// in\n    tag_32:\n      tag_34\n      jump\t// in\n    tag_31:\n      mload(0x40)\n      tag_35\n      swap4\n      swap3\n      swap2\n      swap1\n      tag_36\n      jump\t// in\n    tag_35:\n      mload(0x40)\n      dup1\n      swap2\n      sub\n      swap1\n      return\n        /* \"contracts/helloep2.sol\":564:653  function getName() public pure returns(string memory){... */\n    tag_10:\n        /* \"contracts/helloep2.sol\":603:616  string memory */\n      0x60\n        /* \"contracts/helloep2.sol\":635:645  _getName() */\n      tag_38\n        /* \"contracts/helloep2.sol\":635:643  _getName */\n      tag_39\n        /* \"contracts/helloep2.sol\":635:645  _getName() */\n      jump\t// in\n    tag_38:\n        /* \"contracts/helloep2.sol\":628:645  return _getName() */\n      swap1\n      pop\n        /* \"contracts/helloep2.sol\":564:653  function getName() public pure returns(string memory){... */\n      swap1\n      jump\t// out\n        /* \"contracts/helloep2.sol\":85:168  function add(uint a,uint b) pure public returns (uint){... */\n    tag_16:\n        /* \"contracts/helloep2.sol\":134:138  uint */\n      0x00\n        /* \"contracts/helloep2.sol\":159:160  b */\n      dup2\n        /* \"contracts/helloep2.sol\":157:158  a */\n      dup4\n        /* \"contracts/helloep2.sol\":157:160  a+b */\n      tag_41\n      swap2\n      swap1\n      tag_42\n      jump\t// in\n    tag_41:\n        /* \"contracts/helloep2.sol\":150:160  return a+b */\n      swap1\n      pop\n        /* \"contracts/helloep2.sol\":85:168  function add(uint a,uint b) pure public returns (uint){... */\n      swap3\n      swap2\n      pop\n      pop\n      jump\t// out\n        /* \"contracts/helloep2.sol\":359:444  function div(uint a,uint b) pure public returns (uint){... */\n    tag_21:\n        /* \"contracts/helloep2.sol\":408:412  uint */\n      0x00\n        /* \"contracts/helloep2.sol\":434:435  b */\n      dup2\n        /* \"contracts/helloep2.sol\":431:432  a */\n      dup4\n        /* \"contracts/helloep2.sol\":431:435  a /b */\n      tag_44\n      swap2\n      swap1\n      tag_45\n      jump\t// in\n    tag_44:\n        /* \"contracts/helloep2.sol\":424:435  return a /b */\n      swap1\n      pop\n        /* \"contracts/helloep2.sol\":359:444  function div(uint a,uint b) pure public returns (uint){... */\n      swap3\n      swap2\n      pop\n      pop\n      jump\t// out\n        /* \"contracts/helloep2.sol\":176:259  function sub(uint a,uint b) pure public returns (uint){... */\n    tag_25:\n        /* \"contracts/helloep2.sol\":225:229  uint */\n      0x00\n        /* \"contracts/helloep2.sol\":250:251  b */\n      dup2\n        /* \"contracts/helloep2.sol\":248:249  a */\n      dup4\n        /* \"contracts/helloep2.sol\":248:251  a-b */\n      tag_47\n      swap2\n      swap1\n      tag_48\n      jump\t// in\n    tag_47:\n        /* \"contracts/helloep2.sol\":241:251  return a-b */\n      swap1\n      pop\n        /* \"contracts/helloep2.sol\":176:259  function sub(uint a,uint b) pure public returns (uint){... */\n      swap3\n      swap2\n      pop\n      pop\n      jump\t// out\n        /* \"contracts/helloep2.sol\":267:351  function mul(uint a,uint b) pure public returns (uint){... */\n    tag_29:\n        /* \"contracts/helloep2.sol\":316:320  uint */\n      0x00\n        /* \"contracts/helloep2.sol\":342:343  b */\n      dup2\n        /* \"contracts/helloep2.sol\":339:340  a */\n      dup4\n        /* \"contracts/helloep2.sol\":339:343  a *b */\n      tag_50\n      swap2\n      swap1\n      tag_51\n      jump\t// in\n    tag_50:\n        /* \"contracts/helloep2.sol\":332:343  return a *b */\n      swap1\n      pop\n        /* \"contracts/helloep2.sol\":267:351  function mul(uint a,uint b) pure public returns (uint){... */\n      swap3\n      swap2\n      pop\n      pop\n      jump\t// out\n        /* \"contracts/helloep2.sol\":452:556  function val(uint a,uint b,uint c) pure public returns (uint,uint,uint){... */\n    tag_34:\n        /* \"contracts/helloep2.sol\":508:512  uint */\n      0x00\n        /* \"contracts/helloep2.sol\":513:517  uint */\n      0x00\n        /* \"contracts/helloep2.sol\":518:522  uint */\n      0x00\n        /* \"contracts/helloep2.sol\":542:543  a */\n      dup6\n        /* \"contracts/helloep2.sol\":544:545  b */\n      dup6\n        /* \"contracts/helloep2.sol\":546:547  c */\n      dup6\n        /* \"contracts/helloep2.sol\":534:548  return (a,b,c) */\n      swap3\n      pop\n      swap3\n      pop\n      swap3\n      pop\n        /* \"contracts/helloep2.sol\":452:556  function val(uint a,uint b,uint c) pure public returns (uint,uint,uint){... */\n      swap4\n      pop\n      swap4\n      pop\n      swap4\n      swap1\n      pop\n      jump\t// out\n        /* \"contracts/helloep2.sol\":661:759  function _getName() private pure returns(string memory) {... */\n    tag_39:\n        /* \"contracts/helloep2.sol\":702:715  string memory */\n      0x60\n        /* \"contracts/helloep2.sol\":728:751  return \"hello solidity\" */\n      mload(0x40)\n      dup1\n      0x40\n      add\n      0x40\n      mstore\n      dup1\n      0x0e\n      dup2\n      mstore\n      0x20\n      add\n      0x68656c6c6f20736f6c6964697479000000000000000000000000000000000000\n      dup2\n      mstore\n      pop\n      swap1\n      pop\n        /* \"contracts/helloep2.sol\":661:759  function _getName() private pure returns(string memory) {... */\n      swap1\n      jump\t// out\n        /* \"#utility.yul\":7:106   */\n    tag_54:\n        /* \"#utility.yul\":59:65   */\n      0x00\n        /* \"#utility.yul\":93:98   */\n      dup2\n        /* \"#utility.yul\":87:99   */\n      mload\n        /* \"#utility.yul\":77:99   */\n      swap1\n      pop\n        /* \"#utility.yul\":7:106   */\n      swap2\n      swap1\n      pop\n      jump\t// out\n        /* \"#utility.yul\":112:281   */\n    tag_55:\n        /* \"#utility.yul\":196:207   */\n      0x00\n        /* \"#utility.yul\":230:236   */\n      dup3\n        /* \"#utility.yul\":225:228   */\n      dup3\n        /* \"#utility.yul\":218:237   */\n      mstore\n        /* \"#utility.yul\":270:274   */\n      0x20\n        /* \"#utility.yul\":265:268   */\n      dup3\n        /* \"#utility.yul\":261:275   */\n      add\n        /* \"#utility.yul\":246:275   */\n      swap1\n      pop\n        /* \"#utility.yul\":112:281   */\n      swap3\n      swap2\n      pop\n      pop\n      jump\t// out\n        /* \"#utility.yul\":287:426   */\n    tag_56:\n        /* \"#utility.yul\":376:382   */\n      dup3\n        /* \"#utility.yul\":371:374   */\n      dup2\n        /* \"#utility.yul\":366:369   */\n      dup4\n        /* \"#utility.yul\":360:383   */\n      mcopy\n        /* \"#utility.yul\":417:418   */\n      0x00\n        /* \"#utility.yul\":408:414   */\n      dup4\n        /* \"#utility.yul\":403:406   */\n      dup4\n        /* \"#utility.yul\":399:415   */\n      add\n        /* \"#utility.yul\":392:419   */\n      mstore\n        /* \"#utility.yul\":287:426   */\n      pop\n      pop\n      pop\n      jump\t// out\n        /* \"#utility.yul\":432:534   */\n    tag_57:\n        /* \"#utility.yul\":473:479   */\n      0x00\n        /* \"#utility.yul\":524:526   */\n      0x1f\n        /* \"#utility.yul\":520:527   */\n      not\n        /* \"#utility.yul\":515:517   */\n      0x1f\n        /* \"#utility.yul\":508:513   */\n      dup4\n        /* \"#utility.yul\":504:518   */\n      add\n        /* \"#utility.yul\":500:528   */\n      and\n        /* \"#utility.yul\":490:528   */\n      swap1\n      pop\n        /* \"#utility.yul\":432:534   */\n      swap2\n      swap1\n      pop\n      jump\t// out\n        /* \"#utility.yul\":540:917   */\n    tag_58:\n        /* \"#utility.yul\":628:631   */\n      0x00\n        /* \"#utility.yul\":656:695   */\n      tag_74\n        /* \"#utility.yul\":689:694   */\n      dup3\n        /* \"#utility.yul\":656:695   */\n      tag_54\n      jump\t// in\n    tag_74:\n        /* \"#utility.yul\":711:782   */\n      tag_75\n        /* \"#utility.yul\":775:781   */\n      dup2\n        /* \"#utility.yul\":770:773   */\n      dup6\n        /* \"#utility.yul\":711:782   */\n      tag_55\n      jump\t// in\n    tag_75:\n        /* \"#utility.yul\":704:782   */\n      swap4\n      pop\n        /* \"#utility.yul\":791:856   */\n      tag_76\n        /* \"#utility.yul\":849:855   */\n      dup2\n        /* \"#utility.yul\":844:847   */\n      dup6\n        /* \"#utility.yul\":837:841   */\n      0x20\n        /* \"#utility.yul\":830:835   */\n      dup7\n        /* \"#utility.yul\":826:842   */\n      add\n        /* \"#utility.yul\":791:856   */\n      tag_56\n      jump\t// in\n    tag_76:\n        /* \"#utility.yul\":881:910   */\n      tag_77\n        /* \"#utility.yul\":903:909   */\n      dup2\n        /* \"#utility.yul\":881:910   */\n      tag_57\n      jump\t// in\n    tag_77:\n        /* \"#utility.yul\":876:879   */\n      dup5\n        /* \"#utility.yul\":872:911   */\n      add\n        /* \"#utility.yul\":865:911   */\n      swap2\n      pop\n        /* \"#utility.yul\":632:917   */\n      pop\n        /* \"#utility.yul\":540:917   */\n      swap3\n      swap2\n      pop\n      pop\n      jump\t// out\n        /* \"#utility.yul\":923:1236   */\n    tag_12:\n        /* \"#utility.yul\":1036:1040   */\n      0x00\n        /* \"#utility.yul\":1074:1076   */\n      0x20\n        /* \"#utility.yul\":1063:1072   */\n      dup3\n        /* \"#utility.yul\":1059:1077   */\n      add\n        /* \"#utility.yul\":1051:1077   */\n      swap1\n      pop\n        /* \"#utility.yul\":1123:1132   */\n      dup2\n        /* \"#utility.yul\":1117:1121   */\n      dup2\n        /* \"#utility.yul\":1113:1133   */\n      sub\n        /* \"#utility.yul\":1109:1110   */\n      0x00\n        /* \"#utility.yul\":1098:1107   */\n      dup4\n        /* \"#utility.yul\":1094:1111   */\n      add\n        /* \"#utility.yul\":1087:1134   */\n      mstore\n        /* \"#utility.yul\":1151:1229   */\n      tag_79\n        /* \"#utility.yul\":1224:1228   */\n      dup2\n        /* \"#utility.yul\":1215:1221   */\n      dup5\n        /* \"#utility.yul\":1151:1229   */\n      tag_58\n      jump\t// in\n    tag_79:\n        /* \"#utility.yul\":1143:1229   */\n      swap1\n      pop\n        /* \"#utility.yul\":923:1236   */\n      swap3\n      swap2\n      pop\n      pop\n      jump\t// out\n        /* \"#utility.yul\":1323:1440   */\n    tag_60:\n        /* \"#utility.yul\":1432:1433   */\n      0x00\n        /* \"#utility.yul\":1429:1430   */\n      0x00\n        /* \"#utility.yul\":1422:1434   */\n      revert\n        /* \"#utility.yul\":1569:1646   */\n    tag_62:\n        /* \"#utility.yul\":1606:1613   */\n      0x00\n        /* \"#utility.yul\":1635:1640   */\n      dup2\n        /* \"#utility.yul\":1624:1640   */\n      swap1\n      pop\n        /* \"#utility.yul\":1569:1646   */\n      swap2\n      swap1\n      pop\n      jump\t// out\n        /* \"#utility.yul\":1652:1774   */\n    tag_63:\n        /* \"#utility.yul\":1725:1749   */\n      tag_85\n        /* \"#utility.yul\":1743:1748   */\n      dup2\n        /* \"#utility.yul\":1725:1749   */\n      tag_62\n      jump\t// in\n    tag_85:\n        /* \"#utility.yul\":1718:1723   */\n      dup2\n        /* \"#utility.yul\":1715:1750   */\n      eq\n        /* \"#utility.yul\":1705:1768   */\n      tag_86\n      jumpi\n        /* \"#utility.yul\":1764:1765   */\n      0x00\n        /* \"#utility.yul\":1761:1762   */\n      0x00\n        /* \"#utility.yul\":1754:1766   */\n      revert\n        /* \"#utility.yul\":1705:1768   */\n    tag_86:\n        /* \"#utility.yul\":1652:1774   */\n      pop\n      jump\t// out\n        /* \"#utility.yul\":1780:1919   */\n    tag_64:\n        /* \"#utility.yul\":1826:1831   */\n      0x00\n        /* \"#utility.yul\":1864:1870   */\n      dup2\n        /* \"#utility.yul\":1851:1871   */\n      calldataload\n        /* \"#utility.yul\":1842:1871   */\n      swap1\n      pop\n        /* \"#utility.yul\":1880:1913   */\n      tag_88\n        /* \"#utility.yul\":1907:1912   */\n      dup2\n        /* \"#utility.yul\":1880:1913   */\n      tag_63\n      jump\t// in\n    tag_88:\n        /* \"#utility.yul\":1780:1919   */\n      swap3\n      swap2\n      pop\n      pop\n      jump\t// out\n        /* \"#utility.yul\":1925:2399   */\n    tag_15:\n        /* \"#utility.yul\":1993:1999   */\n      0x00\n        /* \"#utility.yul\":2001:2007   */\n      0x00\n        /* \"#utility.yul\":2050:2052   */\n      0x40\n        /* \"#utility.yul\":2038:2047   */\n      dup4\n        /* \"#utility.yul\":2029:2036   */\n      dup6\n        /* \"#utility.yul\":2025:2048   */\n      sub\n        /* \"#utility.yul\":2021:2053   */\n      slt\n        /* \"#utility.yul\":2018:2137   */\n      iszero\n      tag_90\n      jumpi\n        /* \"#utility.yul\":2056:2135   */\n      tag_91\n      tag_60\n      jump\t// in\n    tag_91:\n        /* \"#utility.yul\":2018:2137   */\n    tag_90:\n        /* \"#utility.yul\":2176:2177   */\n      0x00\n        /* \"#utility.yul\":2201:2254   */\n      tag_92\n        /* \"#utility.yul\":2246:2253   */\n      dup6\n        /* \"#utility.yul\":2237:2243   */\n      dup3\n        /* \"#utility.yul\":2226:2235   */\n      dup7\n        /* \"#utility.yul\":2222:2244   */\n      add\n        /* \"#utility.yul\":2201:2254   */\n      tag_64\n      jump\t// in\n    tag_92:\n        /* \"#utility.yul\":2191:2254   */\n      swap3\n      pop\n        /* \"#utility.yul\":2147:2264   */\n      pop\n        /* \"#utility.yul\":2303:2305   */\n      0x20\n        /* \"#utility.yul\":2329:2382   */\n      tag_93\n        /* \"#utility.yul\":2374:2381   */\n      dup6\n        /* \"#utility.yul\":2365:2371   */\n      dup3\n        /* \"#utility.yul\":2354:2363   */\n      dup7\n        /* \"#utility.yul\":2350:2372   */\n      add\n        /* \"#utility.yul\":2329:2382   */\n      tag_64\n      jump\t// in\n    tag_93:\n        /* \"#utility.yul\":2319:2382   */\n      swap2\n      pop\n        /* \"#utility.yul\":2274:2392   */\n      pop\n        /* \"#utility.yul\":1925:2399   */\n      swap3\n      pop\n      swap3\n      swap1\n      pop\n      jump\t// out\n        /* \"#utility.yul\":2405:2523   */\n    tag_65:\n        /* \"#utility.yul\":2492:2516   */\n      tag_95\n        /* \"#utility.yul\":2510:2515   */\n      dup2\n        /* \"#utility.yul\":2492:2516   */\n      tag_62\n      jump\t// in\n    tag_95:\n        /* \"#utility.yul\":2487:2490   */\n      dup3\n        /* \"#utility.yul\":2480:2517   */\n      mstore\n        /* \"#utility.yul\":2405:2523   */\n      pop\n      pop\n      jump\t// out\n        /* \"#utility.yul\":2529:2751   */\n    tag_18:\n        /* \"#utility.yul\":2622:2626   */\n      0x00\n        /* \"#utility.yul\":2660:2662   */\n      0x20\n        /* \"#utility.yul\":2649:2658   */\n      dup3\n        /* \"#utility.yul\":2645:2663   */\n      add\n        /* \"#utility.yul\":2637:2663   */\n      swap1\n      pop\n        /* \"#utility.yul\":2673:2744   */\n      tag_97\n        /* \"#utility.yul\":2741:2742   */\n      0x00\n        /* \"#utility.yul\":2730:2739   */\n      dup4\n        /* \"#utility.yul\":2726:2743   */\n      add\n        /* \"#utility.yul\":2717:2723   */\n      dup5\n        /* \"#utility.yul\":2673:2744   */\n      tag_65\n      jump\t// in\n    tag_97:\n        /* \"#utility.yul\":2529:2751   */\n      swap3\n      swap2\n      pop\n      pop\n      jump\t// out\n        /* \"#utility.yul\":2757:3376   */\n    tag_33:\n        /* \"#utility.yul\":2834:2840   */\n      0x00\n        /* \"#utility.yul\":2842:2848   */\n      0x00\n        /* \"#utility.yul\":2850:2856   */\n      0x00\n        /* \"#utility.yul\":2899:2901   */\n      0x60\n        /* \"#utility.yul\":2887:2896   */\n      dup5\n        /* \"#utility.yul\":2878:2885   */\n      dup7\n        /* \"#utility.yul\":2874:2897   */\n      sub\n        /* \"#utility.yul\":2870:2902   */\n      slt\n        /* \"#utility.yul\":2867:2986   */\n      iszero\n      tag_99\n      jumpi\n        /* \"#utility.yul\":2905:2984   */\n      tag_100\n      tag_60\n      jump\t// in\n    tag_100:\n        /* \"#utility.yul\":2867:2986   */\n    tag_99:\n        /* \"#utility.yul\":3025:3026   */\n      0x00\n        /* \"#utility.yul\":3050:3103   */\n      tag_101\n        /* \"#utility.yul\":3095:3102   */\n      dup7\n        /* \"#utility.yul\":3086:3092   */\n      dup3\n        /* \"#utility.yul\":3075:3084   */\n      dup8\n        /* \"#utility.yul\":3071:3093   */\n      add\n        /* \"#utility.yul\":3050:3103   */\n      tag_64\n      jump\t// in\n    tag_101:\n        /* \"#utility.yul\":3040:3103   */\n      swap4\n      pop\n        /* \"#utility.yul\":2996:3113   */\n      pop\n        /* \"#utility.yul\":3152:3154   */\n      0x20\n        /* \"#utility.yul\":3178:3231   */\n      tag_102\n        /* \"#utility.yul\":3223:3230   */\n      dup7\n        /* \"#utility.yul\":3214:3220   */\n      dup3\n        /* \"#utility.yul\":3203:3212   */\n      dup8\n        /* \"#utility.yul\":3199:3221   */\n      add\n        /* \"#utility.yul\":3178:3231   */\n      tag_64\n      jump\t// in\n    tag_102:\n        /* \"#utility.yul\":3168:3231   */\n      swap3\n      pop\n        /* \"#utility.yul\":3123:3241   */\n      pop\n        /* \"#utility.yul\":3280:3282   */\n      0x40\n        /* \"#utility.yul\":3306:3359   */\n      tag_103\n        /* \"#utility.yul\":3351:3358   */\n      dup7\n        /* \"#utility.yul\":3342:3348   */\n      dup3\n        /* \"#utility.yul\":3331:3340   */\n      dup8\n        /* \"#utility.yul\":3327:3349   */\n      add\n        /* \"#utility.yul\":3306:3359   */\n      tag_64\n      jump\t// in\n    tag_103:\n        /* \"#utility.yul\":3296:3359   */\n      swap2\n      pop\n        /* \"#utility.yul\":3251:3369   */\n      pop\n        /* \"#utility.yul\":2757:3376   */\n      swap3\n      pop\n      swap3\n      pop\n      swap3\n      jump\t// out\n        /* \"#utility.yul\":3382:3824   */\n    tag_36:\n        /* \"#utility.yul\":3531:3535   */\n      0x00\n        /* \"#utility.yul\":3569:3571   */\n      0x60\n        /* \"#utility.yul\":3558:3567   */\n      dup3\n        /* \"#utility.yul\":3554:3572   */\n      add\n        /* \"#utility.yul\":3546:3572   */\n      swap1\n      pop\n        /* \"#utility.yul\":3582:3653   */\n      tag_105\n        /* \"#utility.yul\":3650:3651   */\n      0x00\n        /* \"#utility.yul\":3639:3648   */\n      dup4\n        /* \"#utility.yul\":3635:3652   */\n      add\n        /* \"#utility.yul\":3626:3632   */\n      dup7\n        /* \"#utility.yul\":3582:3653   */\n      tag_65\n      jump\t// in\n    tag_105:\n        /* \"#utility.yul\":3663:3735   */\n      tag_106\n        /* \"#utility.yul\":3731:3733   */\n      0x20\n        /* \"#utility.yul\":3720:3729   */\n      dup4\n        /* \"#utility.yul\":3716:3734   */\n      add\n        /* \"#utility.yul\":3707:3713   */\n      dup6\n        /* \"#utility.yul\":3663:3735   */\n      tag_65\n      jump\t// in\n    tag_106:\n        /* \"#utility.yul\":3745:3817   */\n      tag_107\n        /* \"#utility.yul\":3813:3815   */\n      0x40\n        /* \"#utility.yul\":3802:3811   */\n      dup4\n        /* \"#utility.yul\":3798:3816   */\n      add\n        /* \"#utility.yul\":3789:3795   */\n      dup5\n        /* \"#utility.yul\":3745:3817   */\n      tag_65\n      jump\t// in\n    tag_107:\n        /* \"#utility.yul\":3382:3824   */\n      swap5\n      swap4\n      pop\n      pop\n      pop\n      pop\n      jump\t// out\n        /* \"#utility.yul\":3830:4010   */\n    tag_66:\n        /* \"#utility.yul\":3878:3955   */\n      0x4e487b7100000000000000000000000000000000000000000000000000000000\n        /* \"#utility.yul\":3875:3876   */\n      0x00\n        /* \"#utility.yul\":3868:3956   */\n      mstore\n        /* \"#utility.yul\":3975:3979   */\n      0x11\n        /* \"#utility.yul\":3972:3973   */\n      0x04\n        /* \"#utility.yul\":3965:3980   */\n      mstore\n        /* \"#utility.yul\":3999:4003   */\n      0x24\n        /* \"#utility.yul\":3996:3997   */\n      0x00\n        /* \"#utility.yul\":3989:4004   */\n      revert\n        /* \"#utility.yul\":4016:4207   */\n    tag_42:\n        /* \"#utility.yul\":4056:4059   */\n      0x00\n        /* \"#utility.yul\":4075:4095   */\n      tag_110\n        /* \"#utility.yul\":4093:4094   */\n      dup3\n        /* \"#utility.yul\":4075:4095   */\n      tag_62\n      jump\t// in\n    tag_110:\n        /* \"#utility.yul\":4070:4095   */\n      swap2\n      pop\n        /* \"#utility.yul\":4109:4129   */\n      tag_111\n        /* \"#utility.yul\":4127:4128   */\n      dup4\n        /* \"#utility.yul\":4109:4129   */\n      tag_62\n      jump\t// in\n    tag_111:\n        /* \"#utility.yul\":4104:4129   */\n      swap3\n      pop\n        /* \"#utility.yul\":4152:4153   */\n      dup3\n        /* \"#utility.yul\":4149:4150   */\n      dup3\n        /* \"#utility.yul\":4145:4154   */\n      add\n        /* \"#utility.yul\":4138:4154   */\n      swap1\n      pop\n        /* \"#utility.yul\":4173:4176   */\n      dup1\n        /* \"#utility.yul\":4170:4171   */\n      dup3\n        /* \"#utility.yul\":4167:4177   */\n      gt\n        /* \"#utility.yul\":4164:4200   */\n      iszero\n      tag_112\n      jumpi\n        /* \"#utility.yul\":4180:4198   */\n      tag_113\n      tag_66\n      jump\t// in\n    tag_113:\n        /* \"#utility.yul\":4164:4200   */\n    tag_112:\n        /* \"#utility.yul\":4016:4207   */\n      swap3\n      swap2\n      pop\n      pop\n      jump\t// out\n        /* \"#utility.yul\":4213:4393   */\n    tag_67:\n        /* \"#utility.yul\":4261:4338   */\n      0x4e487b7100000000000000000000000000000000000000000000000000000000\n        /* \"#utility.yul\":4258:4259   */\n      0x00\n        /* \"#utility.yul\":4251:4339   */\n      mstore\n        /* \"#utility.yul\":4358:4362   */\n      0x12\n        /* \"#utility.yul\":4355:4356   */\n      0x04\n        /* \"#utility.yul\":4348:4363   */\n      mstore\n        /* \"#utility.yul\":4382:4386   */\n      0x24\n        /* \"#utility.yul\":4379:4380   */\n      0x00\n        /* \"#utility.yul\":4372:4387   */\n      revert\n        /* \"#utility.yul\":4399:4584   */\n    tag_45:\n        /* \"#utility.yul\":4439:4440   */\n      0x00\n        /* \"#utility.yul\":4456:4476   */\n      tag_116\n        /* \"#utility.yul\":4474:4475   */\n      dup3\n        /* \"#utility.yul\":4456:4476   */\n      tag_62\n      jump\t// in\n    tag_116:\n        /* \"#utility.yul\":4451:4476   */\n      swap2\n      pop\n        /* \"#utility.yul\":4490:4510   */\n      tag_117\n        /* \"#utility.yul\":4508:4509   */\n      dup4\n        /* \"#utility.yul\":4490:4510   */\n      tag_62\n      jump\t// in\n    tag_117:\n        /* \"#utility.yul\":4485:4510   */\n      swap3\n      pop\n        /* \"#utility.yul\":4529:4530   */\n      dup3\n        /* \"#utility.yul\":4519:4554   */\n      tag_118\n      jumpi\n        /* \"#utility.yul\":4534:4552   */\n      tag_119\n      tag_67\n      jump\t// in\n    tag_119:\n        /* \"#utility.yul\":4519:4554   */\n    tag_118:\n        /* \"#utility.yul\":4576:4577   */\n      dup3\n        /* \"#utility.yul\":4573:4574   */\n      dup3\n        /* \"#utility.yul\":4569:4578   */\n      div\n        /* \"#utility.yul\":4564:4578   */\n      swap1\n      pop\n        /* \"#utility.yul\":4399:4584   */\n      swap3\n      swap2\n      pop\n      pop\n      jump\t// out\n        /* \"#utility.yul\":4590:4784   */\n    tag_48:\n        /* \"#utility.yul\":4630:4634   */\n      0x00\n        /* \"#utility.yul\":4650:4670   */\n      tag_121\n        /* \"#utility.yul\":4668:4669   */\n      dup3\n        /* \"#utility.yul\":4650:4670   */\n      tag_62\n      jump\t// in\n    tag_121:\n        /* \"#utility.yul\":4645:4670   */\n      swap2\n      pop\n        /* \"#utility.yul\":4684:4704   */\n      tag_122\n        /* \"#utility.yul\":4702:4703   */\n      dup4\n        /* \"#utility.yul\":4684:4704   */\n      tag_62\n      jump\t// in\n    tag_122:\n        /* \"#utility.yul\":4679:4704   */\n      swap3\n      pop\n        /* \"#utility.yul\":4728:4729   */\n      dup3\n        /* \"#utility.yul\":4725:4726   */\n      dup3\n        /* \"#utility.yul\":4721:4730   */\n      sub\n        /* \"#utility.yul\":4713:4730   */\n      swap1\n      pop\n        /* \"#utility.yul\":4752:4753   */\n      dup2\n        /* \"#utility.yul\":4746:4750   */\n      dup2\n        /* \"#utility.yul\":4743:4754   */\n      gt\n        /* \"#utility.yul\":4740:4777   */\n      iszero\n      tag_123\n      jumpi\n        /* \"#utility.yul\":4757:4775   */\n      tag_124\n      tag_66\n      jump\t// in\n    tag_124:\n        /* \"#utility.yul\":4740:4777   */\n    tag_123:\n        /* \"#utility.yul\":4590:4784   */\n      swap3\n      swap2\n      pop\n      pop\n      jump\t// out\n        /* \"#utility.yul\":4790:5200   */\n    tag_51:\n        /* \"#utility.yul\":4830:4837   */\n      0x00\n        /* \"#utility.yul\":4853:4873   */\n      tag_126\n        /* \"#utility.yul\":4871:4872   */\n      dup3\n        /* \"#utility.yul\":4853:4873   */\n      tag_62\n      jump\t// in\n    tag_126:\n        /* \"#utility.yul\":4848:4873   */\n      swap2\n      pop\n        /* \"#utility.yul\":4887:4907   */\n      tag_127\n        /* \"#utility.yul\":4905:4906   */\n      dup4\n        /* \"#utility.yul\":4887:4907   */\n      tag_62\n      jump\t// in\n    tag_127:\n        /* \"#utility.yul\":4882:4907   */\n      swap3\n      pop\n        /* \"#utility.yul\":4942:4943   */\n      dup3\n        /* \"#utility.yul\":4939:4940   */\n      dup3\n        /* \"#utility.yul\":4935:4944   */\n      mul\n        /* \"#utility.yul\":4964:4994   */\n      tag_128\n        /* \"#utility.yul\":4982:4993   */\n      dup2\n        /* \"#utility.yul\":4964:4994   */\n      tag_62\n      jump\t// in\n    tag_128:\n        /* \"#utility.yul\":4953:4994   */\n      swap2\n      pop\n        /* \"#utility.yul\":5143:5144   */\n      dup3\n        /* \"#utility.yul\":5134:5141   */\n      dup3\n        /* \"#utility.yul\":5130:5145   */\n      div\n        /* \"#utility.yul\":5127:5128   */\n      dup5\n        /* \"#utility.yul\":5124:5146   */\n      eq\n        /* \"#utility.yul\":5104:5105   */\n      dup4\n        /* \"#utility.yul\":5097:5106   */\n      iszero\n        /* \"#utility.yul\":5077:5160   */\n      or\n        /* \"#utility.yul\":5054:5193   */\n      tag_129\n      jumpi\n        /* \"#utility.yul\":5173:5191   */\n      tag_130\n      tag_66\n      jump\t// in\n    tag_130:\n        /* \"#utility.yul\":5054:5193   */\n    tag_129:\n        /* \"#utility.yul\":4838:5200   */\n      pop\n        /* \"#utility.yul\":4790:5200   */\n      swap3\n      swap2\n      pop\n      pop\n      jump\t// out\n\n    auxdata: 0xa2646970667358221220e76868994461ccf7f187359e75722a96354a1e79953ee6c4385537813ffd747864736f6c634300081e0033\n}\n",
				"bytecode": {
					"linkReferences": {},
					"object": "6080604052348015600e575f5ffd5b506105428061001c5f395ff3fe608060405234801561000f575f5ffd5b5060043610610060575f3560e01c806317d7de7c14610064578063771602f714610082578063a391c15b146100b2578063b67d77c5146100e2578063c8a4ac9c14610112578063e87723fc14610142575b5f5ffd5b61006c610174565b6040516100799190610299565b60405180910390f35b61009c600480360381019061009791906102f0565b610183565b6040516100a9919061033d565b60405180910390f35b6100cc60048036038101906100c791906102f0565b610198565b6040516100d9919061033d565b60405180910390f35b6100fc60048036038101906100f791906102f0565b6101ad565b604051610109919061033d565b60405180910390f35b61012c600480360381019061012791906102f0565b6101c2565b604051610139919061033d565b60405180910390f35b61015c60048036038101906101579190610356565b6101d7565b60405161016b939291906103a6565b60405180910390f35b606061017e6101ec565b905090565b5f81836101909190610408565b905092915050565b5f81836101a59190610468565b905092915050565b5f81836101ba9190610498565b905092915050565b5f81836101cf91906104cb565b905092915050565b5f5f5f85858592509250925093509350939050565b60606040518060400160405280600e81526020017f68656c6c6f20736f6c6964697479000000000000000000000000000000000000815250905090565b5f81519050919050565b5f82825260208201905092915050565b8281835e5f83830152505050565b5f601f19601f8301169050919050565b5f61026b82610229565b6102758185610233565b9350610285818560208601610243565b61028e81610251565b840191505092915050565b5f6020820190508181035f8301526102b18184610261565b905092915050565b5f5ffd5b5f819050919050565b6102cf816102bd565b81146102d9575f5ffd5b50565b5f813590506102ea816102c6565b92915050565b5f5f60408385031215610306576103056102b9565b5b5f610313858286016102dc565b9250506020610324858286016102dc565b9150509250929050565b610337816102bd565b82525050565b5f6020820190506103505f83018461032e565b92915050565b5f5f5f6060848603121561036d5761036c6102b9565b5b5f61037a868287016102dc565b935050602061038b868287016102dc565b925050604061039c868287016102dc565b9150509250925092565b5f6060820190506103b95f83018661032e565b6103c6602083018561032e565b6103d3604083018461032e565b949350505050565b7f4e487b71000000000000000000000000000000000000000000000000000000005f52601160045260245ffd5b5f610412826102bd565b915061041d836102bd565b9250828201905080821115610435576104346103db565b5b92915050565b7f4e487b71000000000000000000000000000000000000000000000000000000005f52601260045260245ffd5b5f610472826102bd565b915061047d836102bd565b92508261048d5761048c61043b565b5b828204905092915050565b5f6104a2826102bd565b91506104ad836102bd565b92508282039050818111156104c5576104c46103db565b5b92915050565b5f6104d5826102bd565b91506104e0836102bd565b92508282026104ee816102bd565b91508282048414831517610505576105046103db565b5b509291505056fea2646970667358221220e76868994461ccf7f187359e75722a96354a1e79953ee6c4385537813ffd747864736f6c634300081e0033",
					"opcodes": "PUSH1 0x80 PUSH1 0x40 MSTORE CALLVALUE DUP1 ISZERO PUSH1 0xE JUMPI PUSH0 PUSH0 REVERT JUMPDEST POP PUSH2 0x542 DUP1 PUSH2 0x1C PUSH0 CODECOPY PUSH0 RETURN INVALID PUSH1 0x80 PUSH1 0x40 MSTORE CALLVALUE DUP1 ISZERO PUSH2 0xF JUMPI PUSH0 PUSH0 REVERT JUMPDEST POP PUSH1 0x4 CALLDATASIZE LT PUSH2 0x60 JUMPI PUSH0 CALLDATALOAD PUSH1 0xE0 SHR DUP1 PUSH4 0x17D7DE7C EQ PUSH2 0x64 JUMPI DUP1 PUSH4 0x771602F7 EQ PUSH2 0x82 JUMPI DUP1 PUSH4 0xA391C15B EQ PUSH2 0xB2 JUMPI DUP1 PUSH4 0xB67D77C5 EQ PUSH2 0xE2 JUMPI DUP1 PUSH4 0xC8A4AC9C EQ PUSH2 0x112 JUMPI DUP1 PUSH4 0xE87723FC EQ PUSH2 0x142 JUMPI JUMPDEST PUSH0 PUSH0 REVERT JUMPDEST PUSH2 0x6C PUSH2 0x174 JUMP JUMPDEST PUSH1 0x40 MLOAD PUSH2 0x79 SWAP2 SWAP1 PUSH2 0x299 JUMP JUMPDEST PUSH1 0x40 MLOAD DUP1 SWAP2 SUB SWAP1 RETURN JUMPDEST PUSH2 0x9C PUSH1 0x4 DUP1 CALLDATASIZE SUB DUP2 ADD SWAP1 PUSH2 0x97 SWAP2 SWAP1 PUSH2 0x2F0 JUMP JUMPDEST PUSH2 0x183 JUMP JUMPDEST PUSH1 0x40 MLOAD PUSH2 0xA9 SWAP2 SWAP1 PUSH2 0x33D JUMP JUMPDEST PUSH1 0x40 MLOAD DUP1 SWAP2 SUB SWAP1 RETURN JUMPDEST PUSH2 0xCC PUSH1 0x4 DUP1 CALLDATASIZE SUB DUP2 ADD SWAP1 PUSH2 0xC7 SWAP2 SWAP1 PUSH2 0x2F0 JUMP JUMPDEST PUSH2 0x198 JUMP JUMPDEST PUSH1 0x40 MLOAD PUSH2 0xD9 SWAP2 SWAP1 PUSH2 0x33D JUMP JUMPDEST PUSH1 0x40 MLOAD DUP1 SWAP2 SUB SWAP1 RETURN JUMPDEST PUSH2 0xFC PUSH1 0x4 DUP1 CALLDATASIZE SUB DUP2 ADD SWAP1 PUSH2 0xF7 SWAP2 SWAP1 PUSH2 0x2F0 JUMP JUMPDEST PUSH2 0x1AD JUMP JUMPDEST PUSH1 0x40 MLOAD PUSH2 0x109 SWAP2 SWAP1 PUSH2 0x33D JUMP JUMPDEST PUSH1 0x40 MLOAD DUP1 SWAP2 SUB SWAP1 RETURN JUMPDEST PUSH2 0x12C PUSH1 0x4 DUP1 CALLDATASIZE SUB DUP2 ADD SWAP1 PUSH2 0x127 SWAP2 SWAP1 PUSH2 0x2F0 JUMP JUMPDEST PUSH2 0x1C2 JUMP JUMPDEST PUSH1 0x40 MLOAD PUSH2 0x139 SWAP2 SWAP1 PUSH2 0x33D JUMP JUMPDEST PUSH1 0x40 MLOAD DUP1 SWAP2 SUB SWAP1 RETURN JUMPDEST PUSH2 0x15C PUSH1 0x4 DUP1 CALLDATASIZE SUB DUP2 ADD SWAP1 PUSH2 0x157 SWAP2 SWAP1 PUSH2 0x356 JUMP JUMPDEST PUSH2 0x1D7 JUMP JUMPDEST PUSH1 0x40 MLOAD PUSH2 0x16B SWAP4 SWAP3 SWAP2 SWAP1 PUSH2 0x3A6 JUMP JUMPDEST PUSH1 0x40 MLOAD DUP1 SWAP2 SUB SWAP1 RETURN JUMPDEST PUSH1 0x60 PUSH2 0x17E PUSH2 0x1EC JUMP JUMPDEST SWAP1 POP SWAP1 JUMP JUMPDEST PUSH0 DUP2 DUP4 PUSH2 0x190 SWAP2 SWAP1 PUSH2 0x408 JUMP JUMPDEST SWAP1 POP SWAP3 SWAP2 POP POP JUMP JUMPDEST PUSH0 DUP2 DUP4 PUSH2 0x1A5 SWAP2 SWAP1 PUSH2 0x468 JUMP JUMPDEST SWAP1 POP SWAP3 SWAP2 POP POP JUMP JUMPDEST PUSH0 DUP2 DUP4 PUSH2 0x1BA SWAP2 SWAP1 PUSH2 0x498 JUMP JUMPDEST SWAP1 POP SWAP3 SWAP2 POP POP JUMP JUMPDEST PUSH0 DUP2 DUP4 PUSH2 0x1CF SWAP2 SWAP1 PUSH2 0x4CB JUMP JUMPDEST SWAP1 POP SWAP3 SWAP2 POP POP JUMP JUMPDEST PUSH0 PUSH0 PUSH0 DUP6 DUP6 DUP6 SWAP3 POP SWAP3 POP SWAP3 POP SWAP4 POP SWAP4 POP SWAP4 SWAP1 POP JUMP JUMPDEST PUSH1 0x60 PUSH1 0x40 MLOAD DUP1 PUSH1 0x40 ADD PUSH1 0x40 MSTORE DUP1 PUSH1 0xE DUP2 MSTORE PUSH1 0x20 ADD PUSH32 0x68656C6C6F20736F6C6964697479000000000000000000000000000000000000 DUP2 MSTORE POP SWAP1 POP SWAP1 JUMP JUMPDEST PUSH0 DUP2 MLOAD SWAP1 POP SWAP2 SWAP1 POP JUMP JUMPDEST PUSH0 DUP3 DUP3 MSTORE PUSH1 0x20 DUP3 ADD SWAP1 POP SWAP3 SWAP2 POP POP JUMP JUMPDEST DUP3 DUP2 DUP4 MCOPY PUSH0 DUP4 DUP4 ADD MSTORE POP POP POP JUMP JUMPDEST PUSH0 PUSH1 0x1F NOT PUSH1 0x1F DUP4 ADD AND SWAP1 POP SWAP2 SWAP1 POP JUMP JUMPDEST PUSH0 PUSH2 0x26B DUP3 PUSH2 0x229 JUMP JUMPDEST PUSH2 0x275 DUP2 DUP6 PUSH2 0x233 JUMP JUMPDEST SWAP4 POP PUSH2 0x285 DUP2 DUP6 PUSH1 0x20 DUP7 ADD PUSH2 0x243 JUMP JUMPDEST PUSH2 0x28E DUP2 PUSH2 0x251 JUMP JUMPDEST DUP5 ADD SWAP2 POP POP SWAP3 SWAP2 POP POP JUMP JUMPDEST PUSH0 PUSH1 0x20 DUP3 ADD SWAP1 POP DUP2 DUP2 SUB PUSH0 DUP4 ADD MSTORE PUSH2 0x2B1 DUP2 DUP5 PUSH2 0x261 JUMP JUMPDEST SWAP1 POP SWAP3 SWAP2 POP POP JUMP JUMPDEST PUSH0 PUSH0 REVERT JUMPDEST PUSH0 DUP2 SWAP1 POP SWAP2 SWAP1 POP JUMP JUMPDEST PUSH2 0x2CF DUP2 PUSH2 0x2BD JUMP JUMPDEST DUP2 EQ PUSH2 0x2D9 JUMPI PUSH0 PUSH0 REVERT JUMPDEST POP JUMP JUMPDEST PUSH0 DUP2 CALLDATALOAD SWAP1 POP PUSH2 0x2EA DUP2 PUSH2 0x2C6 JUMP JUMPDEST SWAP3 SWAP2 POP POP JUMP JUMPDEST PUSH0 PUSH0 PUSH1 0x40 DUP4 DUP6 SUB SLT ISZERO PUSH2 0x306 JUMPI PUSH2 0x305 PUSH2 0x2B9 JUMP JUMPDEST JUMPDEST PUSH0 PUSH2 0x313 DUP6 DUP3 DUP7 ADD PUSH2 0x2DC JUMP JUMPDEST SWAP3 POP POP PUSH1 0x20 PUSH2 0x324 DUP6 DUP3 DUP7 ADD PUSH2 0x2DC JUMP JUMPDEST SWAP2 POP POP SWAP3 POP SWAP3 SWAP1 POP JUMP JUMPDEST PUSH2 0x337 DUP2 PUSH2 0x2BD JUMP JUMPDEST DUP3 MSTORE POP POP JUMP JUMPDEST PUSH0 PUSH1 0x20 DUP3 ADD SWAP1 POP PUSH2 0x350 PUSH0 DUP4 ADD DUP5 PUSH2 0x32E JUMP JUMPDEST SWAP3 SWAP2 POP POP JUMP JUMPDEST PUSH0 PUSH0 PUSH0 PUSH1 0x60 DUP5 DUP7 SUB SLT ISZERO PUSH2 0x36D JUMPI PUSH2 0x36C PUSH2 0x2B9 JUMP JUMPDEST JUMPDEST PUSH0 PUSH2 0x37A DUP7 DUP3 DUP8 ADD PUSH2 0x2DC JUMP JUMPDEST SWAP4 POP POP PUSH1 0x20 PUSH2 0x38B DUP7 DUP3 DUP8 ADD PUSH2 0x2DC JUMP JUMPDEST SWAP3 POP POP PUSH1 0x40 PUSH2 0x39C DUP7 DUP3 DUP8 ADD PUSH2 0x2DC JUMP JUMPDEST SWAP2 POP POP SWAP3 POP SWAP3 POP SWAP3 JUMP JUMPDEST PUSH0 PUSH1 0x60 DUP3 ADD SWAP1 POP PUSH2 0x3B9 PUSH0 DUP4 ADD DUP7 PUSH2 0x32E JUMP JUMPDEST PUSH2 0x3C6 PUSH1 0x20 DUP4 ADD DUP6 PUSH2 0x32E JUMP JUMPDEST PUSH2 0x3D3 PUSH1 0x40 DUP4 ADD DUP5 PUSH2 0x32E JUMP JUMPDEST SWAP5 SWAP4 POP POP POP POP JUMP JUMPDEST PUSH32 0x4E487B7100000000000000000000000000000000000000000000000000000000 PUSH0 MSTORE PUSH1 0x11 PUSH1 0x4 MSTORE PUSH1 0x24 PUSH0 REVERT JUMPDEST PUSH0 PUSH2 0x412 DUP3 PUSH2 0x2BD JUMP JUMPDEST SWAP2 POP PUSH2 0x41D DUP4 PUSH2 0x2BD JUMP JUMPDEST SWAP3 POP DUP3 DUP3 ADD SWAP1 POP DUP1 DUP3 GT ISZERO PUSH2 0x435 JUMPI PUSH2 0x434 PUSH2 0x3DB JUMP JUMPDEST JUMPDEST SWAP3 SWAP2 POP POP JUMP JUMPDEST PUSH32 0x4E487B7100000000000000000000000000000000000000000000000000000000 PUSH0 MSTORE PUSH1 0x12 PUSH1 0x4 MSTORE PUSH1 0x24 PUSH0 REVERT JUMPDEST PUSH0 PUSH2 0x472 DUP3 PUSH2 0x2BD JUMP JUMPDEST SWAP2 POP PUSH2 0x47D DUP4 PUSH2 0x2BD JUMP JUMPDEST SWAP3 POP DUP3 PUSH2 0x48D JUMPI PUSH2 0x48C PUSH2 0x43B JUMP JUMPDEST JUMPDEST DUP3 DUP3 DIV SWAP1 POP SWAP3 SWAP2 POP POP JUMP JUMPDEST PUSH0 PUSH2 0x4A2 DUP3 PUSH2 0x2BD JUMP JUMPDEST SWAP2 POP PUSH2 0x4AD DUP4 PUSH2 0x2BD JUMP JUMPDEST SWAP3 POP DUP3 DUP3 SUB SWAP1 POP DUP2 DUP2 GT ISZERO PUSH2 0x4C5 JUMPI PUSH2 0x4C4 PUSH2 0x3DB JUMP JUMPDEST JUMPDEST SWAP3 SWAP2 POP POP JUMP JUMPDEST PUSH0 PUSH2 0x4D5 DUP3 PUSH2 0x2BD JUMP JUMPDEST SWAP2 POP PUSH2 0x4E0 DUP4 PUSH2 0x2BD JUMP JUMPDEST SWAP3 POP DUP3 DUP3 MUL PUSH2 0x4EE DUP2 PUSH2 0x2BD JUMP JUMPDEST SWAP2 POP DUP3 DUP3 DIV DUP5 EQ DUP4 ISZERO OR PUSH2 0x505 JUMPI PUSH2 0x504 PUSH2 0x3DB JUMP JUMPDEST JUMPDEST POP SWAP3 SWAP2 POP POP JUMP INVALID LOG2 PUSH5 0x6970667358 0x22 SLT KECCAK256 SWAPN 0x68 PUSH9 0x994461CCF7F187359E PUSH22 0x722A96354A1E79953EE6C4385537813FFD747864736F PUSH13 0x634300081E0033000000000000 "
				},
				"gasEstimates": {
					"creation": {
						"codeDepositCost": "269200",
						"executionCost": "310",
						"totalCost": "269510"
					},
					"external": {
						"add(uint256,uint256)": "infinite",
						"div(uint256,uint256)": "infinite",
						"getName()": "infinite",
						"mul(uint256,uint256)": "infinite",
						"sub(uint256,uint256)": "infinite",
						"val(uint256,uint256,uint256)": "infinite"
					},
					"internal": {
						"_getName()": "infinite"
					}
				},
				"methodIdentifiers": {
					"add(uint256,uint256)": "771602f7",
					"div(uint256,uint256)": "a391c15b",
					"getName()": "17d7de7c",
					"mul(uint256,uint256)": "c8a4ac9c",
					"sub(uint256,uint256)": "b67d77c5",
					"val(uint256,uint256,uint256)": "e87723fc"
				}
			},
			"storageLayout": {
				"storage": [],
				"types": null
			},
			"userdoc": {
				"kind": "user",
				"methods": {},
				"version": 1
			}
		}
	}
}